:020000040800F2
:10000000F81E0020E11D0008EF000008F1000008C4
:10001000F3000008F5000008F700000800000000E9
:10002000000000000000000000000000F9000008CF
:10003000FB00000800000000FD000008FF000008B1
:100040000F01000811010008130100081501000844
:100050001701000819010008391E00083D1E00089C
:10006000411E0008451E0008491E00084D1E0008DC
:100070001B0100081D0100081F01000821010008E4
:1000800023010008250100082701000829010008B4
:10009000711E00082B0100082D0100087D1E0008BC
:1000A0002F01000831010008330100083501000864
:1000B00037010008350400084304000891040008D3
:1000C00093040008950400089704000899040008A8
:1000D0009B0400081D08000899080008250900086D
:1000E0009D0400089F040008C91E0008FEE7704731
:1000F000FEE7FEE7FEE7FEE770477047704780B512
:1001000000F088FC00F09AFC00F08EFC01BD704706
:100110007047704770477047704770477047704727
:100120007047704770477047704770477047704717
:1001300070477047704780B501215FF0804000F044
:100140004FFF002800F0758101215FF0804000F032
:10015000C9FFDFF838070078401CDFF83017087057
:10016000DFF82807007864280BD3DFF82007002188
:100170000170DFF81807407890F0FF00DFF80C17E7
:100180004870DFF80C070078012815D1DFF8000768
:100190004068401CDFF8F8164860DFF8F406406855
:1001A0004FF47A71884207D3DFF8E40600214160FA
:1001B000DFF8DC0600210170DFF8D806007901289D
:1001C00026D1DFF8D0068079401CDFF8C816887188
:1001D000DFF8C006807965281AD3DFF8B806002159
:1001E0008171DFF8B006C079401CDFF8A816C8712D
:1001F000DFF8A006C079DFF89C164979884207D35A
:10020000DFF8900600210171DFF888060021C17136
:10021000DFF85C07407B00282AD0DFF85407807B9A
:10022000401CDFF84C178873DFF84407807B642894
:100230001ED3DFF83C07C07B401CDFF83417C873BF
:10024000DFF82C0700218173DFF82407C07BDFF87B
:100250002017097B88420BD3DFF8140701210174B2
:10026000DFF80C070021C173DFF804070021417398
:10027000DFF8FC06807A002810D1DFF8F406407B16
:1002800000280BD0DFF8E80600214173DFF8E00614
:1002900000218173DFF8D8060021C173DFF8D4068E
:1002A0000078012817D1DFF8CC064068401CDFF841
:1002B000C4164860DFF8BC064068C8280BD3DFF8D6
:1002C000B40601210172DFF8AC0600214160DFF8BD
:1002D000A40600210170DFF89C06407A012816D19F
:1002E000DFF89006C068401CDFF88816C860DFF8A9
:1002F00084060069DFF87C16C968884207D2DFF8F7
:10030000740601210175DFF86C060021C160DFF879
:1003100068068078012813D1DFF85C06C078401C9D
:10032000DFF85416C870DFF85006C078322807D3BB
:10033000DFF844060021C170DFF83C06002181701F
:10034000DFF82C06807C002823D1DFF82406C07C4F
:1003500000280ED1DFF81806007D002809D1DFF84B
:100360001006407D002804D1DFF80406807D0028B7
:100370000FD0DFF8FC050021C174DFF8F40500217F
:100380000175DFF8EC0500214175DFF8E405002177
:100390008175DFF8DC05807C01284AD1DFF8D005C3
:1003A000C07C401CDFF8C815C874DFF8C405C07CE9
:1003B00064283ED3DFF8B8050021C174DFF8B0052A
:1003C000007D401CDFF8A8150875DFF8A405007D46
:1003D0003C282ED3DFF8980500210175DFF8900541
:1003E000407D401CDFF888154875DFF88405407DA6
:1003F0003C281ED3DFF8780500214175DFF8700531
:10040000807D401CDFF868158875DFF86405807D05
:10041000DFF85C15497C88420BD3DFF854050021D6
:100420008175DFF84C0500218174DFF84405012156
:10043000C17501BD80B50121DFF8400500F0D0FD98
:1004400001BD80B50121DFF8440500F0C9FD002899
:100450001DD00121DFF8340500F044FEDFF830053F
:100460000068401CDFF828150860DFF824050068E4
:1004700003280CDBDFF81C0500684FF4807148404E
:10048000DFF810150860DFF808050021016001BDE4
:1004900070477047704770477047704770477047A4
:1004A000C0B2C9B288420FD1DFF8D82482F88400E4
:1004B000DFF8D024127F521CDFF8C8341A77DFF837
:1004C000C424012353770CE0DFF8B824002313770A
:1004D000DFF8B024002382F88330DFF8A82400235B
:1004E000D3747047DFF89C0490F88300CA280ED1BB
:1004F000DFF8900490F88700D12808D1DFF8800455
:100500004078002803D1DFF8780402210170704799
:1005100038B504000D00E4B2002C2BD1DFF86404E0
:1005200000210177DFF85C04007FDFF858144018E1
:1005300080F88350DFF84C04007F401CDFF844143F
:100540000877DFF854040068DFF84C144018057190
:10055000DFF844040068401CDFF83C140860DFF852
:10056000380400684FF49671884203D3DFF82804FA
:1005700000210160E4B2012C38D1DFF81C040068CE
:10058000DFF8141440180571DFF80C040068401CF3
:10059000DFF804140860DFF8000400684FF4967177
:1005A000884203D3DFF8F00300210160DFF8D403B1
:1005B000007F01281AD1DFF8CC03C07C0A2809D0BB
:1005C0000B280DD0AC2811D1AC212800C0B2FFF708
:1005D00067FF0BE00A212800C0B2FFF761FF05E0CA
:1005E0000B212800C0B2FFF75BFFFFE7E4B2022C4B
:1005F00053D1DFF8A4030068DFF89C13401805719D
:10060000DFF894030068401CDFF88C130860DFF803
:10061000880300684FF49671884203D3DFF87803AB
:1006200000210160DFF85C03C07CFF281BD1DFF8EC
:100630005403007F022830D1DFF8480302214177BC
:10064000DFF84003407F401DDFF838138877DFF87C
:10065000340380F88550DFF82C03007F401CDFF85E
:100660002413087719E0DFF81C03007F022814D157
:10067000DFF810034577DFF80C03407F401DDFF8FB
:1006800004138877DFF8FC0280F88550DFF8F40265
:10069000007F401CDFF8EC120877E4B2032C72D123
:1006A000DFF8F4020068DFF8F01240180571DFF897
:1006B000E8020068401CDFF8E0120860DFF8D802AA
:1006C00000684FF49671884203D3DFF8CC02002112
:1006D0000160DFF8B002007FDFF8A812401880F850
:1006E0008350DFF8A002007F401CDFF898120877E3
:1006F000DFF89002007FDFF88C12897F884242D1B8
:10070000DFF88002C07CFF2802D100F047F92EE01C
:10071000DFF87002007FDFF86C12401890F882005A
:1007200010F00F000F2817D1DFF85402407801288D
:100730000BD1DFF850020121C173DFF84802007CC1
:10074000401CDFF84012087401E0FFF7CBFEDFF831
:100750003402002101770AE0DFF82802FF21C1738B
:10076000DFF82002807E401CDFF818128876DFF860
:10077000140200210177DFF80C0200214177DFF835
:1007800004020021C17431BD38B504000025DFF832
:10079000F401C07C002823D1E4B22000A0280CD0B2
:1007A000B02813D0CA281AD1CA210020FFF7B0FE02
:1007B000DFF8D001AC21C1742FE0A0210020FFF7A9
:1007C000A7FEDFF8C0010A21C17426E0B021002095
:1007D000FFF79EFEDFF8AC010B21C1741DE01CE0A9
:1007E000DFF8A001407F002802D1012005000EE0C3
:1007F000DFF89001007F032802D30320050006E004
:10080000DFF88001007E002801D1022005002100D0
:10081000C9B22800C0B2FFF77BFE31BD10B500247D
:1008200040F22661584800F017FD00281ED05548B8
:1008300000785449497888420DD252480078411CCA
:10084000504A1170C0B24F494018C17F89B24E481A
:1008500000F0B6FC05E04B480021417049480021FA
:10086000017040F22661484800F08CFD40F22551AD
:10087000454800F0F1FC002807D0434800F0C5FCD3
:1008800004002000C0B2FFF77FFF10BDD81A00207F
:100890006C1A0020D01A002038B50024002540F240
:1008A0002661DFF8640100F0D7FC00282CD0DFF8C7
:1008B00054014078DFF84C118978884216D2DFF86D
:1008C00044014078DFF83C114018007D0500DFF856
:1008D00034014078401CDFF82C114870EDB229003B
:1008E00089B2DFF8240100F06BFC07E0DFF81401A7
:1008F00000214170DFF80C010021817040F2266177
:10090000DFF8040100F03EFD40F22551DFF8F80069
:1009100000F0A2FC002804D0DFF8EC0000F075FC29
:10092000040031BD38B50024002540F22661DFF80F
:10093000DC0000F091FC00280CD0EDB2290089B257
:10094000DFF8C80000F03CFC40F22661DFF8BC0094
:1009500000F018FD40F22551DFF8B00000F07CFCFB
:10096000002804D0DFF8A40000F04FFC040031BDE3
:10097000941A00203C1A00206C190020000400404A
:1009800018000020A817002000380140000800408F
:10099000F01A00200C0C01407816002000210020E5
:1009A00001221100C9B2062908D2C9B2DFF86020BD
:1009B0008A1892F875201018491CF3E7DFF85020C8
:1009C00092F87B20C0B282420FD1DFF8442001238D
:1009D0001372DFF83C20527A521CDFF834305A721E
:1009E000DFF82C20002353730AE0DFF82420FF23D4
:1009F0001372DFF81C20D27A521CDFF81430DA723E
:100A0000704700009018002000440040004800405B
:100A1000A81300200F480068002804D00D48006883
:100A2000401E0C490860704709480068002804D03F
:100A300007480068401E064908607047064800687D
:100A4000002804D004480068401E0349086070472D
:100A5000DC1A0020E41A0020E01A002070B504001F
:100A60000D000026DFF86C01844243D0B4F1804FC2
:100A700040D0DFF8640184423CD0DFF8600184425A
:100A800038D0DFF85C01844234D0DFF8580184426A
:100A900030D0DFF8540184422CD0DFF8500184427A
:100AA00028D0DFF84C01844224D0DFF8480184428A
:100AB00020D0DFF8440184421CD0DFF8400184429A
:100AC00018D0DFF83C01844214D0DFF838018442AA
:100AD00010D0DFF8340184420CD0DFF830018442BA
:100AE00008D0DFF83001844204D0E521DFF820018E
:100AF000FFF7FCFA6888002810D0688810280DD00D
:100B0000688820280AD06888402807D0688860282C
:100B100004D0E621DFF8F800FFF7E8FAE8880028BB
:100B20000ED0E8884FF48071884209D0E8884FF4ED
:100B30000071884204D0E721DFF8D400FFF7D6FA2D
:100B400020880600DFF88C00844212D0DFF89C0079
:100B500084420ED0B4F1804F0BD0DFF87C00844289
:100B600007D0DFF87800844203D0DFF874008442B5
:100B700004D14FF68F70064068880643DFF86400A2
:100B8000844208D0DFF86000844204D04FF6FF4072
:100B90000640E88806432680A888A0852888208506
:100BA000DFF8300084420FD0DFF8400084420BD0E1
:100BB000DFF85400844207D0DFF85000844203D0AD
:100BC000DFF85000844201D1287A20860120A082DB
:100BD00070BD0000002C01400004004000080040EF
:100BE000000C0040001000400014004000340140A0
:100BF000004C0140005001400054014000180040EA
:100C0000001C004000200040004001400044014022
:100C1000401C00080048014038B504000D00DFF812
:100C2000A801844244D0B4F1804F41D0DFF8A00144
:100C300084423DD0DFF89C01844239D0DFF898012E
:100C4000844235D0DFF8B801844231D0DFF8B401F6
:100C500084422DD0DFF87401844229D0DFF87C0172
:100C6000844225D0DFF87801844221D0DFF8740176
:100C700084421DD0DFF87001844219D0DFF86C0186
:100C8000844215D0DFF86801844211D0DFF8640196
:100C900084420DD0DFF86001844209D0DFF868019A
:100CA000844205D040F22731DFF85001FFF71EFAE9
:100CB000EDB2002D08D0EDB2012D05D04FF44A71F0
:100CC000DFF83801FFF712FAEDB2002D04D02088CA
:100CD00050F00100208004E020884FF6FE710840AB
:100CE000208031BD70B504000D001600DFF8D8007B
:100CF000844244D0B4F1804F41D0DFF8D400844224
:100D00003DD0DFF8D000844239D0DFF8CC008442F7
:100D100035D0DFF8EC00844231D0DFF8E8008442BF
:100D20002DD0DFF8A800844229D0DFF8B00084423B
:100D300025D0DFF8AC00844221D0DFF8A80084423F
:100D40001DD0DFF8A400844219D0DFF8A00084424F
:100D500015D0DFF89C00844211D0DFF8980084425F
:100D60000DD0DFF89400844209D0DFF89C00844263
:100D700005D040F26931DFF88400FFF7B7F94FF48E
:100D80007F40054202D1ADB2002D05D140F26A315B
:100D9000DFF86800FFF7AAF9F6B2002E08D0F6B225
:100DA000012E05D040F26B31DFF85000FFF79EF9BD
:100DB000F6B2002E03D0A0892843A08102E0A089CA
:100DC000A843A08170BD0000002C01400034014008
:100DD0000004004000080040000C0040004C0140AE
:100DE000005001400054014000180040001C004029
:100DF000002000400040014000440140401C000829
:100E000000100040001400400048014038B50400C4
:100E10000D002F48844240D0B4F1804F3DD02D4882
:100E200084423AD02C48844237D02C48844234D073
:100E3000DFF8B000844230D0DFF8AC0084422CD020
:100E40002748844229D0DFF8B000844225D0DFF85B
:100E50009C00844221D0DFF8980084421DD0DFF846
:100E60009C00844219D0DFF88C00844215D0DFF852
:100E70009000844211D0DFF8900084420DD0DFF85A
:100E80008400844209D0DFF88800844205D040F213
:100E90008251DFF87800FFF729F9EDB2002D08D074
:100EA000EDB2012D05D040F28351DFF86000FFF76D
:100EB0001DF9EDB2002D04D0208850F08000208074
:100EC00004E020884FF67F710840208031BD00008B
:100ED000002C01400004004000080040000C0040CD
:100EE0000034014000100040001400400050014058
:100EF00000540140001C0040004C0140001800401C
:100F0000002000400044014000400140401C000817
:100F10000048014038B504000D00DFF86402844247
:100F20003CD0B4F1804F39D0DFF85C02844235D038
:100F3000DFF85802844231D0DFF8540284422DD0C9
:100F4000DFF85002844229D0DFF84C02844225D0D9
:100F5000DFF83002844221D0194884421ED019485B
:100F600084421BD01848844218D01848844215D0B7
:100F70001748844212D0174884420FD01648844242
:100F80000CD01648844209D0DFF81002844205D004
:100F900040F62921DFF8E401FFF7A8F84FF461409B
:100FA000054202D1ADB2002D05D140F62A21DFF86D
:100FB000CC01FFF79BF8ADB2E843208231BD0000C1
:100FC000004C014000500140005401400018004016
:100FD000001C00400020004000400140004401404F
:100FE0002DE9F04104000D00002600275FF0000805
:100FF000DFF88C01844241D0B4F1804F3ED0DFF85D
:10100000880184423AD0DFF88401844236D0DFF888
:101010008001844232D0DFF87C0184422ED0DFF898
:10102000780184422AD0DFF85C01844226D0DFF8C0
:101030007001844222D0DFF86C0184421ED0DFF8B8
:10104000680184421AD0DFF86401844216D0DFF8C8
:101050006001844212D0DFF85C0184420ED0DFF8D8
:10106000580184420AD05548844207D04B488442F4
:1010700004D040F64B214148FFF738F8ADB2012DBE
:1010800019D0ADB2022D16D0ADB2042D13D0ADB231
:10109000082D10D0ADB2102D0DD0ADB2202D0AD03C
:1010A000ADB2402D07D0ADB2802D04D040F64C211A
:1010B0003248FFF71BF8208A28400700A089284003
:1010C0008046BFB2002F07D01FFA88F8B8F1000F92
:1010D00002D00120060001E0002006003000C0B26E
:1010E000BDE8F08138B504000D002548844234D0B5
:1010F000B4F1804F31D0244884422ED0234884421A
:101100002BD02348844228D02248844225D022482C
:10111000844222D01B4884421FD0214884421CD0E4
:101120002048844219D02048844216D01F48844267
:1011300013D01F48844210D01E4884420DD01E4850
:1011400084420AD01D48844207D01448844204D007
:1011500040F675210948FEF7C9FF4FF47F4005426C
:1011600002D1ADB2002D04D140F676210348FEF73E
:10117000BDFFADB2E843208231BD0000401C000835
:10118000002C0140003401400004004000080040F1
:10119000000C0040001000400014004000480140D6
:1011A000004C014000500140005401400018004034
:1011B000001C00400020004000400140004401406D
:1011C00038B504000D001E48844210D01D488442EA
:1011D0000DD01D4884420AD01C48844207D01D48C7
:1011E000844204D04FF414711948FEF77FFF4FF486
:1011F0000070ADB2854204D340F251211448FEF78D
:1012000075FFE805C00DA08031BD10B504000C4885
:10121000844210D00B4884420DD00B4884420AD03F
:101220000A48844207D00B48844204D040F261212E
:101230000748FEF75BFFA088C005C00D10BD000089
:10124000003801400044004000480040004C00408D
:101250007C1B0008005000402DE9F84304000D00FD
:10126000002600275FF000085FF000096D48844207
:1012700010D06D4884420DD06C4884420AD06C482E
:10128000844207D06C48844204D040F2BE316948A1
:10129000FEF72CFFADB2282D31D040F22770ADB251
:1012A00085422CD040F22660ADB2854227D040F274
:1012B0002550ADB2854222D040F22440ADB28542E5
:1012C0001DD040F64600ADB2854218D040F66A10F7
:1012D000ADB2854213D04FF45870ADB285420ED0F6
:1012E0004FF41870ADB2854209D04FF4B070ADB272
:1012F000854204D040F2BF314E48FEF7F7FE40F67B
:101300006A10ADB285420DD1464884420AD04648A3
:10131000844207D04548844204D040F2C331454856
:10132000FEF7E4FE2800C0B24009C0B28046ADB26C
:1013300015F01F000700012010FA07F7B8F1010FA0
:1013400002D1A089074007E0B8F1020F02D1208A3C
:10135000074001E0A08A0740ADB2280A80B206002B
:10136000012010FA06F620880640002F04D0002E37
:1013700002D00120814601E0002081464846C0B2EB
:10138000BDE8F283F8B504000D00002600272548CB
:10139000844210D0244884420DD0244884420AD08C
:1013A0002348844207D02448844204D040F20741B5
:1013B0002048FEF79BFE40F22660ADB2854213D076
:1013C00040F22550ADB285420ED040F64600ADB297
:1013D000854209D040F66A10ADB2854204D04FF480
:1013E00081611448FEF782FE40F66A10ADB2854274
:1013F0000DD10C4884420AD00B48844207D00B48D8
:10140000844204D040F20C410A48FEF76FFEADB2B0
:10141000280A06000120B0400700BFB2F843208030
:10142000F1BD000000380140004400400048004089
:10143000004C00407C1B0008005000402DE9F84F94
:1014400004000D00002600275FF000085FF000098F
:101450005FF0000A5FF0000BDFF8980184421CD0B7
:10146000DFF89401844218D0DFF89001844214D050
:10147000DFF88C01844210D0DFF8880184420CD060
:10148000DFF88401844208D0DFF88001844204D070
:10149000B121DFF87C01FEF729FEE878002819D099
:1014A000E878042816D0E878282813D0E878482867
:1014B00010D0E87814280DD0E87810280AD0E87801
:1014C0001C2807D0E878182804D0B221DFF84001A2
:1014D000FEF70CFE2888002804D1B321DFF8300184
:1014E000FEF704FEE87810F00F000600E878C0066A
:1014F0000FD5A87801280AD0A878022807D0A878A4
:10150000032804D0BA21DFF80801FEF7EFFDA87820
:1015100006432878000631D02068824600208046A5
:10152000B8F1080F28D2012010FA08F08146288867
:1015300019EA000007004F451BD15FEA8800814689
:101540000F2010FA09F083463AEA0B0A16FA09F05E
:1015500050EA0A0AE878282804D1012010FA08F095
:10156000606106E0E878482803D1012010FA08F00D
:10157000206118F10108D3E7C4F800A028884FF4CF
:101580008071884233D36068824600208046B8F17B
:10159000080F2AD2012018F10801884081462888C6
:1015A00019EA000007004F451CD15FEA8800814618
:1015B0000F2010FA09F083463AEA0B0A16FA09F0EE
:1015C00050EA0A0AE878282804D1012018F1080115
:1015D00088406061E878482804D1012018F10801AA
:1015E0008840206118F10108D1E7C4F804A0BDE8E3
:1015F000F18F000000080140000C01400010014084
:101600000014014000180140001C0140002001406E
:10161000181B000830B40021002200230024DFF84A
:1016200090512D6815F00C0529000D00002D04D0F7
:10163000042D06D0082D08D02EE0DFF87C5105607F
:101640002DE0DFF87851056029E0DFF864512D685E
:1016500015F470152A00DFF858512D6815F48035FF
:101660002B00920C921C002B05D1DFF8545105FB86
:1016700002F505600FE0DFF838512D68AD0305D5A0
:10168000DFF8345105FB02F5056004E0DFF82C516A
:1016900005FB02F5056002E0DFF81C510560DFF88C
:1016A00010512D6815F0F00529000909DFF81451D3
:1016B0004D5D2C000568E5404560DFF8F4502D686D
:1016C00015F4E0652900090ADFF8F8504D5D2C009B
:1016D0004568E5408560DFF8D8502D6815F4605501
:1016E0002900C90ADFF8DC504D5D2C004568E54053
:1016F000C560DFF8BC502D6815F440452900890B02
:10170000DFF8C4504D5D2C00C568B5FBF4F50561EC
:1017100030BC704738B504000D002C48044201D19C
:10172000002C04D140F24E412248FEF7DFFCEDB21E
:10173000002D07D0EDB2012D04D040F24F411D48DD
:10174000FEF7D4FCEDB2002D05D0214800682043FF
:101750001F49086004E01E480068A0431C49086057
:1017600031BD38B504000D001A48044201D1002CE7
:1017700004D140F26D410F48FEF7B8FCEDB2002DE8
:1017800007D0EDB2012D04D040F26E410948FEF7BA
:10179000ADFCEDB2002D05D00F48006820430E4986
:1017A000086004E00C480068A0430B49086031BDA4
:1017B00004100240E01B000800127A000024F4002C
:1017C00000093D0000000020100000200200C0FFC2
:1017D00018100240003601811C10024080B54C48B0
:1017E000006850F001004A4908604A4800684A49C8
:1017F000084048490860464800684849084044494C
:1018000008604348006830F480204149086041483E
:10181000006830F4FE003F49086041485FF41F0152
:10182000016000F001F801BD80B500F001F801BDD4
:1018300082B000200190002000903548006850F4EC
:101840008030334908603248006810F4003000905E
:101850000198401C01900098002803D10198B0F530
:10186000A06FF0D12A480068800302D501200090C3
:1018700001E0002000900098012847D12948006825
:1018800050F0100027490860264800688008800052
:10189000244908602348006850F00200214908608C
:1018A0001C481C49096801601A481A490968016006
:1018B0001848006850F480601649086015480068B0
:1018C00030F47C10134908601248006850F4881006
:1018D000104908600E48006850F080700C4908609C
:1018E0000B4800688001FBD50A480068800880002A
:1018F000084908600748006850F002000549086080
:101900000448006810F00C000828F9D102B07047B4
:1019100000100240041002400000FFF8FFFFF6FE36
:10192000081002400020024080B500F037F8464819
:10193000FFF770FE00F04FF800F003F800F03AF8FF
:1019400001BD10B5414800684FF49661B0FBF1F05D
:10195000401E04003E4841F61F4181803C4842F24F
:101960000F7101803A480021C1803948002141802F
:1019700037493848FFF772F801213648FFF746FA31
:1019800001213448FFF748F901213248FFF7C2FA34
:10199000012201212F48FFF7A5F910BD80B5FFF7FF
:1019A0001DFF01213D20FFF7B5FE01210420FFF7B7
:1019B000D8FE01BD80B528481E21017026480021AF
:1019C000417025480021817023480121C1702248BF
:1019D00000F04CF801BD80B52048012101801F486E
:1019E0002821C1701D48022181701C491C48FFF745
:1019F00025FD1A480221018018482821C170174886
:101A00000221817015491648FFF718FD13484FF45D
:101A10004871018011481021C17010480321817064
:101A20000E491048FFF70AFD0C4840F2FF110180F3
:101A30000A481021C17009480321817007490A48EA
:101A4000FFF7FCFC01BD0000B01A002014000020CC
:101A5000C41A002000080040E81A0020EC1A0020F8
:101A600000080140000C014000100140F8B50400DE
:101A7000002500260F27E078002806D0E07801280E
:101A800003D074211F48FEF731FB6078102803D380
:101A900075211C48FEF72AFBA078102803D3762175
:101AA0001848FEF723FBE078002820D0164800688D
:101AB00010F4E060D0F5E060000A0500D5F1040004
:101AC0000600EF406078B0400500A078384005433C
:101AD0002D0120780D494554207840110C490122F0
:101AE000237813F01F039A4041F8202009E0207862
:101AF000401108490122237813F01F039A4041F84E
:101B00002020F1BDA01C00080CED00E000E400E086
:101B100000E100E080E100E0433A5C5573657273D8
:101B20005C5454545C4465736B746F705C7A7A2EA9
:101B300053544446575C30302E53747564795C4C72
:101B400069627261726965735C53544D3332463118
:101B500030785F5374645065726970685F4472696D
:101B60007665725C7372635C73746D3332663130A8
:101B7000785F6770696F2E6300000000433A5C5520
:101B8000736572735C5454545C4465736B746F700A
:101B90005C7A7A2E53544446575C30302E53747519
:101BA00064795C4C69627261726965735C53544D0F
:101BB0003332463130785F537464506572697068AF
:101BC0005F4472697665725C7372635C73746D33C3
:101BD00032663130785F75736172742E6300000075
:101BE000433A5C55736572735C5454545C4465733A
:101BF0006B746F705C7A7A2E53544446575C303065
:101C00002E53747564795C4C696272617269657394
:101C10005C53544D3332463130785F5374645065B1
:101C2000726970685F4472697665725C7372635C36
:101C300073746D3332663130785F7263632E630084
:101C4000433A5C55736572735C5454545C446573D9
:101C50006B746F705C7A7A2E53544446575C303004
:101C60002E53747564795C4C696272617269657334
:101C70005C53544D3332463130785F537464506551
:101C8000726970685F4472697665725C7372635CD6
:101C900073746D3332663130785F74696D2E630012
:101CA000433A5C55736572735C5454545C44657379
:101CB0006B746F705C7A7A2E53544446575C3030A4
:101CC0002E53747564795C4C6962726172696573D4
:101CD0005C53544D3332463130785F5374645065F1
:101CE000726970685F4472697665725C7372635C76
:101CF0006D6973632E63000010B450F8041B81B14A
:101D000002681218001D50F8043BDC0744BFA9F11B
:101D10000104E31852F8044B43F8044B091FF9D1AE
:101D2000EBE710BC704750F8041B61B150F8042B6E
:101D3000D30744BFA9F101039A18002342F8043BDA
:101D4000091FFAD1EFE7704710B5084979441C31F3
:101D5000074C7C441A34A14206D0081D0A68511869
:101D600088470146A142F8D110BD00BF080000001D
:101D700028000000B3FFFFFFDC1A0000180000205D
:101D80000000000075FFFFFF180000004001000088
:101D9000000000200000000000F009F8002801D039
:101DA000FFF7D2FF002000F004F800F006F8012051
:101DB000704780B5FFF7B8FDFEE700F001B80000FE
:101DC0000746384600F002F8FBE7000080B5C04641
:101DD000C046024A11001820ABBEFBE726000200F5
:101DE0000148804701480047DD170008F11D000841
:101DF000C046C046C046C046FFF7CEFFFEF777B9E3
:101E0000FEF776B9FEF775B9FEF774B9FEF773B948
:101E1000FEF772B9FEF771B9FEF770B9FEF76FB948
:101E2000FEF775B9FEF774B9FEF773B9FEF772B92C
:101E3000FEF771B9FEF770B9FFF7FEBFFFF7FEBFFF
:101E4000FFF7FEBFFFF7FEBFFFF7FEBFFFF7FEBFC6
:101E5000FEF763B9FEF762B9FEF761B9FEF760B944
:101E6000FEF75FB9FEF75EB9FEF75DB9FEF75CB944
:101E7000FFF7FEBFFEF759B9FEF758B9FFF7FEBFEF
:101E8000FEF755B9FEF754B9FEF753B9FEF752B94C
:101E9000FEF751B9FEF7CEBAFEF7D3BAFEF7F8BA9D
:101EA000FEF7F7BAFEF7F6BAFEF7F5BAFEF7F4BAA0
:101EB000FEF7F3BAFEF7B2BCFEF7EEBCFEF732BD9A
:101EC000FEF7ECBAFEF7EBBAFFF7FEBF000000002A
:101ED00001020304010203040607080902040608BC
:041EE00000A24A040E
:0400000508001DF1E1
:00000001FF
