:020000040800F2
:10000000881F0020593D0008EF000008F10000089B
:10001000F3000008F5000008F700000800000000E9
:10002000000000000000000000000000F9000008CF
:10003000FB00000800000000FD000008FF000008B1
:100040000F01000811010008130100081501000844
:10005000170100081901000889050008B53D0008CE
:10006000B93D0008BD3D0008C13D0008C53D000880
:100070001B0100081D0100081F01000821010008E4
:1000800023010008250100082701000829010008B4
:10009000E93D00082B0100082D010008F53D00088E
:1000A0002F01000831010008330100083501000864
:1000B00037010008290500084D050008C1050008A2
:1000C000C3050008C5050008C7050008C9050008E4
:1000D000CB0500084D090008D5090008690A000889
:1000E000CD050008CF050008413E0008FEE7704737
:1000F000FEE7FEE7FEE7FEE770477047704780B512
:1001000000F044FD00F056FD00F04AFD01BD7047CF
:100110007047704770477047704770477047704727
:100120007047704770477047704770477047704717
:1001300070477047704780B501215FF0804001F043
:10014000E3F8002800F0EF8101215FF0804001F02A
:100150005DF9DFF868080078401CDFF86018087067
:10016000DFF85808007864280BD3DFF85008002126
:100170000170DFF84808407890F0FF00DFF83C1885
:100180004870DFF83C080078012815D1DFF8300806
:100190004068401CDFF828184860DFF824084068F1
:1001A0004FF47A71884207D3DFF8140800214160C8
:1001B000DFF80C0800210170DFF8080840780028FB
:1001C00002D0012811D068E00121DFF8FC0701F01E
:1001D00066FADFF8F81708710221DFF8EC0701F082
:1001E0005EFADFF8E817487157E00121DFF8D80719
:1001F00001F055FADFF8D4170871DFF8D40740781A
:10020000DFF8C817097988423ED0DFF8C0070079C7
:10021000002831D1DFF8B807407801282CD1DFF869
:10022000B007C07801280BD3DFF8A407C0780F28E7
:1002300006D2DFF89C07C078401EDFF89417C8701C
:10024000DFF88C07C078002804D10121002001F0DC
:1002500020FD11E0DFF87807007900280CD1DFF8E5
:1002600070074079002807D00121002001F011FD1E
:10027000DFF85C07012101710121DFF84C0701F073
:100280000EFADFF84C1748700221DFF83C0701F046
:1002900006FADFF838174871FFE7DFF8340700790E
:1002A00001282FD1DFF828078079401CDFF82017BC
:1002B0008871DFF81C078079652823D3DFF81007E1
:1002C00000218171DFF80807C079401CDFF80017B2
:1002D000C871DFF8FC06C079DFF8F4164979884266
:1002E00010D3DFF8EC0600210171DFF8E406C078D6
:1002F000002803D00121012001F0CBFCDFF8D0065B
:100300000021C171DFF8C406407B00282AD0DFF845
:10031000BC06807B401CDFF8B4168873DFF8AC069F
:10032000807B64281ED3DFF8A406C07B401CDFF866
:100330009C16C873DFF8940600218173DFF88C06E1
:10034000C07BDFF88816097B88420BD3DFF87C0678
:1003500001210174DFF874060021C173DFF86C0617
:1003600000214173DFF86406807A002810D1DFF89D
:100370005C06407B00280BD0DFF85006002141735B
:10038000DFF8480600218173DFF840060021C173C1
:10039000DFF8D0060078012817D1DFF8C8064068DA
:1003A000401CDFF8C0164860DFF8B8064068C8286F
:1003B0000BD3DFF8B00601210172DFF8A806002197
:1003C0004160DFF8A00600210170DFF89806407A4E
:1003D000012816D1DFF88C06C068401CDFF88416AF
:1003E000C860DFF880060069DFF87816C9688842BF
:1003F00007D2DFF8700601210175DFF868060021D9
:10040000C160DFF8B0068078012813D1DFF8A406B8
:10041000C078401CDFF89C16C870DFF89806C078DA
:10042000322807D3DFF88C060021C170DFF884067C
:1004300000218170DFF89405807C002823D1DFF84B
:100440008C05C07C00280ED1DFF88005007D0028D7
:1004500009D1DFF87805407D002804D1DFF86C056C
:10046000807D00280FD0DFF864050021C174DFF81B
:100470005C0500210175DFF8540500214175DFF8A6
:100480004C0500218175DFF84405807C01284AD1A4
:10049000DFF83805C07C401CDFF83015C874DFF881
:1004A0002C05C07C64283ED3DFF820050021C174F0
:1004B000DFF81805007D401CDFF810150875DFF81F
:1004C0000C05007D3C282ED3DFF8000500210175C6
:1004D000DFF8F804407D401CDFF8F0144875DFF8C1
:1004E000EC04407D3C281ED3DFF8E0040021417578
:1004F000DFF8D804807D401CDFF8D0148875DFF861
:10050000CC04807DDFF8C414497C88420BD3DFF82B
:10051000BC0400218175DFF8B40400218174DFF888
:10052000AC040121C17501BD80B50121DFF888054A
:1005300000F0EAFE002808D00121DFF8800500F075
:1005400065FF01F0CBFD01F0BFFD01BD80B50121CC
:10055000DFF8680500F0D8FE002806D00121DFF89A
:100560005C0500F053FF01F0A5FD0221DFF84C050A
:1005700000F0CAFE002806D00221DFF8400500F096
:1005800045FF01F08DFD01BD80B5012001F029FE80
:10059000002814D0012001F074FEDFF83005006857
:1005A000002806D001F086FD4FF47A7000F0DFFAE3
:1005B00005E001F075FD4FF47A7000F0D8FA01BD46
:1005C0007047704770477047704770477047704773
:1005D000C0B2C9B288420FD1DFF8E82482F88400A3
:1005E000DFF8E024127F521CDFF8D8341A77DFF8E6
:1005F000D424012353770CE0DFF8C82400231377B9
:10060000DFF8C024002382F88330DFF8B824002309
:10061000D3747047DFF8AC0490F88300CA280ED179
:10062000DFF8A00490F88700D12808D1DFF8900403
:100630004078002803D1DFF8880402210170704758
:1006400038B504000D00E4B2002C2BD1DFF874049F
:1006500000210177DFF86C04007FDFF86814401890
:1006600080F88350DFF85C04007F401CDFF85414EE
:100670000877DFF85C040068DFF85414401805714F
:10068000DFF84C040068401CDFF844140860DFF811
:10069000400400684FF49671884203D3DFF83004B9
:1006A00000210160E4B2012C38D1DFF82404006895
:1006B000DFF81C1440180571DFF814040068401CB2
:1006C000DFF80C140860DFF8080400684FF4967136
:1006D000884203D3DFF8F80300210160DFF8E40368
:1006E000007F01281AD1DFF8DC03C07C0A2809D07A
:1006F0000B280DD0AC2811D1AC212800C0B2FFF7D7
:1007000067FF0BE00A212800C0B2FFF761FF05E098
:100710000B212800C0B2FFF75BFFFFE7E4B2022C19
:1007200053D1DFF8AC030068DFF8A413401805715B
:10073000DFF89C030068401CDFF894130860DFF8C2
:10074000900300684FF49671884203D3DFF880036A
:1007500000210160DFF86C03C07CFF281BD1DFF8AB
:100760006403007F022830D1DFF85803022141776B
:10077000DFF85003407F401DDFF848138877DFF82B
:10078000440380F88550DFF83C03007F401CDFF80D
:100790003413087719E0DFF82C03007F022814D106
:1007A000DFF820034577DFF81C03407F401DDFF8AA
:1007B00014138877DFF80C0380F88550DFF8040302
:1007C000007F401CDFF8FC120877E4B2032C72D1E2
:1007D000DFF8FC020068DFF8F81240180571DFF856
:1007E000F0020068401CDFF8E8120860DFF8E00261
:1007F00000684FF49671884203D3DFF8D4020021D9
:100800000160DFF8C002007FDFF8B812401880F8FE
:100810008350DFF8B002007F401CDFF8A812087791
:10082000DFF8A002007FDFF89C12897F884242D166
:10083000DFF89002C07CFF2802D100F04BF92EE0D7
:10084000DFF88002007FDFF87C12401890F8820009
:1008500010F00F000F2817D1DFF86402407801284C
:100860000BD1DFF860020121C173DFF85802007C70
:10087000401CDFF85012087401E0FFF7CBFEDFF8F0
:100880004402002101770AE0DFF83802FF21C1733A
:10089000DFF83002807E401CDFF828128876DFF80F
:1008A000240200210177DFF81C0200214177DFF8E4
:1008B00014020021C17431BD38B504000025DFF8F1
:1008C0000402C07C002823D1E4B22000A0280CD070
:1008D000B02813D0CA281AD1CA210020FFF7B0FED1
:1008E000DFF8E001AC21C1742FE0A0210020FFF768
:1008F000A7FEDFF8D0010A21C17426E0B021002054
:10090000FFF79EFEDFF8BC010B21C1741DE01CE067
:10091000DFF8B001407F002802D1012005000EE081
:10092000DFF8A001007F032802D30320050006E0C2
:10093000DFF89001007E002801D10220050021008F
:10094000C9B22800C0B2FFF77BFE31BD10B500244C
:1009500040F226615C4801F0D1FE00281ED05948C3
:1009600000785849497888420DD256480078411C91
:10097000544A1170C0B253494018C17F89B25248DD
:1009800001F06EFE05E04F48002141704D48002106
:10099000017040F226614C4801F046FF40F22551BB
:1009A000494801F0ABFE002807D0474801F07DFE22
:1009B00004002000C0B2FFF77FFF10BD581B0020CD
:1009C000981A00205C1B002000100140C01A002073
:1009D000401B002038B50024002540F22661DFF8D6
:1009E000600101F08BFE00282CD0DFF85001407828
:1009F000DFF848118978884216D2DFF84001407844
:100A0000DFF838114018007D0500DFF8300140782C
:100A1000401CDFF828114870EDB2290089B2DFF8D8
:100A2000200101F01DFE07E0DFF8100100214170F8
:100A3000DFF808010021817040F22661DFF8000133
:100A400001F0F2FE40F22551DFF8F40001F056FE0D
:100A5000002804D0DFF8E80001F027FE040031BDD3
:100A6000000000003C1A002038B50024002540F2A8
:100A70002661DFF8D00001F041FE00280CD0EDB275
:100A8000290089B2DFF8BC0001F0EAFD40F22661DE
:100A9000DFF8B00001F0C8FE40F22551DFF8A400F5
:100AA00001F02CFE002804D0DFF8980001F0FDFDD5
:100AB000040031BD6C190020000400400008004013
:100AC00018000020A817002000380140781B0020E3
:100AD000781600200021002001221100C9B2062949
:100AE00008D2C9B2DFF860208A1892F87520101871
:100AF000491CF3E7DFF8502092F87B20C0B2824215
:100B00000FD1DFF8442001231372DFF83C20527A22
:100B1000521CDFF834305A72DFF82C200023537354
:100B20000AE0DFF82420FF231372DFF81C20D27ABA
:100B3000521CDFF81430DA72704700009018002061
:100B40000044004000480040A813002001B40022E7
:100B50001000BDF80020904207D2002211000829A1
:100B600001D2491CFBE7401CF3E701B0704711B507
:100B700081B000200400BDF80400844205D24FF487
:100B80007A70FFF7E3FF641CF5E713BD0F480068B8
:100B9000002804D00D480068401E0C4908607047CA
:100BA00009480068002804D007480068401E06492C
:100BB0000860704706480068002804D004480068B0
:100BC000401E034908607047601B0020681B00201E
:100BD000641B002070B504000D000026DFF87804C7
:100BE000844243D0B4F1804F40D0DFF87004844297
:100BF0003CD0DFF86C04844238D0DFF868048442CB
:100C000034D0DFF86404844230D0DFF860048442DA
:100C10002CD0DFF85C04844228D0DFF858048442EA
:100C200024D0DFF85404844220D0DFF850048442FA
:100C30001CD0DFF84C04844218D0DFF8480484420A
:100C400014D0DFF84404844210D0DFF8400484421A
:100C50000CD0DFF83C04844208D0DFF84004844222
:100C600004D0E521DFF82C04FFF740FA688800285B
:100C700010D0688810280DD0688820280AD068888D
:100C8000402807D06888602804D0E621DFF80404F3
:100C9000FFF72CFAE88800280ED0E8884FF480711E
:100CA000884209D0E8884FF40071884204D0E721D7
:100CB000DFF8E003FFF71AFA20880600DFF8980350
:100CC000844212D0DFF8A80384420ED0B4F1804FE2
:100CD0000BD0DFF88803844207D0DFF88403844216
:100CE00003D0DFF88003844204D14FF68F700640B2
:100CF00068880643DFF87003844208D0DFF86C038D
:100D0000844204D04FF6FF400640E8880643268020
:100D1000A888A08528882085DFF83C0384420FD06E
:100D2000DFF84C0384420BD0DFF86003844207D025
:100D3000DFF85C03844203D0DFF86003844201D112
:100D4000287A20860120A08270BD2DE9F0410400A0
:100D50000D00002600275FF00008DFF8FC02844247
:100D60003CD0B4F1804F39D0DFF8F002844235D066
:100D7000DFF8EC02844231D0DFF8E80284422DD063
:100D8000DFF8EC02844229D0DFF8E802844225D063
:100D9000DFF8E402844221D0DFF8E00284421DD073
:100DA000DFF8DC02844219D0DFF8D802844215D083
:100DB000DFF8D402844211D0DFF8D00284420DD093
:100DC000DFF8CC02844209D0DFF8CC02844205D09F
:100DD0004FF48D71DFF8BC02FFF788F928880028EE
:100DE00014D02888102811D0288820280ED02888D0
:100DF00030280BD02888602808D02888702805D093
:100E000040F21B11DFF88C02FFF770F968880028A8
:100E100008D06888012805D04FF48E71DFF874027D
:100E2000FFF764F92889002808D02889022805D00E
:100E300040F21D11DFF85C02FFF758F9208C4FF6E5
:100E4000FE7108402084208C0700A0888046208BFB
:100E500006004FF68F7006404FF6FC70064028885B
:100E600006434FF6FD70074028890743688807430B
:100E7000DFF8E40184420FD0DFF8F40184420BD0A4
:100E8000DFF80802844207D0DFF80402844203D06E
:100E9000DFF8040284424BD1A888002808D0A88833
:100EA000042805D04FF49D71DFF8E801FFF71EF923
:100EB0006889002808D06889082805D040F23B11CD
:100EC000DFF8D001FFF712F9E8894FF4007188428A
:100ED00008D0E889002805D04FF49E71DFF8B401EE
:100EE000FFF704F9A8894FF48071884208D0A889D7
:100EF000002805D040F23D11DFF89801FFF7F6F821
:100F00004FF6F7700740688907434FF6FB700740BC
:100F1000A88807434FF6FF6010EA08084FF6FF5015
:100F200010EA0808A88950EA0808E88950EA080881
:100F3000A4F804802683E888A0862784BDE8F08191
:100F40002DE9F04104000D00002600275FF00008A5
:100F50004148844213D0B4F1804F10D03F488442BE
:100F60000DD03F4884420AD03E48844207D04048D2
:100F7000844204D040F20E214648FFF7B7F8288893
:100F8000002813D02888102810D0288820280DD0B9
:100F9000288830280AD02888602807D02888702818
:100FA00004D040F20F213B48FFF7A0F868880028E2
:100FB00007D06888012804D04FF404713548FFF742
:100FC00095F82889002807D02889022804D040F203
:100FD00011213048FFF78AF8208C4EF6FF71084047
:100FE0002084208C0700A0888046A08B060048F64D
:100FF000FF7006404FF6FF400640288856EA00265C
:101000004DF6FF700740288957EA0037688857EA8D
:1010100000371148844202D01548844213D1A88970
:101020004FF48071884207D0A889002804D040F28C
:101030002E211848FFF75AF84BF6FF7010EA0808FF
:10104000A88958EA8018A4F80480A683E888A4F840
:1010500040002784BDE8F081002C014000040040DE
:1010600000080040000C0040001000400014004048
:1010700000340140004C0140005001400054014048
:1010800000180040001C00400020004000400140CB
:1010900000440140883B00080048014000480140EE
:1010A00038B504000D00DFF81C02844244D0B4F1CE
:1010B000804F41D0DFF8140284423DD0DFF81002A7
:1010C000844239D0DFF80C02844235D0DFF82C029C
:1010D000844231D0DFF8280284422DD0DFF8E801C5
:1010E000844229D0DFF8F001844225D0DFF8EC01FA
:1010F000844221D0DFF8E80184421DD0DFF8E4010A
:10110000844219D0DFF8E001844215D0DFF8DC0119
:10111000844211D0DFF8D80184420DD0DFF8D40129
:10112000844209D0DFF8DC01844205D040F2273147
:10113000DFF8C401FEF7DAFFEDB2002D08D0EDB202
:10114000012D05D04FF44A71DFF8AC01FEF7CEFF58
:10115000EDB2002D04D0208850F00100208004E082
:1011600020884FF6FE710840208031BD38B504005C
:101170000D00DFF85001844215D0DFF84C018442A5
:1011800011D0DFF86C0184420DD0DFF86801844291
:1011900009D0DFF87001844205D04FF45071DFF8B8
:1011A0005801FEF7A3FFEDB2002D08D0EDB2012DDE
:1011B00005D040F24131DFF84001FEF797FFEDB274
:1011C000002D06D0B4F8440050F40040A4F84400C8
:1011D00005E0B4F844004004400CA4F8440031BDDC
:1011E00070B504000D001600DFF8D800844244D02A
:1011F000B4F1804F41D0DFF8D40084423DD0DFF815
:10120000D000844239D0DFF8CC00844235D0DFF8FA
:10121000EC00844231D0DFF8E80084422DD0DFF8C2
:10122000A800844229D0DFF8B000844225D0DFF83E
:10123000AC00844221D0DFF8A80084421DD0DFF842
:10124000A400844219D0DFF8A000844215D0DFF852
:101250009C00844211D0DFF8980084420DD0DFF862
:101260009400844209D0DFF89C00844205D040F20B
:101270006931DFF88400FEF739FF4FF47F40054203
:1012800002D1ADB2002D05D140F26A31DFF868001D
:10129000FEF72CFFF6B2002E08D0F6B2012E05D0D4
:1012A00040F26B31DFF85000FEF720FFF6B2002E5F
:1012B00003D0A0892843A08102E0A089A843A0818F
:1012C00070BD0000002C01400034014000040040CB
:1012D00000080040000C0040004C0140005001405C
:1012E0000054014000180040001C00400020004055
:1012F0000040014000440140883B000800100040CD
:1013000000140040004801402DE9F04104000D00A8
:10131000002600275FF00008DFF88C01844241D0EE
:10132000B4F1804F3ED0DFF8880184423AD0DFF834
:101330008401844236D0DFF88001844232D0DFF865
:101340007C0184422ED0DFF8780184422AD0DFF875
:101350005C01844226D0DFF87001844222D0DFF89D
:101360006C0184421ED0DFF8680184421AD0DFF895
:101370006401844216D0DFF86001844212D0DFF8A5
:101380005C0184420ED0DFF8580184420AD05548EF
:10139000844207D04B48844204D040F64B21414858
:1013A000FEF7A4FEADB2012D19D0ADB2022D16D0BC
:1013B000ADB2042D13D0ADB2082D10D0ADB2102DAA
:1013C0000DD0ADB2202D0AD0ADB2402D07D0ADB2B8
:1013D000802D04D040F64C213248FEF787FE208A4B
:1013E00028400700A08928408046BFB2002F07D0C0
:1013F0001FFA88F8B8F1000F02D00120060001E0C2
:10140000002006003000C0B2BDE8F08138B504000D
:101410000D002548844234D0B4F1804F31D02448A7
:1014200084422ED0234884422BD02348844228D0A3
:101430002248844225D02248844222D01B4884423C
:101440001FD0214884421CD02048844219D0204813
:10145000844216D01F48844213D01F48844210D0C3
:101460001E4884420DD01E4884420AD01D48844242
:1014700007D01448844204D040F675210948FEF78D
:1014800035FE4FF47F40054202D1ADB2002D04D1AC
:1014900040F676210348FEF729FEADB2E8432082EC
:1014A00031BD0000883B0008002C014000340140A1
:1014B0000004004000080040000C00400010004004
:1014C0000014004000480140004C01400050014021
:1014D0000054014000180040001C00400020004063
:1014E00000400140004401402DE9F84F04000D0088
:1014F000002600275FF000085FF000095FF0000A97
:101500005FF0000BDFF8300384421CD0DFF82C03BF
:10151000844218D0DFF82803844214D0DFF8240373
:10152000844210D0DFF8200384420CD0DFF81C0383
:10153000844208D0DFF81803844204D0B121DFF8D8
:101540000404FEF7D3FDE878002819D0E8780428D1
:1015500016D0E878282813D0E878482810D0E87802
:1015600014280DD0E87810280AD0E8781C2807D075
:10157000E878182804D0B221DFF8C803FEF7B6FDDA
:101580002888002804D1B321DFF8B803FEF7AEFDA8
:10159000E87810F00F000600E878C0060FD5A878AC
:1015A00001280AD0A878022807D0A878032804D0F8
:1015B000BA21DFF89003FEF799FDA8780643287852
:1015C000000631D02068824600208046B8F1080F1E
:1015D00028D2012010FA08F08146288819EA000074
:1015E00007004F451BD15FEA880081460F2010FAA3
:1015F00009F083463AEA0B0A16FA09F050EA0A0A99
:10160000E878282804D1012010FA08F0606106E08B
:10161000E878482803D1012010FA08F0206118F179
:101620000108D3E7C4F800A028884FF480718842ED
:1016300033D36068824600208046B8F1080F2AD272
:10164000012018F1080188408146288819EA000025
:1016500007004F451CD15FEA880081460F2010FA31
:1016600009F083463AEA0B0A16FA09F050EA0A0A28
:10167000E878282804D1012018F108018840606129
:10168000E878482804D1012018F108018840206139
:1016900018F10108D1E7C4F804A0BDE8F18F70B5D6
:1016A00004000D000026DFF8900184421DD0DFF811
:1016B0008C01844219D0DFF88801844215D0DFF80C
:1016C0008401844211D0DFF8800184420DD0DFF81C
:1016D0007C01844209D0DFF87801844205D040F2D1
:1016E0001D11DFF86002FEF701FDADB2012D3CD007
:1016F000ADB2022D39D0ADB2042D36D0ADB2082D29
:1017000033D0ADB2102D30D0ADB2202D2DD0ADB232
:10171000402D2AD0ADB2802D27D04FF48070ADB2CD
:10172000854222D04FF40070ADB285421DD0ADB2DB
:10173000B5F5806F19D0ADB2B5F5006F15D0ADB26B
:10174000B5F5805F11D0ADB2B5F5005F0DD0ADB28B
:10175000B5F5804F09D0ADB2B5F5004F05D04FF4C7
:101760008F71DFF8E001FEF7C1FCA06880B228426B
:1017700002D00120060001E0002006003000C0B2C7
:1017800070BD38B504000D00DFF8AC0084421CD0F9
:10179000DFF8A800844218D0DFF8A400844214D0F7
:1017A000DFF8A000844210D0DFF89C0084420CD007
:1017B0002648844209D0DFF89800844205D04FF4CF
:1017C000B471DFF88001FEF791FCADB2002D05D1B8
:1017D00040F26911DFF86C01FEF788FCADB22561BB
:1017E00031BD38B504000D001348844218D01348A9
:1017F000844215D01248844212D0124884420FD03D
:10180000114884420CD01148844209D0DFF84000CE
:10181000844205D04FF4BC71DFF82801FEF766FC66
:10182000ADB2002D05D140F27911DFF81801FEF7B5
:101830005DFCADB2656131BD00080140000C0140A6
:10184000001001400014014000180140001C01403C
:101850000020014070B504000D000026E4B2002C09
:1018600016D0E4B2012C13D0E4B2022C10D0E4B2B2
:10187000032C0DD0E4B2042C0AD0E4B2052C07D01E
:10188000E4B2062C04D040F262212E48FEF72EFC72
:10189000EDB2002D31D0EDB2012D2ED0EDB2022DE2
:1018A0002BD0EDB2032D28D0EDB2042D25D0EDB212
:1018B000052D22D0EDB2062D1FD0EDB2072D1CD084
:1018C000EDB2082D19D0EDB2092D16D0EDB20A2DCA
:1018D00013D0EDB20B2D10D0EDB20C2D0DD0EDB21A
:1018E0000D2D0AD0EDB20E2D07D0EDB20F2D04D084
:1018F00040F263211348FEF7F9FB0F2015F00301B6
:10190000C9B2890088400600EDB2A8100E4951F80E
:101910002000B043EDB2A9100B4A42F82100EDB20D
:10192000A810094951F82000E4B215F00301C9B22A
:10193000890014FA01F10843EDB2A910024A42F8F5
:10194000210070BD403900080800014010B440B2C9
:101950004109DFF8AC26012310F01F04A34042F830
:10196000213010BC704740B2002809D540B210F0B9
:101970000F02DFF89036D2180B0102F8043C04E0A5
:1019800040B2DFF884260B018354704710B5040081
:10199000B4F1807F01D3012013E02002000A401E31
:1019A000DFF8681608600F215FF0FF30FFF7DBFFFC
:1019B000DFF85C0600210160DFF8580607210160AE
:1019C000002010BD80B54FF48051DFF84C06FFF7C2
:1019D00066FEDFF8481608704FF40051DFF838064D
:1019E000FFF75DFEDFF83416487001BD80B500F0EA
:1019F000F6F900F000FADFF8280600F071FF00F0B9
:101A000011FA00F092F9FFF7DDFF5FF4E13000F02A
:101A100021F85FF4E13000F052F84FF4164000F086
:101A200081F85FF4E13000F0B0F8DFF8F405006809
:101A30004FF47A71B0FBF1F0FFF7A8FF002800D057
:101A4000FEE700F0D8F900F02AFA00F059FA00F0A9
:101A50009BFA01BD10B50400DFF8C8055FF4E13161
:101A60000160DFF8C00500218180DFF8B8050021A2
:101A7000C180DFF8B00500210181DFF8A805002151
:101A80008181DFF8A0050C214181DFF89815DFF88E
:101A9000980500F013FC012240F22551DFF888057B
:101AA00000F03FFD012240F22661DFF87C0500F0E6
:101AB00038FD0121DFF8700500F0FCFC10BD10B509
:101AC0000400DFF860050460DFF85805002181801C
:101AD000DFF850050021C180DFF8480500210181B1
:101AE000DFF8400500218181DFF838050C214181B4
:101AF000DFF83015DFF8340500F0E0FB012240F29A
:101B00002551DFF8280500F00CFD012240F2266186
:101B1000DFF8180500F005FD0121DFF8100500F0E1
:101B2000C9FC10BD10B50400DFF8F8040460DFF84C
:101B3000F40400218180DFF8EC040021C180DFF88B
:101B4000E40400210181DFF8DC0400218181DFF859
:101B5000D4040C214181DFF8CC14DFF8D40400F068
:101B6000ADFB012240F22551DFF8C40400F0D9FC9E
:101B7000012240F22661DFF8B80400F0D2FC012116
:101B8000DFF8AC0400F096FC10BD10B50400DFF8DF
:101B900094040460DFF88C0400218180DFF8840461
:101BA0000021C180DFF87C0400210181DFF874048A
:101BB00000218181DFF86C040C214181DFF864147D
:101BC000DFF8700400F07AFB012240F22551DFF8C3
:101BD000640400F0A6FC012240F22661DFF8540400
:101BE00000F09FFC0121DFF84C0400F063FC10BD05
:101BF00070B50400A4B2002C25D1DFF83C040068C5
:101C00004FF49661B0FBF1F0401E0500A4B2ADB2F6
:101C1000681E00FB04F06421B0FBF1F00600DFF861
:101C20001C04C680DFF81414DFF81404FFF788F9E9
:101C30000021DFF80C04FFF733FA0021DFF800047D
:101C4000FFF794FA24E0DFF8F00300684FF49661A0
:101C5000B0FBF1F0401E0500A4B2ADB2681E00FB5F
:101C600004F06421B0FBF1F00600DFF8D003C68079
:101C7000DFF8C813DFF8C803FFF762F90121DFF8C6
:101C8000C003FFF70DFA0121DFF8B403FFF76EFA86
:101C900070BD38B504000D00E4B2002C02D0012C58
:101CA00011D041E04021DFF8A003FFF79AFD0120A9
:101CB000FFF79EFFDFF88C0300214170DFF88C03F3
:101CC0000021017030E0EDB2002D02D0012D0BD0CB
:101CD00015E04FF48071DFF87003FFF782FDDFF845
:101CE0006403012181700AE04FF48071DFF858032A
:101CF000FFF747FDDFF84C0300218170FFE740212B
:101D0000DFF84403FFF73DFD6420FFF771FFDFF8C4
:101D1000340301214170DFF838030078002803D133
:101D2000DFF828030121017031BD10B5DFF8080389
:101D300000684FF49661B0FBF1F0401E0400DFF83C
:101D4000F8020068DFF80C13B0FBF1F0DFF80813BD
:101D50000880DFF808030B218180DFF800034EF6CE
:101D60005F210180DFF8F4020021C180DFF8EC027E
:101D700000214180DFF8E412DFF8E402FEF72AFFD9
:101D8000AE4860210180AD4801214180AB4804216B
:101D90008180AA483121C180A84802210181A74839
:101DA00000214181A5484FF480718181A348002121
:101DB000C181A249AA48FEF7C8FF0121A848FFF740
:101DC0006FF901220321A648FFF70AFA10BDA549C1
:101DD00000220A60A34909688142FBD3704780B59D
:101DE00000F062FE01213D2000F0FAFD01210420F7
:101DF00000F01DFE01BD80B59B481E2101709A4870
:101E00000021417098480121817097480121C170DB
:101E1000954800F0EFFE012000F033FA0620FFF7AE
:101E200095FD01BD80B59148012101808F48282191
:101E3000C1708E48022181708C498D48FFF754FB98
:101E40008A480221018089482821C17087480221DF
:101E5000817086498648FFF747FB00210020FFF785
:101E6000F9FC844801210160824800210171814808
:101E70000C2141717F48012181717E4800F03EF9BB
:101E80007A484FF44871018078481821C17077482A
:101E90000221817075496048FFF726FB01BD80B5BE
:101EA000754800F0FDFE7548754901607348754935
:101EB000416072480021816070480221C1606F4812
:101EC000002101616D48802141616C484FF400712F
:101ED00081616A484FF40061C16168482021016254
:101EE00066484FF4005141626448002181626349B1
:101EF000614800F0B5FF01215F4801F081F801BDA4
:101F000080B56148002101605F48012101715E4890
:101F1000012141715C485FF4602181605A480021D1
:101F2000C1605948022101745749584801F0DCF852
:101F3000012001F0A9FB032301220021534801F0F5
:101F40009AFA032302220421504801F094FA012155
:101F50004E4801F097F901214C4801F0C1F94B4876
:101F600001F0E9F9494801F0FFF90028FAD14748A2
:101F700001F01AFA454801F030FA0028FAD101219F
:101F8000424801F04AFA01BD80B54148414901602B
:101F90003F48002181803E484BF6FF71C1803C489C
:101FA000882101813A484FF48061418138484FF4DB
:101FB000804181810121384801F056FC344936487E
:101FC00001F084FB324833490160314800218180AF
:101FD0002F484BF6FF71C1802D48A02101812C486C
:101FE0004FF4806141812A484FF480418181012171
:101FF0002A4801F039FC2649284801F067FB01BD59
:1020000080E200E018ED00E000E400E014E000E011
:1020100018E000E010E000E0000C01405C1B002034
:10202000F01A0020041B002000380140004400404A
:10203000004C00400050004014000020141B002001
:10204000002C0140C01A002000100140821B00201B
:10205000831B0020C0D40100801B0020341B002003
:1020600000080040741B00206C1B0020701B002027
:1020700000080140501B0020080002406C1A00209C
:102080004C240140481B0020DC1A002000240140A1
:10209000241B0020A086010000540040005800408E
:1020A00080B54FF400711248FFF76BFB1148012116
:1020B000016001BD80B54FF400710D48FFF791FB41
:1020C0000C480021016001BD80B54FF480710848C3
:1020D000FFF757FB08480121016001BD80B54FF4AF
:1020E00080710348FFF77DFB03480021016001BDBB
:1020F000000C0140781B00207C1B002038B5040038
:1021000000252079002806D02079042803D06921F1
:102110006948FDF7EBFF6079082809D060790C2841
:1021200006D06079102803D06A216348FDF7DEFFEE
:102130002068000D0005002802D12068002803D186
:102140006B215D48FDF7D2FFA079002806D0A07969
:10215000012803D06C215848FDF7C8FF51480500FD
:10216000A079002836D04F480068216888434D493F
:1021700008604D480068216888434B490860207911
:102180004519286821680843286048480068216884
:1021900088434649086046480068216888434449A6
:1021A0000860607910280CD1404800682168084315
:1021B0003E4908603E480068216808433C49086081
:1021C0000EE0384805006079451928682168084301
:1021D000286005E02079451928682168884328602F
:1021E00031BD70B5040000250026012C37D0022C2B
:1021F00035D0042C33D0082C31D0102C2FD0202CEB
:102200002DD0402C2BD0802C29D04FF480708442CC
:1022100025D04FF40070844221D0B4F5806F1ED0D9
:10222000B4F5006F1BD0B4F5805F18D0B4F5005F33
:1022300015D0B4F5804F12D0B4F5004F0FD0B4F5DF
:10224000803F0CD0B4F5003F09D0B4F5802F06D004
:10225000B4F5002F03D0E4211748FDF747FF1148DC
:1022600000682040060013480068204204D0002E79
:1022700002D00120050001E0002005002800C0B2C6
:1022800070BD10B50400200D0005002801D1002C00
:1022900003D1FB210848FDF729FF0648046010BD63
:1022A0000000000000040140040401400804014053
:1022B0000C04014014040140DC3800082DE9F0470B
:1022C00086B004000D00002600275FF000085FF0D4
:1022D00000095FF0000ADFF80804844214D0DFF838
:1022E0000404844210D0DFF8000484420CD0DFF8EC
:1022F000FC03844208D0DFF8FC03844204D0B521FB
:10230000DFF8EC03FDF7F2FE2868002804D0286807
:10231000DFF8E413884204D3B621DFF8D403FDF7D5
:10232000E5FEA888002808D0A888B0F5805F04D012
:10233000B721DFF8BC03FDF7D9FEE888002810D0EC
:10234000E888B0F5805F0CD0E888B0F5005F08D071
:10235000E888B0F5405F04D0B821DFF89403FDF7BA
:10236000C5FE288900280CD02889B0F5806F08D0D8
:102370002889B0F5C06F04D0B921DFF87403FDF7E8
:10238000B5FE68894FF6F371084202D168890028CA
:1023900004D1BA21DFF85803FDF7A8FEA889002868
:1023A00013D0A8894FF4807188420ED0A8894FF4C9
:1023B0000071884209D0A8894FF44071884204D046
:1023C000BB21DFF82C03FDF791FEA889002810D06F
:1023D000DFF80C0384420CD0DFF80803844208D0F5
:1023E000DFF80403844204D0BF21DFF80403FDF7C3
:1023F0007DFEA246208A06004CF6FF700640E88863
:1024000006432682A08906004EF6F3100640A888EF
:1024100029890843698908430643A681A08A0600E2
:102420004FF6FF400640A8890643A68200A800F0A8
:1024300057FADFF8AC02824502D10398070001E0A9
:1024400002980700A089000408D5192000FB07F0B6
:1024500029684900B0FBF1F0804607E0192000FB35
:1024600007F029688900B0FBF1F080466420B8FBD2
:10247000F0F0000106003009642101FB1080814664
:10248000A089000409D55FEAC90032306421B0FB9D
:10249000F1F010F00700064308E05FEA091032305F
:1024A0006421B0FBF1F010F00F000643268106B066
:1024B000BDE8F08738B504000D00DFF8240284423F
:1024C00015D0DFF82002844211D0DFF81C028442CC
:1024D0000DD0DFF81802844209D0DFF818028442D8
:1024E00005D040F25F11DFF80802FDF7FFFDEDB205
:1024F000002D08D0EDB2012D05D04FF4B071DFF8FA
:10250000F001FDF7F3FDEDB2002D04D0A08950F4E9
:102510000050A08104E0A0894DF6FF710840A08121
:1025200031BD2DE9F04704000D00160000275FF0D3
:1025300000085FF000095FF0000ADFF8A4018442A0
:1025400015D0DFF8A001844211D0DFF89C0184424D
:102550000DD0DFF89801844209D0DFF89801844259
:1025600005D04FF4C371DFF88801FDF7BFFDADB2B0
:10257000282D26D040F22770ADB2854221D040F2FE
:102580002660ADB285421CD040F22550ADB28542E6
:1025900017D040F22440ADB2854212D040F646003A
:1025A000ADB285420DD040F66A10ADB2854208D07A
:1025B000ADB2602D05D040F28711DFF83401FDF790
:1025C00095FDF6B2002E08D0F6B2012E05D04FF4DC
:1025D000C471DFF81C01FDF789FD40F66A10ADB249
:1025E000854211D1DFF8F80084420DD0DFF8F40005
:1025F000844209D0DFF8F000844205D04FF4C67160
:10260000DFF8EC00FDF772FDA2462800C0B24009D9
:10261000C0B20700ADB215F01F008046012010FACD
:1026200008F08146012F02D11AF10C0A06E0022FB0
:1026300002D11AF1100A01E01AF1140AF6B2002EC2
:1026400006D0DAF8000059EA0000CAF8000005E0F8
:10265000DAF8000030EA0900CAF80000BDE8F087A7
:1026600038B504000D001E48844210D01D48844235
:102670000DD01D4884420AD01C48844207D01D4812
:10268000844204D04FF414711948FDF72FFD4FF424
:102690000070ADB2854204D340F251211448FDF7D9
:1026A00025FDE805C00DA08031BD10B504000C4823
:1026B000844210D00B4884420DD00B4884420AD08B
:1026C0000A48844207D00B48844204D040F261217A
:1026D0000748FDF70BFDA088C005C00D10BD000028
:1026E000003801400044004000480040004C0040D9
:1026F000A43900080050004021AA44002DE9F84305
:1027000004000D00002600275FF000085FF00009BC
:102710006D48844210D06D4884420DD06C4884428C
:102720000AD06C48844207D06C48844204D040F2FE
:10273000BE316948FDF7DAFCADB2282D31D040F248
:102740002770ADB285422CD040F22660ADB28542F2
:1027500027D040F22550ADB2854222D040F224402D
:10276000ADB285421DD040F64600ADB2854218D0CC
:1027700040F66A10ADB2854213D04FF45870ADB236
:1027800085420ED04FF41870ADB2854209D04FF497
:10279000B070ADB2854204D040F2BF314E48FDF773
:1027A000A5FC40F66A10ADB285420DD14648844280
:1027B0000AD04648844207D04548844204D040F2BB
:1027C000C3314548FDF792FC2800C0B24009C0B2B1
:1027D0008046ADB215F01F000700012010FA07F780
:1027E000B8F1010F02D1A089074007E0B8F1020F4C
:1027F00002D1208A074001E0A08A0740ADB2280A32
:1028000080B20600012010FA06F620880640002F4C
:1028100004D0002E02D00120814601E00020814634
:102820004846C0B2BDE8F283F8B504000D000026AA
:1028300000272548844210D0244884420DD02448E3
:1028400084420AD02348844207D02448844204D0DA
:1028500040F207412048FDF749FC40F22660ADB246
:10286000854213D040F22550ADB285420ED040F6DD
:102870004600ADB2854209D040F66A10ADB285423D
:1028800004D04FF481611448FDF730FC40F66A1023
:10289000ADB285420DD10C4884420AD00B48844227
:1028A00007D00B48844204D040F20C410A48FDF79F
:1028B0001DFCADB2280A06000120B0400700BFB2DF
:1028C000F8432080F1BD0000003801400044004082
:1028D00000480040004C0040A4390008005000406F
:1028E00030B40021002200230024DFF890512D682D
:1028F00015F00C0529000D00002D04D0042D06D084
:10290000082D08D02EE0DFF87C5105602DE0DFF8BF
:102910007851056029E0DFF864512D6815F47015D1
:102920002A00DFF858512D6815F480352B00920CE1
:10293000921C002B05D1DFF8545105FB02F5056010
:102940000FE0DFF838512D68AD0305D5DFF83451BD
:1029500005FB02F5056004E0DFF82C5105FB02F5EC
:10296000056002E0DFF81C510560DFF810512D68AA
:1029700015F0F00529000909DFF814514D5D2C0010
:102980000568E5404560DFF8F4502D6815F4E06512
:102990002900090ADFF8F8504D5D2C004568E54034
:1029A0008560DFF8D8502D6815F460552900C90AF4
:1029B000DFF8DC504D5D2C004568E540C560DFF870
:1029C000BC502D6815F440452900890BDFF8C45030
:1029D0004D5D2C00C568B5FBF4F5056130BC704752
:1029E00038B504000D002C48044201D1002C04D15C
:1029F00040F24E412248FDF779FBEDB2002D07D0A1
:102A0000EDB2012D04D040F24F411D48FDF76EFBA1
:102A1000EDB2002D05D02148006820431F49086011
:102A200004E01E480068A0431C49086031BD38B569
:102A300004000D001A48044201D1002C04D140F2D8
:102A40006D410F48FDF752FBEDB2002D07D0EDB2FE
:102A5000012D04D040F26E410948FDF747FBEDB26D
:102A6000002D05D00F48006820430E49086004E09F
:102A70000C480068A0430B49086031BD04100240B7
:102A8000283B000800127A000024F40000093D00F1
:102A900000000020100000200200C0FF18100240BB
:102AA000003601811C10024080B54C48006850F08F
:102AB00001004A4908604A4800684A4908404849B4
:102AC000086046480068484908404449086043484F
:102AD000006830F48020414908604148006830F4C3
:102AE000FE003F49086041485FF41F01016000F0AB
:102AF00001F801BD80B500F001F801BD82B00020F1
:102B00000190002000903548006850F4803033492F
:102B100008603248006810F4003000900198401CB2
:102B200001900098002803D10198B0F5A06FF0D172
:102B30002A480068800302D50120009001E00020AF
:102B400000900098012847D12948006850F01000F3
:102B500027490860264800688008800024490860EA
:102B60002348006850F00200214908601C481C49B5
:102B7000096801601A481A49096801601848006824
:102B800050F48060164908601548006830F47C10E5
:102B9000134908601248006850F488101049086012
:102BA0000E48006850F080700C4908600B480068BF
:102BB0008001FBD50A480068800880000849086049
:102BC0000748006850F002000549086004480068A2
:102BD00010F00C000828F9D102B070470010024034
:102BE000041002400000FFF8FFFFF6FE081002404C
:102BF00000200240F8B50400002500260F27E078E9
:102C0000002806D0E078012803D074211F48FDF782
:102C10006DFA6078102803D375211C48FDF766FA19
:102C2000A078102803D376211848FDF75FFAE078E2
:102C3000002820D01648006810F4E060D0F5E0606D
:102C4000000A0500D5F104000600EF406078B040AE
:102C50000500A078384005432D0120780D494554E2
:102C6000207840110C490122237813F01F039A4069
:102C700041F8202009E020784011084901222378FA
:102C800013F01F039A4041F82020F1BDE83B0008F3
:102C90000CED00E000E400E000E100E080E100E095
:102CA00010B50400DFF80004844230D0DFF8FC03E4
:102CB00084422CD0DFF8F803844228D0DFF8F403F4
:102CC000844224D0DFF8F003844220D0DFF8EC0304
:102CD00084421CD0DFF8E803844218D0DFF8E40314
:102CE000844214D0DFF8E003844210D0DFF8DC0324
:102CF00084420CD0DFF8D803844208D0DFF8D40334
:102D0000844204D06E21DFF8D003FDF7EFF920688C
:102D10004FF6FE71084020600020206000206060B7
:102D20000020A0600020E060DFF87C03844208D12E
:102D3000DFF8A803006850F00F00DFF8A013086068
:102D40008DE0DFF86803844208D1DFF89003006863
:102D500050F0F000DFF88413086080E0DFF85003E3
:102D6000844208D1DFF87403006850F47060DFF823
:102D70006C13086073E0DFF83C03844208D1DFF88D
:102D80005C03006850F47040DFF85013086066E0A0
:102D9000DFF82403844208D1DFF84003006850F4D0
:102DA0007020DFF83813086059E0DFF81003844220
:102DB00008D1DFF82803006850F47000DFF81C1316
:102DC00008604CE0DFF8F802844208D1DFF80C0319
:102DD000006850F07060DFF8041308603FE0DFF82F
:102DE000E402844208D1DFF8F802006850F00F00D6
:102DF000DFF8EC12086032E0DFF8CC02844208D140
:102E0000DFF8DC02006850F0F000DFF8D412086050
:102E100025E0DFF8B802844208D1DFF8C402006878
:102E200050F47060DFF8B812086018E0DFF8A00214
:102E3000844208D1DFF8A802006850F47040DFF83F
:102E4000A01208600BE0DFF88C02844207D1DFF8A3
:102E50009002006850F47020DFF88412086010BD02
:102E600070B504000D000026DFF83C02844230D02B
:102E7000DFF8380284422CD0DFF83402844228D0B4
:102E8000DFF83002844224D0DFF82C02844220D0C4
:102E9000DFF8280284421CD0DFF82402844218D0D4
:102EA000DFF82002844214D0DFF81C02844210D0E4
:102EB000DFF8180284420CD0DFF81402844208D0F4
:102EC000DFF81002844204D0CE21DFF80C02FDF7B7
:102ED0000DF9A868102807D0A868002804D0CF21D1
:102EE000DFF8F401FDF702F9E868002803D0E8688C
:102EF000B0F5803F04D3D021DFF8DC01FDF7F6F810
:102F00002869402807D02869002804D0D121DFF89B
:102F1000C801FDF7EBF86869802807D068690028C8
:102F200004D0D221DFF8B001FDF7E0F8A86900284D
:102F30000ED0A8694FF48071884209D0A8694FF477
:102F40000071884204D0D321DFF88C01FDF7CEF860
:102F5000E86900280CD0E869B0F5806F08D0E8690E
:102F6000B0F5006F04D0D421DFF86C01FDF7BEF896
:102F7000286A202807D0286A002804D0D521DFF845
:102F80005801FDF7B3F8686AB0F5405F0FD0686A82
:102F9000B0F5005F0BD0686AB0F5805F07D0686A53
:102FA000002804D0D621DFF83001FDF79FF8A86A89
:102FB000B0F5804F07D0A86A002804D0D721DFF8E9
:102FC0001801FDF793F820680600DFF818010640A5
:102FD000A868296A08432969084369690843A969F7
:102FE0000843E9690843696A0843A96A0843064334
:102FF0002660E86860602868A0606868E06070BD6E
:1030000038B504000D00DFF8A000844231D0DFF8AD
:103010009C0084422DD0DFF89800844229D0DFF84C
:103020009400844225D0DFF89000844221D0DFF85C
:103030008C0084421DD0DFF88800844219D0DFF86C
:103040008400844215D0DFF88000844211D0DFF87C
:103050007C0084420DD0DFF87800844209D0DFF88C
:103060007400844205D04FF49471DFF86C00FDF7D2
:103070003DF8EDB2002D08D0EDB2012D05D040F2A3
:103080002911DFF85400FDF731F8EDB2002D04D01E
:10309000206850F00100206004E020684FF6FE71C7
:1030A0000840206031BD0000080002401C000240C2
:1030B0003000024044000240580002406C000240D0
:1030C00080000240080402401C0402403004024018
:1030D0004404024058040240683A000804000240D8
:1030E000040402400F80FFFFF8B504000D00002625
:1030F0000027DFF87C0584420CD0DFF87805844295
:1031000008D0DFF87405844204D0DE21DFF86C05B6
:10311000FCF7ECFF2868002828D02868B0F5803F2D
:1031200024D02868B0F5003F20D02868B0F5403F93
:103130001CD02868B0F5802F18D02868B0F5A02FD3
:1031400014D02868B0F5C02F10D02868B0F5E02F53
:103150000CD02868B0F5002F08D02868B0F5102FE3
:1031600004D0DF21DFF81405FCF7C0FF2879002820
:1031700007D02879012804D0E021DFF80005FCF70A
:10318000B5FF6879002807D06879012804D0E121CB
:10319000DFF8E804FCF7AAFFA868002837D0A86881
:1031A000B0F5003F33D0A868B0F5802F2FD0A868C5
:1031B000B0F5C02F2BD0A868B0F5002F27D0A86895
:1031C000B0F5202F23D0A868B0F5402F1FD0A868F5
:1031D000B0F5602F1BD0A868002818D0A868B0F5FB
:1031E000003F14D0A868B0F5C02F10D0A868B0F583
:1031F000002F0CD0A868B0F5202F08D0A868B0F533
:10320000402F04D0E221DFF87404FCF76FFFE86878
:10321000002808D0E868B0F5006F04D0E321DFF89B
:103220005C04FCF763FF287C012802D3287C11286A
:1032300004D3E421DFF84404FCF758FF606806007B
:10324000DFF83C0406402868297950EA012006434B
:103250006660A0680600DFF82C040640E868A968EC
:103260000843697950EA41000643A660E06A060017
:1032700036F47006287C401E0743FFB256EA075614
:10328000E662F1BD38B504000D00DFF8E4038442C6
:103290000DD0DFF8E003844209D0DFF8DC0384427C
:1032A00005D040F22D11DFF8D403FCF71FFFEDB27B
:1032B000002D08D0EDB2012D05D04FF49771DFF845
:1032C000BC03FCF713FFEDB2002D04D0A06850F052
:1032D0000100A06003E0A06840084000A06031BD8C
:1032E00038B504000D00DFF88803844209D0DFF808
:1032F0008803844205D04FF4A371DFF88003FCF704
:10330000F5FEEDB2002D08D0EDB2012D05D040F252
:103310004711DFF86803FCF7E9FEEDB2002D05D098
:10332000A0684FF480710843A06003E0A06830F407
:103330008070A06031BD10B50400DFF83403844212
:103340000DD0DFF83003844209D0DFF82C0384422B
:1033500005D040F27D11DFF82403FCF7C7FEA0681A
:1033600050F00800A06010BD38B504000025DFF85B
:10337000000384420DD0DFF8FC02844209D0DFF85C
:10338000F802844205D040F28B11DFF8F002FCF71E
:10339000ADFEA068000702D50120050001E0002075
:1033A00005002800C0B232BD10B50400DFF8C0022D
:1033B00084420DD0DFF8BC02844209D0DFF8B802A5
:1033C000844205D040F2A311DFF8B002FCF78EFE74
:1033D000A06850F00400A06010BD38B504000025BE
:1033E000DFF88C0284420DD0DFF88802844209D0D5
:1033F000DFF88402844205D040F2B111DFF8C40244
:10340000FCF774FEA068400702D50120050001E02A
:10341000002005002800C0B232BD38B504000D0000
:10342000DFF84C0284420DD0DFF84802844209D014
:10343000DFF84402844205D040F2CB11DFF8840269
:10344000FCF754FEEDB2002D08D0EDB2012D05D0F1
:103450004FF4E671DFF86C02FCF748FEEDB2002D88
:1034600004D0A06850F4A000A06003E0A06830F48D
:10347000A000A06031BD2DE9F84304000D00160046
:103480001F005FF000085FF00009DFF8E4018442EC
:103490000DD0DFF8E001844209D0DFF8DC0184427E
:1034A00005D040F25121DFF81C02FCF71FFEEDB2FF
:1034B000002D38D0EDB2012D35D0EDB2022D32D035
:1034C000EDB2032D2FD0EDB2042D2CD0EDB2052D91
:1034D00029D0EDB2062D26D0EDB2072D23D0EDB2C6
:1034E000082D20D0EDB2092D1DD0EDB20A2D1AD035
:1034F000EDB20B2D17D0EDB20C2D14D0EDB20D2D79
:1035000011D0EDB20E2D0ED0EDB20F2D0BD0EDB2CD
:10351000102D08D0EDB2112D05D040F25221DFF868
:10352000A401FCF7E3FDF6B2012E02D3F6B2112E90
:1035300005D340F25321DFF88C01FCF7D7FDFFB231
:10354000002F1AD0FFB2012F17D0FFB2022F14D0D4
:10355000FFB2032F11D0FFB2042F0ED0FFB2052F00
:103560000BD0FFB2062F08D0FFB2072F05D04FF4C3
:103570001571DFF85001FCF7B9FDEDB20A2D17D334
:10358000E06880460720B5F10A01032251438840D4
:10359000814638EA0908FFB2B5F10A000321484321
:1035A00017FA00F0814659EA0808C4F80C8014E0C4
:1035B000206980460720032101FB05F188408146F0
:1035C00038EA0908FFB2032000FB05F017FA00F003
:1035D000814659EA0808C4F81080F6B2072E15D2C1
:1035E000606B80461F20711E052251438840814632
:1035F00038EA0908EDB2701E0521484315FA00F0BB
:10360000814659EA0808C4F834802FE0F6B20D2E3E
:1036100015D2206B80461F20F11F052251438840A0
:10362000814638EA0908EDB2F01F0521484315FA32
:1036300000F0814659EA0808C4F8308016E0E06AD4
:1036400080461F20B6F10D01052251438840814676
:1036500038EA0908EDB2B6F10D000521484315FA24
:1036600000F0814659EA0808C4F82C80BDE8F183CF
:103670000024014000280140003C0140083A0008B5
:10368000FFFEF0FFFDF7F1FF10B50400E4B2002CDF
:1036900007D0E4B2012C04D040F291410948FCF774
:1036A00025FDE4B2002C06D00748006850F4000065
:1036B0000549086005E00448006830F4000002494C
:1036C000086010BD083A0008082401402DE9F043C5
:1036D00085B004000D00002600275FF00408DFF825
:1036E000EC91DFF8DC01844208D0DFF8D801844295
:1036F00004D0C521DFF8D001FCF7F8FC28680028C9
:1037000004D02868DFF8C811884204D3C621DFF846
:10371000B801FCF7EBFCA88800280AD0A88802288A
:1037200007D0A8880A2804D0C721DFF89C01FCF73D
:10373000DDFCE888B0F5804F09D0E8884BF6FF71D2
:10374000884204D0C821DFF88001FCF7CFFC28892B
:10375000B0F5806F04D3C921DFF86C01FCF7C6FC1B
:103760006889B0F5806F07D06889002804D0CA2125
:10377000DFF85401FCF7BAFCA889B0F5804F08D0F7
:10378000A889B0F5404F04D0CB21DFF83C01FCF70D
:10379000ADFCA08806004FF6C070064000A8FFF7F9
:1037A0009FF802988146DFF82C01B9FBF0F0070082
:1037B0003E43A68020884FF6FE71084020800020FE
:1037C00006002868DFF81011884210D228684000EF
:1037D000B9FBF0F080461FFA88F8B8F1040F01D267
:1037E0000420804658EA0606781C208426E0E888F3
:1037F0004BF6FF71884206D1286803214843B9FB84
:10380000F0F0804607E0286819214843B9FBF0F042
:10381000804658F480485FEA085001D158F001080A
:1038200058F400400643BFB24FF4967000FB07F017
:103830004FF47A7190FBF1F0401C2084A68320881D
:1038400050F001002080208806004FF6F530064039
:10385000A8886989084306432680A88929890843DE
:10386000208105B0BDE8F08338B504000D00DFF815
:103870005000844209D0DFF84C00844205D04FF458
:10388000A271DFF84400FCF731FCEDB2002D08D046
:10389000EDB2012D05D040F24511DFF82C00FCF708
:1038A00025FCEDB2002D04D0208850F001002080CE
:1038B00004E020884FF6FE710840208031BD0000F2
:1038C0000054004000580040C83A000800127A0036
:1038D000811A060040420F00A1860100433A5C5560
:1038E000736572735C5454545C4465736B746F708D
:1038F0005C7A7A2E53544446575C30302E5374759C
:1039000064795C4C69627261726965735C53544D91
:103910003332463130785F53746450657269706831
:103920005F4472697665725C7372635C73746D3345
:1039300032663130785F657874692E63000000006C
:10394000433A5C55736572735C5454545C446573BC
:103950006B746F705C7A7A2E53544446575C3030E7
:103960002E53747564795C4C696272617269657317
:103970005C53544D3332463130785F537464506534
:10398000726970685F4472697665725C7372635CB9
:1039900073746D3332663130785F6770696F2E6390
:1039A00000000000433A5C55736572735C545454D4
:1039B0005C4465736B746F705C7A7A2E5354444622
:1039C000575C30302E53747564795C4C6962726157
:1039D000726965735C53544D3332463130785F53AE
:1039E00074645065726970685F4472697665725C70
:1039F0007372635C73746D3332663130785F7573E4
:103A00006172742E63000000433A5C5573657273F3
:103A10005C5454545C4465736B746F705C7A7A2E9A
:103A200053544446575C30302E53747564795C4C63
:103A300069627261726965735C53544D3332463109
:103A400030785F5374645065726970685F4472695E
:103A50007665725C7372635C73746D333266313099
:103A6000785F6164632E6300433A5C5573657273DB
:103A70005C5454545C4465736B746F705C7A7A2E3A
:103A800053544446575C30302E53747564795C4C03
:103A900069627261726965735C53544D33324631A9
:103AA00030785F5374645065726970685F447269FE
:103AB0007665725C7372635C73746D333266313039
:103AC000785F646D612E6300433A5C557365727371
:103AD0005C5454545C4465736B746F705C7A7A2EDA
:103AE00053544446575C30302E53747564795C4CA3
:103AF00069627261726965735C53544D3332463149
:103B000030785F5374645065726970685F4472699D
:103B10007665725C7372635C73746D3332663130D8
:103B2000785F6932632E6300433A5C557365727344
:103B30005C5454545C4465736B746F705C7A7A2E79
:103B400053544446575C30302E53747564795C4C42
:103B500069627261726965735C53544D33324631E8
:103B600030785F5374645065726970685F4472693D
:103B70007665725C7372635C73746D333266313078
:103B8000785F7263632E6300433A5C5573657273AA
:103B90005C5454545C4465736B746F705C7A7A2E19
:103BA00053544446575C30302E53747564795C4CE2
:103BB00069627261726965735C53544D3332463188
:103BC00030785F5374645065726970685F447269DD
:103BD0007665725C7372635C73746D333266313018
:103BE000785F74696D2E6300433A5C557365727338
:103BF0005C5454545C4465736B746F705C7A7A2EB9
:103C000053544446575C30302E53747564795C4C81
:103C100069627261726965735C53544D3332463127
:103C200030785F5374645065726970685F4472697C
:103C30007665725C7372635C6D6973632E630000FA
:103C400010B5FDF7D3FE00200400642C06D209480D
:103C500004806420FEF7BBF8641CF6E762200400D1
:103C6000002CF0D0034804806420FEF7B0F8641EF6
:103C7000F6E700003408004010B450F8041B81B18E
:103C800002681218001D50F8043BDC0744BFA9F17C
:103C90000104E31852F8044B43F8044B091FF9D10F
:103CA000EBE710BC704750F8041B61B150F8042BCF
:103CB000D30744BFA9F101039A18002342F8043B3B
:103CC000091FFAD1EFE7704710B5084979441C3154
:103CD000074C7C441A34A14206D0081D0A685118CA
:103CE00088470146A142F8D110BD00BF080000007E
:103CF00028000000B3FFFFFF6C1B0000180000202D
:103D00000000000075FFFFFF1800000038010000F0
:103D1000000000200000000000F009F8002801D099
:103D2000FFF7D2FF0020FFF78BFF00F002F8012021
:103D3000704700F001B800000746384600F002F86E
:103D4000FBE7000080B5C046C046024A11001820BB
:103D5000ABBEFBE726000200014880470148004750
:103D6000A92A0008693D0008C046C046C046C046B2
:103D7000FFF7D2FFFCF7BBB9FCF7BAB9FCF7B9B94A
:103D8000FCF7B8B9FCF7B7B9FCF7B6B9FCF7B5B9A9
:103D9000FCF7B4B9FCF7B3B9FCF7B9B9FCF7B8B99B
:103DA000FCF7B7B9FCF7B6B9FCF7B5B9FCF7B4B98D
:103DB000FCF7EABBFFF7FEBFFFF7FEBFFFF7FEBF52
:103DC000FFF7FEBFFFF7FEBFFCF7A7B9FCF7A6B9E8
:103DD000FCF7A5B9FCF7A4B9FCF7A3B9FCF7A2B9A5
:103DE000FCF7A1B9FCF7A0B9FFF7FEBFFCF79DB93E
:103DF000FCF79CB9FFF7FEBFFCF799B9FCF798B93F
:103E0000FCF797B9FCF796B9FCF795B9FCF78CBBB2
:103E1000FCF79CBBFCF7D4BBFCF7D3BBFCF7D2BBD5
:103E2000FCF7D1BBFCF7D0BBFCF7CFBBFCF78EBDDA
:103E3000FCF7D0BDFCF718BEFCF7C8BBFCF7C7BB4E
:103E4000FFF7FEBF000000000102030401020304AB
:0C3E5000060708090204060800A24A0444
:0400000508003D6949
:00000001FF
