:020000040800F2
:10000000B00500209D180008130700081507000818
:1000100017070008190700081B0700080000000068
:100020000000000000000000000000001D070008A4
:100030001F07000800000000210700082307000830
:10004000330700083507000837070008390700089C
:100050003B0700083D070008F5180008F9180008DC
:10006000FD18000801190008051900080919000801
:100070003F0700084107000843070008450700083C
:1000800047070008490700084B0700084D0700080C
:100090002D1900084F0700085107000839190008FA
:1000A00053070008550700085707000859070008BC
:1000B0005B070008590A0008670A0008130B0008CC
:1000C000150B0008170B0008190B00081B0B000884
:1000D0001D0B0008230B0008350B0008B10B0008AE
:1000E0001F0B0008210B0008851900082DE9F047B7
:1000F00086B004000D00002600275FF000085FF0C6
:1001000000095FF0000ADFF80804844214D0DFF829
:100110000404844210D0DFF8000484420CD0DFF8DD
:10012000FC03844208D0DFF8FC03844204D0B521EC
:10013000DFF8EC0300F0ECFA2868002804D0286807
:10014000DFF8E413884204D3B621DFF8D40300F0CB
:10015000DFFAA888002808D0A888B0F5805F04D00E
:10016000B721DFF8BC0300F0D3FAE888002810D0EC
:10017000E888B0F5805F0CD0E888B0F5005F08D063
:10018000E888B0F5405F04D0B821DFF8940300F0B0
:10019000BFFA288900280CD02889B0F5806F08D0D4
:1001A0002889B0F5C06F04D0B921DFF8740300F0DE
:1001B000AFFA68894FF6F371084202D168890028C6
:1001C00004D1BA21DFF8580300F0A2FAA889002868
:1001D00013D0A8894FF4807188420ED0A8894FF4BB
:1001E0000071884209D0A8894FF44071884204D038
:1001F000BB21DFF82C0300F08BFAA889002810D06F
:10020000DFF80C0384420CD0DFF80803844208D0E6
:10021000DFF80403844204D0BF21DFF8040300F0B8
:1002200077FAA246208A06004CF6FF700640E8885E
:1002300006432682A08906004EF6F3100640A888E1
:1002400029890843698908430643A681A08A0600D4
:100250004FF6FF400640A8890643A68200A800F09A
:1002600003FDDFF8AC02824502D10398070001E0EC
:1002700002980700A089000408D5192000FB07F0A8
:1002800029684900B0FBF1F0804607E0192000FB27
:1002900007F029688900B0FBF1F080466420B8FBC4
:1002A000F0F0000106003009642101FB1080814656
:1002B000A089000409D55FEAC90032306421B0FB8F
:1002C000F1F010F00700064308E05FEA0910323051
:1002D0006421B0FBF1F010F00F000643268106B058
:1002E000BDE8F08738B504000D00DFF82402844231
:1002F00015D0DFF82002844211D0DFF81C028442BE
:100300000DD0DFF81802844209D0DFF818028442C9
:1003100005D040F25F11DFF8080200F0F9F9EDB204
:10032000002D08D0EDB2012D05D04FF4B071DFF8EB
:10033000F00100F0EDF9EDB2002D04D0A08950F4E9
:100340000050A08104E0A0894DF6FF710840A08113
:1003500031BD2DE9F04704000D00160000275FF0C5
:1003600000085FF000095FF0000ADFF8A401844292
:1003700015D0DFF8A001844211D0DFF89C0184423F
:100380000DD0DFF89801844209D0DFF8980184424B
:1003900005D04FF4C371DFF8880100F0B9F9ADB2B0
:1003A000282D26D040F22770ADB2854221D040F2F0
:1003B0002660ADB285421CD040F22550ADB28542D8
:1003C00017D040F22440ADB2854212D040F646002C
:1003D000ADB285420DD040F66A10ADB2854208D06C
:1003E000ADB2602D05D040F28711DFF8340100F086
:1003F0008FF9F6B2002E08D0F6B2012E05D04FF4D8
:10040000C471DFF81C0100F083F940F66A10ADB248
:10041000854211D1DFF8F80084420DD0DFF8F400F6
:10042000844209D0DFF8F000844205D04FF4C67151
:10043000DFF8EC0000F06CF9A2462800C0B24009D9
:10044000C0B20700ADB215F01F008046012010FABF
:1004500008F08146012F02D11AF10C0A06E0022FA2
:1004600002D11AF1100A01E01AF1140AF6B2002EB4
:1004700006D0DAF8000059EA0000CAF8000005E0EA
:10048000DAF8000030EA0900CAF80000BDE8F08799
:1004900038B504000D001E48844210D01D48844227
:1004A0000DD01D4884420AD01C48844207D01D4804
:1004B000844204D04FF41471194800F029F94FF424
:1004C0000070ADB2854204D340F25121144800F0CF
:1004D0001FF9E805C00DA08031BD10B504000C481F
:1004E000844210D00B4884420DD00B4884420AD07D
:1004F0000A48844207D00B48844204D040F261216C
:10050000074800F005F9A088C005C00D10BD000027
:10051000003801400044004000480040004C0040CA
:10052000F81500080050004021AA44002DE9F843C6
:1005300004000D00002600275FF000085FF00009AE
:100540006D48844210D06D4884420DD06C4884427E
:100550000AD06C48844207D06C48844204D040F2F0
:10056000BE31694800F0D4F8ADB2282D31D040F248
:100570002770ADB285422CD040F22660ADB28542E4
:1005800027D040F22550ADB2854222D040F224401F
:10059000ADB285421DD040F64600ADB2854218D0BE
:1005A00040F66A10ADB2854213D04FF45870ADB228
:1005B00085420ED04FF41870ADB2854209D04FF489
:1005C000B070ADB2854204D040F2BF314E4800F069
:1005D0009FF840F66A10ADB285420DD1464884427C
:1005E0000AD04648844207D04548844204D040F2AD
:1005F000C331454800F08CF82800C0B24009C0B2B1
:100600008046ADB215F01F000700012010FA07F771
:10061000B8F1010F02D1A089074007E0B8F1020F3D
:1006200002D1208A074001E0A08A0740ADB2280A23
:1006300080B20600012010FA06F620880640002F3E
:1006400004D0002E02D00120814601E00020814626
:100650004846C0B2BDE8F283F8B504000D0000269C
:1006600000272548844210D0244884420DD02448D5
:1006700084420AD02348844207D02448844204D0CC
:1006800040F20741204800F043F840F22660ADB246
:10069000854213D040F22550ADB285420ED040F6CF
:1006A0004600ADB2854209D040F66A10ADB285422F
:1006B00004D04FF48161144800F02AF840F66A1023
:1006C000ADB285420DD10C4884420AD00B48844219
:1006D00007D00B48844204D040F20C410A4800F095
:1006E00017F8ADB2280A06000120B0400700BFB2DB
:1006F000F8432080F1BD0000003801400044004074
:1007000000480040004C0040F81500080050004030
:10071000FEE77047FEE7FEE7FEE7FEE7704770473B
:10072000704780B500F084FB00F096FB00F08AFB78
:1007300001BD7047704770477047704770477047FA
:1007400070477047704770477047704770477047F1
:100750007047704770477047704780B501215FF060
:10076000804000F089FB002800F0758101215FF0D6
:10077000804000F003FCDFF8B0030078401CDFF895
:10078000A8130870DFF8A003007864280BD3DFF803
:10079000980300210170DFF89003407890F0FF008B
:1007A000DFF884134870DFF884030078012815D13E
:1007B000DFF878034068401CDFF870134860DFF80A
:1007C0006C0340684FF47A71884207D3DFF85C030A
:1007D00000214160DFF8540300210170DFF850036D
:1007E0000079012826D1DFF848038079401CDFF822
:1007F00040138871DFF83803807965281AD3DFF851
:10080000300300218171DFF82803C079401CDFF834
:100810002013C871DFF81803C079DFF81413497981
:10082000884207D3DFF8080300210171DFF80003D5
:100830000021C171DFF80004407B00282AD0DFF8D6
:10084000F803807B401CDFF8F0138873DFF8E803BF
:10085000807B64281ED3DFF8E003C07B401CDFF8F8
:10086000D813C873DFF8D00300218173DFF8C80301
:10087000C07BDFF8C413097B88420BD3DFF8B803D1
:1008800001210174DFF8B0030021C173DFF8A80370
:1008900000214173DFF8A003807A002810D1DFF82F
:1008A0009803407B00280BD0DFF88C0300214173B4
:1008B000DFF8840300218173DFF87C030021C1731A
:1008C000DFF870030078012817D1DFF8680340686B
:1008D000401CDFF860134860DFF858034068C82800
:1008E0000BD3DFF8500301210172DFF84803002128
:1008F0004160DFF8400300210170DFF83803407ADF
:10090000012816D1DFF82C03C068401CDFF824133F
:10091000C860DFF820030069DFF81813C96888424F
:1009200007D2DFF8100301210175DFF80803002169
:10093000C160DFF808038078012813D1DFF8FC02DA
:10094000C078401CDFF8F412C870DFF8F002C078FD
:10095000322807D3DFF8E4020021C170DFF8DC029F
:1009600000218170DFF8D002807C002823D1DFF8DD
:10097000C802C07C00280ED1DFF8BC02007D002830
:1009800009D1DFF8B402407D002804D1DFF8A802C5
:10099000807D00280FD0DFF8A0020021C174DFF8AD
:1009A000980200210175DFF8900200214175DFF8FF
:1009B000880200218175DFF88002807C01284AD1FD
:1009C000DFF87402C07C401CDFF86C12C874DFF8DA
:1009D0006802C07C64283ED3DFF85C020021C17449
:1009E000DFF85402007D401CDFF84C120875DFF878
:1009F0004802007D3C282ED3DFF83C02002101751F
:100A0000DFF83402407D401CDFF82C124875DFF817
:100A10002802407D3C281ED3DFF81C0200214175CE
:100A2000DFF81402807D401CDFF80C128875DFF8B7
:100A30000802807DDFF80012497C88420BD3DFF882
:100A4000F80100218175DFF8F00100218174DFF8E1
:100A5000E8010121C17501BD80B50121DFF8E00188
:100A600000F00AFA01BD80B50121DFF8D80100F0DD
:100A700003FA00284CD00121DFF8C80100F07EFA0B
:100A8000DFF8C4010068401CDFF8BC110860DFF823
:100A9000B801006801280BDBDFF8B001006890F0B6
:100AA0000400DFF8A8110860DFF89C010021016054
:100AB000DFF89C010068401CDFF894110860DFF843
:100AC0009001006802280BDBDFF88001006890F0DD
:100AD0000800DFF878110860DFF874010021016078
:100AE000DFF870010068401CDFF868110860DFF86B
:100AF0006401006806280BDBDFF85001006890F005
:100B00001000DFF848110860DFF84801002101609B
:100B100001BD704770477047704770477047704716
:100B200070470020002170478C0100201401002034
:100B30007C01002038B50024002540F22661DFF852
:100B40001801FFF7F3FC002817D0EDB2290089B295
:100B5000DFF80401FFF79CFCEDB2002D0DD0DFF8AB
:100B6000EC00006890F00800DFF8E010086040F248
:100B70002661DFF8E400FFF76FFD40F22551DFF852
:100B8000DC00FFF7D3FC002811D0DFF8CC00FFF722
:100B9000A4FC0400E4B2002C09D0DFF8B000006827
:100BA00090F01000DFF8A41008600020040031BDB0
:100BB00010B540F22661DFF8A400FFF7B7FC00286B
:100BC00008D0DFF89C0000684FF400714840DFF85F
:100BD0009010086040F22661DFF88000FFF73CFDCE
:100BE00040F22551DFF87400FFF7A0FC002819D06F
:100BF0000024DFF86800FFF770FC0400E4B2210075
:100C000089B2DFF85800FFF743FCDFF858000028EE
:100C100008D0DFF84C0000684FF480714840DFF8DE
:100C20004010086040F22551DFF83000FFF714FD56
:100C300010BD0000E40000203C0100201400002052
:100C40000004004000080040A40100200C180140EE
:100C5000A8010020AC0100200044004000480040F2
:100C60000C0C01408401002030B40021002200233C
:100C70000024DFF890512D6815F00C0529000D00B7
:100C8000002D04D0042D06D0082D08D02EE0DFF86A
:100C90007C5105602DE0DFF87851056029E0DFF830
:100CA00064512D6815F470152A00DFF858512D682D
:100CB00015F480352B00920C921C002B05D1DFF827
:100CC000545105FB02F505600FE0DFF838512D683F
:100CD000AD0305D5DFF8345105FB02F5056004E0EE
:100CE000DFF82C5105FB02F5056002E0DFF81C512E
:100CF0000560DFF810512D6815F0F005290009098D
:100D0000DFF814514D5D2C000568E5404560DFF8C3
:100D1000F4502D6815F4E0652900090ADFF8F85051
:100D20004D5D2C004568E5408560DFF8D8502D68A2
:100D300015F460552900C90ADFF8DC504D5D2C0020
:100D40004568E540C560DFF8BC502D6815F44045A6
:100D50002900890BDFF8C4504D5D2C00C568B5FB38
:100D6000F4F5056130BC704738B504000D002C481F
:100D7000044201D1002C04D140F24E412248FFF739
:100D8000C7FCEDB2002D07D0EDB2012D04D040F22A
:100D90004F411D48FFF7BCFCEDB2002D05D02148A6
:100DA000006820431F49086004E01E480068A04313
:100DB0001C49086031BD38B504000D001A480442D2
:100DC00001D1002C04D140F26D410F48FFF7A0FC87
:100DD000EDB2002D07D0EDB2012D04D040F26E41EE
:100DE0000948FFF795FCEDB2002D05D00F480068CB
:100DF00020430E49086004E00C480068A0430B49FA
:100E0000086031BD041002405C16000800127A0030
:100E10000024F40000093D00000000201000002024
:100E20000200C0FF18100240003601811C10024071
:100E30000F480068002804D00D480068401E0C4987
:100E40000860704709480068002804D00748006817
:100E5000401E06490860704706480068002804D014
:100E600004480068401E0349086070479001002054
:100E700098010020940100202DE9F04104000D00AC
:100E8000002600275FF00008DFF88C01844241D083
:100E9000B4F1804F3ED0DFF8880184423AD0DFF8C9
:100EA0008401844236D0DFF88001844232D0DFF8FA
:100EB0007C0184422ED0DFF8780184422AD0DFF80A
:100EC0005C01844226D0DFF87001844222D0DFF832
:100ED0006C0184421ED0DFF8680184421AD0DFF82A
:100EE0006401844216D0DFF86001844212D0DFF83A
:100EF0005C0184420ED0DFF8580184420AD0554884
:100F0000844207D04B48844204D040F64B214148EC
:100F1000FFF7FEFBADB2012D19D0ADB2022D16D0F8
:100F2000ADB2042D13D0ADB2082D10D0ADB2102D3E
:100F30000DD0ADB2202D0AD0ADB2402D07D0ADB24C
:100F4000802D04D040F64C213248FFF7E1FB208A87
:100F500028400700A08928408046BFB2002F07D054
:100F60001FFA88F8B8F1000F02D00120060001E056
:100F7000002006003000C0B2BDE8F08138B50400A2
:100F80000D002548844234D0B4F1804F31D024483C
:100F900084422ED0234884422BD02348844228D038
:100FA0002248844225D02248844222D01B488442D1
:100FB0001FD0214884421CD02048844219D02048A8
:100FC000844216D01F48844213D01F48844210D058
:100FD0001E4884420DD01E4884420AD01D488442D7
:100FE00007D01448844204D040F675210948FFF721
:100FF0008FFB4FF47F40054202D1ADB2002D04D1EA
:1010000040F676210348FFF783FBADB2E843208228
:1010100031BD0000BC160008002C01400034014026
:101020000004004000080040000C00400010004098
:101030000014004000480140004C014000500140B5
:101040000054014000180040001C004000200040F7
:1010500000400140004401402DE9F84F04000D001C
:10106000002600275FF000085FF000095FF0000A2B
:101070005FF0000BDFF8F80184421CD0DFF8F401C8
:10108000844218D0DFF8F001844214D0DFF8EC017C
:10109000844210D0DFF8E80184420CD0DFF8E4018C
:1010A000844208D0DFF8E001844204D0B121DFF8A7
:1010B000DC01FFF72DFBE878002819D0E878042838
:1010C00016D0E878282813D0E878482810D0E87897
:1010D00014280DD0E87810280AD0E8781C2807D00A
:1010E000E878182804D0B221DFF8A001FFF710FB40
:1010F0002888002804D1B321DFF89001FFF708FB0E
:10110000E87810F00F000600E878C0060FD5A87840
:1011100001280AD0A878022807D0A878032804D08C
:10112000BA21DFF86801FFF7F3FAA87806432878B8
:10113000000631D02068824600208046B8F1080FB2
:1011400028D2012010FA08F08146288819EA000008
:1011500007004F451BD15FEA880081460F2010FA37
:1011600009F083463AEA0B0A16FA09F050EA0A0A2D
:10117000E878282804D1012010FA08F0606106E020
:10118000E878482803D1012010FA08F0206118F10E
:101190000108D3E7C4F800A028884FF48071884282
:1011A00033D36068824600208046B8F1080F2AD207
:1011B000012018F1080188408146288819EA0000BA
:1011C00007004F451CD15FEA880081460F2010FAC6
:1011D00009F083463AEA0B0A16FA09F050EA0A0ABD
:1011E000E878282804D1012018F1080188406061BE
:1011F000E878482804D1012018F1080188402061CE
:1012000018F10108D1E7C4F804A0BDE8F18F38B5A2
:1012100004000D00DFF8580084421CD0DFF85400B1
:10122000844218D0DFF85000844214D0DFF84C001C
:10123000844210D0DFF8480084420CD01148844228
:1012400009D0DFF84400844205D04FF4B471DFF8D0
:101250003C00FFF75DFAADB2002D05D140F26911F7
:10126000DFF82800FFF754FAADB2256131BD000068
:1012700000080140000C0140001001400014014032
:1012800000180140001C0140002001409415000896
:1012900080B54C48006850F001004A4908604A484F
:1012A00000684A490840484908604648006848497B
:1012B0000840444908604348006830F480204149B0
:1012C00008604148006830F4FE003F49086041482A
:1012D0005FF41F01016000F001F801BD80B500F06E
:1012E00001F801BD82B00020019000200090354837
:1012F000006850F48030334908603248006810F4C8
:10130000003000900198401C01900098002803D103
:101310000198B0F5A06FF0D12A480068800302D58B
:101320000120009001E0002000900098012847D1A2
:101330002948006850F010002749086026480068D6
:1013400080088000244908602348006850F00200AB
:10135000214908601C481C49096801601A481A495B
:10136000096801601848006850F4806016490860F8
:101370001548006830F47C10134908601248006872
:1013800050F48810104908600E48006850F08070D2
:101390000C4908600B4800688001FBD50A480068CA
:1013A00080088000084908600748006850F0020083
:1013B000054908600448006810F00C000828F9D1BD
:1013C00002B0704700100240041002400000FFF815
:1013D000FFFFF6FE081002400020024080B500F03A
:1013E0000CF83B48FFF740FC00F038F800F016F826
:1013F0005FF4E13000F042F801BD80B5FFF748FF2F
:1014000001217D20FFF7B0FC01210420FFF7D3FC70
:1014100001215FF48020FFF7CEFC01BD80B52D488F
:101420001E2101702B48002141702A480021817043
:1014300028480121C170274800F056F82548272187
:101440000170244800214170224800218170214808
:101450000121C1701F4800F047F801BD80B51E484A
:101460004FF4487101801C481021C1701A480321B3
:10147000817019491948FFF7EFFD01BD10B504004F
:101480001748046016480021818015480021018119
:1014900013480021C18012480021818110480C218D
:1014A00041810F490F48FEF721FE012240F22551EC
:1014B0000C48FEF74EFF012240F226610948FEF774
:1014C00048FF01210748FEF70DFF10BD0000000096
:1014D000580100209C010020A0010020000C0140C8
:1014E0006C01002000480040F8B5040000250026EB
:1014F0000F27E078002806D0E078012803D0742177
:101500001F48FFF705F96078102803D375211C48A0
:10151000FFF7FEF8A078102803D376211848FFF7CC
:10152000F7F8E078002820D01648006810F4E06052
:10153000D0F5E060000A0500D5F104000600EF4098
:101540006078B0400500A078384005432D01207830
:101550000D494554207840110C490122237813F09D
:101560001F039A4041F8202009E0207840110849E3
:101570000122237813F01F039A4041F82020F1BD87
:101580001C1700080CED00E000E400E000E100E0C2
:1015900080E100E0433A5C55736572735C545454C7
:1015A0005C4465736B746F705C7A7A2E5354444656
:1015B000575C30302E53747564795C4C696272618B
:1015C000726965735C53544D3332463130785F53E2
:1015D00074645065726970685F4472697665725CA4
:1015E0007372635C73746D3332663130785F677029
:1015F000696F2E6300000000433A5C557365727397
:101600005C5454545C4465736B746F705C7A7A2ECE
:1016100053544446575C30302E53747564795C4C97
:1016200069627261726965735C53544D333246313D
:1016300030785F5374645065726970685F44726992
:101640007665725C7372635C73746D3332663130CD
:10165000785F75736172742E63000000433A5C55C5
:10166000736572735C5454545C4465736B746F702F
:101670005C7A7A2E53544446575C30302E5374753E
:1016800064795C4C69627261726965735C53544D34
:101690003332463130785F537464506572697068D4
:1016A0005F4472697665725C7372635C73746D33E8
:1016B00032663130785F7263632E6300433A5C5563
:1016C000736572735C5454545C4465736B746F70CF
:1016D0005C7A7A2E53544446575C30302E537475DE
:1016E00064795C4C69627261726965735C53544DD4
:1016F0003332463130785F53746450657269706874
:101700005F4472697665725C7372635C73746D3387
:1017100032663130785F74696D2E6300433A5C55F0
:10172000736572735C5454545C4465736B746F706E
:101730005C7A7A2E53544446575C30302E5374757D
:1017400064795C4C69627261726965735C53544D73
:101750003332463130785F53746450657269706813
:101760005F4472697665725C7372635C6D69736302
:101770002E63000080B54FF400710848FFF747FD65
:1017800001BD80B54FF480710448FFF740FD01BDF5
:1017900080B520210148FFF73AFD01BD000C014052
:1017A00080B5FFF7EEFFFFF7E5FFFFF7F1FF01BDA3
:1017B00010B450F8041B81B102681218001D50F8D3
:1017C000043BDC0744BFA9F10104E31852F8044BC1
:1017D00043F8044B091FF9D1EBE710BC704750F8F0
:1017E000041B61B150F8042BD30744BFA9F10103D6
:1017F0009A18002342F8043B091FFAD1EFE770471B
:1018000010B5084979441C31074C7C441A34A14274
:1018100006D0081D0A68511888470146A142F8D130
:1018200010BD00BF0800000028000000B3FFFFFF4C
:101830009C010000140000200000000075FFFFFF65
:10184000140000004401000000000020000000001F
:1018500000F009F8002801D0FFF7D2FF002000F0C7
:1018600004F800F008F80120704780B5FFF7B6FDD6
:10187000FFF796FFFEE700F001B800000746384684
:1018800000F002F8FBE7000080B5C046C046024AFF
:1018900011001820ABBEFBE726000200014880477C
:1018A0000148004791120008AD180008C046C04624
:1018B000C046C046FFF7CCFFFEF72BBFFEF72ABF9E
:1018C000FEF729BFFEF728BFFEF727BFFEF726BFAA
:1018D000FEF725BFFEF724BFFEF723BFFEF729BFA3
:1018E000FEF728BFFEF727BFFEF726BFFEF725BF8E
:1018F000FEF724BFFFF7FEBFFFF7FEBFFFF7FEBFF7
:10190000FFF7FEBFFFF7FEBFFFF7FEBFFEF717BFF3
:10191000FEF716BFFEF715BFFEF714BFFEF713BFA5
:10192000FEF712BFFEF711BFFEF710BFFFF7FEBFB5
:10193000FEF70DBFFEF70CBFFFF7FEBFFEF709BFB6
:10194000FEF708BFFEF707BFFEF706BFFEF705BFAD
:10195000FFF782B8FFF787B8FFF7DBB8FFF7DAB811
:10196000FFF7D9B8FFF7D8B8FFF7D7B8FFF7D6B861
:10197000FFF7D7B8FFF7DEB8FFF71AB9FFF7CFB810
:10198000FFF7CEB8FFF7FEBF00000000010203041E
:0C1990000102030406070809020406080F
:04000005080018AD2A
:00000001FF
