:020000040800F2
:10000000701F0020013D0008530C0008550C00082B
:10001000570C0008590C00085B0C00080000000099
:100020000000000000000000000000005D0C00085F
:100030005F0C000800000000610C0008630C000861
:10004000730C0008750C0008770C0008790C000888
:100050007B0C00087D0C0008593D00085D3D000840
:10006000613D0008653D0008693D00086D3D0008E0
:100070007F0C0008810C0008830C0008850C000828
:10008000870C0008890C00088B0C00088D0C0008F8
:10009000913D00088F0C0008910C00089D3D000860
:1000A000930C0008950C0008970C0008990C0008A8
:1000B0009B0C00088D100008B1100008D510000836
:1000C000D7100008D9100008DB100008DD10000868
:1000D000DF10000861140008E91400087515000815
:1000E000E1100008E3100008E93D000870B50400C5
:1000F0000D000026DFF8AC07844243D0B4F1804FF6
:1001000040D0DFF8A40784423CD0DFF8A007844247
:1001100038D0DFF89C07844234D0DFF89807844257
:1001200030D0DFF8940784422CD0DFF89007844267
:1001300028D0DFF88C07844224D0DFF88807844277
:1001400020D0DFF8840784421CD0DFF88007844287
:1001500018D0DFF87C07844214D0DFF87807844297
:1001600010D0DFF8740784420CD0DFF870078442A7
:1001700008D0DFF87407844204D0E521DFF8600777
:1001800000F066FD6888002810D0688810280DD01F
:10019000688820280AD06888402807D068886028A6
:1001A00004D0E621DFF8380700F052FDE888002887
:1001B0000ED0E8884FF48071884209D0E8884FF467
:1001C0000071884204D0E721DFF8140700F040FDF9
:1001D00020880600DFF8CC06844212D0DFF8DC0667
:1001E00084420ED0B4F1804F0BD0DFF8BC068442BD
:1001F00007D0DFF8B806844203D0DFF8B4068442A3
:1002000004D14FF68F70064068880643DFF8A406D5
:10021000844208D0DFF8A006844204D04FF6FF40A5
:100220000640E88806432680A888A085288820857F
:10023000DFF8700684420FD0DFF8800684420BD0CE
:10024000DFF89406844207D0DFF89006844203D09A
:10025000DFF89406844201D1287A20860120A0820A
:1002600070BD2DE9F04104000D00002600275FF06D
:100270000008DFF8300684423CD0B4F1804F39D01A
:10028000DFF82406844235D0DFF82006844231D0DE
:10029000DFF81C0684422DD0DFF82006844229D0E6
:1002A000DFF81C06844225D0DFF81806844221D0EE
:1002B000DFF8140684421DD0DFF81006844219D0FE
:1002C000DFF80C06844215D0DFF80806844211D00E
:1002D000DFF8040684420DD0DFF80006844209D01E
:1002E000DFF80006844205D04FF48D71DFF8F00589
:1002F00000F0AEFC2888002814D02888102811D0DF
:10030000288820280ED0288830280BD028886028FC
:1003100008D02888702805D040F21B11DFF8C005EE
:1003200000F096FC6888002808D06888012805D06D
:100330004FF48E71DFF8A80500F08AFC28890028A8
:1003400008D02889022805D040F21D11DFF8900559
:1003500000F07EFC208C4FF6FE7108402084208C3B
:100360000700A0888046208B06004FF68F7006405D
:100370004FF6FC700640288806434FF6FD70074094
:100380002889074368880743DFF8180584420FD09F
:10039000DFF8280584420BD0DFF83C05844207D003
:1003A000DFF83805844203D0DFF8380584424BD1AA
:1003B000A888002808D0A888042805D04FF49D718B
:1003C000DFF81C0500F044FC6889002808D0688923
:1003D000082805D040F23B11DFF8040500F038FC96
:1003E000E8894FF40071884208D0E889002805D0D8
:1003F0004FF49E71DFF8E80400F02AFCA8894FF45E
:100400008071884208D0A889002805D040F23D11AB
:10041000DFF8CC0400F01CFC4FF6F7700740688949
:1004200007434FF6FB700740A88807434FF6FF606D
:1004300010EA08084FF6FF5010EA0808A88950EAA9
:100440000808E88950EA0808A4F804802683E888A8
:10045000A0862784BDE8F0812DE9F04104000D005D
:10046000002600275FF00008DFF83804844224D01B
:10047000B4F1804F21D0DFF8300484421DD0DFF882
:100480002C04844219D0DFF82804844215D0DFF808
:100490002C04844211D0DFF8280484420DD0DFF808
:1004A0002C04844209D0DFF83004844205D040F2A5
:1004B0006D11DFF82C0400F0CBFB2888002814D045
:1004C0002888102811D0288820280ED02888302885
:1004D0000BD02888602808D02888702805D04FF4D1
:1004E000B771DFF8FC0300F0B3FB6888002808D080
:1004F0006888012805D040F26F11DFF8E40300F0AE
:10050000A7FB2889002808D02889022805D04FF4A5
:10051000B871DFF8CC0300F09BFB208C4FF6EF7135
:1005200008402084208C0700A0888046208B06008D
:1005300048F6FF7006404FF6FF400640288856EA0E
:1005400000264FF6DF700740288957EA00176888B1
:1005500057EA0017DFF84C03844203D0DFF85C034E
:1005600084424BD1A888002808D0A888042805D048
:1005700040F28D11DFF8680300F06AFB68890028FB
:1005800008D06889082805D04FF4C771DFF85003F8
:1005900000F05EFBE8894FF40071884207D0E889DB
:1005A000002804D040F28F11CD4800F051FBA889FB
:1005B0004FF48071884207D0A889002804D04FF4F6
:1005C000C871C74800F044FB4FF67F700740688948
:1005D00057EA00174FF6BF700740A88857EA001780
:1005E0004FF6FF3010EA08084FF2FF7010EA0808D3
:1005F000A88958EA8008E88958EA8008A4F80480A5
:100600002683E88820872784BDE8F0812DE9F04122
:1006100004000D00002600275FF00008A148844276
:1006200013D0B4F1804F10D09F4884420DD09F4822
:1006300084420AD09E48844207D0A048844204D015
:1006400040F2BF11A64800F003FB2888002813D011
:100650002888102810D0288820280DD028883028F5
:100660000AD02888602807D02888702804D04FF442
:10067000E0719B4800F0ECFA6888002807D0688891
:10068000012804D040F2C111954800F0E1FA288910
:10069000002807D02889022804D04FF4E17190483F
:1006A00000F0D6FA208C4FF6FF6108402084208CA1
:1006B0000700A0888046A08B06004FF68F7006408A
:1006C0004FF6FC700640288806434FF6FF5007405F
:1006D000288957EA0027688857EA0027714884422A
:1006E00002D07648844249D1A888002807D0A8883B
:1006F000042804D04FF4EF71794800F0A9FA688912
:10070000002807D06889082804D040F2DF11744817
:1007100000F09EFAE8894FF40071884207D0E8891A
:10072000002804D04FF4F0716D4800F091FAA889C8
:100730004FF48071884207D0A889002804D040F285
:10074000E111674800F084FA4FF2FF7007406889B2
:1007500057EA00274FF6FF300740A88857EA0027DE
:100760004EF6FF7010EA08084DF6FF7010EA080810
:10077000A88958EA0018E88958EA0018A4F8048003
:10078000A683E888A0872784BDE8F0812DE9F041A1
:1007900004000D00002600275FF000084148844255
:1007A00013D0B4F1804F10D03F4884420DD03F4861
:1007B00084420AD03E48844207D04048844204D054
:1007C00040F20E21464800F043FA2888002813D052
:1007D0002888102810D0288820280DD02888302874
:1007E0000AD02888602807D02888702804D040F2D2
:1007F0000F213B4800F02CFA6888002807D0688851
:10080000012804D04FF40471354800F021FA2889FA
:10081000002807D02889022804D040F2112130484E
:1008200000F016FA208C4EF6FF7108402084208CD0
:100830000700A0888046A08B060048F6FF7006409F
:100840004FF6FF400640288856EA00264DF6FF7016
:100850000740288957EA0037688857EA0037114867
:10086000844202D01548844213D1A8894FF4807184
:10087000884207D0A889002804D040F22E211848C9
:1008800000F0E6F94BF6FF7010EA0808A88958EA6C
:100890008018A4F80480A683E888A4F84000278480
:1008A000BDE8F081002C0140000400400008004039
:1008B000000C0040001000400014004000340140D3
:1008C000004C01400050014000540140001800401D
:1008D000001C004000200040004001400044014056
:1008E000603B0008004801400048014038B5040062
:1008F0000D00DFF83801844244D0B4F1804F41D07C
:10090000DFF8300184423DD0DFF82C01844239D039
:10091000DFF82801844235D0DFF84801844231D025
:10092000DFF8440184422DD0DFF80401844229D04D
:10093000DFF80C01844225D0DFF80801844221D081
:10094000DFF8040184421DD0DFF80001844219D091
:10095000DFF8FC00844215D0DFF8F800844211D0A3
:10096000DFF8F40084420DD0DFF8F000844209D0B3
:10097000DFF8F800844205D040F22731DFF8E000CC
:1009800000F066F9EDB2002D08D0EDB2012D05D0D2
:100990004FF44A71DFF8C80000F05AF9EDB2002DAB
:1009A00004D0208850F00100208004E020884FF619
:1009B000FE710840208031BD38B504000D00DFF81D
:1009C0006C00844215D0DFF86800844211D0DFF853
:1009D000880084420DD0DFF88400844209D0DFF81B
:1009E0008C00844205D04FF45071DFF8740000F0A1
:1009F0002FF9EDB2002D08D0EDB2012D05D040F257
:100A00004131DFF85C0000F023F9EDB2002D06D093
:100A1000B4F8440050F40040A4F8440005E0B4F8F1
:100A200044004004400CA4F8440031BD002C0140B7
:100A3000003401400004004000080040000C004069
:100A4000004C01400050014000540140001800409B
:100A5000001C0040002000400040014000440140D4
:100A6000603B0008001000400014004000480140B6
:100A70002DE9F04104000D00002600275FF000087A
:100A8000DFF88C01844241D0B4F1804F3ED0DFF8D2
:100A9000880184423AD0DFF88401844236D0DFF8FE
:100AA0008001844232D0DFF87C0184422ED0DFF80E
:100AB000780184422AD0DFF85C01844226D0DFF836
:100AC0007001844222D0DFF86C0184421ED0DFF82E
:100AD000680184421AD0DFF86401844216D0DFF83E
:100AE0006001844212D0DFF85C0184420ED0DFF84E
:100AF000580184420AD05548844207D04B4884426A
:100B000004D040F64B21414800F0A2F8ADB2012DCF
:100B100019D0ADB2022D16D0ADB2042D13D0ADB2A6
:100B2000082D10D0ADB2102D0DD0ADB2202D0AD0B1
:100B3000ADB2402D07D0ADB2802D04D040F64C218F
:100B4000324800F085F8208A28400700A089284014
:100B50008046BFB2002F07D01FFA88F8B8F1000F07
:100B600002D00120060001E0002006003000C0B2E3
:100B7000BDE8F08138B504000D002548844234D02A
:100B8000B4F1804F31D0244884422ED0234884428F
:100B90002BD02348844228D02248844225D02248A2
:100BA000844222D01B4884421FD0214884421CD05A
:100BB0002048844219D02048844216D01F488442DD
:100BC00013D01F48844210D01E4884420DD01E48C6
:100BD00084420AD01D48844207D01448844204D07D
:100BE00040F67521094800F033F84FF47F40054284
:100BF00002D1ADB2002D04D140F67621034800F0B9
:100C000027F8ADB2E843208231BD0000603B000808
:100C1000002C014000340140000400400008004066
:100C2000000C00400010004000140040004801404B
:100C3000004C0140005001400054014000180040A9
:100C4000001C0040002000400040014000440140E2
:100C5000FEE77047FEE7FEE7FEE7FEE770477047F6
:100C6000704780B500F0F8FC00F00AFD00F0FEFCD3
:100C700001BD7047704770477047704770477047B5
:100C800070477047704770477047704770477047AC
:100C90007047704770477047704780B501215FF01B
:100CA0008040FFF7E5FE002800F0EF8101215FF0B2
:100CB0008040FFF75FFFDFF818080078401CDFF87E
:100CC00010180870DFF80808007864280BD3DFF8E4
:100CD000000800210170DFF8F807407890F0FF006D
:100CE000DFF8EC174870DFF8EC070078012815D121
:100CF000DFF8E0074068401CDFF8D8174860DFF8ED
:100D0000D40740684FF47A71884207D3DFF8C407EC
:100D100000214160DFF8BC0700210170DFF8B8074F
:100D20004078002802D0012811D068E00121DFF8C6
:100D3000AC0700F090FDDFF8A81708710221DFF87A
:100D40009C0700F088FDDFF89817487157E00121F3
:100D5000DFF8880700F07FFDDFF884170871DFF8FF
:100D600084074078DFF87817097988423ED0DFF8A9
:100D700070070079002831D1DFF868074078012832
:100D80002CD1DFF86007C07801280BD3DFF85407B7
:100D9000C0780F2806D2DFF84C07C078401EDFF875
:100DA0004417C870DFF83C07C078002804D101213F
:100DB000002000F0C1FF11E0DFF8280700790028CB
:100DC0000CD1DFF820074079002807D0012100204E
:100DD00000F0B2FFDFF80C07012101710121DFF8FB
:100DE000FC0600F038FDDFF8FC1648700221DFF841
:100DF000EC0600F030FDDFF8E8164871FFE7DFF899
:100E0000E406007901282FD1DFF8D8068079401C4C
:100E1000DFF8D0168871DFF8CC068079652823D3F7
:100E2000DFF8C00600218171DFF8B806C079401CE8
:100E3000DFF8B016C871DFF8AC06C079DFF8A41689
:100E40004979884210D3DFF89C0600210171DFF850
:100E50009406C078002803D00121012000F06CFF27
:100E6000DFF880060021C171DFF87406407B00289E
:100E70002AD0DFF86C06807B401CDFF8641688738C
:100E8000DFF85C06807B64281ED3DFF85406C07B45
:100E9000401CDFF84C16C873DFF84406002181734C
:100EA000DFF83C06C07BDFF83816097B88420BD39D
:100EB000DFF82C0601210174DFF824060021C1733C
:100EC000DFF81C0600214173DFF81406807A002841
:100ED00010D1DFF80C06407B00280BD0DFF80006AD
:100EE00000214173DFF8F80500218173DFF8F00578
:100EF0000021C173DFF8C8060078012817D1DFF898
:100F0000C0064068401CDFF8B8164860DFF8B0063D
:100F10004068C8280BD3DFF8A80601210172DFF86A
:100F2000A00600214160DFF8980600210170DFF87B
:100F30009006407A012816D1DFF88406C068401C6C
:100F4000DFF87C16C860DFF878060069DFF87016F5
:100F5000C968884207D2DFF8680601210175DFF809
:100F600060060021C160DFF85C068078012813D19B
:100F7000DFF85006C078401CDFF84816C870DFF86C
:100F80004406C078322807D3DFF838060021C17044
:100F9000DFF8300600218170DFF84405807C0028EE
:100FA00023D1DFF83C05C07C00280ED1DFF83005E6
:100FB000007D002809D1DFF82805407D002804D1F4
:100FC000DFF81C05807D00280FD0DFF81405002114
:100FD000C174DFF80C0500210175DFF8040500215C
:100FE0004175DFF8FC0400218175DFF8F404807C92
:100FF00001284AD1DFF8E804C07C401CDFF8E01487
:10100000C874DFF8DC04C07C64283ED3DFF8D00469
:101010000021C174DFF8C804007D401CDFF8C01453
:101020000875DFF8BC04007D3C282ED3DFF8B0043F
:1010300000210175DFF8A804407D401CDFF8A014F2
:101040004875DFF89C04407D3C281ED3DFF89004EF
:1010500000214175DFF88804807D401CDFF8801492
:101060008875DFF87C04807DDFF87414497C884241
:101070000BD3DFF86C0400218175DFF864040021D4
:101080008174DFF85C040121C17501BD80B50121C7
:10109000DFF83405FFF7ECFC002808D00121DFF869
:1010A0002C05FFF767FD01F0ECF801F0E3F801BD56
:1010B00080B50121DFF81405FFF7DAFC002808D01D
:1010C0000121DFF80805FFF755FD01F0C5F801F033
:1010D000CAF801BD70477047704770477047704746
:1010E00070477047C0B2C9B288420FD1DFF8E4241C
:1010F00082F88400DFF8DC24127F521CDFF8D4343D
:101100001A77DFF8D024012353770CE0DFF8C424EA
:1011100000231377DFF8BC24002382F88330DFF844
:10112000B4240023D3747047DFF8A80490F8830038
:10113000CA280ED1DFF89C0490F88700D12808D186
:10114000DFF88C044078002803D1DFF88404022102
:101150000170704738B504000D00E4B2002C2BD1AB
:10116000DFF8700400210177DFF86804007FDFF802
:101170006414401880F88350DFF85804007F401C46
:10118000DFF850140877DFF854040068DFF84C14D7
:1011900040180571DFF844040068401CDFF83C1477
:1011A0000860DFF8380400684FF49671884203D372
:1011B000DFF8280400210160E4B2012C38D1DFF807
:1011C0001C040068DFF8141440180571DFF80C04E3
:1011D0000068401CDFF804140860DFF800040068B1
:1011E0004FF49671884203D3DFF8F00300210160C9
:1011F000DFF8E003007F01281AD1DFF8D803C07CB4
:101200000A2809D00B280DD0AC2811D1AC21280018
:10121000C0B2FFF767FF0BE00A212800C0B2FFF75A
:1012200061FF05E00B212800C0B2FFF75BFFFFE77D
:10123000E4B2022C53D1DFF8A4030068DFF89C135A
:1012400040180571DFF894030068401CDFF88C1328
:101250000860DFF8880300684FF49671884203D372
:10126000DFF8780300210160DFF86803C07CFF2805
:101270001BD1DFF86003007F022830D1DFF8540370
:1012800002214177DFF84C03407F401DDFF8441313
:101290008877DFF8400380F88550DFF83803007F57
:1012A000401CDFF83013087719E0DFF82803007FCF
:1012B000022814D1DFF81C034577DFF81803407FBC
:1012C000401DDFF810138877DFF8080380F8855099
:1012D000DFF80003007F401CDFF8F8120877E4B263
:1012E000032C72D1DFF8F4020068DFF8F012401826
:1012F0000571DFF8E8020068401CDFF8E0120860C2
:10130000DFF8D80200684FF49671884203D3DFF803
:10131000CC0200210160DFF8BC02007FDFF8B412CC
:10132000401880F88350DFF8AC02007F401CDFF8E3
:10133000A4120877DFF89C02007FDFF89812897FFB
:10134000884242D1DFF88C02C07CFF2802D100F035
:1013500047F92EE0DFF87C02007FDFF878124018B2
:1013600090F8820010F00F000F2817D1DFF860020C
:10137000407801280BD1DFF85C020121C173DFF84E
:101380005402007C401CDFF84C12087401E0FFF7A7
:10139000CBFEDFF84002002101770AE0DFF83402DB
:1013A000FF21C173DFF82C02807E401CDFF824127D
:1013B0008876DFF8200200210177DFF8180200218B
:1013C0004177DFF810020021C17431BD38B5040047
:1013D0000025DFF80002C07C002823D1E4B2200001
:1013E000A0280CD0B02813D0CA281AD1CA210020B6
:1013F000FFF7B0FEDFF8DC01AC21C1742FE0A021C3
:101400000020FFF7A7FEDFF8CC010A21C17426E017
:10141000B0210020FFF79EFEDFF8B8010B21C17458
:101420001DE01CE0DFF8AC01407F002802D1012064
:1014300005000EE0DFF89C01007F032802D30320A3
:10144000050006E0DFF88C01007E002801D10220B3
:1014500005002100C9B22800C0B2FFF77BFE31BDF4
:1014600010B5002440F226615B4801F033F90028F2
:101470001ED0584800785749497888420DD25548BF
:101480000078411C534A1170C0B252494018C17FC4
:1014900089B2514801F0D0F805E04E480021417072
:1014A0004C480021017040F226614B4801F0A8F938
:1014B00040F22551484801F00DF9002807D0464870
:1014C00001F0DFF804002000C0B2FFF77FFF10BD7D
:1014D000501B0020981A0020541B002000100140CF
:1014E000C01A0020401B002038B50024002540F21F
:1014F0002661DFF8580101F0EDF800282CD0DFF864
:1015000048014078DFF840118978884216D2DFF828
:1015100038014078DFF830114018007D0500DFF811
:1015200028014078401CDFF820114870EDB22900F6
:1015300089B2DFF8180101F07FF807E0DFF8080151
:1015400000214170DFF800010021817040F2266126
:10155000DFF8F80001F054F940F22551DFF8EC0013
:1015600001F0B8F8002804D0DFF8E00001F089F8B5
:10157000040031BD38B50024002540F22661DFF8B3
:10158000D00001F0A7F800280CD0EDB2290089B2F4
:10159000DFF8BC0001F050F840F22661DFF8B0003F
:1015A00001F02EF940F22551DFF8A40001F092F885
:1015B000002804D0DFF8980001F063F8040031BD82
:1015C0003C1A00206C190020000400400008004074
:1015D00018000020A81700200038014078160020CD
:1015E0000021002001221100C9B2062908D2C9B287
:1015F000DFF860208A1892F875201018491CF3E76C
:10160000DFF8502092F87B20C0B282420FD1DFF881
:10161000442001231372DFF83C20527A521CDFF879
:1016200034305A72DFF82C20002353730AE0DFF8BD
:101630002420FF231372DFF81C20D27A521CDFF81B
:101640001430DA7270470000901800200044004007
:1016500000480040A81300200F480068002804D06C
:101660000D480068401E0C49086070470948006832
:10167000002804D007480068401E064908607047EB
:1016800006480068002804D004480068401E03494A
:1016900008607047581B0020601B00205C1B002066
:1016A0002DE9F84F04000D00002600275FF0000828
:1016B0005FF000095FF0000A5FF0000BDFF8300315
:1016C00084421CD0DFF82C03844218D0DFF82803B2
:1016D000844214D0DFF82403844210D0DFF82003C2
:1016E00084420CD0DFF81C03844208D0DFF81803D2
:1016F000844204D0B121DFF81403FFF7A9FAE87897
:10170000002819D0E878042816D0E878282813D0C3
:10171000E878482810D0E87814280DD0E878102808
:101720000AD0E8781C2807D0E878182804D0B2211D
:10173000DFF8D802FFF78CFA2888002804D1B321FB
:10174000DFF8C802FFF784FAE87810F00F0006000F
:10175000E878C0060FD5A87801280AD0A878022812
:1017600007D0A878032804D0BA21DFF8A002FFF739
:101770006FFAA87806432878000631D020688246A0
:1017800000208046B8F1080F28D2012010FA08F096
:101790008146288819EA000007004F451BD15FEAFF
:1017A000880081460F2010FA09F083463AEA0B0AB6
:1017B00016FA09F050EA0A0AE878282804D101202C
:1017C00010FA08F0606106E0E878482803D10120AB
:1017D00010FA08F0206118F10108D3E7C4F800A05E
:1017E00028884FF48071884233D360688246002095
:1017F0008046B8F1080F2AD2012018F1080188406C
:101800008146288819EA000007004F451CD15FEA8D
:10181000880081460F2010FA09F083463AEA0B0A45
:1018200016FA09F050EA0A0AE878282804D10120BB
:1018300018F1080188406061E878482804D1012047
:1018400018F108018840206118F10108D1E7C4F8B7
:1018500004A0BDE8F18F70B504000D000026DFF88C
:10186000900184421DD0DFF88C01844219D0DFF84A
:101870008801844215D0DFF88401844211D0DFF85A
:10188000800184420DD0DFF87C01844209D0DFF86A
:101890007801844205D040F21D11DFF87001FFF796
:1018A000D7F9ADB2012D3CD0ADB2022D39D0ADB2D9
:1018B000042D36D0ADB2082D33D0ADB2102D30D0BE
:1018C000ADB2202D2DD0ADB2402D2AD0ADB2802D9D
:1018D00027D04FF48070ADB2854222D04FF4007013
:1018E000ADB285421DD0ADB2B5F5806F19D0ADB2A5
:1018F000B5F5006F15D0ADB2B5F5805F11D0ADB2C2
:10190000B5F5005F0DD0ADB2B5F5804F09D0ADB2E1
:10191000B5F5004F05D04FF48F71DFF8F000FFF7F9
:1019200097F9A06880B2284202D00120060001E0A9
:10193000002006003000C0B270BD38B504000D00B4
:10194000DFF8AC0084421CD0DFF8A800844218D035
:10195000DFF8A400844214D0DFF8A000844210D045
:10196000DFF89C0084420CD02648844209D0DFF87E
:101970009800844205D04FF4B471DFF89000FFF76F
:1019800067F9ADB2002D05D140F26911DFF87C0096
:10199000FFF75EF9ADB2256131BD38B504000D0029
:1019A0001348844218D01348844215D01248844208
:1019B00012D0124884420FD0114884420CD01148F2
:1019C000844209D0DFF84000844205D04FF4BC7156
:1019D000DFF83800FFF73CF9ADB2002D05D140F239
:1019E0007911DFF82800FFF733F9ADB2656131BD39
:1019F00000080140000C01400010014000140140AB
:101A000000180140001C0140002001401839000866
:101A100040B2002809D540B210F00F02DFF8A43719
:101A2000D2180B0102F8043C04E040B2DFF898271A
:101A30000B018354704710B50400B4F1807F01D3CB
:101A4000012013E02002000A401EDFF88017086022
:101A50000F215FF0FF30FFF7DBFFDFF87407002195
:101A60000160DFF8700707210160002010BD80B51C
:101A70004FF48051DFF86007FFF7EDFEDFF85C17E9
:101A800008704FF40051DFF85007FFF7E4FEDFF86D
:101A90004C17487001BD80B500F00DFADFF8400723
:101AA00000F00AFF00F0B2FA00F092F9FFF7DFFF52
:101AB0005FF4E13000F021F85FF4E13000F052F81B
:101AC0004FF4164000F081F85FF4E13000F0B0F818
:101AD000DFF80C0700684FF47A71B0FBF1F0FFF704
:101AE000AAFF002800D0FEE700F025FA00F0B8FABF
:101AF00000F0E7FA00F029FB01BD10B50400DFF8A3
:101B0000E4065FF4E1310160DFF8D806002181804E
:101B1000DFF8D0060021C180DFF8C806002101816E
:101B2000DFF8C00600218181DFF8B8060C21418171
:101B3000DFF8B016DFF8B00600F0ACFB012240F28F
:101B40002551DFF8A40600F0D8FC012240F22661FE
:101B5000DFF8940600F0D1FC0121DFF88C0600F0DC
:101B600095FC10BD10B50400DFF878060460DFF8BE
:101B7000740600218180DFF86C060021C180DFF847
:101B8000640600210181DFF85C0600218181DFF815
:101B900054060C214181DFF84C16DFF8500600F0A6
:101BA00079FB012240F22551DFF8400600F0A5FC48
:101BB000012240F22661DFF8340600F09EFC01218C
:101BC000DFF8280600F062FC10BD10B50400DFF855
:101BD00014060460DFF80C0600218180DFF804069B
:101BE0000021C180DFF8FC0500210181DFF8F40548
:101BF00000218181DFF8EC050C214181DFF8E4153B
:101C0000DFF8EC0500F046FB012240F22551DFF839
:101C1000E00500F072FC012240F22661DFF8D005F9
:101C200000F06BFC0121DFF8C80500F02FFC10BDAF
:101C300010B50400DFF8AC050460DFF8A80500214A
:101C40008180DFF8A0050021C180DFF89805002120
:101C50000181DFF8900500218181DFF888050C21E2
:101C60004181DFF88015DFF88C0500F013FB0122BD
:101C700040F22551DFF87C0500F03FFC012240F2E4
:101C80002661DFF8700500F038FC0121DFF86405FB
:101C900000F0FCFB10BD70B50400A4B2002C25D1EF
:101CA000DFF8540500684FF49661B0FBF1F0401E78
:101CB0000500A4B2ADB2681E00FB04F06421B0FBC5
:101CC000F1F00600DFF83405C680DFF83015DFF8E4
:101CD0003005FEF75BFD0021DFF82405FEF706FE68
:101CE0000021DFF81C05FEF767FE24E0DFF8080599
:101CF00000684FF49661B0FBF1F0401E0500A4B2FD
:101D0000ADB2681E00FB04F06421B0FBF1F00600E8
:101D1000DFF8E804C680DFF8E414DFF8E404FEF737
:101D200035FD0121DFF8D804FEF7E0FD0121DFF8E1
:101D3000D004FEF741FE70BD38B504000D00E4B2DA
:101D4000002C02D0012C11D041E04021DFF8B80472
:101D5000FFF723FE0120FFF79EFFDFF8A804002114
:101D60004170DFF8A8040021017030E0EDB2002DD1
:101D700002D0012D0BD015E04FF48071DFF88804FC
:101D8000FFF70BFEDFF87C04012181700AE04FF4BD
:101D90008071DFF87404FFF7D0FDDFF868040021DC
:101DA0008170FFE74021DFF86004FFF7C6FD642083
:101DB000FFF771FFDFF84C0401214170DFF8500498
:101DC0000078002803D1DFF844040121017031BDFF
:101DD00010B5DFF8240400684FF49661B0FBF1F011
:101DE000401E0400DFF810040068DFF82814B0FB80
:101DF000F1F0DFF824140880DFF8200440F60F61CA
:101E00008180DFF818044EF65F210180DFF80C04B2
:101E10000021C180DFF8040400214180DFF8FC13B9
:101E2000DFF8FC03FEF762F9DFF8D0030021418000
:101E3000DFF8C813DFF8E803FEF713FADFF8BC1386
:101E4000DFF8DC03FEF708FBDFF8B0030121418077
:101E5000DFF8A8030121C180DFF8A0030021018180
:101E6000DFF8980330210180DFF89013DFF8B0032A
:101E7000FEF7CCFB0121DFF8A803FEF737FDDFF802
:101E80007C0301214180DFF874030121C180DFF868
:101E90006C0302210181DFF8640330210180DFF847
:101EA0005C13DFF87C03FEF771FC0121DFF870039F
:101EB000FEF71CFD10BD80B500F014FE01213D2091
:101EC00000F0A7FD01214FF4804000F0A2FD0121A8
:101ED0005FF4003000F0C4FD01215FF4002000F049
:101EE000BFFD01215FF4801000F0BAFD01215FF415
:101EF000001000F0B5FD01215FF4800000F0B0FD9E
:101F00000121012000F058FD01214FF4007000F084
:101F100080FD01214FF4006000F07BFD01210120D4
:101F200000F09EFD0121022000F09AFD0121042015
:101F300000F096FD01BD80B5BA4825210170B94871
:101F400002214170B74802218170B6480121C17059
:101F5000B44800F06DFEB34826210170B14803215A
:101F60004170B04803218170AE480121C170AD4875
:101F700000F05EFEAB4834210170AA480421417094
:101F8000A84804218170A7480121C170A54800F02C
:101F90004FFEA44835210170A24805214170A14897
:101FA000052181709F480121C1709E4800F040FECC
:101FB0009C481C2101709B480021417099480021D8
:101FC000817098480121C170964800F031FE954813
:101FD0001D210170934801214170924801218170B7
:101FE00090480121C1708F4800F022FE8D481E21CB
:101FF00001708C48062141708A4806218170894809
:102000000121C170874800F013FE01BD80B58648EC
:102010000121018084482821C170834802218170F8
:1020200081498248FFF73CFB7F48022101807E48BE
:102030002821C1707C48022181707B497B48FFF7D1
:102040002FFB79484FF44871018077481C21C170FB
:1020500075480221817074495F48FFF721FB01BD7B
:1020600080B5734800F03AFE7248734901607148C8
:10207000724941606F48002181606E480221C16051
:102080006C48002101616B488021416169484FF42F
:102090000071816167484FF40061C161654820218A
:1020A000016264484FF4005141626248002181623C
:1020B00060495F4800F0F2FE01215D4800F0BEFF7C
:1020C00001BD80B55E48002101605D4801210171BC
:1020D0005B48012141715A485FF460218160584892
:1020E0000021C1605648022101745549554801F04C
:1020F00019F8012001F0E6FA0323012200215148DA
:1021000001F0D7F90323022204214E4801F0D1F94E
:1021100001214C4801F0D4F801214A4801F0FEF8B1
:10212000484801F026F9474801F03CF90028FAD167
:10213000444801F057F9434801F06DF90028FAD1FD
:102140000121404801F087F901BD80B53E483F4973
:1021500001603D48002181803B484BF6FF71C18002
:1021600039488821018138484FF4806141813648DF
:102170004FF4804181810121354801F093FB3249C0
:10218000334801F0C1FA3048304901602E4800213F
:1021900081802D484BF6FF71C1802B48A021018121
:1021A00029484FF48061418127484FF48041818163
:1021B0000121284801F076FB2349264801F0A4FAC2
:1021C00001BD000018ED00E000E400E014E000E0D4
:1021D00018E000E010E000E0000C0140541B00207B
:1021E000F01A0020041B0020003801400044004089
:1021F000004C00400050004014000020141B002040
:10220000002C0140C01A0020001001406E1B00206D
:102210006F1B0020C0D401006C1B0020341B002069
:1022200000080040641B0020681B002000080140DB
:10223000080002406C1A00204C240140481B00207A
:10224000DC1A002000240140241B0020A08601008D
:10225000005400400058004080B54FF400710C4815
:10226000FFF76BFB01BD80B54FF400710848FFF725
:1022700094FB01BD80B54FF480710548FFF75DFB0D
:1022800001BD80B54FF480710148FFF786FB01BDA9
:10229000000C01402DE9F04786B004000D00002637
:1022A00000275FF000085FF000095FF0000ADFF828
:1022B0000804844214D0DFF80404844210D0DFF80C
:1022C000000484420CD0DFF8FC03844208D0DFF81D
:1022D000FC03844204D0B521DFF8EC03FEF7B8FC20
:1022E0002868002804D02868DFF8E413884204D363
:1022F000B621DFF8D403FEF7ABFCA888002808D08D
:10230000A888B0F5805F04D0B721DFF8BC03FEF7E2
:102310009FFCE888002810D0E888B0F5805F0CD0DA
:10232000E888B0F5005F08D0E888B0F5405F04D0D9
:10233000B821DFF89403FEF78BFC288900280CD025
:102340002889B0F5806F08D02889B0F5C06F04D017
:10235000B921DFF87403FEF77BFC68894FF6F3714F
:10236000084202D16889002804D1BA21DFF8580355
:10237000FEF76EFCA889002813D0A8894FF480715D
:1023800088420ED0A8894FF40071884209D0A889EC
:102390004FF44071884204D0BB21DFF82C03FEF7D4
:1023A00057FCA889002810D0DFF80C0384420CD019
:1023B000DFF80803844208D0DFF80403844204D025
:1023C000BF21DFF80403FEF743FCA246208A060083
:1023D0004CF6FF700640E88806432682A089060076
:1023E0004EF6F3100640A8882989084369890843F6
:1023F0000643A681A08A06004FF6FF400640A88942
:102400000643A68200A800F057FADFF8AC02824526
:1024100002D10398070001E002980700A089000498
:1024200008D5192000FB07F029684900B0FBF1F03E
:10243000804607E0192000FB07F029688900B0FBFF
:10244000F1F080466420B8FBF0F00001060030098E
:10245000642101FB10808146A089000409D55FEA50
:10246000C90032306421B0FBF1F010F007000643E0
:1024700008E05FEA091032306421B0FBF1F010F09F
:102480000F000643268106B0BDE8F08738B504008A
:102490000D00DFF82402844215D0DFF820028442C8
:1024A00011D0DFF81C0284420DD0DFF818028442FC
:1024B00009D0DFF81802844205D040F25F11DFF83E
:1024C0000802FEF7C5FBEDB2002D08D0EDB2012DDC
:1024D00005D04FF4B071DFF8F001FEF7B9FBEDB2B3
:1024E000002D04D0A08950F40050A08104E0A08900
:1024F0004DF6FF710840A08131BD2DE9F047040081
:102500000D00160000275FF000085FF000095FF083
:10251000000ADFF8A401844215D0DFF8A00184424C
:1025200011D0DFF89C0184420DD0DFF8980184427D
:1025300009D0DFF89801844205D04FF4C371DFF869
:102540008801FEF785FBADB2282D26D040F227701A
:10255000ADB2854221D040F22660ADB285421CD09A
:1025600040F22550ADB2854217D040F22440ADB2C2
:10257000854212D040F64600ADB285420DD040F6FD
:102580006A10ADB2854208D0ADB2602D05D040F2E0
:102590008711DFF83401FEF75BFBF6B2002E08D09E
:1025A000F6B2012E05D04FF4C471DFF81C01FEF71E
:1025B0004FFB40F66A10ADB2854211D1DFF8F8004A
:1025C00084420DD0DFF8F400844209D0DFF8F00037
:1025D000844205D04FF4C671DFF8EC00FEF738FBFB
:1025E000A2462800C0B24009C0B20700ADB215F043
:1025F0001F008046012010FA08F08146012F02D109
:102600001AF10C0A06E0022F02D11AF1100A01E0B9
:102610001AF1140AF6B2002E06D0DAF8000059EAD0
:102620000000CAF8000005E0DAF8000030EA09000E
:10263000CAF80000BDE8F08738B504000D001E4858
:10264000844210D01D4884420DD01D4884420AD0D7
:102650001C48844207D01D48844204D04FF41471B2
:102660001948FEF7F5FA4FF40070ADB2854204D375
:1026700040F251211448FEF7EBFAE805C00DA080A6
:1026800031BD10B504000C48844210D00B48844280
:102690000DD00B4884420AD00A48844207D00B4828
:1026A000844204D040F261210748FEF7D1FAA088A5
:1026B000C005C00D10BD00000038014000440040BE
:1026C00000480040004C00407C39000800500040A9
:1026D00021AA44002DE9F84304000D00002600273C
:1026E0005FF000085FF000096D48844210D06D482B
:1026F00084420DD06C4884420AD06C48844207D092
:102700006C48844204D040F2BE316948FEF7A0FA1A
:10271000ADB2282D31D040F22770ADB285422CD019
:1027200040F22660ADB2854227D040F22550ADB2CE
:10273000854222D040F22440ADB285421DD040F601
:102740004600ADB2854218D040F66A10ADB285425F
:1027500013D04FF45870ADB285420ED04FF41870BC
:10276000ADB2854209D04FF4B070ADB2854204D00D
:1027700040F2BF314E48FEF76BFA40F66A10ADB238
:1027800085420DD1464884420AD04648844207D04B
:102790004548844204D040F2C3314548FEF758FA18
:1027A0002800C0B24009C0B28046ADB215F01F008B
:1027B0000700012010FA07F7B8F1010F02D1A08934
:1027C000074007E0B8F1020F02D1208A074001E07C
:1027D000A08A0740ADB2280A80B20600012010FA94
:1027E00006F620880640002F04D0002E02D00120DB
:1027F000814601E0002081464846C0B2BDE8F28330
:10280000F8B504000D00002600272548844210D0AA
:10281000244884420DD0244884420AD0234884426C
:1028200007D02448844204D040F207412048FEF7F4
:102830000FFA40F22660ADB2854213D040F2255027
:10284000ADB285420ED040F64600ADB2854209D009
:1028500040F66A10ADB2854204D04FF4816114484D
:10286000FEF7F6F940F66A10ADB285420DD10C487C
:1028700084420AD00B48844207D00B48844204D0DB
:1028800040F20C410A48FEF7E3F9ADB2280A06000F
:102890000120B0400700BFB2F8432080F1BD000026
:1028A000003801400044004000480040004C004017
:1028B0007C3900080050004030B400210022002381
:1028C0000024DFF8EC512D6815F00C0529000D00EF
:1028D000002D04D0042D06D0082D08D02EE0DFF8FE
:1028E000D85105602DE0DFF8D451056029E0DFF80C
:1028F000C0512D6815F470152A00DFF8B4512D6809
:1029000015F480352B00920C921C002B05D1DFF8BA
:10291000B05105FB02F505600FE0DFF894512D681A
:10292000AD0305D5DFF8905105FB02F5056004E025
:10293000DFF8885105FB02F5056002E0DFF8785109
:102940000560DFF86C512D6815F0F00529000909C4
:10295000DFF870514D5D2C000568E5404560DFF8FB
:1029600050512D6815F4E0652900090ADFF854512B
:102970004D5D2C004568E5408560DFF834512D68D9
:1029800015F460552900C90ADFF838514D5D2C0057
:102990004568E540C560DFF818512D6815F44045DD
:1029A0002900890BDFF820514D5D2C00C568B5FB6F
:1029B000F4F5056130BC704738B504000D00DFF850
:1029C0000C01044201D1002C05D140F22F41DFF867
:1029D000E400FEF73DF9EDB2002D07D0EDB2012D78
:1029E00004D04FF486613348FEF732F9EDB2002D82
:1029F00007D0DFF8DC0000682043DFF8D41008605F
:102A000006E0DFF8CC000068A043DFF8C4100860DF
:102A100031BD38B504000D002E48044201D1002C10
:102A200004D140F24E412348FEF712F9EDB2002DD9
:102A300007D0EDB2012D04D040F24F411D48FEF702
:102A400007F9EDB2002D05D0234800682043224944
:102A5000086004E020480068A0431F49086031BDB9
:102A600038B504000D001D48044201D1002C04D1EA
:102A700040F26D410F48FEF7EBF8EDB2002D07D0A4
:102A8000EDB2012D04D040F26E410A48FEF7E0F8A5
:102A9000EDB2002D05D012480068204310490860AF
:102AA00004E00F480068A0430D49086031BD0000F4
:102AB00004100240003B000800127A000024F400D9
:102AC00000093D000000002010000020A8FAFFFFD0
:102AD000141002400200C0FF1810024000360181AD
:102AE0001C10024080B54C48006850F001004A4973
:102AF00008604A4800684A49084048490860464812
:102B0000006848490840444908604348006830F478
:102B10008020414908604148006830F4FE003F4988
:102B2000086041485FF41F01016000F001F801BD39
:102B300080B500F001F801BD82B0002001900020B6
:102B400000903548006850F48030334908603248BE
:102B5000006810F4003000900198401C019000982B
:102B6000002803D10198B0F5A06FF0D12A48006881
:102B7000800302D50120009001E000200090009821
:102B8000012847D12948006850F010002749086003
:102B900026480068800880002449086023480068AF
:102BA00050F00200214908601C481C490968016076
:102BB0001A481A49096801601848006850F4806092
:102BC000164908601548006830F47C101349086005
:102BD0001248006850F48810104908600E480068D8
:102BE00050F080700C4908600B4800688001FBD5EC
:102BF0000A480068800880000849086007480068A3
:102C000050F00200054908600448006810F00C000C
:102C10000828F9D102B070470010024004100240A9
:102C20000000FFF8FFFFF6FE0810024000200240FF
:102C3000F8B50400002500260F27E078002806D00C
:102C4000E078012803D074211F48FEF701F860786E
:102C5000102803D375211C48FDF7FAFFA07810282F
:102C600003D376211848FDF7F3FFE078002820D041
:102C70001648006810F4E060D0F5E060000A050036
:102C8000D5F104000600EF406078B0400500A07860
:102C9000384005432D0120780D49455420784011D6
:102CA0000C490122237813F01F039A4041F8202099
:102CB00009E02078401108490122237813F01F030E
:102CC0009A4041F82020F1BDC03B00080CED00E027
:102CD00000E400E000E100E080E100E010B5040065
:102CE000DFF80004844230D0DFF8FC0384422CD0AB
:102CF000DFF8F803844228D0DFF8F403844224D0BC
:102D0000DFF8F003844220D0DFF8EC0384421CD0CB
:102D1000DFF8E803844218D0DFF8E403844214D0DB
:102D2000DFF8E003844210D0DFF8DC0384420CD0EB
:102D3000DFF8D803844208D0DFF8D403844204D0FB
:102D40006E21DFF8D003FDF783FF20684FF6FE7198
:102D50000840206000202060002060600020A0600B
:102D60000020E060DFF87C03844208D1DFF8A8038C
:102D7000006850F00F00DFF8A01308608DE0DFF866
:102D80006803844208D1DFF89003006850F0F00037
:102D9000DFF88413086080E0DFF85003844208D134
:102DA000DFF87403006850F47060DFF86C1308609B
:102DB00073E0DFF83C03844208D1DFF85C0300686D
:102DC00050F47040DFF85013086066E0DFF8240329
:102DD000844208D1DFF84003006850F47020DFF827
:102DE0003813086059E0DFF81003844208D1DFF897
:102DF0002803006850F47000DFF81C1308604CE0F2
:102E0000DFF8F802844208D1DFF80C03006850F0C4
:102E10007060DFF8041308603FE0DFF8E4028442EA
:102E200008D1DFF8F802006850F00F00DFF8EC126C
:102E3000086032E0DFF8CC02844208D1DFF8DC021F
:102E4000006850F0F000DFF8D412086025E0DFF8E9
:102E5000B802844208D1DFF8C402006850F4706000
:102E6000DFF8B812086018E0DFF8A002844208D149
:102E7000DFF8A802006850F47040DFF8A012086084
:102E80000BE0DFF88C02844207D1DFF89002006883
:102E900050F47020DFF88412086010BD70B5040093
:102EA0000D000026DFF83C02844230D0DFF8380203
:102EB00084422CD0DFF83402844228D0DFF830027C
:102EC000844224D0DFF82C02844220D0DFF828028C
:102ED00084421CD0DFF82402844218D0DFF820029C
:102EE000844214D0DFF81C02844210D0DFF81802AC
:102EF00084420CD0DFF81402844208D0DFF81002BC
:102F0000844204D0CE21DFF80C02FDF7A1FEA868B0
:102F1000102807D0A868002804D0CF21DFF8F401DA
:102F2000FDF796FEE868002803D0E868B0F5803F1A
:102F300004D3D021DFF8DC01FDF78AFE28694028A0
:102F400007D02869002804D0D121DFF8C801FDF797
:102F50007FFE6869802807D06869002804D0D221E4
:102F6000DFF8B001FDF774FEA86900280ED0A8694B
:102F70004FF48071884209D0A8694FF400718842EB
:102F800004D0D321DFF88C01FDF762FEE869002848
:102F90000CD0E869B0F5806F08D0E869B0F5006F33
:102FA00004D0D421DFF86C01FDF752FE286A2028F6
:102FB00007D0286A002804D0D521DFF85801FDF792
:102FC00047FE686AB0F5405F0FD0686AB0F5005FF1
:102FD0000BD0686AB0F5805F07D0686A002804D01B
:102FE000D621DFF83001FDF733FEA86AB0F5804F37
:102FF00007D0A86A002804D0D721DFF81801FDF710
:1030000027FE20680600DFF818010640A868296A34
:1030100008432969084369690843A9690843E969BC
:103020000843696A0843A96A084306432660E868BA
:1030300060602868A0606868E06070BD38B5040012
:103040000D00DFF8A000844231D0DFF89C008442FC
:103050002DD0DFF89800844229D0DFF89400844214
:1030600025D0DFF89000844221D0DFF88C00844224
:103070001DD0DFF88800844219D0DFF88400844234
:1030800015D0DFF88000844211D0DFF87C00844244
:103090000DD0DFF87800844209D0DFF87400844254
:1030A00005D04FF49471DFF86C00FDF7D1FDEDB25F
:1030B000002D08D0EDB2012D05D040F22911DFF826
:1030C0005400FDF7C5FDEDB2002D04D0206850F08E
:1030D0000100206004E020684FF6FE710840206087
:1030E00031BD0000080002401C00024030000240D8
:1030F00044000240580002406C0002408000024040
:10310000080402401C04024030040240440402400F
:1031100058040240403A00080400024004040240FF
:103120000F80FFFFF8B504000D0000260027DFF830
:103130007C0584420CD0DFF87805844208D0DFF8A3
:103140007405844204D0DE21DFF86C05FDF780FDB4
:103150002868002828D02868B0F5803F24D0286847
:10316000B0F5003F20D02868B0F5403F1CD028685B
:10317000B0F5802F18D02868B0F5A02F14D028689B
:10318000B0F5C02F10D02868B0F5E02F0CD028681B
:10319000B0F5002F08D02868B0F5102F04D0DF213B
:1031A000DFF81405FDF754FD2879002807D02879A9
:1031B000012804D0E021DFF80005FDF749FD68791A
:1031C000002807D06879012804D0E121DFF8E8045D
:1031D000FDF73EFDA868002837D0A868B0F5003F8D
:1031E00033D0A868B0F5802F2FD0A868B0F5C02FD5
:1031F0002BD0A868B0F5002F27D0A868B0F5202FF5
:1032000023D0A868B0F5402F1FD0A868B0F5602F74
:103210001BD0A868002818D0A868B0F5003F14D0CB
:10322000A868B0F5C02F10D0A868B0F5002F0CD05A
:10323000A868B0F5202F08D0A868B0F5402F04D0BA
:10324000E221DFF87404FDF703FDE868002808D0E8
:10325000E868B0F5006F04D0E321DFF85C04FDF707
:10326000F7FC287C012802D3287C112804D3E42110
:10327000DFF84404FDF7ECFC60680600DFF83C046E
:1032800006402868297950EA012006436660A06854
:103290000600DFF82C040640E868A968084369794D
:1032A00050EA41000643A660E06A060036F4700664
:1032B000287C401E0743FFB256EA0756E662F1BD7E
:1032C00038B504000D00DFF8E40384420DD0DFF8C8
:1032D000E003844209D0DFF8DC03844205D040F2E9
:1032E0002D11DFF8D403FDF7B3FCEDB2002D08D0AB
:1032F000EDB2012D05D04FF49771DFF8BC03FDF757
:10330000A7FCEDB2002D04D0A06850F00100A06031
:1033100003E0A06840084000A06031BD38B504005B
:103320000D00DFF88803844209D0DFF88803844267
:1033300005D04FF4A371DFF88003FDF789FCEDB2EF
:10334000002D08D0EDB2012D05D040F24711DFF875
:103350006803FDF77DFCEDB2002D05D0A0684FF4A9
:1033600080710843A06003E0A06830F48070A06022
:1033700031BD10B50400DFF8340384420DD0DFF80E
:103380003003844209D0DFF82C03844205D040F298
:103390007D11DFF82403FDF75BFCA06850F0080006
:1033A000A06010BD38B504000025DFF8000384429A
:1033B0000DD0DFF8FC02844209D0DFF8F802844225
:1033C00005D040F28B11DFF8F002FDF741FCA06858
:1033D000000702D50120050001E0002005002800BB
:1033E000C0B232BD10B50400DFF8C00284420DD077
:1033F000DFF8BC02844209D0DFF8B802844205D06D
:1034000040F2A311DFF8B002FDF722FCA06850F0F3
:103410000400A06010BD38B504000025DFF88C0260
:1034200084420DD0DFF88802844209D0DFF884029C
:10343000844205D040F2B111DFF8C402FDF708FC68
:10344000A068400702D50120050001E0002005002A
:103450002800C0B232BD38B504000D00DFF84C02C0
:1034600084420DD0DFF84802844209D0DFF84402DC
:10347000844205D040F2CB11DFF88402FDF7E8FB6F
:10348000EDB2002D08D0EDB2012D05D04FF4E6715C
:10349000DFF86C02FDF7DCFBEDB2002D04D0A06874
:1034A00050F4A000A06003E0A06830F4A000A06089
:1034B00031BD2DE9F84304000D0016001F005FF038
:1034C00000085FF00009DFF8E40184420DD0DFF866
:1034D000E001844209D0DFF8DC01844205D040F2EB
:1034E0005121DFF81C02FDF7B3FBEDB2002D38D0FF
:1034F000EDB2012D35D0EDB2022D32D0EDB2032D5B
:103500002FD0EDB2042D2CD0EDB2052D29D0EDB287
:10351000062D26D0EDB2072D23D0EDB2082D20D0F8
:10352000EDB2092D1DD0EDB20A2D1AD0EDB20B2D42
:1035300017D0EDB20C2D14D0EDB20D2D11D0EDB28F
:103540000E2D0ED0EDB20F2D0BD0EDB2102D08D0F8
:10355000EDB2112D05D040F25221DFF8A401FDF7A4
:1035600077FBF6B2012E02D3F6B2112E05D340F24C
:103570005321DFF88C01FDF76BFBFFB2002F1AD04F
:10358000FFB2012F17D0FFB2022F14D0FFB2032FCA
:1035900011D0FFB2042F0ED0FFB2052F0BD0FFB217
:1035A000062F08D0FFB2072F05D04FF41571DFF8B2
:1035B0005001FDF74DFBEDB20A2D17D3E0688046B0
:1035C0000720B5F10A01032251438840814638EAB9
:1035D0000908FFB2B5F10A000321484317FA00F0C9
:1035E000814659EA0808C4F80C8014E02069804636
:1035F0000720032101FB05F18840814638EA0908CC
:10360000FFB2032000FB05F017FA00F0814659EAEB
:103610000808C4F81080F6B2072E15D2606B8046F9
:103620001F20711E052251438840814638EA09084F
:10363000EDB2701E0521484315FA00F0814659EAA3
:103640000808C4F834802FE0F6B20D2E15D2206B96
:1036500080461F20F11F052251438840814638EAE9
:103660000908EDB2F01F0521484315FA00F0814624
:1036700059EA0808C4F8308016E0E06A80461F2046
:10368000B6F10D01052251438840814638EA090808
:10369000EDB2B6F10D000521484315FA00F0814660
:1036A00059EA0808C4F82C80BDE8F18300240140E1
:1036B00000280140003C0140E0390008FFFEF0FF17
:1036C000FDF7F1FF10B50400E4B2002C07D0E4B21E
:1036D000012C04D040F291410948FDF7B9FAE4B257
:1036E000002C06D00748006850F400000549086027
:1036F00005E00448006830F400000249086010BD8D
:10370000E0390008082401402DE9F04385B00400A9
:103710000D00002600275FF00408DFF8EC91DFF8C9
:10372000DC01844208D0DFF8D801844204D0C521EE
:10373000DFF8D001FDF78CFA2868002804D028684B
:10374000DFF8C811884204D3C621DFF8B801FDF7BD
:103750007FFAA88800280AD0A888022807D0A8885D
:103760000A2804D0C721DFF89C01FDF771FAE88828
:10377000B0F5804F09D0E8884BF6FF71884204D03D
:10378000C821DFF88001FDF763FA2889B0F5806F62
:1037900004D3C921DFF86C01FDF75AFA6889B0F546
:1037A000806F07D06889002804D0CA21DFF854014F
:1037B000FDF74EFAA889B0F5804F08D0A889B0F57A
:1037C000404F04D0CB21DFF83C01FDF741FAA0883F
:1037D00006004FF6C070064000A8FFF76DF802988B
:1037E0008146DFF82C01B9FBF0F007003E43A680CC
:1037F00020884FF6FE7108402080002006002868CF
:10380000DFF81011884210D228684000B9FBF0F0B0
:1038100080461FFA88F8B8F1040F01D204208046D0
:1038200058EA0606781C208426E0E8884BF6FF71EB
:10383000884206D1286803214843B9FBF0F080464E
:1038400007E0286819214843B9FBF0F0804658F496
:1038500080485FEA085001D158F0010858F4004050
:103860000643BFB24FF4967000FB07F04FF47A7135
:1038700090FBF1F0401C2084A683208850F00100CA
:103880002080208806004FF6F5300640A888698918
:10389000084306432680A88929890843208105B06A
:1038A000BDE8F08338B504000D00DFF85000844215
:1038B00009D0DFF84C00844205D04FF4A271DFF844
:1038C0004400FDF7C5F9EDB2002D08D0EDB2012D91
:1038D00005D040F24511DFF82C00FDF7B9F9EDB243
:1038E000002D04D0208850F00100208004E02088C2
:1038F0004FF6FE710840208031BD000000540040AA
:1039000000580040A03A000800127A00811A060010
:1039100040420F00A1860100433A5C557365727303
:103920005C5454545C4465736B746F705C7A7A2E8B
:1039300053544446575C30302E53747564795C4C54
:1039400069627261726965735C53544D33324631FA
:1039500030785F5374645065726970685F4472694F
:103960007665725C7372635C73746D33326631308A
:10397000785F6770696F2E6300000000433A5C5502
:10398000736572735C5454545C4465736B746F70EC
:103990005C7A7A2E53544446575C30302E537475FB
:1039A00064795C4C69627261726965735C53544DF1
:1039B0003332463130785F53746450657269706891
:1039C0005F4472697665725C7372635C73746D33A5
:1039D00032663130785F75736172742E6300000057
:1039E000433A5C55736572735C5454545C4465731C
:1039F0006B746F705C7A7A2E53544446575C303047
:103A00002E53747564795C4C696272617269657376
:103A10005C53544D3332463130785F537464506593
:103A2000726970685F4472697665725C7372635C18
:103A300073746D3332663130785F6164632E630076
:103A4000433A5C55736572735C5454545C446573BB
:103A50006B746F705C7A7A2E53544446575C3030E6
:103A60002E53747564795C4C696272617269657316
:103A70005C53544D3332463130785F537464506533
:103A8000726970685F4472697665725C7372635CB8
:103A900073746D3332663130785F646D612E63000C
:103AA000433A5C55736572735C5454545C4465735B
:103AB0006B746F705C7A7A2E53544446575C303086
:103AC0002E53747564795C4C6962726172696573B6
:103AD0005C53544D3332463130785F5374645065D3
:103AE000726970685F4472697665725C7372635C58
:103AF00073746D3332663130785F6932632E6300E0
:103B0000433A5C55736572735C5454545C446573FA
:103B10006B746F705C7A7A2E53544446575C303025
:103B20002E53747564795C4C696272617269657355
:103B30005C53544D3332463130785F537464506572
:103B4000726970685F4472697665725C7372635CF7
:103B500073746D3332663130785F7263632E630045
:103B6000433A5C55736572735C5454545C4465739A
:103B70006B746F705C7A7A2E53544446575C3030C5
:103B80002E53747564795C4C6962726172696573F5
:103B90005C53544D3332463130785F537464506512
:103BA000726970685F4472697665725C7372635C97
:103BB00073746D3332663130785F74696D2E6300D3
:103BC000433A5C55736572735C5454545C4465733A
:103BD0006B746F705C7A7A2E53544446575C303065
:103BE0002E53747564795C4C696272617269657395
:103BF0005C53544D3332463130785F5374645065B2
:103C0000726970685F4472697665725C7372635C36
:103C10006D6973632E63000010B450F8041B81B10A
:103C200002681218001D50F8043BDC0744BFA9F1DC
:103C30000104E31852F8044B43F8044B091FF9D16F
:103C4000EBE710BC704750F8041B61B150F8042B2F
:103C5000D30744BFA9F101039A18002342F8043B9B
:103C6000091FFAD1EFE7704710B5084979441C31B4
:103C7000074C7C441A34A14206D0081D0A6851182A
:103C800088470146A142F8D110BD00BF08000000DE
:103C900028000000B3FFFFFF581B000018000020A1
:103CA0000000000075FFFFFF180000004001000049
:103CB000000000200000000000F009F8002801D0FA
:103CC000FFF7D2FF002000F005F800F007F8012010
:103CD0007047000080B5FDF7DEFEFEE700F000B89B
:103CE0000746384600F002F8FBE7000080B5C04602
:103CF000C046024A11001820ABBEFBE726000200B6
:103D00000148804701480047E52A0008113D0008A6
:103D1000C046C046C046C046FFF7CEFFFCF799BF7D
:103D2000FCF798BFFCF797BFFCF796BFFCF795BF71
:103D3000FCF794BFFCF793BFFCF792BFFCF791BF71
:103D4000FCF797BFFCF796BFFCF795BFFCF794BF55
:103D5000FCF793BFFCF792BFFFF7FEBFFFF7FEBF74
:103D6000FFF7FEBFFFF7FEBFFFF7FEBFFFF7FEBF87
:103D7000FCF785BFFCF784BFFCF783BFFCF782BF6D
:103D8000FCF781BFFCF780BFFCF77FBFFCF77EBF6D
:103D9000FFF7FEBFFCF77BBFFCF77ABFFFF7FEBF64
:103DA000FCF777BFFCF776BFFCF775BFFCF774BF75
:103DB000FCF773BFFDF76AB9FDF77AB9FDF78AB969
:103DC000FDF789B9FDF788B9FDF787B9FDF786B921
:103DD000FDF785B9FDF744BBFDF786BBFDF7CABB10
:103DE000FDF77EB9FDF77DB9FFF7FEBF00000000CB
:103DF000010203040102030406070809020406087D
:043E000000A24A04CE
:0400000508003D11A1
:00000001FF
