:020000040800F2
:10000000E01E002071240008DF0B0008E10B00084F
:10001000E30B0008E50B0008E70B000800000000F8
:10002000000000000000000000000000E90B0008D4
:10003000EB0B000800000000ED0B0008EF0B0008C0
:10004000FF0B0008010C0008030C0008050C000859
:10005000070C0008090C0008C9240008CD2400087A
:10006000D1240008D5240008D9240008DD24000884
:100070000B0C00080D0C00080F0C0008110C0008F8
:10008000130C0008150C0008170C0008190C0008C8
:10009000012500081B0C00081D0C00080D25000898
:1000A0001F0C0008210C0008230C0008250C000878
:1000B000270C0008A90F0008CD0F0008F10F000859
:1000C000F30F0008F50F0008F70F0008F90F0008FC
:1000D000FB0F00087D130008011400088D140008B0
:1000E000FD0F0008FF0F00085925000870B5040037
:1000F0000D000026DFF8AC07844243D0B4F1804FF6
:1001000040D0DFF8A40784423CD0DFF8A007844247
:1001100038D0DFF89C07844234D0DFF89807844257
:1001200030D0DFF8940784422CD0DFF89007844267
:1001300028D0DFF88C07844224D0DFF88807844277
:1001400020D0DFF8840784421CD0DFF88007844287
:1001500018D0DFF87C07844214D0DFF87807844297
:1001600010D0DFF8740784420CD0DFF870078442A7
:1001700008D0DFF87407844204D0E521DFF8600777
:1001800000F02CFD6888002810D0688810280DD059
:10019000688820280AD06888402807D068886028A6
:1001A00004D0E621DFF8380700F018FDE8880028C1
:1001B0000ED0E8884FF48071884209D0E8884FF467
:1001C0000071884204D0E721DFF8140700F006FD33
:1001D00020880600DFF8CC06844212D0DFF8DC0667
:1001E00084420ED0B4F1804F0BD0DFF8BC068442BD
:1001F00007D0DFF8B806844203D0DFF8B4068442A3
:1002000004D14FF68F70064068880643DFF8A406D5
:10021000844208D0DFF8A006844204D04FF6FF40A5
:100220000640E88806432680A888A085288820857F
:10023000DFF8700684420FD0DFF8800684420BD0CE
:10024000DFF89406844207D0DFF89006844203D09A
:10025000DFF89406844201D1287A20860120A0820A
:1002600070BD2DE9F04104000D00002600275FF06D
:100270000008DFF8300684423CD0B4F1804F39D01A
:10028000DFF82406844235D0DFF82006844231D0DE
:10029000DFF81C0684422DD0DFF82006844229D0E6
:1002A000DFF81C06844225D0DFF81806844221D0EE
:1002B000DFF8140684421DD0DFF81006844219D0FE
:1002C000DFF80C06844215D0DFF80806844211D00E
:1002D000DFF8040684420DD0DFF80006844209D01E
:1002E000DFF80006844205D04FF48D71DFF8F00589
:1002F00000F074FC2888002814D02888102811D019
:10030000288820280ED0288830280BD028886028FC
:1003100008D02888702805D040F21B11DFF8C005EE
:1003200000F05CFC6888002808D06888012805D0A7
:100330004FF48E71DFF8A80500F050FC28890028E2
:1003400008D02889022805D040F21D11DFF8900559
:1003500000F044FC208C4FF6FE7108402084208C75
:100360000700A0888046208B06004FF68F7006405D
:100370004FF6FC700640288806434FF6FD70074094
:100380002889074368880743DFF8180584420FD09F
:10039000DFF8280584420BD0DFF83C05844207D003
:1003A000DFF83805844203D0DFF8380584424BD1AA
:1003B000A888002808D0A888042805D04FF49D718B
:1003C000DFF81C0500F00AFC6889002808D068895D
:1003D000082805D040F23B11DFF8040500F0FEFBD1
:1003E000E8894FF40071884208D0E889002805D0D8
:1003F0004FF49E71DFF8E80400F0F0FBA8894FF499
:100400008071884208D0A889002805D040F23D11AB
:10041000DFF8CC0400F0E2FB4FF6F7700740688984
:1004200007434FF6FB700740A88807434FF6FF606D
:1004300010EA08084FF6FF5010EA0808A88950EAA9
:100440000808E88950EA0808A4F804802683E888A8
:10045000A0862784BDE8F0812DE9F04104000D005D
:10046000002600275FF00008DFF83804844224D01B
:10047000B4F1804F21D0DFF8300484421DD0DFF882
:100480002C04844219D0DFF82804844215D0DFF808
:100490002C04844211D0DFF8280484420DD0DFF808
:1004A0002C04844209D0DFF83004844205D040F2A5
:1004B0006D11DFF82C0400F091FB2888002814D07F
:1004C0002888102811D0288820280ED02888302885
:1004D0000BD02888602808D02888702805D04FF4D1
:1004E000B771DFF8FC0300F079FB6888002808D0BA
:1004F0006888012805D040F26F11DFF8E40300F0AE
:100500006DFB2889002808D02889022805D04FF4DF
:10051000B871DFF8CC0300F061FB208C4FF6EF716F
:1005200008402084208C0700A0888046208B06008D
:1005300048F6FF7006404FF6FF400640288856EA0E
:1005400000264FF6DF700740288957EA00176888B1
:1005500057EA0017DFF84C03844203D0DFF85C034E
:1005600084424BD1A888002808D0A888042805D048
:1005700040F28D11DFF8680300F030FB6889002835
:1005800008D06889082805D04FF4C771DFF85003F8
:1005900000F024FBE8894FF40071884207D0E88915
:1005A000002804D040F28F11CD4800F017FBA88935
:1005B0004FF48071884207D0A889002804D04FF4F6
:1005C000C871C74800F00AFB4FF67F700740688982
:1005D00057EA00174FF6BF700740A88857EA001780
:1005E0004FF6FF3010EA08084FF2FF7010EA0808D3
:1005F000A88958EA8008E88958EA8008A4F80480A5
:100600002683E88820872784BDE8F0812DE9F04122
:1006100004000D00002600275FF00008A148844276
:1006200013D0B4F1804F10D09F4884420DD09F4822
:1006300084420AD09E48844207D0A048844204D015
:1006400040F2BF11A64800F0C9FA2888002813D04C
:100650002888102810D0288820280DD028883028F5
:100660000AD02888602807D02888702804D04FF442
:10067000E0719B4800F0B2FA6888002807D06888CB
:10068000012804D040F2C111954800F0A7FA28894A
:10069000002807D02889022804D04FF4E17190483F
:1006A00000F09CFA208C4FF6FF6108402084208CDB
:1006B0000700A0888046A08B06004FF68F7006408A
:1006C0004FF6FC700640288806434FF6FF5007405F
:1006D000288957EA0027688857EA0027714884422A
:1006E00002D07648844249D1A888002807D0A8883B
:1006F000042804D04FF4EF71794800F06FFA68894C
:10070000002807D06889082804D040F2DF11744817
:1007100000F064FAE8894FF40071884207D0E88954
:10072000002804D04FF4F0716D4800F057FAA88902
:100730004FF48071884207D0A889002804D040F285
:10074000E111674800F04AFA4FF2FF7007406889EC
:1007500057EA00274FF6FF300740A88857EA0027DE
:100760004EF6FF7010EA08084DF6FF7010EA080810
:10077000A88958EA0018E88958EA0018A4F8048003
:10078000A683E888A0872784BDE8F0812DE9F041A1
:1007900004000D00002600275FF000084148844255
:1007A00013D0B4F1804F10D03F4884420DD03F4861
:1007B00084420AD03E48844207D04048844204D054
:1007C00040F20E21464800F009FA2888002813D08C
:1007D0002888102810D0288820280DD02888302874
:1007E0000AD02888602807D02888702804D040F2D2
:1007F0000F213B4800F0F2F96888002807D068888C
:10080000012804D04FF40471354800F0E7F9288935
:10081000002807D02889022804D040F2112130484E
:1008200000F0DCF9208C4EF6FF7108402084208C0B
:100830000700A0888046A08B060048F6FF7006409F
:100840004FF6FF400640288856EA00264DF6FF7016
:100850000740288957EA0037688857EA0037114867
:10086000844202D01548844213D1A8894FF4807184
:10087000884207D0A889002804D040F22E211848C9
:1008800000F0ACF94BF6FF7010EA0808A88958EAA6
:100890008018A4F80480A683E888A4F84000278480
:1008A000BDE8F081002C0140000400400008004039
:1008B000000C0040001000400014004000340140D3
:1008C000004C01400050014000540140001800401D
:1008D000001C004000200040004001400044014056
:1008E000FC220008004801400048014038B50400DF
:1008F0000D00DFF8C400844244D0B4F1804F41D0F1
:10090000DFF8BC0084423DD0DFF8B800844239D023
:10091000DFF8B400844235D0DFF8D400844231D00F
:10092000DFF8D00084422DD0DFF89000844229D037
:10093000DFF89800844225D0DFF89400844221D06B
:10094000DFF8900084421DD0DFF88C00844219D07B
:10095000DFF88800844215D0DFF88400844211D08B
:10096000DFF8800084420DD0DFF87C00844209D09B
:10097000DFF88400844205D040F22731DFF86C00B4
:1009800000F02CF9EDB2002D08D0EDB2012D05D00C
:100990004FF44A71DFF8540000F020F9EDB2002D59
:1009A00004D0208850F00100208004E020884FF619
:1009B000FE710840208031BD002C01400034014010
:1009C0000004004000080040000C0040004C0140C2
:1009D000005001400054014000180040001C00403D
:1009E000002000400040014000440140FC2200087B
:1009F0000010004000140040004801402DE9F04183
:100A000004000D00002600275FF00008DFF88C01CD
:100A1000844241D0B4F1804F3ED0DFF88801844257
:100A20003AD0DFF88401844236D0DFF88001844276
:100A300032D0DFF87C0184422ED0DFF87801844286
:100A40002AD0DFF85C01844226D0DFF870018442AE
:100A500022D0DFF86C0184421ED0DFF868018442A6
:100A60001AD0DFF86401844216D0DFF860018442B6
:100A700012D0DFF85C0184420ED0DFF858018442C6
:100A80000AD05548844207D04B48844204D040F6EF
:100A90004B21414800F0A2F8ADB2012D19D0ADB202
:100AA000022D16D0ADB2042D13D0ADB2082D10D04A
:100AB000ADB2102D0DD0ADB2202D0AD0ADB2402D6B
:100AC00007D0ADB2802D04D040F64C21324800F062
:100AD00085F8208A28400700A08928408046BFB2B8
:100AE000002F07D01FFA88F8B8F1000F02D00120BC
:100AF000060001E0002006003000C0B2BDE8F08131
:100B000038B504000D002548844234D0B4F1804F3C
:100B100031D0244884422ED0234884422BD023480D
:100B2000844228D02248844225D02248844222D0C0
:100B30001B4884421FD0214884421CD02048844254
:100B400019D02048844216D01F48844213D01F4831
:100B5000844210D01E4884420DD01E4884420AD0E0
:100B60001D48844207D01448844204D040F67521C1
:100B7000094800F033F84FF47F40054202D1ADB28E
:100B8000002D04D140F67621034800F027F8ADB2DD
:100B9000E843208231BD0000FC220008002C014007
:100BA000003401400004004000080040000C0040F8
:100BB000001000400014004000480140004C01407B
:100BC000005001400054014000180040001C00404B
:100BD000002000400040014000440140FEE7704713
:100BE000FEE7FEE7FEE7FEE770477047704780B517
:100BF00000F0BEFC00F0D0FC00F0C4FC01BD70476A
:100C0000704770477047704770477047704770472C
:100C1000704770477047704770477047704770471C
:100C200070477047704780B501215FF08040FFF743
:100C3000E5FE002800F0B78101215FF08040FFF75A
:100C40005FFF0221DFF8A40700F0B3FD002805D004
:100C500000F08CFE4FF47A7000F0AEFCDFF89007E5
:100C60004078002802D0012811D05FE00121DFF890
:100C7000840700F09EFDDFF8841708710221DFF879
:100C8000740700F096FDDFF8741748714EE00121FB
:100C9000DFF8600700F08DFDDFF860170871DFF8FE
:100CA00058074078DFF854170979884235D0DFF8C3
:100CB0004C070079002828D1DFF83C07407801284C
:100CC00023D1DFF83407C07801280BD3DFF82807D9
:100CD000C0780F2806D2DFF82007C078401EDFF862
:100CE0001817C870DFF81007C07800280DD0DFF89B
:100CF00008070079002808D1DFF8FC0640790028B1
:100D000003D0DFF8F406012101710121DFF8E406C8
:100D100000F04FFDDFF8E01648700221DFF8D4063E
:100D200000F047FDDFF8D4164871FFE7DFF8C8068A
:100D30000079012826D1DFF8C0068079401CDFF851
:100D4000B8168871DFF8B006807965281AD3DFF805
:100D5000A80600218171DFF8A006C079401CDFF8E9
:100D60009816C871DFF89006C079DFF88C164979BB
:100D7000884207D3DFF8800600210171DFF878068A
:100D80000021C171DFF87406407B00282AD0DFF80B
:100D90006C06807B401CDFF864168873DFF85C0605
:100DA000807B64281ED3DFF85406C07B401CDFF82C
:100DB0004C16C873DFF8440600218173DFF83C0647
:100DC000C07BDFF83816097B88420BD3DFF82C068E
:100DD00001210174DFF824060021C173DFF81C062D
:100DE00000214173DFF81406807A002810D1DFF863
:100DF0000C06407B00280BD0DFF800060021417371
:100E0000DFF8F80500218173DFF8F0050021C173D8
:100E1000DFF8C4060078012817D1DFF8BC06406867
:100E2000401CDFF8B4164860DFF8AC064068C828FC
:100E30000BD3DFF8A40601210172DFF89C06002124
:100E40004160DFF8940600210170DFF88C06407ADB
:100E5000012816D1DFF88006C068401CDFF878163C
:100E6000C860DFF874060069DFF86C16C96888424C
:100E700007D2DFF8640601210175DFF85C06002166
:100E8000C160DFF858068078012813D1DFF84C06DE
:100E9000C078401CDFF84416C870DFF84006C07800
:100EA000322807D3DFF834060021C170DFF82C06A2
:100EB00000218170DFF84405807C002823D1DFF811
:100EC0003C05C07C00280ED1DFF83005007D0028ED
:100ED00009D1DFF82805407D002804D1DFF81C0582
:100EE000807D00280FD0DFF814050021C174DFF8E1
:100EF0000C0500210175DFF8040500214175DFF8BC
:100F0000FC0400218175DFF8F404807C01284AD1BB
:100F1000DFF8E804C07C401CDFF8E014C874DFF898
:100F2000DC04C07C64283ED3DFF8D0040021C17407
:100F3000DFF8C804007D401CDFF8C0140875DFF836
:100F4000BC04007D3C282ED3DFF8B00400210175DD
:100F5000DFF8A804407D401CDFF8A0144875DFF8D6
:100F60009C04407D3C281ED3DFF89004002141758D
:100F7000DFF88804807D401CDFF880148875DFF876
:100F80007C04807DDFF87414497C88420BD3DFF841
:100F90006C0400218175DFF8640400218174DFF89E
:100FA0005C040121C17501BD80B50121DFF8300568
:100FB000FFF724FD002808D00121DFF82805FFF7FE
:100FC0009FFD00F0E8FC00F0DFFC01BD80B50121D1
:100FD000DFF81005FFF712FD002808D00121DFF827
:100FE0000405FFF78DFD00F0C1FC00F0C6FC01BD5B
:100FF0007047704770477047704770477047704739
:10100000C0B2C9B288420FD1DFF8E02482F8840070
:10101000DFF8D824127F521CDFF8D0341A77DFF8BB
:10102000CC24012353770CE0DFF8C024002313778E
:10103000DFF8B824002382F88330DFF8B0240023DF
:10104000D3747047DFF8A40490F88300CA280ED147
:10105000DFF8980490F88700D12808D1DFF88804D9
:101060004078002803D1DFF8800402210170704726
:1010700038B504000D00E4B2002C2BD1DFF86C046D
:1010800000210177DFF86404007FDFF86014401866
:1010900080F88350DFF85404007F401CDFF84C14C4
:1010A0000877DFF850040068DFF84814401805712D
:1010B000DFF840040068401CDFF838140860DFF8EF
:1010C000340400684FF49671884203D3DFF8240497
:1010D00000210160E4B2012C38D1DFF81804006867
:1010E000DFF8101440180571DFF808040068401C90
:1010F000DFF800140860DFF8FC0300684FF4967115
:10110000884203D3DFF8EC0300210160DFF8DC0341
:10111000007F01281AD1DFF8D403C07C0A2809D047
:101120000B280DD0AC2811D1AC212800C0B2FFF79C
:1011300067FF0BE00A212800C0B2FFF761FF05E05E
:101140000B212800C0B2FFF75BFFFFE7E4B2022CDF
:1011500053D1DFF8A0030068DFF898134018057139
:10116000DFF890030068401CDFF888130860DFF8A0
:10117000840300684FF49671884203D3DFF8740348
:1011800000210160DFF86403C07CFF281BD1DFF879
:101190005C03007F022830D1DFF850030221417741
:1011A000DFF84803407F401DDFF840138877DFF801
:1011B0003C0380F88550DFF83403007F401CDFF8E3
:1011C0002C13087719E0DFF82403007F022814D1DC
:1011D000DFF818034577DFF81403407F401DDFF880
:1011E0000C138877DFF8040380F88550DFF8FC02E1
:1011F000007F401CDFF8F4120877E4B2032C72D1B0
:10120000DFF8F0020068DFF8EC1240180571DFF833
:10121000E4020068401CDFF8DC120860DFF8D4024A
:1012200000684FF49671884203D3DFF8C8020021AA
:101230000160DFF8B802007FDFF8B012401880F8D4
:101240008350DFF8A802007F401CDFF8A012087767
:10125000DFF89802007FDFF89412897F884242D13C
:10126000DFF88802C07CFF2802D100F045F92EE0AB
:10127000DFF87802007FDFF87412401890F88200DF
:1012800010F00F000F2817D1DFF85C02407801281A
:101290000BD1DFF858020121C173DFF85002007C46
:1012A000401CDFF84812087401E0FFF7CBFEDFF8BE
:1012B0003C02002101770AE0DFF83002FF21C17310
:1012C000DFF82802807E401CDFF820128876DFF8E5
:1012D0001C0200210177DFF8140200214177DFF8BA
:1012E0000C020021C17431BD38B504000025DFF8BF
:1012F000FC01C07C002823D1E4B22000A0280CD03F
:10130000B02813D0CA281AD1CA210020FFF7B0FE96
:10131000DFF8D801AC21C1742FE0A0210020FFF735
:10132000A7FEDFF8C8010A21C17426E0B021002021
:10133000FFF79EFEDFF8B4010B21C1741DE01CE035
:10134000DFF8A801407F002802D1012005000EE04F
:10135000DFF89801007F032802D30320050006E090
:10136000DFF88801007E002801D10220050021005D
:10137000C9B22800C0B2FFF77BFE31BD10B5002412
:1013800040F226615A4800F05BFB00281ED0574807
:1013900000785649497888420DD254480078411C5B
:1013A000524A1170C0B251494018C17F89B25048A9
:1013B00000F0FAFA05E04D48002141704B48002149
:1013C000017040F226614A4800F0D0FB40F22551FE
:1013D000474800F035FB002807D0454800F009FBDE
:1013E00004002000C0B2FFF77FFF10BD00080140DD
:1013F000C01A002000100140B81A00206C1A00200A
:1014000038B50024002540F22661DFF8580100F0CD
:1014100017FB00282CD0DFF848014078DFF8401196
:101420008978884216D2DFF838014078DFF8301129
:101430004018007D0500DFF828014078401CDFF8E7
:1014400020114870EDB2290089B2DFF8180100F0D0
:10145000ABFA07E0DFF8080100214170DFF8000176
:101460000021817040F22661DFF8F80000F07EFB79
:1014700040F22551DFF8EC0000F0E2FA002804D039
:10148000DFF8E00000F0B5FA040031BD38B5002403
:10149000002540F22661DFF8D00000F0D1FA0028E4
:1014A0000CD0EDB2290089B2DFF8BC0000F07CFA64
:1014B00040F22661DFF8B00000F058FB40F2255101
:1014C000DFF8A40000F0BCFA002804D0DFF8980090
:1014D00000F08FFA040031BD3C1A00206C19002086
:1014E000000400400008004018000020A817002059
:1014F0000038014078160020002100200122110050
:10150000C9B2062908D2C9B2DFF860208A1892F859
:1015100075201018491CF3E7DFF8502092F87B2063
:10152000C0B282420FD1DFF8442001231372DFF8EA
:101530003C20527A521CDFF834305A72DFF82C20EB
:10154000002353730AE0DFF82420FF231372DFF82F
:101550001C20D27A521CDFF81430DA727047000077
:10156000901800200044004000480040A8130020CC
:101570000F480068002804D00D480068401E0C4940
:101580000860704709480068002804D007480068D0
:10159000401E06490860704706480068002804D0CD
:1015A00004480068401E034908607047C41A0020C0
:1015B000CC1A0020C81A002001B4BDF80000411E5A
:1015C000ADF8001080B20028F7D101B0704710B418
:1015D00050F8041B81B102681218001D50F8043B3A
:1015E000DC0744BFA9F10104E31852F8044B43F8A7
:1015F000044B091FF9D1EBE710BC70472DE9F84FF8
:1016000004000D00002600275FF000085FF00009CD
:101610005FF0000A5FF0000BDFF8300384421CD05B
:10162000DFF82C03844218D0DFF82803844214D05A
:10163000DFF82403844210D0DFF8200384420CD06A
:10164000DFF81C03844208D0DFF81803844204D07A
:10165000B121DFF81403FFF7C1FAE878002819D0A8
:10166000E878042816D0E878282813D0E8784828A5
:1016700010D0E87814280DD0E87810280AD0E8783F
:101680001C2807D0E878182804D0B221DFF8D80247
:10169000FFF7A4FA2888002804D1B321DFF8C80294
:1016A000FFF79CFAE87810F00F000600E878C00613
:1016B0000FD5A87801280AD0A878022807D0A878E2
:1016C000032804D0BA21DFF8A002FFF787FAA87830
:1016D00006432878000631D02068824600208046E4
:1016E000B8F1080F28D2012010FA08F081462888A6
:1016F00019EA000007004F451BD15FEA88008146C8
:101700000F2010FA09F083463AEA0B0A16FA09F09C
:1017100050EA0A0AE878282804D1012010FA08F0D3
:10172000606106E0E878482803D1012010FA08F04B
:10173000206118F10108D3E7C4F800A028884FF40D
:101740008071884233D36068824600208046B8F1B9
:10175000080F2AD2012018F1080188408146288804
:1017600019EA000007004F451CD15FEA8800814656
:101770000F2010FA09F083463AEA0B0A16FA09F02C
:1017800050EA0A0AE878282804D1012018F1080153
:1017900088406061E878482804D1012018F10801E8
:1017A0008840206118F10108D1E7C4F804A0BDE821
:1017B000F18F70B504000D000026DFF8900184421F
:1017C0001DD0DFF88C01844219D0DFF888018442F3
:1017D00015D0DFF88401844211D0DFF88001844203
:1017E0000DD0DFF87C01844209D0DFF87801844213
:1017F00005D040F21D11DFF87001FFF7EFF9ADB22F
:10180000012D3CD0ADB2022D39D0ADB2042D36D071
:10181000ADB2082D33D0ADB2102D30D0ADB2202DE9
:101820002DD0ADB2402D2AD0ADB2802D27D04FF4AF
:101830008070ADB2854222D04FF40070ADB28542C7
:101840001DD0ADB2B5F5806F19D0ADB2B5F5006F52
:1018500015D0ADB2B5F5805F11D0ADB2B5F5005F72
:101860000DD0ADB2B5F5804F09D0ADB2B5F5004F92
:1018700005D04FF48F71DFF8F000FFF7AFF9A068E3
:1018800080B2284202D00120060001E000200600BC
:101890003000C0B270BD38B504000D00DFF8AC00F8
:1018A00084421CD0DFF8A800844218D0DFF8A400DE
:1018B000844214D0DFF8A000844210D0DFF89C00EE
:1018C00084420CD02648844209D0DFF89800844234
:1018D00005D04FF4B471DFF89000FFF77FF9ADB297
:1018E000002D05D140F26911DFF87C00FFF776F991
:1018F000ADB2256131BD38B504000D0013488442F6
:1019000018D01348844215D01248844212D012488D
:1019100084420FD0114884420CD01148844209D02F
:10192000DFF84000844205D04FF4BC71DFF8380086
:10193000FFF754F9ADB2002D05D140F27911DFF86F
:101940002800FFF74BF9ADB2656131BD00080140D9
:10195000000C01400010014000140140001801403B
:10196000001C014000200140D421000880B54FF444
:1019700000710C48FFF78FFF01BD80B54FF4007177
:101980000848FFF7B8FF01BD80B54FF480710548E6
:10199000FFF781FF01BD80B54FF480710148FFF76B
:1019A000AAFF01BD000C014038B504000D001E481F
:1019B000844210D01D4884420DD01D4884420AD074
:1019C0001C48844207D01D48844204D04FF414714F
:1019D0001948FFF703F94FF40070ADB2854204D304
:1019E00040F251211448FFF7F9F8E805C00DA08036
:1019F00031BD10B504000C48844210D00B4884421D
:101A00000DD00B4884420AD00A48844207D00B48C4
:101A1000844204D040F261210748FFF7DFF8A08834
:101A2000C005C00D10BD000000380140004400405A
:101A300000480040004C00403822000800500040A0
:101A40002DE9F84304000D00002600275FF0000890
:101A50005FF000096D48844210D06D4884420DD07B
:101A60006C4884420AD06C48844207D06C48844257
:101A700004D040F2BE316948FFF7B0F8ADB2282D6E
:101A800031D040F22770ADB285422CD040F22660B2
:101A9000ADB2854227D040F22550ADB2854222D06A
:101AA00040F22440ADB285421DD040F64600ADB2B2
:101AB000854218D040F66A10ADB2854213D04FF47B
:101AC0005870ADB285420ED04FF41870ADB2854259
:101AD00009D04FF4B070ADB2854204D040F2BF31AE
:101AE0004E48FFF77BF840F66A10ADB285420DD143
:101AF000464884420AD04648844207D0454884423A
:101B000004D040F2C3314548FFF768F82800C0B25E
:101B10004009C0B28046ADB215F01F000700012099
:101B200010FA07F7B8F1010F02D1A089074007E0CA
:101B3000B8F1020F02D1208A074001E0A08A0740D5
:101B4000ADB2280A80B20600012010FA06F62088FD
:101B50000640002F04D0002E02D00120814601E073
:101B6000002081464846C0B2BDE8F283F8B50400C3
:101B70000D00002600272548844210D024488442C6
:101B80000DD0244884420AD02348844207D02448F8
:101B9000844204D040F207412048FFF71FF840F28A
:101BA0002660ADB2854213D040F22550ADB28542D9
:101BB0000ED040F64600ADB2854209D040F66A101C
:101BC000ADB2854204D04FF481611448FFF706F8A6
:101BD00040F66A10ADB285420DD10C4884420AD05D
:101BE0000B48844207D00B48844204D040F20C4199
:101BF0000A48FEF7F3FFADB2280A06000120B04004
:101C00000700BFB2F8432080F1BD0000003801405A
:101C10000044004000480040004C004038220008CA
:101C20000050004080B500F097F86F4800F0F2F8DF
:101C300000F0AFF800F003F800F09AF801BD10B51D
:101C40006A4800684FF49661B0FBF1F0401E040052
:101C5000664800686649B0FBF1F06649088066484E
:101C600040F60F61818064484EF65F210180624832
:101C70000021C1806048002141805F495FF08040C1
:101C8000FEF734FA5D48002141805C495C48FEF76C
:101C9000E8FA5A495A48FEF7B9FC58495848FEF73D
:101CA00075FD56480121418054480121C1805348A7
:101CB0000021018151483021018050495048FEF7F0
:101CC000CBFB01215FF08040FEF710FE4A4840F652
:101CD0000F61818048484EF65F210180464800210F
:101CE000C18045480021418043494548FEF7FEF93F
:101CF00042480021418041494148FEF7B2FA3F493C
:101D00003F48FEF7A9FB3D48012141803B480121A6
:101D1000C1803A480021018138483021018037498B
:101D20003748FEF773FC01213548FEF7DFFD3348E5
:101D30000121418031480121C180304802210181C7
:101D40002E48302101802D492D48FEF71FFD01212D
:101D50002B48FEF7CBFD10BD80B500F03FF9012107
:101D60003D2000F0D7F80121042000F0FAF801BD71
:101D700080B524481C21017022480021417021486F
:101D8000002181701F480121C1701E4800F0CCF96C
:101D900001BD80B51C48012101801B482821C1706C
:101DA00019480221817018491848FFF727FC164886
:101DB0000221018014482821C1701348022181703A
:101DC00011491248FFF71AFC0F484FF4487101807F
:101DD0000D481821C1700C48022181700A490C4835
:101DE000FFF70CFC01BD0000881A00201400002041
:101DF000C0D40100D81A0020AC1A00209C1A002080
:101E000000080040D01A0020D41A00200008014029
:101E1000000C014030B40021002200230024DFF830
:101E200090512D6815F00C0529000D00002D04D0EF
:101E3000042D06D0082D08D02EE0DFF87C51056077
:101E40002DE0DFF87851056029E0DFF864512D6856
:101E500015F470152A00DFF858512D6815F48035F7
:101E60002B00920C921C002B05D1DFF8545105FB7E
:101E700002F505600FE0DFF838512D68AD0305D598
:101E8000DFF8345105FB02F5056004E0DFF82C5162
:101E900005FB02F5056002E0DFF81C510560DFF884
:101EA00010512D6815F0F00529000909DFF81451CB
:101EB0004D5D2C000568E5404560DFF8F4502D6865
:101EC00015F4E0652900090ADFF8F8504D5D2C0093
:101ED0004568E5408560DFF8D8502D6815F46055F9
:101EE0002900C90ADFF8DC504D5D2C004568E5404B
:101EF000C560DFF8BC502D6815F440452900890BFA
:101F0000DFF8C4504D5D2C00C568B5FBF4F50561E4
:101F100030BC704738B504000D002C48044201D194
:101F2000002C04D140F24E412248FEF757FEEDB29C
:101F3000002D07D0EDB2012D04D040F24F411D48D5
:101F4000FEF74CFEEDB2002D05D02148006820437D
:101F50001F49086004E01E480068A0431C4908604F
:101F600031BD38B504000D001A48044201D1002CDF
:101F700004D140F26D410F48FEF730FEEDB2002D66
:101F800007D0EDB2012D04D040F26E410948FEF7B2
:101F900025FEEDB2002D05D00F48006820430E4904
:101FA000086004E00C480068A0430B49086031BD9C
:101FB000041002409C22000800127A000024F40061
:101FC00000093D0000000020100000200200C0FFBA
:101FD00018100240003601811C10024080B54C48A8
:101FE000006850F001004A4908604A4800684A49C0
:101FF0000840484908604648006848490840444944
:1020000008604348006830F4802041490860414836
:10201000006830F4FE003F49086041485FF41F014A
:10202000016000F001F801BD80B500F001F801BDCC
:1020300082B000200190002000903548006850F4E4
:102040008030334908603248006810F40030009056
:102050000198401C01900098002803D10198B0F528
:10206000A06FF0D12A480068800302D501200090BB
:1020700001E0002000900098012847D1294800681D
:1020800050F010002749086026480068800880004A
:10209000244908602348006850F002002149086084
:1020A0001C481C49096801601A481A4909680160FE
:1020B0001848006850F480601649086015480068A8
:1020C00030F47C10134908601248006850F48810FE
:1020D000104908600E48006850F080700C49086094
:1020E0000B4800688001FBD50A4800688008800022
:1020F000084908600748006850F002000549086078
:102100000448006810F00C000828F9D102B07047AC
:1021100000100240041002400000FFF8FFFFF6FE2E
:102120000810024000200240F8B5040000250026F7
:102130000F27E078002806D0E078012803D074212A
:102140001F48FEF74BFD6078102803D375211C480B
:10215000FEF744FDA078102803D376211848FEF737
:102160003DFDE078002820D01648006810F4E060BB
:10217000D0F5E060000A0500D5F104000600EF404C
:102180006078B0400500A078384005432D012078E4
:102190000D494554207840110C490122237813F051
:1021A0001F039A4041F8202009E020784011084997
:1021B0000122237813F01F039A4041F82020F1BD3B
:1021C0005C2300080CED00E000E400E000E100E02A
:1021D00080E100E0433A5C55736572735C5454547B
:1021E0005C4465736B746F705C7A7A2E535444460A
:1021F000575C30302E53747564795C4C696272613F
:10220000726965735C53544D3332463130785F5395
:1022100074645065726970685F4472697665725C57
:102220007372635C73746D3332663130785F6770DC
:10223000696F2E6300000000433A5C55736572734A
:102240005C5454545C4465736B746F705C7A7A2E82
:1022500053544446575C30302E53747564795C4C4B
:1022600069627261726965735C53544D33324631F1
:1022700030785F5374645065726970685F44726946
:102280007665725C7372635C73746D333266313081
:10229000785F75736172742E63000000433A5C5579
:1022A000736572735C5454545C4465736B746F70E3
:1022B0005C7A7A2E53544446575C30302E537475F2
:1022C00064795C4C69627261726965735C53544DE8
:1022D0003332463130785F53746450657269706888
:1022E0005F4472697665725C7372635C73746D339C
:1022F00032663130785F7263632E6300433A5C5517
:10230000736572735C5454545C4465736B746F7082
:102310005C7A7A2E53544446575C30302E53747591
:1023200064795C4C69627261726965735C53544D87
:102330003332463130785F53746450657269706827
:102340005F4472697665725C7372635C73746D333B
:1023500032663130785F74696D2E6300433A5C55A4
:10236000736572735C5454545C4465736B746F7022
:102370005C7A7A2E53544446575C30302E53747531
:1023800064795C4C69627261726965735C53544D27
:102390003332463130785F537464506572697068C7
:1023A0005F4472697665725C7372635C6D697363B6
:1023B0002E63000010B5084979441C31074C7C4459
:1023C0001A34A14206D0081D0A68511888470146F0
:1023D000A142F8D110BD00BF2C0000004C0000004D
:1023E00050F8041B61B150F8042BD30744BFA9F186
:1023F00001039A18002342F8043B091FFAD1EFE7C2
:1024000070470000DDFFFFFFC41A00001800002025
:1024100000000000BBF1FFFF1800000040010000B9
:10242000000000200000000000F009F8002801D0A2
:10243000FFF7C0FF002000F004F800F006F80120CC
:10244000704780B5FFF7EEFBFEE700F001B8000033
:102450000746384600F002F8FBE7000080B5C046AA
:10246000C046024A11001820ABBEFBE7260002005E
:102470000148804701480047DD1F0008812400080B
:10248000C046C046C046C046FFF7CEFFFEF7A7BB1A
:10249000FEF7A6BBFEF7A5BBFEF7A4BBFEF7A3BBEA
:1024A000FEF7A2BBFEF7A1BBFEF7A0BBFEF79FBBEA
:1024B000FEF7A5BBFEF7A4BBFEF7A3BBFEF7A2BBCE
:1024C000FEF7A1BBFEF7A0BBFFF7FEBFFFF7FEBF05
:1024D000FFF7FEBFFFF7FEBFFFF7FEBFFFF7FEBF30
:1024E000FEF793BBFEF792BBFEF791BBFEF790BBE6
:1024F000FEF78FBBFEF78EBBFEF78DBBFEF78CBBE6
:10250000FFF7FEBFFEF789BBFEF788BBFFF7FEBFF4
:10251000FEF785BBFEF784BBFEF783BBFEF782BBED
:10252000FEF781BBFEF740BDFEF750BDFEF760BD74
:10253000FEF75FBDFEF75EBDFEF75DBDFEF75CBD5D
:10254000FEF75BBDFEF71ABFFEF75ABFFEF79EBF50
:10255000FEF754BDFEF753BDFFF7FEBF00000000BD
:102560000102030401020304060708090204060825
:0425700000A24A0477
:04000005080024814A
:00000001FF
