:020000040800F2
:10000000A81F0020AD430008530C0008550C000841
:10001000570C0008590C00085B0C00080000000099
:100020000000000000000000000000005D0C00085F
:100030005F0C000800000000610C0008630C000861
:10004000730C0008750C0008770C0008790C000888
:100050007B0C00087D0C00080544000809440008DA
:100060000D44000811440008154400081944000814
:100070007F0C0008810C0008830C0008850C000828
:10008000870C0008890C00088B0C00088D0C0008F8
:100090003D4400088F0C0008910C000849440008FA
:1000A000930C0008950C0008970C0008990C0008A8
:1000B0009B0C00088D100008C9100008ED10000806
:1000C000EF100008F1100008F3100008F510000808
:1000D000F710000879140008011500088D150008B4
:1000E000F9100008FB1000089544000870B50400E2
:1000F0000D000026DFF8AC07844243D0B4F1804FF6
:1001000040D0DFF8A40784423CD0DFF8A007844247
:1001100038D0DFF89C07844234D0DFF89807844257
:1001200030D0DFF8940784422CD0DFF89007844267
:1001300028D0DFF88C07844224D0DFF88807844277
:1001400020D0DFF8840784421CD0DFF88007844287
:1001500018D0DFF87C07844214D0DFF87807844297
:1001600010D0DFF8740784420CD0DFF870078442A7
:1001700008D0DFF87407844204D0E521DFF8600777
:1001800000F066FD6888002810D0688810280DD01F
:10019000688820280AD06888402807D068886028A6
:1001A00004D0E621DFF8380700F052FDE888002887
:1001B0000ED0E8884FF48071884209D0E8884FF467
:1001C0000071884204D0E721DFF8140700F040FDF9
:1001D00020880600DFF8CC06844212D0DFF8DC0667
:1001E00084420ED0B4F1804F0BD0DFF8BC068442BD
:1001F00007D0DFF8B806844203D0DFF8B4068442A3
:1002000004D14FF68F70064068880643DFF8A406D5
:10021000844208D0DFF8A006844204D04FF6FF40A5
:100220000640E88806432680A888A085288820857F
:10023000DFF8700684420FD0DFF8800684420BD0CE
:10024000DFF89406844207D0DFF89006844203D09A
:10025000DFF89406844201D1287A20860120A0820A
:1002600070BD2DE9F04104000D00002600275FF06D
:100270000008DFF8300684423CD0B4F1804F39D01A
:10028000DFF82406844235D0DFF82006844231D0DE
:10029000DFF81C0684422DD0DFF82006844229D0E6
:1002A000DFF81C06844225D0DFF81806844221D0EE
:1002B000DFF8140684421DD0DFF81006844219D0FE
:1002C000DFF80C06844215D0DFF80806844211D00E
:1002D000DFF8040684420DD0DFF80006844209D01E
:1002E000DFF80006844205D04FF48D71DFF8F00589
:1002F00000F0AEFC2888002814D02888102811D0DF
:10030000288820280ED0288830280BD028886028FC
:1003100008D02888702805D040F21B11DFF8C005EE
:1003200000F096FC6888002808D06888012805D06D
:100330004FF48E71DFF8A80500F08AFC28890028A8
:1003400008D02889022805D040F21D11DFF8900559
:1003500000F07EFC208C4FF6FE7108402084208C3B
:100360000700A0888046208B06004FF68F7006405D
:100370004FF6FC700640288806434FF6FD70074094
:100380002889074368880743DFF8180584420FD09F
:10039000DFF8280584420BD0DFF83C05844207D003
:1003A000DFF83805844203D0DFF8380584424BD1AA
:1003B000A888002808D0A888042805D04FF49D718B
:1003C000DFF81C0500F044FC6889002808D0688923
:1003D000082805D040F23B11DFF8040500F038FC96
:1003E000E8894FF40071884208D0E889002805D0D8
:1003F0004FF49E71DFF8E80400F02AFCA8894FF45E
:100400008071884208D0A889002805D040F23D11AB
:10041000DFF8CC0400F01CFC4FF6F7700740688949
:1004200007434FF6FB700740A88807434FF6FF606D
:1004300010EA08084FF6FF5010EA0808A88950EAA9
:100440000808E88950EA0808A4F804802683E888A8
:10045000A0862784BDE8F0812DE9F04104000D005D
:10046000002600275FF00008DFF83804844224D01B
:10047000B4F1804F21D0DFF8300484421DD0DFF882
:100480002C04844219D0DFF82804844215D0DFF808
:100490002C04844211D0DFF8280484420DD0DFF808
:1004A0002C04844209D0DFF83004844205D040F2A5
:1004B0006D11DFF82C0400F0CBFB2888002814D045
:1004C0002888102811D0288820280ED02888302885
:1004D0000BD02888602808D02888702805D04FF4D1
:1004E000B771DFF8FC0300F0B3FB6888002808D080
:1004F0006888012805D040F26F11DFF8E40300F0AE
:10050000A7FB2889002808D02889022805D04FF4A5
:10051000B871DFF8CC0300F09BFB208C4FF6EF7135
:1005200008402084208C0700A0888046208B06008D
:1005300048F6FF7006404FF6FF400640288856EA0E
:1005400000264FF6DF700740288957EA00176888B1
:1005500057EA0017DFF84C03844203D0DFF85C034E
:1005600084424BD1A888002808D0A888042805D048
:1005700040F28D11DFF8680300F06AFB68890028FB
:1005800008D06889082805D04FF4C771DFF85003F8
:1005900000F05EFBE8894FF40071884207D0E889DB
:1005A000002804D040F28F11CD4800F051FBA889FB
:1005B0004FF48071884207D0A889002804D04FF4F6
:1005C000C871C74800F044FB4FF67F700740688948
:1005D00057EA00174FF6BF700740A88857EA001780
:1005E0004FF6FF3010EA08084FF2FF7010EA0808D3
:1005F000A88958EA8008E88958EA8008A4F80480A5
:100600002683E88820872784BDE8F0812DE9F04122
:1006100004000D00002600275FF00008A148844276
:1006200013D0B4F1804F10D09F4884420DD09F4822
:1006300084420AD09E48844207D0A048844204D015
:1006400040F2BF11A64800F003FB2888002813D011
:100650002888102810D0288820280DD028883028F5
:100660000AD02888602807D02888702804D04FF442
:10067000E0719B4800F0ECFA6888002807D0688891
:10068000012804D040F2C111954800F0E1FA288910
:10069000002807D02889022804D04FF4E17190483F
:1006A00000F0D6FA208C4FF6FF6108402084208CA1
:1006B0000700A0888046A08B06004FF68F7006408A
:1006C0004FF6FC700640288806434FF6FF5007405F
:1006D000288957EA0027688857EA0027714884422A
:1006E00002D07648844249D1A888002807D0A8883B
:1006F000042804D04FF4EF71794800F0A9FA688912
:10070000002807D06889082804D040F2DF11744817
:1007100000F09EFAE8894FF40071884207D0E8891A
:10072000002804D04FF4F0716D4800F091FAA889C8
:100730004FF48071884207D0A889002804D040F285
:10074000E111674800F084FA4FF2FF7007406889B2
:1007500057EA00274FF6FF300740A88857EA0027DE
:100760004EF6FF7010EA08084DF6FF7010EA080810
:10077000A88958EA0018E88958EA0018A4F8048003
:10078000A683E888A0872784BDE8F0812DE9F041A1
:1007900004000D00002600275FF000084148844255
:1007A00013D0B4F1804F10D03F4884420DD03F4861
:1007B00084420AD03E48844207D04048844204D054
:1007C00040F20E21464800F043FA2888002813D052
:1007D0002888102810D0288820280DD02888302874
:1007E0000AD02888602807D02888702804D040F2D2
:1007F0000F213B4800F02CFA6888002807D0688851
:10080000012804D04FF40471354800F021FA2889FA
:10081000002807D02889022804D040F2112130484E
:1008200000F016FA208C4EF6FF7108402084208CD0
:100830000700A0888046A08B060048F6FF7006409F
:100840004FF6FF400640288856EA00264DF6FF7016
:100850000740288957EA0037688857EA0037114867
:10086000844202D01548844213D1A8894FF4807184
:10087000884207D0A889002804D040F22E211848C9
:1008800000F0E6F94BF6FF7010EA0808A88958EA6C
:100890008018A4F80480A683E888A4F84000278480
:1008A000BDE8F081002C0140000400400008004039
:1008B000000C0040001000400014004000340140D3
:1008C000004C01400050014000540140001800401D
:1008D000001C004000200040004001400044014056
:1008E00014420008004801400048014038B50400A7
:1008F0000D00DFF83801844244D0B4F1804F41D07C
:10090000DFF8300184423DD0DFF82C01844239D039
:10091000DFF82801844235D0DFF84801844231D025
:10092000DFF8440184422DD0DFF80401844229D04D
:10093000DFF80C01844225D0DFF80801844221D081
:10094000DFF8040184421DD0DFF80001844219D091
:10095000DFF8FC00844215D0DFF8F800844211D0A3
:10096000DFF8F40084420DD0DFF8F000844209D0B3
:10097000DFF8F800844205D040F22731DFF8E000CC
:1009800000F066F9EDB2002D08D0EDB2012D05D0D2
:100990004FF44A71DFF8C80000F05AF9EDB2002DAB
:1009A00004D0208850F00100208004E020884FF619
:1009B000FE710840208031BD38B504000D00DFF81D
:1009C0006C00844215D0DFF86800844211D0DFF853
:1009D000880084420DD0DFF88400844209D0DFF81B
:1009E0008C00844205D04FF45071DFF8740000F0A1
:1009F0002FF9EDB2002D08D0EDB2012D05D040F257
:100A00004131DFF85C0000F023F9EDB2002D06D093
:100A1000B4F8440050F40040A4F8440005E0B4F8F1
:100A200044004004400CA4F8440031BD002C0140B7
:100A3000003401400004004000080040000C004069
:100A4000004C01400050014000540140001800409B
:100A5000001C0040002000400040014000440140D4
:100A600014420008001000400014004000480140FB
:100A70002DE9F04104000D00002600275FF000087A
:100A8000DFF88C01844241D0B4F1804F3ED0DFF8D2
:100A9000880184423AD0DFF88401844236D0DFF8FE
:100AA0008001844232D0DFF87C0184422ED0DFF80E
:100AB000780184422AD0DFF85C01844226D0DFF836
:100AC0007001844222D0DFF86C0184421ED0DFF82E
:100AD000680184421AD0DFF86401844216D0DFF83E
:100AE0006001844212D0DFF85C0184420ED0DFF84E
:100AF000580184420AD05548844207D04B4884426A
:100B000004D040F64B21414800F0A2F8ADB2012DCF
:100B100019D0ADB2022D16D0ADB2042D13D0ADB2A6
:100B2000082D10D0ADB2102D0DD0ADB2202D0AD0B1
:100B3000ADB2402D07D0ADB2802D04D040F64C218F
:100B4000324800F085F8208A28400700A089284014
:100B50008046BFB2002F07D01FFA88F8B8F1000F07
:100B600002D00120060001E0002006003000C0B2E3
:100B7000BDE8F08138B504000D002548844234D02A
:100B8000B4F1804F31D0244884422ED0234884428F
:100B90002BD02348844228D02248844225D02248A2
:100BA000844222D01B4884421FD0214884421CD05A
:100BB0002048844219D02048844216D01F488442DD
:100BC00013D01F48844210D01E4884420DD01E48C6
:100BD00084420AD01D48844207D01448844204D07D
:100BE00040F67521094800F033F84FF47F40054284
:100BF00002D1ADB2002D04D140F67621034800F0B9
:100C000027F8ADB2E843208231BD0000144200084D
:100C1000002C014000340140000400400008004066
:100C2000000C00400010004000140040004801404B
:100C3000004C0140005001400054014000180040A9
:100C4000001C0040002000400040014000440140E2
:100C5000FEE77047FEE7FEE7FEE7FEE770477047F6
:100C6000704780B500F006FD00F018FD00F00CFDA7
:100C700001BD7047704770477047704770477047B5
:100C800070477047704770477047704770477047AC
:100C90007047704770477047704780B501215FF01B
:100CA0008040FFF7E5FE002800F0EF8101215FF0B2
:100CB0008040FFF75FFFDFF830080078401CDFF866
:100CC00028180870DFF82008007864280BD3DFF8B4
:100CD000180800210170DFF81008407890F0FF003C
:100CE000DFF804184870DFF804080078012815D1EF
:100CF000DFF8F8074068401CDFF8F0174860DFF8BD
:100D0000EC0740684FF47A71884207D3DFF8DC07BC
:100D100000214160DFF8D40700210170DFF8D0071F
:100D20004078002802D0012811D068E00121DFF8C6
:100D3000C40700F09EFDDFF8C01708710221DFF83C
:100D4000B40700F096FDDFF8B017487157E00121B5
:100D5000DFF8A00700F08DFDDFF89C170871DFF8C1
:100D60009C074078DFF89017097988423ED0DFF879
:100D700088070079002831D1DFF880074078012802
:100D80002CD1DFF87807C07801280BD3DFF86C0787
:100D9000C0780F2806D2DFF86407C078401EDFF85D
:100DA0005C17C870DFF85407C078002804D101210F
:100DB000002000F0CFFF11E0DFF8400700790028A5
:100DC0000CD1DFF838074079002807D00121002036
:100DD00000F0C0FFDFF82407012101710121DFF8D5
:100DE000140700F046FDDFF8141748700221DFF801
:100DF000040700F03EFDDFF800174871FFE7DFF859
:100E0000FC06007901282FD1DFF8F0068079401C1C
:100E1000DFF8E8168871DFF8E4068079652823D3C7
:100E2000DFF8D80600218171DFF8D006C079401CB8
:100E3000DFF8C816C871DFF8C406C079DFF8BC1641
:100E40004979884210D3DFF8B40600210171DFF838
:100E5000AC06C078002803D00121012000F07AFF01
:100E6000DFF898060021C171DFF88C06407B00286E
:100E70002AD0DFF88406807B401CDFF87C1688735C
:100E8000DFF87406807B64281ED3DFF86C06C07B15
:100E9000401CDFF86416C873DFF85C06002181731C
:100EA000DFF85406C07BDFF85016097B88420BD36D
:100EB000DFF8440601210174DFF83C060021C1730C
:100EC000DFF8340600214173DFF82C06807A002811
:100ED00010D1DFF82406407B00280BD0DFF818067D
:100EE00000214173DFF8100600218173DFF8080646
:100EF0000021C173DFF8E0060078012817D1DFF880
:100F0000D8064068401CDFF8D0164860DFF8C806F5
:100F10004068C8280BD3DFF8C00601210172DFF852
:100F2000B80600214160DFF8B00600210170DFF84B
:100F3000A806407A012816D1DFF89C06C068401C3C
:100F4000DFF89416C860DFF890060069DFF88816AD
:100F5000C968884207D2DFF8800601210175DFF8F1
:100F600078060021C160DFF874068078012813D16B
:100F7000DFF86806C078401CDFF86016C870DFF83C
:100F80005C06C078322807D3DFF850060021C17014
:100F9000DFF8480600218170DFF85C05807C0028BE
:100FA00023D1DFF85405C07C00280ED1DFF84805B6
:100FB000007D002809D1DFF84005407D002804D1DC
:100FC000DFF83405807D00280FD0DFF82C050021E4
:100FD000C174DFF8240500210175DFF81C0500212C
:100FE0004175DFF8140500218175DFF80C05807C60
:100FF00001284AD1DFF80005C07C401CDFF8F81456
:10100000C874DFF8F404C07C64283ED3DFF8E80439
:101010000021C174DFF8E004007D401CDFF8D81423
:101020000875DFF8D404007D3C282ED3DFF8C8040F
:1010300000210175DFF8C004407D401CDFF8B814C2
:101040004875DFF8B404407D3C281ED3DFF8A804BF
:1010500000214175DFF8A004807D401CDFF8981462
:101060008875DFF89404807DDFF88C14497C884211
:101070000BD3DFF8840400218175DFF87C040021A4
:101080008174DFF874040121C17501BD80B50121AF
:10109000DFF84C05FFF7ECFC002814D00121DFF845
:1010A0004005FFF767FD01F094FA01F0E4FADFF87C
:1010B0003405407C002803D1012001F0FCFA02E055
:1010C000022001F0F8FA01BD80B50121DFF8240506
:1010D000FFF7CEFC002808D00121DFF81805FFF744
:1010E00049FD01F021FC01F026FC01BD704770476D
:1010F000704770477047704770477047C0B2C9B2B9
:1011000088420FD1DFF8E42482F88400DFF8DC2481
:10111000127F521CDFF8D4341A77DFF8D024012371
:1011200053770CE0DFF8C42400231377DFF8BC24E6
:10113000002382F88330DFF8B4240023D37470478F
:10114000DFF8A80490F88300CA280ED1DFF89C04C9
:1011500090F88700D12808D1DFF88C044078002867
:1011600003D1DFF8840402210170704738B5040010
:101170000D00E4B2002C2BD1DFF8700400210177C0
:10118000DFF86804007FDFF86414401880F88350AB
:10119000DFF85804007F401CDFF850140877DFF8B0
:1011A00058040068DFF8501440180571DFF848044F
:1011B0000068401CDFF840140860DFF83C04006859
:1011C0004FF49671884203D3DFF82C0400210160AC
:1011D000E4B2012C38D1DFF820040068DFF81814DD
:1011E00040180571DFF810040068401CDFF808148F
:1011F0000860DFF8040400684FF49671884203D356
:10120000DFF8F40300210160DFF8E003007F01282C
:101210001AD1DFF8D803C07C0A2809D00B280DD0DA
:10122000AC2811D1AC212800C0B2FFF767FF0BE05A
:101230000A212800C0B2FFF761FF05E00B2128005A
:10124000C0B2FFF75BFFFFE7E4B2022C53D1DFF837
:10125000A8030068DFF8A01340180571DFF89803B1
:101260000068401CDFF890130860DFF88C0300680A
:101270004FF49671884203D3DFF87C0300210160AC
:10128000DFF86803C07CFF281BD1DFF86003007F14
:10129000022830D1DFF8540302214177DFF84C03F4
:1012A000407F401DDFF844138877DFF8400380F863
:1012B0008550DFF83803007F401CDFF830130877D3
:1012C00019E0DFF82803007F022814D1DFF81C039F
:1012D0004577DFF81803407F401DDFF8101388774B
:1012E000DFF8080380F88550DFF80003007F401C1A
:1012F000DFF8F8120877E4B2032C72D1DFF8F802B5
:101300000068DFF8F41240180571DFF8EC0200689D
:10131000401CDFF8E4120860DFF8DC0200684FF4DC
:101320009671884203D3DFF8D00200210160DFF814
:10133000BC02007FDFF8B412401880F88350DFF859
:10134000AC02007F401CDFF8A4120877DFF89C0293
:10135000007FDFF89812897F884242D1DFF88C0243
:10136000C07CFF2802D100F049F92EE0DFF87C02B2
:10137000007FDFF87812401890F8820010F00F001C
:101380000F2817D1DFF86002407801280BD1DFF871
:101390005C020121C173DFF85402007C401CDFF8BD
:1013A0004C12087401E0FFF7CBFEDFF84002002189
:1013B00001770AE0DFF83402FF21C173DFF82C0265
:1013C000807E401CDFF824128876DFF8200200219E
:1013D0000177DFF8180200214177DFF810020021C1
:1013E000C17431BD38B504000025DFF80002C07CAF
:1013F000002823D1E4B22000A0280CD0B02813D0BC
:10140000CA281AD1CA210020FFF7B0FEDFF8DC019C
:10141000AC21C1742FE0A0210020FFF7A7FEDFF868
:10142000CC010A21C17426E0B0210020FFF79EFE06
:10143000DFF8B8010B21C1741DE01CE0DFF8AC013E
:10144000407F002802D1012005000EE0DFF89C015A
:10145000007F032802D30320050006E0DFF88C019B
:10146000007E002801D1022005002100C9B2280019
:10147000C0B2FFF77BFE31BD10B5002440F22661FB
:101480005B4801F081FC00281ED05848007857497D
:10149000497888420DD255480078411C534A117052
:1014A000C0B252494018C17F89B2514801F01EFCB8
:1014B00005E04E48002141704C480021017040F287
:1014C00026614B4801F0F6FC40F22551484801F0F6
:1014D0005BFC002807D0464801F02DFC04002000EA
:1014E000C0B2FFF77FFF10BD841B0020981A0020B8
:1014F0008C1B002000100140C01A0020741B00202B
:1015000038B50024002540F22661DFF85C0101F0C7
:101510003BFC00282CD0DFF84C014078DFF8441168
:101520008978884216D2DFF83C014078DFF8341120
:101530004018007D0500DFF82C014078401CDFF8E2
:1015400024114870EDB2290089B2DFF81C0101F0C6
:10155000CDFB07E0DFF80C0100214170DFF804014A
:101560000021817040F22661DFF8FC0001F0A2FC4E
:1015700040F22551DFF8F00001F006FC002804D00D
:10158000DFF8E40001F0D7FB040031BD38B50024DA
:10159000002540F22661DFF8D40001F0F5FB0028B9
:1015A0000CD0EDB2290089B2DFF8C00001F09EFB3B
:1015B00040F22661DFF8B40001F07CFC40F22551D6
:1015C000DFF8A80001F0E0FB002804D0DFF89C0061
:1015D00001F0B1FB040031BD3C1A00206C19002061
:1015E00000040040DC1A002018000020A81700208A
:1015F000003801400008004078160020002100203B
:1016000001221100C9B2062908D2C9B2DFF8602050
:101610008A1892F875201018491CF3E7DFF850205B
:1016200092F87B20C0B282420FD1DFF84420012320
:101630001372DFF83C20527A521CDFF834305A72B1
:10164000DFF82C20002353730AE0DFF82420FF2367
:101650001372DFF81C20D27A521CDFF81430DA72D1
:1016600070470000901800200044004000480040EF
:10167000A81300200F480068002804D00D48006817
:10168000401E0C490860704709480068002804D0D3
:1016900007480068401E0649086070470648006811
:1016A000002804D004480068401E034908607047C1
:1016B000901B0020981B0020941B00202DE9F84F60
:1016C00004000D00002600275FF000085FF000090D
:1016D0005FF0000A5FF0000BDFF8300384421CD09B
:1016E000DFF82C03844218D0DFF82803844214D09A
:1016F000DFF82403844210D0DFF8200384420CD0AA
:10170000DFF81C03844208D0DFF81803844204D0B9
:10171000B121DFF81403FFF79BFAE878002819D00D
:10172000E878042816D0E878282813D0E8784828E4
:1017300010D0E87814280DD0E87810280AD0E8787E
:101740001C2807D0E878182804D0B221DFF8D80286
:10175000FFF77EFA2888002804D1B321DFF8C802F9
:10176000FFF776FAE87810F00F000600E878C00678
:101770000FD5A87801280AD0A878022807D0A87821
:10178000032804D0BA21DFF8A002FFF761FAA87895
:1017900006432878000631D0206882460020804623
:1017A000B8F1080F28D2012010FA08F081462888E5
:1017B00019EA000007004F451BD15FEA8800814607
:1017C0000F2010FA09F083463AEA0B0A16FA09F0DC
:1017D00050EA0A0AE878282804D1012010FA08F013
:1017E000606106E0E878482803D1012010FA08F08B
:1017F000206118F10108D3E7C4F800A028884FF44D
:101800008071884233D36068824600208046B8F1F8
:10181000080F2AD2012018F1080188408146288843
:1018200019EA000007004F451CD15FEA8800814695
:101830000F2010FA09F083463AEA0B0A16FA09F06B
:1018400050EA0A0AE878282804D1012018F1080192
:1018500088406061E878482804D1012018F1080127
:101860008840206118F10108D1E7C4F804A0BDE860
:10187000F18F70B504000D000026DFF8900184425E
:101880001DD0DFF88C01844219D0DFF88801844232
:1018900015D0DFF88401844211D0DFF88001844242
:1018A0000DD0DFF87C01844209D0DFF87801844252
:1018B00005D040F21D11DFF87001FFF7C9F9ADB294
:1018C000012D3CD0ADB2022D39D0ADB2042D36D0B1
:1018D000ADB2082D33D0ADB2102D30D0ADB2202D29
:1018E0002DD0ADB2402D2AD0ADB2802D27D04FF4EF
:1018F0008070ADB2854222D04FF40070ADB2854207
:101900001DD0ADB2B5F5806F19D0ADB2B5F5006F91
:1019100015D0ADB2B5F5805F11D0ADB2B5F5005FB1
:101920000DD0ADB2B5F5804F09D0ADB2B5F5004FD1
:1019300005D04FF48F71DFF8F000FFF789F9A06848
:1019400080B2284202D00120060001E000200600FB
:101950003000C0B270BD38B504000D00DFF8AC0037
:1019600084421CD0DFF8A800844218D0DFF8A4001D
:10197000844214D0DFF8A000844210D0DFF89C002D
:1019800084420CD02648844209D0DFF89800844273
:1019900005D04FF4B471DFF89000FFF759F9ADB2FC
:1019A000002D05D140F26911DFF87C00FFF750F9F6
:1019B000ADB2256131BD38B504000D001348844235
:1019C00018D01348844215D01248844212D01248CD
:1019D00084420FD0114884420CD01148844209D06F
:1019E000DFF84000844205D04FF4BC71DFF83800C6
:1019F000FFF72EF9ADB2002D05D140F27911DFF8D5
:101A00002800FFF725F9ADB2656131BD000801403E
:101A1000000C01400010014000140140001801407A
:101A2000001C014000200140CC3F000840B20028CB
:101A300009D540B210F00F02DFF86037D2180B0161
:101A400002F8043C04E040B2DFF854270B01835451
:101A5000704710B50400B4F1807F01D3012013E07A
:101A60002002000A401EDFF83C1708600F215FF0DB
:101A7000FF30FFF7DBFFDFF8300700210160DFF800
:101A80002C0707210160002010BD80B54FF4805164
:101A9000DFF81C07FFF7EDFEDFF8181708704FF4AA
:101AA0000051DFF80C07FFF7E4FEDFF80817487075
:101AB00001BD80B500F0F8F9DFF8FC0601F056FA38
:101AC00000F09DFA00F092F9FFF7DFFF5FF4E130DC
:101AD00000F021F85FF4E13000F052F84FF41640C6
:101AE00000F081F85FF4E13000F0B0F8DFF8C806EC
:101AF00000684FF47A71B0FBF1F0FFF7AAFF0028FD
:101B000000D0FEE700F010FA00F096FA00F0C5FAF7
:101B100000F007FB01BD10B50400DFF8A0065FF47C
:101B2000E1310160DFF8940600218180DFF88C0646
:101B30000021C180DFF8840600210181DFF87C06E6
:101B400000218181DFF874060C214181DFF86C16D9
:101B5000DFF86C0600F0F8FE012240F22551DFF8B4
:101B6000600601F024F8012240F22661DFF85006F9
:101B700001F01DF80121DFF8480600F0E1FF10BD7B
:101B800010B50400DFF834060460DFF830060021E9
:101B90008180DFF828060021C180DFF820060021BF
:101BA0000181DFF8180600218181DFF810060C2181
:101BB0004181DFF80816DFF80C0600F0C5FE0122AF
:101BC00040F22551DFF8FC0500F0F1FF012240F260
:101BD0002661DFF8F00500F0EAFF0121DFF8E405F7
:101BE00000F0AEFF10BD10B50400DFF8D0050460B2
:101BF000DFF8C80500218180DFF8C0050021C18021
:101C0000DFF8B80500210181DFF8B00500218181EE
:101C1000DFF8A8050C214181DFF8A015DFF8A80541
:101C200000F092FE012240F22551DFF89C0500F001
:101C3000BEFF012240F22661DFF88C0500F0B7FFFD
:101C40000121DFF8840500F07BFF10BD10B5040012
:101C5000DFF868050460DFF8640500218180DFF8A3
:101C60005C050021C180DFF8540500210181DFF807
:101C70004C0500218181DFF844050C214181DFF80A
:101C80003C15DFF8480500F05FFE012240F22551C7
:101C9000DFF8380500F08BFF012240F22661DFF803
:101CA0002C0500F084FF0121DFF8200500F048FF3B
:101CB00010BD70B50400A4B2002C25D1DFF81005CA
:101CC00000684FF49661B0FBF1F0401E0500A4B22D
:101CD000ADB2681E00FB04F06421B0FBF1F0060019
:101CE000DFF8F004C680DFF8EC14DFF8EC04FEF750
:101CF0004DFD0021DFF8E004FEF7F8FD0021DFF8DC
:101D0000D804FEF759FE24E0DFF8C40400684FF45D
:101D10009661B0FBF1F0401E0500A4B2ADB2681EA2
:101D200000FB04F06421B0FBF1F00600DFF8A4042E
:101D3000C680DFF8A014DFF8A004FEF727FD01211C
:101D4000DFF89404FEF7D2FD0121DFF88C04FEF7E2
:101D500033FE70BD38B504000D00E4B2002C02D093
:101D6000012C11D041E04021DFF87404FFF723FE7D
:101D70000120FFF79EFFDFF8640400214170DFF8C7
:101D800064040021017030E0EDB2002D02D0012D7D
:101D90000BD015E04FF48071DFF84404FFF70BFE21
:101DA000DFF83804012181700AE04FF48071DFF818
:101DB0003004FFF7D0FDDFF8240400218170FFE735
:101DC0004021DFF81C04FFF7C6FD6420FFF771FF18
:101DD000DFF8080401214170DFF80C0400780028C6
:101DE00003D1DFF800040121017031BD10B5DFF827
:101DF000E00300684FF49661B0FBF1F0401E040070
:101E0000DFF8CC030068DFF8E413B0FBF1F0DFF893
:101E1000E0130880DFF8DC0340F60F618180DFF813
:101E2000D4034EF65F210180DFF8C8030021C18092
:101E3000DFF8C00300214180DFF8B813DFF8B803F2
:101E4000FEF754F9DFF88C0300214180DFF884139A
:101E5000DFF8A403FEF705FADFF87813DFF898033C
:101E6000FEF7FAFADFF86C13DFF88C03FEF7CEFB0F
:101E7000DFF8600301214180DFF858030121C180B0
:101E8000DFF8500300210181DFF848033021018091
:101E9000DFF84013DFF86003FEF778FC0121DFF87C
:101EA0005803FEF723FD10BD80B501F075F901213F
:101EB0003D2001F008F901214FF4804001F003F9C1
:101EC00001215FF4003001F025F901215FF40020C9
:101ED00001F020F901215FF4801001F01BF90121CC
:101EE0005FF4001001F016F901215FF4800001F0A9
:101EF00011F90121012001F0B9F801214FF400701E
:101F000001F0E1F801214FF4006001F0DCF801215B
:101F1000012001F0FFF80121022001F0FBF801216E
:101F2000042001F0F7F801BD80B5B4482521017007
:101F3000B24802214170B14802218170AF480121AD
:101F4000C170AE4801F0CEF9AC4826210170AB4813
:101F500003214170A94803218170A8480121C17063
:101F6000A64801F0BFF9A54834210170A348042117
:101F70004170A24804218170A0480121C1709F488E
:101F800001F0B0F99D48352101709C480521417050
:101F90009A480521817099480121C170974801F044
:101FA000A1F996481C210170944800214170934882
:101FB0000021817091480121C170904801F092F98F
:101FC0008E481D2101708D48012141708B480121EF
:101FD00081708A480121C170884801F083F98748DF
:101FE0001E210170854806214170844806218170B8
:101FF00082480121C170814801F074F901BD80B5AA
:102000007F48022101807E482821C1707C4802213E
:1020100081707B497B48FFF751FB79484FF4007191
:10202000018077481821C170754802218170744978
:102030005F48FFF743FB01BD80B5734801F0A8F985
:102040007248734901607148724941606F480021CC
:1020500081606E480221C1606C48002101616B48BB
:102060008021416169484FF40071816167484FF4F4
:102070000061C16165482021016264484FF400514C
:10208000416262480021816260495F4801F060FA64
:1020900001215D4801F02CFB01BD80B55E480021A7
:1020A00001605D48012101715B48012141715A487D
:1020B0005FF46021816058480021C16056480221C8
:1020C00001745549554801F087FB012001F054FE89
:1020D000032301220021514801F045FD0323022280
:1020E00004214E4801F03FFD01214C4801F042FC23
:1020F00001214A4801F06CFC484801F094FC474833
:1021000001F0AAFC0028FAD1444801F0C5FC43487C
:1021100001F0DBFC0028FAD10121404801F0F5FC78
:1021200001BD80B53E483F4901603D4800218180A6
:102130003B484BF6FF71C1803948882101813848FE
:102140004FF48061418136484FF480418181012103
:10215000354801F001FF3249334801F02FFE304885
:10216000304901602E48002181802D484BF6FF71D7
:10217000C1802B48A021018129484FF48061418111
:1021800027484FF4804181810121284801F0E4FE75
:102190002349264801F012FE01BD000018ED00E0C1
:1021A00000E400E014E000E018E000E010E000E0EF
:1021B000000C01408C1B00200C1B0020201B002069
:1021C0000038014000440040004C004000500040F6
:1021D00014000020301B0020002C0140C01A0020F9
:1021E00000100140A61B0020A71B0020C0D4010046
:1021F000A41B0020681B0020000800409C1B00203E
:10220000A01B002000080140080002406C1A0020BA
:102210004C2401407C1B0020F81A002000240140BF
:10222000401B0020A08601000054004000580040E0
:102230000100C9B2002900F0B080022900F0B58089
:10224000C0F0AF80042900F0B880C0F0B280062949
:1022500000F0BB80C0F0B580082900F0BE80C0F05F
:10226000B8800A2900F0C180C0F0BB800C2900F0C2
:10227000C480C0F0BE800E2900F0C780C0F0C180CD
:10228000102900F0CA80C0F0C480122900F0CD806F
:10229000C0F0C780142900F0D080C0F0CA80162991
:1022A00000F0D380C0F0CD80182900F0D680C0F0B7
:1022B000D0801A2900F0D980C0F0D3801C2900F00A
:1022C000DC80C0F0D6801E2900F0DF80C0F0D9800D
:1022D000202900F0E280C0F0DC80222900F0E580B7
:1022E000C0F0DF80242900F0E880C0F0E2802629D9
:1022F00000F0EB80C0F0E580282900F0EE80C0F00F
:10230000E8802A2900F0F180C0F0EB802C2900F051
:10231000F480C0F0EE802E2900F0F780C0F0F1804C
:10232000302900F0FA80C0F0F480322900F0FD80FE
:10233000C0F0F780342900F00081C0F0FA8036291F
:1023400000F00381C0F0FD80382900F00681C0F064
:1023500000813A2900F00981C0F003813C2900F096
:102360000C81C0F006813E2900F00F81C0F0098188
:10237000402900F01281C0F00C81422900F0158143
:10238000C0F00F81442900F01881C0F01281462965
:1023900000F01B81C0F015811AE140F63B321000BD
:1023A00016E140F62932100012E140F61632100014
:1023B0000EE140F6033210000AE140F6EF22100071
:1023C00006E140F6DB22100002E140F6C6221000D2
:1023D000FEE040F6B1221000FAE040F69B22100029
:1023E000F6E040F685221000F2E040F66E22100082
:1023F000EEE040F657221000EAE040F63F221000DF
:10240000E6E040F626221000E2E040F60E22100040
:10241000DEE040F6F4121000DAE040F6DA121000C6
:10242000D6E04FF41C621000D2E040F6A512100076
:10243000CEE040F68A121000CAE040F66E1210009C
:10244000C6E040F652121000C2E040F6361210000C
:10245000BEE040F619121000BAE040F6FC0210008F
:10246000B6E040F6DF021000B2E040F6C102100014
:10247000AEE040F6A3021000AAE040F6850210008C
:10248000A6E040F666021000A2E040F64702100007
:102490009EE040F6280210009AE040F60902100083
:1024A00096E040F2EA72100092E040F2CB72100027
:1024B0008EE040F2AB7210008AE040F28C721000A5
:1024C00086E040F26C72100082E040F24D72100023
:1024D0007EE040F22D7210007AE040F20E721000A1
:1024E00076E040F2EE62100072E040F2CF6210003F
:1024F0006EE04FF4D66210006AE04FF4D262100032
:1025000066E040F27262100062E040F25362100036
:102510005EE040F2346210005AE040F216621000B1
:1025200056E040F2F752100052E040F2D95210004B
:102530004EE040F2BC5210004AE040F29E521000C1
:1025400046E040F28152100042E040F26452100036
:102550003EE04FF4A96210003AE040F22C52100025
:1025600036E04FF4A262100032E040F2F442100074
:102570002EE040F2D94210002AE040F2BE421000A4
:1025800026E040F2A442100022E040F28A4210000D
:102590001EE04FF48E6210001AE040F25742100025
:1025A00016E040F23F42100012E040F226421000D6
:1025B0000EE040F20E4210000AE040F2F732100046
:1025C00006E04FF47872100002E040F2C9321000C9
:1025D0007047DFF83003007800284BD0DFF8240381
:1025E0004078401CDFF81C134870DFF8180340687F
:1025F000DFF81413096840F6E442514310EB113040
:10260000DFF800134860DFF8FC0240780A2831D375
:10261000DFF8F00200214170DFF8E8028078401C0A
:10262000DFF8E0128870DFF8DC028068DFF8D4128F
:1026300049680A22B1FBF2F10818DFF8C812886075
:10264000DFF8C00200214160DFF8B80280780A2874
:1026500010D3DFF8B00200218170DFF8A802806893
:102660000A21B0FBF1F0DFF89C12C860DFF8940299
:10267000002181607047DFF88C02007D002819D0AE
:10268000DFF880028069401CDFF878128861DFF88B
:102690007402806942F2107188420BD3DFF8640241
:1026A00000218161DFF85C0200210175DFF854022E
:1026B0000121C174704710B50400E4B2002C03D0AE
:1026C000022C3AD001D31BE11AE1DFF83802807CFA
:1026D000002814D14FF40051DFF83402FFF73BF922
:1026E0004FF40041DFF82802FFF735F9DFF8140254
:1026F00001218174DFF80C02012101751CE0DFF873
:102700000402C07C012817D14FF40051DFF8000209
:10271000FFF751F94FF40041DFF8F401FFF74BF9EF
:10272000DFF8E0010021C174DFF8D8010121417414
:10273000DFF8D00101210170E2E0DFF8D801407834
:10274000002819D04FF40041DFF8C401FFF733F936
:10275000DFF8C00100210170DFF8B80100214170ED
:10276000DFF8B00100218170DFF8A801002141608D
:10277000DFF8A00100218160DFF89801407801288E
:1027800026D10A20FFF754FDDFF87811C96881428D
:102790000AD34FF40051DFF87801FFF7DCF8DFF8D7
:1027A000780101210170ABE01420FFF741FDDFF853
:1027B0005411C968814280F0A3804FF40051DFF8C2
:1027C0005001FFF7F8F8DFF850010021017097E0A1
:1027D0004620FFF72DFDDFF82C11C96881420AD28F
:1027E0004FF40041DFF82801FFF7B5F8DFF82401C6
:1027F0000121017083E03C20FFF71AFDDFF804118E
:10280000C96881422CD24620FFF712FDDFF8F41090
:10281000C968814224D3DFF8FC000078002814D175
:10282000DFF8E8000078002869D1DFF8F000407A8E
:10283000002864D14FF40041DFF8D400FFF7BBF863
:10284000DFF8D0000021017059E04FF40041DFF8BB
:10285000C000FFF780F8DFF8BC00012101704EE0F6
:102860003C20FFF7E5FCDFF89C10C968814246D3A5
:102870000A20FFF7DDFCDFF88C10C968814219D30C
:102880004FF40051DFF88800FFF765F8DFF88800A3
:1028900001210170DFF87C00007800282FD14FF46F
:1028A0000041DFF86C00FFF756F8DFF868000121FF
:1028B000017024E01420FFF7BBFCDFF84810C96862
:1028C00081421CD24FF40051DFF84400FFF773F847
:1028D000DFF8440000210170DFF83800007801289B
:1028E0000DD1DFF828000078002808D1DFF82C008F
:1028F000407A002803D1DFF81C0001214170FFE776
:1029000010BD0000DC1A00207C1B0020501B0020A2
:10291000001001405C1B0020881B00203C1A002096
:1029200080B5FFF7C6F8FEE780B54FF400710548A3
:10293000FFF711F801BD80B54FF400710148FFF7B2
:102940003AF801BD000C01402DE9F04786B00400C3
:102950000D00002600275FF000085FF000095FF01F
:10296000000ADFF80804844214D0DFF8040484422B
:1029700010D0DFF8000484420CD0DFF8FC0384425E
:1029800008D0DFF8FC03844204D0B521DFF8EC0363
:10299000FEF75EF92868002804D02868DFF8E41301
:1029A000884204D3B621DFF8D403FEF751F9A88892
:1029B000002808D0A888B0F5805F04D0B721DFF8E0
:1029C000BC03FEF745F9E888002810D0E888B0F588
:1029D000805F0CD0E888B0F5005F08D0E888B0F5DB
:1029E000405F04D0B821DFF89403FEF731F928895D
:1029F00000280CD02889B0F5806F08D02889B0F560
:102A0000C06F04D0B921DFF87403FEF721F968899B
:102A10004FF6F371084202D16889002804D1BA2127
:102A2000DFF85803FEF714F9A889002813D0A88905
:102A30004FF4807188420ED0A8894FF4007188420B
:102A400009D0A8894FF44071884204D0BB21DFF837
:102A50002C03FEF7FDF8A889002810D0DFF80C033E
:102A600084420CD0DFF80803844208D0DFF8040366
:102A7000844204D0BF21DFF80403FEF7E9F8A24640
:102A8000208A06004CF6FF700640E888064326823E
:102A9000A08906004EF6F3100640A888298908434D
:102AA000698908430643A681A08A06004FF6FF40C5
:102AB0000640A8890643A68200A800F057FADFF86E
:102AC000AC02824502D10398070001E0029807009A
:102AD000A089000408D5192000FB07F029684900E7
:102AE000B0FBF1F0804607E0192000FB07F02968F1
:102AF0008900B0FBF1F080466420B8FBF0F00001E3
:102B000006003009642101FB10808146A089000481
:102B100009D55FEAC90032306421B0FBF1F010F052
:102B20000700064308E05FEA091032306421B0FB79
:102B3000F1F010F00F000643268106B0BDE8F087E3
:102B400038B504000D00DFF82402844215D0DFF808
:102B50002002844211D0DFF81C0284420DD0DFF83D
:102B60001802844209D0DFF81802844205D040F2EE
:102B70005F11DFF80802FEF76BF8EDB2002D08D008
:102B8000EDB2012D05D04FF4B071DFF8F001FEF782
:102B90005FF8EDB2002D04D0A08950F40050A08160
:102BA00004E0A0894DF6FF710840A08131BD2DE9F8
:102BB000F04704000D00160000275FF000085FF0EA
:102BC00000095FF0000ADFF8A401844215D0DFF8A5
:102BD000A001844211D0DFF89C0184420DD0DFF8BF
:102BE0009801844209D0DFF89801844205D04FF45F
:102BF000C371DFF88801FEF72BF8ADB2282D26D07F
:102C000040F22770ADB2854221D040F22660ADB2CD
:102C100085421CD040F22550ADB2854217D040F21B
:102C20002440ADB2854212D040F64600ADB2854296
:102C30000DD040F66A10ADB2854208D0ADB2602D1D
:102C400005D040F28711DFF83401FEF701F8F6B243
:102C5000002E08D0F6B2012E05D04FF4C471DFF873
:102C60001C01FDF7F5FF40F66A10ADB2854211D1A7
:102C7000DFF8F80084420DD0DFF8F400844209D078
:102C8000DFF8F000844205D04FF4C671DFF8EC00A5
:102C9000FDF7DEFFA2462800C0B24009C0B207001F
:102CA000ADB215F01F008046012010FA08F08146F1
:102CB000012F02D11AF10C0A06E0022F02D11AF1FB
:102CC000100A01E01AF1140AF6B2002E06D0DAF862
:102CD000000059EA0000CAF8000005E0DAF8000038
:102CE00030EA0900CAF80000BDE8F08738B50400F2
:102CF0000D001E48844210D01D4884420DD01D484E
:102D000084420AD01C48844207D01D48844204D023
:102D10004FF414711948FDF79BFF4FF40070ADB2EA
:102D2000854204D340F251211448FDF791FFE80594
:102D3000C00DA08031BD10B504000C48844210D0F5
:102D40000B4884420DD00B4884420AD00A48844282
:102D500007D00B48844204D040F261210748FDF7B8
:102D600077FFA088C005C00D10BD000000380140ED
:102D70000044004000480040004C00403040000843
:102D80000050004021AA44002DE9F84304000D0042
:102D9000002600275FF000085FF000096D488442BC
:102DA00010D06D4884420DD06C4884420AD06C48E3
:102DB000844207D06C48844204D040F2BE31694856
:102DC000FDF746FFADB2282D31D040F22770ADB2ED
:102DD00085422CD040F22660ADB2854227D040F229
:102DE0002550ADB2854222D040F22440ADB285429A
:102DF0001DD040F64600ADB2854218D040F66A10AC
:102E0000ADB2854213D04FF45870ADB285420ED0AA
:102E10004FF41870ADB2854209D04FF4B070ADB226
:102E2000854204D040F2BF314E48FDF711FF40F615
:102E30006A10ADB285420DD1464884420AD0464858
:102E4000844207D04548844204D040F2C33145480B
:102E5000FDF7FEFE2800C0B24009C0B28046ADB208
:102E600015F01F000700012010FA07F7B8F1010F55
:102E700002D1A089074007E0B8F1020F02D1208AF1
:102E8000074001E0A08A0740ADB2280A80B20600E0
:102E9000012010FA06F620880640002F04D0002EEC
:102EA00002D00120814601E0002081464846C0B2A0
:102EB000BDE8F283F8B504000D0000260027254880
:102EC000844210D0244884420DD0244884420AD041
:102ED0002348844207D02448844204D040F207416A
:102EE0002048FDF7B5FE40F22660ADB2854213D012
:102EF00040F22550ADB285420ED040F64600ADB24C
:102F0000854209D040F66A10ADB2854204D04FF434
:102F100081611448FDF79CFE40F66A10ADB285420F
:102F20000DD10C4884420AD00B48844207D00B488C
:102F3000844204D040F20C410A48FDF789FEADB24C
:102F4000280A06000120B0400700BFB2F8432080E5
:102F5000F1BD00000038014000440040004800403E
:102F6000004C0040304000080050004030B40021C8
:102F7000002200230024DFF8EC512D6815F00C0529
:102F800029000D00002D04D0042D06D0082D08D0F6
:102F90002EE0DFF8D85105602DE0DFF8D451056050
:102FA00029E0DFF8C0512D6815F470152A00DFF80C
:102FB000B4512D6815F480352B00920C921C002B17
:102FC00005D1DFF8B05105FB02F505600FE0DFF831
:102FD00094512D68AD0305D5DFF8905105FB02F53E
:102FE000056004E0DFF8885105FB02F5056002E0AA
:102FF000DFF878510560DFF86C512D6815F0F005A9
:1030000029000909DFF870514D5D2C000568E54085
:103010004560DFF850512D6815F4E0652900090A74
:10302000DFF854514D5D2C004568E5408560DFF8C0
:1030300034512D6815F460552900C90ADFF838515C
:103040004D5D2C004568E540C560DFF818512D68DE
:1030500015F440452900890BDFF820514D5D2C0007
:10306000C568B5FBF4F5056130BC704738B50400A0
:103070000D00DFF80C01044201D1002C05D140F213
:103080002F41DFF8E400FDF7E3FDEDB2002D07D09E
:10309000EDB2012D04D04FF486613348FDF7D8FD21
:1030A000EDB2002D07D0DFF8DC0000682043DFF828
:1030B000D410086006E0DFF8CC000068A043DFF819
:1030C000C410086031BD38B504000D002E4804421C
:1030D00001D1002C04D140F24E412348FDF7B8FD48
:1030E000EDB2002D07D0EDB2012D04D040F24F41DA
:1030F0001D48FDF7ADFDEDB2002D05D02348006859
:1031000020432249086004E020480068A0431F498A
:10311000086031BD38B504000D001D48044201D1DE
:10312000002C04D140F26D410F48FDF791FDEDB246
:10313000002D07D0EDB2012D04D040F26E410A48B7
:10314000FDF786FDEDB2002D05D012480068204342
:103150001049086004E00F480068A0430D4908606A
:1031600031BD000004100240B441000800127A0092
:103170000024F40000093D000000002010000020A1
:10318000A8FAFFFF141002400200C0FF181002400E
:10319000003601811C10024080B54C48006850F098
:1031A00001004A4908604A4800684A4908404849BD
:1031B0000860464800684849084044490860434858
:1031C000006830F48020414908604148006830F4CC
:1031D000FE003F49086041485FF41F01016000F0B4
:1031E00001F801BD80B500F001F801BD82B00020FA
:1031F0000190002000903548006850F48030334939
:1032000008603248006810F4003000900198401CBB
:1032100001900098002803D10198B0F5A06FF0D17B
:103220002A480068800302D50120009001E00020B8
:1032300000900098012847D12948006850F01000FC
:1032400027490860264800688008800024490860F3
:103250002348006850F00200214908601C481C49BE
:10326000096801601A481A4909680160184800682D
:1032700050F48060164908601548006830F47C10EE
:10328000134908601248006850F48810104908601B
:103290000E48006850F080700C4908600B480068C8
:1032A0008001FBD50A480068800880000849086052
:1032B0000748006850F002000549086004480068AB
:1032C00010F00C000828F9D102B07047001002403D
:1032D000041002400000FFF8FFFFF6FE0810024055
:1032E00000200240F8B50400002500260F27E078F2
:1032F000002806D0E078012803D074211F48FDF78C
:10330000A7FC6078102803D375211C48FDF7A0FCAA
:10331000A078102803D376211848FDF799FCE078AF
:10332000002820D01648006810F4E060D0F5E06076
:10333000000A0500D5F104000600EF406078B040B7
:103340000500A078384005432D0120780D494554EB
:10335000207840110C490122237813F01F039A4072
:1033600041F8202009E02078401108490122237803
:1033700013F01F039A4041F82020F1BD7442000869
:103380000CED00E000E400E000E100E080E100E09E
:1033900010B50400DFF80004844230D0DFF8FC03ED
:1033A00084422CD0DFF8F803844228D0DFF8F403FD
:1033B000844224D0DFF8F003844220D0DFF8EC030D
:1033C00084421CD0DFF8E803844218D0DFF8E4031D
:1033D000844214D0DFF8E003844210D0DFF8DC032D
:1033E00084420CD0DFF8D803844208D0DFF8D4033D
:1033F000844204D06E21DFF8D003FDF729FC206859
:103400004FF6FE71084020600020206000206060C0
:103410000020A0600020E060DFF87C03844208D137
:10342000DFF8A803006850F00F00DFF8A013086071
:103430008DE0DFF86803844208D1DFF8900300686C
:1034400050F0F000DFF88413086080E0DFF85003EC
:10345000844208D1DFF87403006850F47060DFF82C
:103460006C13086073E0DFF83C03844208D1DFF896
:103470005C03006850F47040DFF85013086066E0A9
:10348000DFF82403844208D1DFF84003006850F4D9
:103490007020DFF83813086059E0DFF81003844229
:1034A00008D1DFF82803006850F47000DFF81C131F
:1034B00008604CE0DFF8F802844208D1DFF80C0322
:1034C000006850F07060DFF8041308603FE0DFF838
:1034D000E402844208D1DFF8F802006850F00F00DF
:1034E000DFF8EC12086032E0DFF8CC02844208D149
:1034F000DFF8DC02006850F0F000DFF8D41208605A
:1035000025E0DFF8B802844208D1DFF8C402006881
:1035100050F47060DFF8B812086018E0DFF8A0021D
:10352000844208D1DFF8A802006850F47040DFF848
:10353000A01208600BE0DFF88C02844207D1DFF8AC
:103540009002006850F47020DFF88412086010BD0B
:1035500070B504000D000026DFF83C02844230D034
:10356000DFF8380284422CD0DFF83402844228D0BD
:10357000DFF83002844224D0DFF82C02844220D0CD
:10358000DFF8280284421CD0DFF82402844218D0DD
:10359000DFF82002844214D0DFF81C02844210D0ED
:1035A000DFF8180284420CD0DFF81402844208D0FD
:1035B000DFF81002844204D0CE21DFF80C02FDF7C0
:1035C00047FBA868102807D0A868002804D0CF219E
:1035D000DFF8F401FDF73CFBE868002803D0E86859
:1035E000B0F5803F04D3D021DFF8DC01FDF730FBDC
:1035F0002869402807D02869002804D0D121DFF8A5
:10360000C801FDF725FB6869802807D06869002894
:1036100004D0D221DFF8B001FDF71AFBA869002819
:103620000ED0A8694FF48071884209D0A8694FF480
:103630000071884204D0D321DFF88C01FDF708FB2C
:10364000E86900280CD0E869B0F5806F08D0E86917
:10365000B0F5006F04D0D421DFF86C01FDF7F8FA63
:10366000286A202807D0286A002804D0D521DFF84E
:103670005801FDF7EDFA686AB0F5405F0FD0686A4F
:10368000B0F5005F0BD0686AB0F5805F07D0686A5C
:10369000002804D0D621DFF83001FDF7D9FAA86A56
:1036A000B0F5804F07D0A86A002804D0D721DFF8F2
:1036B0001801FDF7CDFA20680600DFF81801064072
:1036C000A868296A08432969084369690843A96900
:1036D0000843E9690843696A0843A96A084306433D
:1036E0002660E86860602868A0606868E06070BD77
:1036F00038B504000D00DFF8A000844231D0DFF8B7
:103700009C0084422DD0DFF89800844229D0DFF855
:103710009400844225D0DFF89000844221D0DFF865
:103720008C0084421DD0DFF88800844219D0DFF875
:103730008400844215D0DFF88000844211D0DFF885
:103740007C0084420DD0DFF87800844209D0DFF895
:103750007400844205D04FF49471DFF86C00FDF7DB
:1037600077FAEDB2002D08D0EDB2012D05D040F270
:103770002911DFF85400FDF76BFAEDB2002D04D0EB
:10378000206850F00100206004E020684FF6FE71D0
:103790000840206031BD0000080002401C000240CB
:1037A0003000024044000240580002406C000240D9
:1037B00080000240080402401C0402403004024021
:1037C0004404024058040240F4400008040002404F
:1037D000040402400F80FFFFF8B504000D0000262E
:1037E0000027DFF87C0584420CD0DFF8780584429E
:1037F00008D0DFF87405844204D0DE21DFF86C05C0
:10380000FDF726FA2868002828D02868B0F5803F00
:1038100024D02868B0F5003F20D02868B0F5403F9C
:103820001CD02868B0F5802F18D02868B0F5A02FDC
:1038300014D02868B0F5C02F10D02868B0F5E02F5C
:103840000CD02868B0F5002F08D02868B0F5102FEC
:1038500004D0DF21DFF81405FDF7FAF928790028F4
:1038600007D02879012804D0E021DFF80005FDF712
:10387000EFF96879002807D06879012804D0E121A0
:10388000DFF8E804FDF7E4F9A868002837D0A86855
:10389000B0F5003F33D0A868B0F5802F2FD0A868CE
:1038A000B0F5C02F2BD0A868B0F5002F27D0A8689E
:1038B000B0F5202F23D0A868B0F5402F1FD0A868FE
:1038C000B0F5602F1BD0A868002818D0A868B0F504
:1038D000003F14D0A868B0F5C02F10D0A868B0F58C
:1038E000002F0CD0A868B0F5202F08D0A868B0F53C
:1038F000402F04D0E221DFF87404FDF7A9F9E8684D
:10390000002808D0E868B0F5006F04D0E321DFF8A4
:103910005C04FDF79DF9287C012802D3287C11283E
:1039200004D3E421DFF84404FDF792F9606806004F
:10393000DFF83C0406402868297950EA0120064354
:103940006660A0680600DFF82C040640E868A968F5
:103950000843697950EA41000643A660E06A060020
:1039600036F47006287C401E0743FFB256EA07561D
:10397000E662F1BD38B504000D00DFF8E4038442CF
:103980000DD0DFF8E003844209D0DFF8DC03844285
:1039900005D040F22D11DFF8D403FDF759F9EDB24F
:1039A000002D08D0EDB2012D05D04FF49771DFF84E
:1039B000BC03FDF74DF9EDB2002D04D0A06850F026
:1039C0000100A06003E0A06840084000A06031BD95
:1039D00038B504000D00DFF88803844209D0DFF811
:1039E0008803844205D04FF4A371DFF88003FDF70C
:1039F0002FF9EDB2002D08D0EDB2012D05D040F227
:103A00004711DFF86803FDF723F9EDB2002D05D06B
:103A1000A0684FF480710843A06003E0A06830F410
:103A20008070A06031BD10B50400DFF8340384421B
:103A30000DD0DFF83003844209D0DFF82C03844234
:103A400005D040F27D11DFF82403FDF701F9A068ED
:103A500050F00800A06010BD38B504000025DFF864
:103A6000000384420DD0DFF8FC02844209D0DFF865
:103A7000F802844205D040F28B11DFF8F002FDF726
:103A8000E7F8A068000702D50120050001E000204A
:103A900005002800C0B232BD10B50400DFF8C00236
:103AA00084420DD0DFF8BC02844209D0DFF8B802AE
:103AB000844205D040F2A311DFF8B002FDF7C8F848
:103AC000A06850F00400A06010BD38B504000025C7
:103AD000DFF88C0284420DD0DFF88802844209D0DE
:103AE000DFF88402844205D040F2B111DFF8C4024D
:103AF000FDF7AEF8A068400702D50120050001E0FF
:103B0000002005002800C0B232BD38B504000D0009
:103B1000DFF84C0284420DD0DFF84802844209D01D
:103B2000DFF84402844205D040F2CB11DFF8840272
:103B3000FDF78EF8EDB2002D08D0EDB2012D05D0C5
:103B40004FF4E671DFF86C02FDF782F8EDB2002D5C
:103B500004D0A06850F4A000A06003E0A06830F496
:103B6000A000A06031BD2DE9F84304000D0016004F
:103B70001F005FF000085FF00009DFF8E4018442F5
:103B80000DD0DFF8E001844209D0DFF8DC01844287
:103B900005D040F25121DFF81C02FDF759F8EDB2D3
:103BA000002D38D0EDB2012D35D0EDB2022D32D03E
:103BB000EDB2032D2FD0EDB2042D2CD0EDB2052D9A
:103BC00029D0EDB2062D26D0EDB2072D23D0EDB2CF
:103BD000082D20D0EDB2092D1DD0EDB20A2D1AD03E
:103BE000EDB20B2D17D0EDB20C2D14D0EDB20D2D82
:103BF00011D0EDB20E2D0ED0EDB20F2D0BD0EDB2D7
:103C0000102D08D0EDB2112D05D040F25221DFF871
:103C1000A401FDF71DF8F6B2012E02D3F6B2112E63
:103C200005D340F25321DFF88C01FDF711F8FFB204
:103C3000002F1AD0FFB2012F17D0FFB2022F14D0DD
:103C4000FFB2032F11D0FFB2042F0ED0FFB2052F09
:103C50000BD0FFB2062F08D0FFB2072F05D04FF4CC
:103C60001571DFF85001FCF7F3FFEDB20A2D17D301
:103C7000E06880460720B5F10A01032251438840DD
:103C8000814638EA0908FFB2B5F10A00032148432A
:103C900017FA00F0814659EA0808C4F80C8014E0CD
:103CA000206980460720032101FB05F188408146F9
:103CB00038EA0908FFB2032000FB05F017FA00F00C
:103CC000814659EA0808C4F81080F6B2072E15D2CA
:103CD000606B80461F20711E05225143884081463B
:103CE00038EA0908EDB2701E0521484315FA00F0C4
:103CF000814659EA0808C4F834802FE0F6B20D2E48
:103D000015D2206B80461F20F11F052251438840A9
:103D1000814638EA0908EDB2F01F0521484315FA3B
:103D200000F0814659EA0808C4F8308016E0E06ADD
:103D300080461F20B6F10D0105225143884081467F
:103D400038EA0908EDB2B6F10D000521484315FA2D
:103D500000F0814659EA0808C4F82C80BDE8F183D8
:103D60000024014000280140003C0140944000082C
:103D7000FFFEF0FFFDF7F1FF10B50400E4B2002CE8
:103D800007D0E4B2012C04D040F291410948FCF77D
:103D90005FFFE4B2002C06D00748006850F4000032
:103DA0000549086005E00448006830F40000024955
:103DB000086010BD94400008082401402DE9F0433C
:103DC00085B004000D00002600275FF00408DFF82E
:103DD000EC91DFF8DC01844208D0DFF8D80184429E
:103DE00004D0C521DFF8D001FCF732FF2868002895
:103DF00004D02868DFF8C811884204D3C621DFF850
:103E0000B801FCF725FFA88800280AD0A888022856
:103E100007D0A8880A2804D0C721DFF89C01FCF746
:103E200017FFE888B0F5804F09D0E8884BF6FF719E
:103E3000884204D0C821DFF88001FCF709FF2889F7
:103E4000B0F5806F04D3C921DFF86C01FCF700FFE7
:103E50006889B0F5806F07D06889002804D0CA212E
:103E6000DFF85401FCF7F4FEA889B0F5804F08D0C4
:103E7000A889B0F5404F04D0CB21DFF83C01FCF716
:103E8000E7FEA08806004FF6C070064000A8FFF7C6
:103E90006DF802988146DFF82C01B9FBF0F00700BD
:103EA0003E43A68020884FF6FE7108402080002007
:103EB00006002868DFF81011884210D228684000F8
:103EC000B9FBF0F080461FFA88F8B8F1040F01D270
:103ED0000420804658EA0606781C208426E0E888FC
:103EE0004BF6FF71884206D1286803214843B9FB8D
:103EF000F0F0804607E0286819214843B9FBF0F04C
:103F0000804658F480485FEA085001D158F0010813
:103F100058F400400643BFB24FF4967000FB07F020
:103F20004FF47A7190FBF1F0401C2084A683208826
:103F300050F001002080208806004FF6F530064042
:103F4000A8886989084306432680A88929890843E7
:103F5000208105B0BDE8F08338B504000D00DFF81E
:103F60005000844209D0DFF84C00844205D04FF461
:103F7000A271DFF84400FCF76BFEEDB2002D08D013
:103F8000EDB2012D05D040F24511DFF82C00FCF711
:103F90005FFEEDB2002D04D0208850F0010020809B
:103FA00004E020884FF6FE710840208031BD0000FB
:103FB00000540040005800405441000800127A00AC
:103FC000811A060040420F00A1860100433A5C5569
:103FD000736572735C5454545C4465736B746F7096
:103FE0005C7A7A2E53544446575C30302E537475A5
:103FF00064795C4C69627261726965735C53544D9B
:104000003332463130785F5374645065726970683A
:104010005F4472697665725C7372635C73746D334E
:1040200032663130785F6770696F2E630000000080
:10403000433A5C55736572735C5454545C446573C5
:104040006B746F705C7A7A2E53544446575C3030F0
:104050002E53747564795C4C696272617269657320
:104060005C53544D3332463130785F53746450653D
:10407000726970685F4472697665725C7372635CC2
:1040800073746D3332663130785F75736172742E7C
:1040900063000000433A5C55736572735C5454547A
:1040A0005C4465736B746F705C7A7A2E535444462B
:1040B000575C30302E53747564795C4C6962726160
:1040C000726965735C53544D3332463130785F53B7
:1040D00074645065726970685F4472697665725C79
:1040E0007372635C73746D3332663130785F616410
:1040F000632E6300433A5C55736572735C54545489
:104100005C4465736B746F705C7A7A2E53544446CA
:10411000575C30302E53747564795C4C69627261FF
:10412000726965735C53544D3332463130785F5356
:1041300074645065726970685F4472697665725C18
:104140007372635C73746D3332663130785F646DA3
:10415000612E6300433A5C55736572735C5454542A
:104160005C4465736B746F705C7A7A2E535444466A
:10417000575C30302E53747564795C4C696272619F
:10418000726965735C53544D3332463130785F53F6
:1041900074645065726970685F4472697665725CB8
:1041A0007372635C73746D3332663130785F693279
:1041B000632E6300433A5C55736572735C545454C8
:1041C0005C4465736B746F705C7A7A2E535444460A
:1041D000575C30302E53747564795C4C696272613F
:1041E000726965735C53544D3332463130785F5396
:1041F00074645065726970685F4472697665725C58
:104200007372635C73746D3332663130785F7263DE
:10421000632E6300433A5C55736572735C54545467
:104220005C4465736B746F705C7A7A2E53544446A9
:10423000575C30302E53747564795C4C69627261DE
:10424000726965735C53544D3332463130785F5335
:1042500074645065726970685F4472697665725CF7
:104260007372635C73746D3332663130785F746976
:104270006D2E6300433A5C55736572735C545454FD
:104280005C4465736B746F705C7A7A2E5354444649
:10429000575C30302E53747564795C4C696272617E
:1042A000726965735C53544D3332463130785F53D5
:1042B00074645065726970685F4472697665725C97
:1042C0007372635C6D6973632E63000010B450F801
:1042D000041B81B102681218001D50F8043BDC0772
:1042E00044BFA9F10104E31852F8044B43F8044B0E
:1042F000091FF9D1EBE710BC704750F8041B61B1FE
:1043000050F8042BD30744BFA9F101039A180023E6
:1043100042F8043B091FFAD1EFE7704710B508498E
:1043200079441C31074C7C441A34A14206D0081D44
:104330000A68511888470146A142F8D110BD00BF54
:104340000800000028000000B3FFFFFF901B0000E2
:10435000180000200000000075FFFFFF180000009B
:1043600038010000000000200000000000F009F803
:10437000002801D0FFF7D2FF0020FEF7D1FA00F0AD
:1043800002F80120704700F001B8000007463846E7
:1043900000F002F8FBE7000080B5C046C046024AC4
:1043A00011001820ABBEFBE7260002000148804741
:1043B0000148004799310008BD430008C046C04687
:1043C000C046C046FFF7D2FFFCF743BCFCF742BC37
:1043D000FCF741BCFCF740BCFCF73FBCFCF73EBC23
:1043E000FCF73DBCFCF73CBCFCF73BBCFCF741BC1C
:1043F000FCF740BCFCF73FBCFCF73EBCFCF73DBC07
:10440000FCF73CBCFFF7FEBFFFF7FEBFFFF7FEBFA8
:10441000FFF7FEBFFFF7FEBFFFF7FEBFFCF72FBCA5
:10442000FCF72EBCFCF72DBCFCF72CBCFCF72BBC1E
:10443000FCF72ABCFCF729BCFCF728BCFFF7FEBF41
:10444000FCF725BCFCF724BCFFF7FEBFFCF721BC42
:10445000FCF720BCFCF71FBCFCF71EBCFCF71DBC26
:10446000FCF714BEFCF730BEFCF740BEFCF73FBEC5
:10447000FCF73EBEFCF73DBEFCF73CBEFCF73BBE86
:10448000FCF7FABFFDF73CB8FDF780B8FCF734BE87
:10449000FCF733BEFFF7FEBF00000000010203047B
:1044A00001020304060708090204060800A24A04E0
:04000005080043BDEF
:00000001FF
