:020000040800F2
:10000000E01E0020F11A0008EF000008F1000008CF
:10001000F3000008F5000008F700000800000000E9
:10002000000000000000000000000000F9000008CF
:10003000FB00000800000000FD000008FF000008B1
:100040000F01000811010008130100081501000844
:1000500017010008190100087D040008AB0400081E
:10006000511B0008551B0008591B00085D1B0008A8
:100070001B0100081D0100081F01000821010008E4
:1000800023010008250100082701000829010008B4
:10009000811B00082B0100082D0100088D1B0008A2
:1000A0002F01000831010008330100083501000864
:1000B000370100083504000859040008D904000875
:1000C000DB040008DD040008DF040008E104000888
:1000D000E304000865080008E10800087909000841
:1000E000E5040008E7040008D91B0008FEE7704794
:1000F000FEE7FEE7FEE7FEE770477047704780B512
:1001000000F0ACFC00F0BEFC00F0B2FC01BD70479A
:100110007047704770477047704770477047704727
:100120007047704770477047704770477047704717
:1001300070477047704780B501215FF0804000F044
:10014000D3FC002800F0758101215FF0804000F0B1
:100150004DFDDFF880070078401CDFF87817087045
:10016000DFF87007007864280BD3DFF868070021F8
:100170000170DFF86007407890F0FF00DFF8541757
:100180004870DFF854070078012815D1DFF84807D8
:100190004068401CDFF840174860DFF83C074068C3
:1001A0004FF47A71884207D3DFF82C0700214160B1
:1001B000DFF8240700210170DFF82007007901280B
:1001C00026D1DFF818078079401CDFF810178871F6
:1001D000DFF80807807965281AD3DFF800070021C7
:1001E0008171DFF8F806C079401CDFF8F016C8719D
:1001F000DFF8E806C079DFF8E4164979884207D3CA
:10020000DFF8D80600210171DFF8D0060021C171A6
:10021000DFF85C07407B00282AD0DFF85407807B9A
:10022000401CDFF84C178873DFF84407807B642894
:100230001ED3DFF83C07C07B401CDFF83417C873BF
:10024000DFF82C0700218173DFF82407C07BDFF87B
:100250002017097B88420BD3DFF8140701210174B2
:10026000DFF80C070021C173DFF804070021417398
:10027000DFF8FC06807A002810D1DFF8F406407B16
:1002800000280BD0DFF8E80600214173DFF8E00614
:1002900000218173DFF8D8060021C173DFF8D4068E
:1002A0000078012817D1DFF8CC064068401CDFF841
:1002B000C4164860DFF8BC064068C8280BD3DFF8D6
:1002C000B40601210172DFF8AC0600214160DFF8BD
:1002D000A40600210170DFF89C06407A012816D19F
:1002E000DFF89006C068401CDFF88816C860DFF8A9
:1002F00084060069DFF87C16C968884207D2DFF8F7
:10030000740601210175DFF86C060021C160DFF879
:10031000B4068078012813D1DFF8A806C078401C05
:10032000DFF8A016C870DFF89C06C078322807D323
:10033000DFF890060021C170DFF888060021817087
:10034000DFF82C06807C002823D1DFF82406C07C4F
:1003500000280ED1DFF81806007D002809D1DFF84B
:100360001006407D002804D1DFF80406807D0028B7
:100370000FD0DFF8FC050021C174DFF8F40500217F
:100380000175DFF8EC0500214175DFF8E405002177
:100390008175DFF8DC05807C01284AD1DFF8D005C3
:1003A000C07C401CDFF8C815C874DFF8C405C07CE9
:1003B00064283ED3DFF8B8050021C174DFF8B0052A
:1003C000007D401CDFF8A8150875DFF8A405007D46
:1003D0003C282ED3DFF8980500210175DFF8900541
:1003E000407D401CDFF888154875DFF88405407DA6
:1003F0003C281ED3DFF8780500214175DFF8700531
:10040000807D401CDFF868158875DFF86405807D05
:10041000DFF85C15497C88420BD3DFF854050021D6
:100420008175DFF84C0500218174DFF84405012156
:10043000C17501BD80B50121DFF88C0500F054FBCA
:10044000002808D00121DFF8840500F0CFFB00F080
:1004500050FC00F047FC01BD80B50121DFF86C05C0
:1004600000F042FB002808D00121DFF8600500F011
:10047000BDFB00F029FC00F02EFC01BD80B5012081
:1004800000F040FC00280FD0012000F08BFC4FF45E
:100490000071DFF8480500F076FD012802D100F078
:1004A0001AFC01E000F010FC01BD80B5022000F054
:1004B00029FC00280FD0022000F074FC4FF480715A
:1004C000DFF8180500F05FFD012802D100F011FCF3
:1004D00001E000F007FC01BD7047704770477047AE
:1004E0007047704770477047C0B2C9B288420FD199
:1004F000DFF8E02482F88400DFF8D824127F521C51
:10050000DFF8D0341A77DFF8CC24012353770CE0DE
:10051000DFF8C02400231377DFF8B824002382F823
:100520008330DFF8B0240023D3747047DFF8A404CD
:1005300090F88300CA280ED1DFF8980490F887005D
:10054000D12808D1DFF888044078002803D1DFF8EB
:10055000800402210170704738B504000D00E4B238
:10056000002C2BD1DFF86C0400210177DFF8640444
:10057000007FDFF86014401880F88350DFF85404DF
:10058000007F401CDFF84C140877DFF85404006843
:10059000DFF84C1440180571DFF844040068401C73
:1005A000DFF83C140860DFF8380400684FF49671F7
:1005B000884203D3DFF8280400210160E4B2012C53
:1005C00038D1DFF81C040068DFF8141440180571F6
:1005D000DFF80C040068401CDFF804140860DFF842
:1005E000000400684FF49671884203D3DFF8F003EB
:1005F00000210160DFF8DC03007F01281AD1DFF859
:10060000D403C07C0A2809D00B280DD0AC2811D106
:10061000AC212800C0B2FFF767FF0BE00A212800D9
:10062000C0B2FFF761FF05E00B212800C0B2FFF761
:100630005BFFFFE7E4B2022C53D1DFF8A4030068AC
:10064000DFF89C1340180571DFF894030068401C24
:10065000DFF88C130860DFF8880300684FF49671A8
:10066000884203D3DFF8780300210160DFF86403D8
:10067000C07CFF281BD1DFF85C03007F022830D14B
:10068000DFF8500302214177DFF84803407F401D27
:10069000DFF840138877DFF83C0380F88550DFF8F7
:1006A0003403007F401CDFF82C13087719E0DFF8D3
:1006B0002403007F022814D1DFF818034577DFF800
:1006C0001403407F401DDFF80C138877DFF8040324
:1006D00080F88550DFF8FC02007F401CDFF8F41240
:1006E0000877E4B2032C72D1DFF8F4020068DFF877
:1006F000F01240180571DFF8E8020068401CDFF8CE
:10070000E0120860DFF8D80200684FF49671884262
:1007100003D3DFF8CC0200210160DFF8B802007FCC
:10072000DFF8B012401880F88350DFF8A802007F8D
:10073000401CDFF8A0120877DFF89802007FDFF88E
:100740009412897F884242D1DFF88802C07CFF285A
:1007500002D100F047F92EE0DFF87802007FDFF8E1
:100760007412401890F8820010F00F000F2817D173
:10077000DFF85C02407801280BD1DFF85802012134
:10078000C173DFF85002007C401CDFF84812087487
:1007900001E0FFF7CBFEDFF83C02002101770AE021
:1007A000DFF83002FF21C173DFF82802807E401C91
:1007B000DFF820128876DFF81C0200210177DFF8CD
:1007C000140200214177DFF80C020021C17431BD11
:1007D00038B504000025DFF8FC01C07C002823D1D7
:1007E000E4B22000A0280CD0B02813D0CA281AD117
:1007F000CA210020FFF7B0FEDFF8D801AC21C17498
:100800002FE0A0210020FFF7A7FEDFF8C8010A2192
:10081000C17426E0B0210020FFF79EFEDFF8B4018E
:100820000B21C1741DE01CE0DFF8A801407F002807
:1008300002D1012005000EE0DFF89801007F0328B7
:1008400002D30320050006E0DFF88801007E0028BF
:1008500001D1022005002100C9B22800C0B2FFF773
:100860007BFE31BD10B5002440F226615A4800F0ED
:10087000B3FC00281ED05748007856494978884272
:100880000DD254480078411C524A1170C0B25149EF
:100890004018C17F89B2504800F052FC05E04D4835
:1008A000002141704B480021017040F226614A4806
:1008B00000F028FD40F22551474800F08DFC00284B
:1008C00007D0454800F061FC04002000C0B2FFF7EB
:1008D0007FFF10BDC81A0020681A0020C01A00202F
:1008E00038B50024002540F22661DFF8640100F0ED
:1008F00073FC00282CD0DFF854014078DFF84C114D
:100900008978884216D2DFF844014078DFF83C113C
:100910004018007D0500DFF834014078401CDFF806
:100920002C114870EDB2290089B2DFF8240100F0E3
:1009300007FC07E0DFF8140100214170DFF80C012B
:100940000021817040F22661DFF8040100F0DAFC3A
:1009500040F22551DFF8F80000F03EFC002804D0FA
:10096000DFF8EC0000F011FC040031BD00000000D5
:10097000901A0020381A002038B50024002540F2D3
:100980002661DFF8D00000F027FC00280CD0EDB283
:10099000290089B2DFF8BC0000F0D2FB40F22661EA
:1009A000DFF8B00000F0AEFC40F22551DFF8A40003
:1009B00000F012FC002804D0DFF8980000F0E5FBFE
:1009C000040031BD68190020000400400008004008
:1009D00014000020A417002000380140000C014042
:1009E000741600200021002001221100C9B206293E
:1009F00008D2C9B2DFF860208A1892F87520101862
:100A0000491CF3E7DFF8502092F87B20C0B2824205
:100A10000FD1DFF8442001231372DFF83C20527A13
:100A2000521CDFF834305A72DFF82C200023537345
:100A30000AE0DFF82420FF231372DFF81C20D27AAB
:100A4000521CDFF81430DA72704700008C18002056
:100A50000044004000480040A41300200F480068F4
:100A6000002804D00D480068401E0C4908607047FB
:100A700009480068002804D007480068401E06495D
:100A80000860704706480068002804D004480068E1
:100A9000401E034908607047CC1A0020D41A002079
:100AA000D01A002001B4BDF80000411EADF80010BE
:100AB00080B20028F7D101B0704710B450F8041B81
:100AC00081B102681218001D50F8043BDC0744BFD6
:100AD000A9F10104E31852F8044B43F8044B091F31
:100AE000F9D1EBE710BC70472DE9F04104000D008F
:100AF000002600275FF00008DFF88C01844241D017
:100B0000B4F1804F3ED0DFF8880184423AD0DFF85C
:100B10008401844236D0DFF88001844232D0DFF88D
:100B20007C0184422ED0DFF8780184422AD0DFF89D
:100B30005C01844226D0DFF87001844222D0DFF8C5
:100B40006C0184421ED0DFF8680184421AD0DFF8BD
:100B50006401844216D0DFF86001844212D0DFF8CD
:100B60005C0184420ED0DFF8580184420AD0554817
:100B7000844207D04B48844204D040F64B21414880
:100B8000FFF7B4FAADB2012D19D0ADB2022D16D0D7
:100B9000ADB2042D13D0ADB2082D10D0ADB2102DD2
:100BA0000DD0ADB2202D0AD0ADB2402D07D0ADB2E0
:100BB000802D04D040F64C213248FFF797FA208A66
:100BC00028400700A08928408046BFB2002F07D0E8
:100BD0001FFA88F8B8F1000F02D00120060001E0EA
:100BE000002006003000C0B2BDE8F08138B5040036
:100BF0000D002548844234D0B4F1804F31D02448D0
:100C000084422ED0234884422BD02348844228D0CB
:100C10002248844225D02248844222D01B48844264
:100C20001FD0214884421CD02048844219D020483B
:100C3000844216D01F48844213D01F48844210D0EB
:100C40001E4884420DD01E4884420AD01D4884426A
:100C500007D01448844204D040F675210948FFF7B4
:100C600045FA4FF47F40054202D1ADB2002D04D1C8
:100C700040F676210348FFF739FAADB2E843208207
:100C800031BD0000D0190008002C014000340140A3
:100C90000004004000080040000C0040001000402C
:100CA0000014004000480140004C01400050014049
:100CB0000054014000180040001C0040002000408B
:100CC000004001400044014080B54FF400710C48E1
:100CD00000F0CBF901BD80B54FF40071084800F079
:100CE000F4F901BD80B54FF48071054800F0BDF9FD
:100CF00001BD80B54FF48071014800F0E6F901BDF7
:100D0000000C014070B5040000250026012C37D0EE
:100D1000022C35D0042C33D0082C31D0102C2FD0FD
:100D2000202C2DD0402C2BD0802C29D04FF480703B
:100D3000844225D04FF40070844221D0B4F5806FF6
:100D40001ED0B4F5006F1BD0B4F5805F18D0B4F599
:100D5000005F15D0B4F5804F12D0B4F5004F0FD01E
:100D6000B4F5803F0CD0B4F5003F09D0B4F5802F26
:100D700006D0B4F5002F03D0E4211448FFF7B6F9EC
:100D800010480068204006000F480068204204D048
:100D9000002E02D00120050001E0002005002800FF
:100DA000C0B270BD10B50400200D0005002801D1AF
:100DB000002C03D1FB210548FFF798F90248046095
:100DC00010BD000000040140140401404418000854
:100DD0002DE9F84F04000D00002600275FF0000801
:100DE0005FF000095FF0000A5FF0000BDFF83003EE
:100DF00084421CD0DFF82C03844218D0DFF828038B
:100E0000844214D0DFF82403844210D0DFF820039A
:100E100084420CD0DFF81C03844208D0DFF81803AA
:100E2000844204D0B121DFF81403FFF75FF9E878BA
:100E3000002819D0E878042816D0E878282813D09C
:100E4000E878482810D0E87814280DD0E8781028E1
:100E50000AD0E8781C2807D0E878182804D0B221F6
:100E6000DFF8D802FFF742F92888002804D1B3211F
:100E7000DFF8C802FFF73AF9E87810F00F00060033
:100E8000E878C0060FD5A87801280AD0A8780228EB
:100E900007D0A878032804D0BA21DFF8A002FFF712
:100EA00025F9A87806432878000631D020688246C4
:100EB00000208046B8F1080F28D2012010FA08F06F
:100EC0008146288819EA000007004F451BD15FEAD8
:100ED000880081460F2010FA09F083463AEA0B0A8F
:100EE00016FA09F050EA0A0AE878282804D1012005
:100EF00010FA08F0606106E0E878482803D1012084
:100F000010FA08F0206118F10108D3E7C4F800A036
:100F100028884FF48071884233D36068824600206D
:100F20008046B8F1080F2AD2012018F10801884044
:100F30008146288819EA000007004F451CD15FEA66
:100F4000880081460F2010FA09F083463AEA0B0A1E
:100F500016FA09F050EA0A0AE878282804D1012094
:100F600018F1080188406061E878482804D1012020
:100F700018F108018840206118F10108D1E7C4F890
:100F800004A0BDE8F18F70B504000D000026DFF865
:100F9000900184421DD0DFF88C01844219D0DFF823
:100FA0008801844215D0DFF88401844211D0DFF833
:100FB000800184420DD0DFF87C01844209D0DFF843
:100FC0007801844205D040F21D11DFF87001FFF76F
:100FD0008DF8ADB2012D3CD0ADB2022D39D0ADB2FD
:100FE000042D36D0ADB2082D33D0ADB2102D30D097
:100FF000ADB2202D2DD0ADB2402D2AD0ADB2802D76
:1010000027D04FF48070ADB2854222D04FF40070EB
:10101000ADB285421DD0ADB2B5F5806F19D0ADB27D
:10102000B5F5006F15D0ADB2B5F5805F11D0ADB29A
:10103000B5F5005F0DD0ADB2B5F5804F09D0ADB2BA
:10104000B5F5004F05D04FF48F71DFF8F000FFF7D2
:101050004DF8A06880B2284202D00120060001E0CD
:10106000002006003000C0B270BD38B504000D008D
:10107000DFF8AC0084421CD0DFF8A800844218D00E
:10108000DFF8A400844214D0DFF8A000844210D01E
:10109000DFF89C0084420CD02648844209D0DFF857
:1010A0009800844205D04FF4B471DFF89000FFF748
:1010B0001DF8ADB2002D05D140F26911DFF87C00BA
:1010C000FFF714F8ADB2256131BD38B504000D004D
:1010D0001348844218D01348844215D012488442E1
:1010E00012D0124884420FD0114884420CD01148CB
:1010F000844209D0DFF84000844205D04FF4BC712F
:10110000DFF83800FEF7F2FFADB2002D05D140F256
:101110007911DFF82800FEF7E9FFADB2656131BD56
:1011200000080140000C0140001001400014014083
:1011300000180140001C014000200140A8180008D0
:1011400038B504000D001E48844210D01D4884426A
:101150000DD01D4884420AD01C48844207D01D4847
:10116000844204D04FF414711948FEF7BFFF4FF4C6
:101170000070ADB2854204D340F251211448FEF70D
:10118000B5FFE805C00DA08031BD10B504000C48C6
:10119000844210D00B4884420DD00B4884420AD0C0
:1011A0000A48844207D00B48844204D040F26121AF
:1011B0000748FEF79BFFA088C005C00D10BD0000CA
:1011C000003801400044004000480040004C00400E
:1011D0000C190008005000402DE9F84304000D00F0
:1011E000002600275FF000085FF000096D48844288
:1011F00010D06D4884420DD06C4884420AD06C48AF
:10120000844207D06C48844204D040F2BE31694821
:10121000FEF76CFFADB2282D31D040F22770ADB291
:1012200085422CD040F22660ADB2854227D040F2F4
:101230002550ADB2854222D040F22440ADB2854265
:101240001DD040F64600ADB2854218D040F66A1077
:10125000ADB2854213D04FF45870ADB285420ED076
:101260004FF41870ADB2854209D04FF4B070ADB2F2
:10127000854204D040F2BF314E48FEF737FF40F6BA
:101280006A10ADB285420DD1464884420AD0464824
:10129000844207D04548844204D040F2C3314548D7
:1012A000FEF724FF2800C0B24009C0B28046ADB2AC
:1012B00015F01F000700012010FA07F7B8F1010F21
:1012C00002D1A089074007E0B8F1020F02D1208ABD
:1012D000074001E0A08A0740ADB2280A80B20600AC
:1012E000012010FA06F620880640002F04D0002EB8
:1012F00002D00120814601E0002081464846C0B26C
:10130000BDE8F283F8B504000D000026002725484B
:10131000844210D0244884420DD0244884420AD00C
:101320002348844207D02448844204D040F2074135
:101330002048FEF7DBFE40F22660ADB2854213D0B6
:1013400040F22550ADB285420ED040F64600ADB217
:10135000854209D040F66A10ADB2854204D04FF400
:1013600081611448FEF7C2FE40F66A10ADB28542B4
:101370000DD10C4884420AD00B48844207D00B4858
:10138000844204D040F20C410A48FEF7AFFEADB2F1
:10139000280A06000120B0400700BFB2F8432080B1
:1013A000F1BD00000038014000440040004800400A
:1013B000004C00400C1900080050004030B40021DF
:1013C000002200230024DFF890512D6815F00C0551
:1013D00029000D00002D04D0042D06D0082D08D0C2
:1013E0002EE0DFF87C5105602DE0DFF878510560D4
:1013F00029E0DFF864512D6815F470152A00DFF834
:1014000058512D6815F480352B00920C921C002B3E
:1014100005D1DFF8545105FB02F505600FE0DFF858
:1014200038512D68AD0305D5DFF8345105FB02F5C1
:10143000056004E0DFF82C5105FB02F5056002E0D1
:10144000DFF81C510560DFF810512D6815F0F0052C
:1014500029000909DFF814514D5D2C000568E540AD
:101460004560DFF8F4502D6815F4E0652900090A9D
:10147000DFF8F8504D5D2C004568E5408560DFF8E9
:10148000D8502D6815F460552900C90ADFF8DC50E2
:101490004D5D2C004568E540C560DFF8BC502D6807
:1014A00015F440452900890BDFF8C4504D5D2C0030
:1014B000C568B5FBF4F5056130BC704738B504006C
:1014C0000D002C48044201D1002C04D140F24E41C1
:1014D0002248FEF70BFEEDB2002D07D0EDB2012D34
:1014E00004D040F24F411D48FEF700FEEDB2002D42
:1014F00005D02148006820431F49086004E01E48C9
:101500000068A0431C49086031BD38B504000D00D7
:101510001A48044201D1002C04D140F26D410F4819
:10152000FEF7E4FDEDB2002D07D0EDB2012D04D0A1
:1015300040F26E410948FEF7D9FDEDB2002D05D00D
:101540000F48006820430E49086004E00C4800681A
:10155000A0430B49086031BD041002407019000817
:1015600000127A000024F40000093D000000002071
:10157000100000200200C0FF181002400036018158
:101580001C10024080B54C48006850F001004A49E8
:1015900008604A4800684A49084048490860464887
:1015A000006848490840444908604348006830F4EE
:1015B0008020414908604148006830F4FE003F49FE
:1015C000086041485FF41F01016000F001F801BDAF
:1015D00080B500F001F801BD82B00020019000202C
:1015E00000903548006850F4803033490860324834
:1015F000006810F4003000900198401C01900098A1
:10160000002803D10198B0F5A06FF0D12A480068F6
:10161000800302D50120009001E000200090009896
:10162000012847D12948006850F010002749086078
:101630002648006880088000244908602348006824
:1016400050F00200214908601C481C4909680160EB
:101650001A481A49096801601848006850F4806007
:10166000164908601548006830F47C10134908607A
:101670001248006850F48810104908600E4800684D
:1016800050F080700C4908600B4800688001FBD561
:101690000A48006880088000084908600748006818
:1016A00050F00200054908600448006810F00C0082
:1016B0000828F9D102B0704700100240041002401F
:1016C0000000FFF8FFFFF6FE081002400020024075
:1016D00080B501212248FFF7C8FC02212048FFF70E
:1016E000C4FC04211E48FFF7C0FC08211C48FFF77A
:1016F000BCFC10211A48FFF7B8FC20211848FFF75E
:10170000B4FC40211648FFF7B0FC80211448FFF7D5
:10171000ACFC01BD10B50400012C07D01ED3032C76
:101720000ED008D3052C15D00FD317E038210C4864
:10173000FFF7CBFC12E0B9210948FFF7C6FC0DE02A
:1017400038210748FFF7C1FC08E038210448FFF7BB
:10175000BCFC03E038210248FFF7B7FC10BD0000D5
:101760000010014080B5FFF7B3FF4FF47A70FFF728
:1017700099F90120FFF7CEFF4FF47A70FFF792F945
:10178000FFF7A6FF4FF47A70FFF78CF90220FFF7FE
:10179000C1FF01BD80B500F006F82548FFF70EFE39
:1017A00000F00DF801BD80B5FFF7ECFE01213D20F2
:1017B000FFF784FE01210420FFF7A7FE01BD80B5DD
:1017C0001C48012101801B482821C17019480221B1
:1017D000817018491848FFF7FBFA1648022101806A
:1017E00014482821C1701348022181701149124800
:1017F000FFF7EEFA0F484FF4487101800D481021B1
:10180000C1700C48022181700A490C48FFF7E0FAC8
:10181000084840F2FF11018006481021C1700548B8
:101820000321817003490648FFF7D2FA01BD000089
:10183000AC1A0020D81A002000080140000C01401A
:1018400000100140433A5C55736572735C54545404
:101850005C4465736B746F705C7A7A2E53544446A3
:10186000575C30302E53747564795C4C69627261D8
:10187000726965735C53544D3332463130785F532F
:1018800074645065726970685F4472697665725CF1
:101890007372635C73746D3332663130785F657870
:1018A00074692E6300000000433A5C5573657273DF
:1018B0005C5454545C4465736B746F705C7A7A2E1C
:1018C00053544446575C30302E53747564795C4CE5
:1018D00069627261726965735C53544D333246318B
:1018E00030785F5374645065726970685F447269E0
:1018F0007665725C7372635C73746D33326631301B
:10190000785F6770696F2E6300000000433A5C5592
:10191000736572735C5454545C4465736B746F707C
:101920005C7A7A2E53544446575C30302E5374758B
:1019300064795C4C69627261726965735C53544D81
:101940003332463130785F53746450657269706821
:101950005F4472697665725C7372635C73746D3335
:1019600032663130785F75736172742E63000000E7
:10197000433A5C55736572735C5454545C446573AC
:101980006B746F705C7A7A2E53544446575C3030D7
:101990002E53747564795C4C696272617269657307
:1019A0005C53544D3332463130785F537464506524
:1019B000726970685F4472697665725C7372635CA9
:1019C00073746D3332663130785F7263632E6300F7
:1019D000433A5C55736572735C5454545C4465734C
:1019E0006B746F705C7A7A2E53544446575C303077
:1019F0002E53747564795C4C6962726172696573A7
:101A00005C53544D3332463130785F5374645065C3
:101A1000726970685F4472697665725C7372635C48
:101A200073746D3332663130785F74696D2E630084
:101A300010B5084979441C31074C7C441A34A14242
:101A400006D0081D0A68511888470146A142F8D1FE
:101A500010BD00BF2C0000004C00000050F8041B1B
:101A600061B150F8042BD30744BFA9F101039A18C0
:101A7000002342F8043B091FFAD1EFE7704700004A
:101A8000DDFFFFFFC81A0000140000200000000066
:101A90002BF0FFFF140000004401000000000020B4
:101AA0000000000000F009F8002801D0FFF7C0FF97
:101AB000002000F004F800F008F80120704780B51D
:101AC000FFF768FEFFF74EFEFEE700F001B80000EA
:101AD0000746384600F002F8FBE7000080B5C04634
:101AE000C046024A11001820ABBEFBE726000200E8
:101AF000014880470148004785150008011B000880
:101B0000C046C046C046C046FFF7CCFFFEF7EFBA5E
:101B1000FEF7EEBAFEF7EDBAFEF7ECBAFEF7EBBA57
:101B2000FEF7EABAFEF7E9BAFEF7E8BAFEF7E7BA57
:101B3000FEF7EDBAFEF7ECBAFEF7EBBAFEF7EABA3B
:101B4000FEF7E9BAFEF7E8BAFEF798BCFEF7ADBCBF
:101B5000FFF7FEBFFFF7FEBFFFF7FEBFFFF7FEBFB9
:101B6000FEF7DBBAFEF7DABAFEF7D9BAFEF7D8BA53
:101B7000FEF7D7BAFEF7D6BAFEF7D5BAFEF7D4BA53
:101B8000FFF7FEBFFEF7D1BAFEF7D0BAFFF7FEBFF0
:101B9000FEF7CDBAFEF7CCBAFEF7CBBAFEF7CABA5B
:101BA000FEF7C9BAFEF746BCFEF756BCFEF794BC7A
:101BB000FEF793BCFEF792BCFEF791BCFEF790BC1B
:101BC000FEF78FBCFEF74EBEFEF78ABEFEF7D4BE10
:101BD000FEF788BCFEF787BCFFF7FEBF00000000E1
:101BE00001020304010203040607080902040608AF
:0400000508001B01D3
:00000001FF
