:020000040800F2
:10000000F01E0020511D0008EF000008F10000085C
:10001000F3000008F5000008F700000800000000E9
:10002000000000000000000000000000F9000008CF
:10003000FB00000800000000FD000008FF000008B1
:100040000F01000811010008130100081501000844
:1000500017010008190100084D0500087B0500087C
:10006000B11D0008B51D0008B91D0008BD1D000820
:100070001B0100081D0100081F01000821010008E4
:1000800023010008250100082701000829010008B4
:10009000E11D00082B0100082D010008ED1D0008DE
:1000A0002F01000831010008330100083501000864
:1000B000370100080505000829050008A905000802
:1000C000AB050008AD050008AF050008B105000844
:1000D000B305000835090008BD090008510A0008E9
:1000E000B5050008B7050008391E0008FEE770478F
:1000F000FEE7FEE7FEE7FEE770477047704780B512
:1001000000F018FD00F02AFD00F01EFD01BD704753
:100110007047704770477047704770477047704727
:100120007047704770477047704770477047704717
:1001300070477047704780B501215FF0804000F044
:100140001DFD002800F0DD8101215FF0804000F0FE
:1001500097FDDFF850080078401CDFF84818087059
:10016000DFF84008007864280BD3DFF83808002156
:100170000170DFF83008407890F0FF00DFF82418B5
:100180004870DFF824080078012815D1DFF8180836
:100190004068401CDFF810184860DFF80C08406821
:1001A0004FF47A71884207D3DFF8FC0700214160E1
:1001B000DFF8F40700210170DFF8F007407800282D
:1001C00002D0012811D05FE00121DFF8E40700F040
:1001D000A0FEDFF8E01708710221DFF8D40700F075
:1001E00098FEDFF8D01748714EE00121DFF8C00714
:1001F00000F08FFEDFF8BC170871DFF8BC0740780D
:10020000DFF8B0170979884235D0DFF8A807007900
:10021000002828D1DFF8A0074078012823D1DFF893
:100220009807C07801280BD3DFF88C07C0780F2817
:1002300006D2DFF88407C078401EDFF87C17C8704C
:10024000DFF87407C07800280DD0DFF86C0700795C
:10025000002808D1DFF860074079002803D0DFF8D4
:100260005807012101710121DFF8440700F051FE18
:10027000DFF8441748700221DFF8340700F049FE28
:10028000DFF830174871FFE7DFF82C070079012805
:1002900026D1DFF824078079401CDFF81C1788710D
:1002A000DFF81407807965281AD3DFF80C070021DE
:1002B0008171DFF80407C079401CDFF8FC16C871B3
:1002C000DFF8F406C079DFF8F0164979884207D3E1
:1002D000DFF8E40600210171DFF8DC060021C171BE
:1002E000DFF8D006407B00282AD0DFF8C806807BE4
:1002F000401CDFF8C0168873DFF8B806807B6428DE
:100300001ED3DFF8B006C07B401CDFF8A816C87308
:10031000DFF8A00600218173DFF89806C07BDFF8C4
:100320009416097B88420BD3DFF8880601210174FB
:10033000DFF880060021C173DFF8780600214173E1
:10034000DFF87006807A002810D1DFF86806407B5D
:1003500000280BD0DFF85C0600214173DFF854065B
:1003600000218173DFF84C060021C173DFF8DC0641
:100370000078012817D1DFF8D4064068401CDFF868
:10038000CC164860DFF8C4064068C8280BD3DFF8F5
:10039000BC0601210172DFF8B40600214160DFF8DC
:1003A000AC0600210170DFF8A406407A012816D1BE
:1003B000DFF89806C068401CDFF89016C860DFF8C8
:1003C0008C060069DFF88416C968884207D2DFF816
:1003D0007C0601210175DFF874060021C160DFF899
:1003E000BC068078012813D1DFF8B006C078401C25
:1003F000DFF8A816C870DFF8A406C078322807D343
:10040000DFF898060021C170DFF8900600218170A6
:10041000DFF8A005807C002823D1DFF89805C07C98
:1004200000280ED1DFF88C05007D002809D1DFF807
:100430008405407D002804D1DFF87805807D002800
:100440000FD0DFF870050021C174DFF868050021C6
:100450000175DFF8600500214175DFF858050021BE
:100460008175DFF85005807C01284AD1DFF844050A
:10047000C07C401CDFF83C15C874DFF83805C07C30
:1004800064283ED3DFF82C050021C174DFF8240571
:10049000007D401CDFF81C150875DFF81805007D8D
:1004A0003C282ED3DFF80C0500210175DFF8040588
:1004B000407D401CDFF8FC144875DFF8F804407DEF
:1004C0003C281ED3DFF8EC0400214175DFF8E4047A
:1004D000807D401CDFF8DC148875DFF8D804807D4F
:1004E000DFF8D014497C88420BD3DFF8C804002120
:1004F0008175DFF8C00400218174DFF8B8040121A0
:10050000C17501BD80B50121DFF8940500F036FB0F
:10051000002808D00121DFF88C0500F0B1FB00F0C5
:10052000EAFD00F0E1FD01BD80B50121DFF87405B1
:1005300000F024FB002808D00121DFF8680500F056
:100540009FFB00F0C3FD00F0C8FD01BD80B5012098
:1005500000F04DFE00280FD0012000F098FE4FF46F
:100560000071DFF8500500F0D4FC012802D100F042
:10057000B4FD01E000F0AAFD01BD80B5022000F04D
:1005800036FE00280FD0022000F081FE4FF480716B
:10059000DFF8200500F0BDFC012802D100F0ABFD22
:1005A00001E000F0A1FD01BD704770477047704742
:1005B0007047704770477047C0B2C9B288420FD1C8
:1005C000DFF8E82482F88400DFF8E024127F521C70
:1005D000DFF8D8341A77DFF8D424012353770CE0FE
:1005E000DFF8C82400231377DFF8C024002382F843
:1005F0008330DFF8B8240023D3747047DFF8AC04ED
:1006000090F88300CA280ED1DFF8A00490F8870084
:10061000D12808D1DFF890044078002803D1DFF812
:10062000880402210170704738B504000D00E4B25F
:10063000002C2BD1DFF8740400210177DFF86C0463
:10064000007FDFF86814401880F88350DFF85C04FE
:10065000007F401CDFF854140877DFF85C04006862
:10066000DFF8541440180571DFF84C040068401C92
:10067000DFF844140860DFF8400400684FF4967116
:10068000884203D3DFF8300400210160E4B2012C7A
:1006900038D1DFF824040068DFF81C144018057115
:1006A000DFF814040068401CDFF80C140860DFF861
:1006B000080400684FF49671884203D3DFF8F8030A
:1006C00000210160DFF8E403007F01281AD1DFF880
:1006D000DC03C07C0A2809D00B280DD0AC2811D12E
:1006E000AC212800C0B2FFF767FF0BE00A21280009
:1006F000C0B2FFF761FF05E00B212800C0B2FFF791
:100700005BFFFFE7E4B2022C53D1DFF8AC030068D3
:10071000DFF8A41340180571DFF89C030068401C43
:10072000DFF894130860DFF8900300684FF49671C7
:10073000884203D3DFF8800300210160DFF86C03F7
:10074000C07CFF281BD1DFF86403007F022830D172
:10075000DFF8580302214177DFF85003407F401D46
:10076000DFF848138877DFF8440380F88550DFF816
:100770003C03007F401CDFF83413087719E0DFF8F2
:100780002C03007F022814D1DFF820034577DFF81F
:100790001C03407F401DDFF814138877DFF80C033B
:1007A00080F88550DFF80403007F401CDFF8FC125E
:1007B0000877E4B2032C72D1DFF8FC020068DFF89E
:1007C000F81240180571DFF8F0020068401CDFF8ED
:1007D000E8120860DFF8E00200684FF49671884282
:1007E00003D3DFF8D40200210160DFF8C002007FEC
:1007F000DFF8B812401880F88350DFF8B002007FAD
:10080000401CDFF8A8120877DFF8A002007FDFF8AD
:100810009C12897F884242D1DFF89002C07CFF2879
:1008200002D100F04BF92EE0DFF88002007FDFF804
:100830007C12401890F8820010F00F000F2817D19A
:10084000DFF86402407801280BD1DFF86002012153
:10085000C173DFF85802007C401CDFF850120874A6
:1008600001E0FFF7CBFEDFF84402002101770AE048
:10087000DFF83802FF21C173DFF83002807E401CB0
:10088000DFF828128876DFF8240200210177DFF8EC
:100890001C0200214177DFF814020021C17431BD30
:1008A00038B504000025DFF80402C07C002823D1FD
:1008B000E4B22000A0280CD0B02813D0CA281AD146
:1008C000CA210020FFF7B0FEDFF8E001AC21C174BF
:1008D0002FE0A0210020FFF7A7FEDFF8D0010A21BA
:1008E000C17426E0B0210020FFF79EFEDFF8BC01B6
:1008F0000B21C1741DE01CE0DFF8B001407F00282F
:1009000002D1012005000EE0DFF8A001007F0328DE
:1009100002D30320050006E0DFF89001007E0028E6
:1009200001D1022005002100C9B22800C0B2FFF7A2
:100930007BFE31BD10B5002440F226615C4800F01A
:100940000FFD00281ED05948007858494978884240
:100950000DD256480078411C544A1170C0B2534918
:100960004018C17F89B2524800F0AEFC05E04F4804
:10097000002141704D480021017040F226614C4831
:1009800000F084FD40F22551494800F0E9FC0028C0
:1009900007D0474800F0BDFC04002000C0B2FFF7BC
:1009A0007FFF10BDD01A0020681A0020D41A002042
:1009B00000100140901A0020C01A002038B5002411
:1009C000002540F22661DFF8600100F0C9FC002834
:1009D0002CD0DFF850014078DFF848118978884240
:1009E00016D2DFF840014078DFF838114018007D5A
:1009F0000500DFF830014078401CDFF8281148700E
:100A0000EDB2290089B2DFF8200100F05DFC07E0BB
:100A1000DFF8100100214170DFF80801002181702A
:100A200040F22661DFF8000100F030FD40F2255170
:100A3000DFF8F40000F094FC002804D0DFF8E800B0
:100A400000F067FC040031BD00000000381A0020EF
:100A500038B50024002540F22661DFF8D00000F010
:100A60007FFC00280CD0EDB2290089B2DFF8BC0071
:100A700000F02AFC40F22661DFF8B00000F006FD2D
:100A800040F22551DFF8A40000F06AFC002804D0F1
:100A9000DFF8980000F03DFC040031BD681900202B
:100AA000000400400008004014000020A4170020AB
:100AB00000380140000C0140741600200021002085
:100AC00001221100C9B2062908D2C9B2DFF860209C
:100AD0008A1892F875201018491CF3E7DFF85020A7
:100AE00092F87B20C0B282420FD1DFF8442001236C
:100AF0001372DFF83C20527A521CDFF834305A72FD
:100B0000DFF82C20002353730AE0DFF82420FF23B2
:100B10001372DFF81C20D27A521CDFF81430DA721C
:100B2000704700008C18002000440040004800403E
:100B3000A41300200F480068002804D00D48006866
:100B4000401E0C490860704709480068002804D01E
:100B500007480068401E064908607047064800685C
:100B6000002804D004480068401E0349086070470C
:100B7000D81A0020E01A0020DC1A00202DE9F041EC
:100B800004000D00002600275FF00008DFF88C014C
:100B9000844241D0B4F1804F3ED0DFF888018442D6
:100BA0003AD0DFF88401844236D0DFF880018442F5
:100BB00032D0DFF87C0184422ED0DFF87801844205
:100BC0002AD0DFF85C01844226D0DFF8700184422D
:100BD00022D0DFF86C0184421ED0DFF86801844225
:100BE0001AD0DFF86401844216D0DFF86001844235
:100BF00012D0DFF85C0184420ED0DFF85801844245
:100C00000AD05548844207D04B48844204D040F66D
:100C10004B214148FFF76AFAADB2012D19D0ADB2B0
:100C2000022D16D0ADB2042D13D0ADB2082D10D0C8
:100C3000ADB2102D0DD0ADB2202D0AD0ADB2402DE9
:100C400007D0ADB2802D04D040F64C213248FFF7DA
:100C50004DFA208A28400700A08928408046BFB26C
:100C6000002F07D01FFA88F8B8F1000F02D001203A
:100C7000060001E0002006003000C0B2BDE8F081AF
:100C800038B504000D002548844234D0B4F1804FBB
:100C900031D0244884422ED0234884422BD023488C
:100CA000844228D02248844225D02248844222D03F
:100CB0001B4884421FD0214884421CD020488442D3
:100CC00019D02048844216D01F48844213D01F48B0
:100CD000844210D01E4884420DD01E4884420AD05F
:100CE0001D48844207D01448844204D040F6752140
:100CF0000948FFF7FBF94FF47F40054202D1ADB23E
:100D0000002D04D140F676210348FFF7EFF9ADB28C
:100D1000E843208231BD0000B01B0008002C0140D8
:100D2000003401400004004000080040000C004076
:100D3000001000400014004000480140004C0140F9
:100D4000005001400054014000180040001C0040C9
:100D50000020004000400140004401402DE9F84FD0
:100D600004000D00002600275FF000085FF0000976
:100D70005FF0000A5FF0000BDFF8300384421CD004
:100D8000DFF82C03844218D0DFF82803844214D003
:100D9000DFF82403844210D0DFF8200384420CD013
:100DA000DFF81C03844208D0DFF81803844204D023
:100DB000B121DFF81403FFF799F9E878002819D07A
:100DC000E878042816D0E878282813D0E87848284E
:100DD00010D0E87814280DD0E87810280AD0E878E8
:100DE0001C2807D0E878182804D0B221DFF8D802F0
:100DF000FFF77CF92888002804D1B321DFF8C80266
:100E0000FFF774F9E87810F00F000600E878C006E4
:100E10000FD5A87801280AD0A878022807D0A8788A
:100E2000032804D0BA21DFF8A002FFF75FF9A87801
:100E300006432878000631D020688246002080468C
:100E4000B8F1080F28D2012010FA08F0814628884E
:100E500019EA000007004F451BD15FEA8800814670
:100E60000F2010FA09F083463AEA0B0A16FA09F045
:100E700050EA0A0AE878282804D1012010FA08F07C
:100E8000606106E0E878482803D1012010FA08F0F4
:100E9000206118F10108D3E7C4F800A028884FF4B6
:100EA0008071884233D36068824600208046B8F162
:100EB000080F2AD2012018F10801884081462888AD
:100EC00019EA000007004F451CD15FEA88008146FF
:100ED0000F2010FA09F083463AEA0B0A16FA09F0D5
:100EE00050EA0A0AE878282804D1012018F10801FC
:100EF00088406061E878482804D1012018F1080191
:100F00008840206118F10108D1E7C4F804A0BDE8C9
:100F1000F18F70B504000D000026DFF890018442C7
:100F20001DD0DFF88C01844219D0DFF8880184429B
:100F300015D0DFF88401844211D0DFF880018442AB
:100F40000DD0DFF87C01844209D0DFF878018442BB
:100F500005D040F21D11DFF87001FFF7C7F8ADB200
:100F6000012D3CD0ADB2022D39D0ADB2042D36D01A
:100F7000ADB2082D33D0ADB2102D30D0ADB2202D92
:100F80002DD0ADB2402D2AD0ADB2802D27D04FF458
:100F90008070ADB2854222D04FF40070ADB2854270
:100FA0001DD0ADB2B5F5806F19D0ADB2B5F5006FFB
:100FB00015D0ADB2B5F5805F11D0ADB2B5F5005F1B
:100FC0000DD0ADB2B5F5804F09D0ADB2B5F5004F3B
:100FD00005D04FF48F71DFF8F000FFF787F8A068B5
:100FE00080B2284202D00120060001E00020060065
:100FF0003000C0B270BD38B504000D00DFF8AC00A1
:1010000084421CD0DFF8A800844218D0DFF8A40086
:10101000844214D0DFF8A000844210D0DFF89C0096
:1010200084420CD02648844209D0DFF898008442DC
:1010300005D04FF4B471DFF89000FFF757F8ADB268
:10104000002D05D140F26911DFF87C00FFF74EF862
:10105000ADB2256131BD38B504000D00134884429E
:1010600018D01348844215D01248844212D0124836
:1010700084420FD0114884420CD01148844209D0D8
:10108000DFF84000844205D04FF4BC71DFF838002F
:10109000FFF72CF8ADB2002D05D140F27911DFF841
:1010A0002800FFF723F8ADB2656131BD00080140AB
:1010B000000C0140001001400014014000180140E4
:1010C000001C014000200140881A000880B54FF440
:1010D00000710C48FFF78FFF01BD80B54FF4007120
:1010E0000848FFF7B8FF01BD80B54FF4807105488F
:1010F000FFF781FF01BD80B54FF480710148FFF714
:10110000AAFF01BD000C014038B50400002520797C
:10111000002806D02079042803D069216948FEF709
:10112000E5FF6079082809D060790C2806D060793D
:10113000102803D06A216348FEF7D8FF2068000D0D
:101140000005002802D12068002803D16B215D48EA
:10115000FEF7CCFFA079002806D0A079012803D0A3
:101160006C215848FEF7C2FF51480500A0790028BD
:1011700036D04F480068216888434D4908604D4883
:101180000068216888434B49086020794519286820
:101190002168084328604848006821688843464918
:1011A00008604648006821688843444908606079BF
:1011B00010280CD140480068216808433E49086067
:1011C0003E480068216808433C4908600EE0384802
:1011D000050060794519286821680843286005E002
:1011E00020794519286821688843286031BD70B589
:1011F000040000250026012C37D0022C35D0042C09
:1012000033D0082C31D0102C2FD0202C2DD0402CB6
:101210002BD0802C29D04FF48070844225D04FF4FD
:101220000070844221D0B4F5806F1ED0B4F5006FF9
:101230001BD0B4F5805F18D0B4F5005F15D0B4F5BD
:10124000804F12D0B4F5004F0FD0B4F5803F0CD0D2
:10125000B4F5003F09D0B4F5802F06D0B4F5002FC7
:1012600003D0E4211748FEF741FF114800682040F1
:10127000060013480068204204D0002E02D001204E
:10128000050001E0002005002800C0B270BD10B5C7
:101290000400200D0005002801D1002C03D1FB2102
:1012A0000848FEF723FF0648046010BD0000000058
:1012B0000004014004040140080401400C04014002
:1012C00014040140241A000838B504000D001E481B
:1012D000844210D01D4884420DD01D4884420AD05B
:1012E0001C48844207D01D48844204D04FF4147136
:1012F0001948FEF7FBFE4FF40070ADB2854204D3EF
:1013000040F251211448FEF7F1FEE805C00DA0801F
:1013100031BD10B504000C48844210D00B48844203
:101320000DD00B4884420AD00A48844207D00B48AB
:10133000844204D040F261210748FEF7D7FEA0881E
:10134000C005C00D10BD0000003801400044004041
:1013500000480040004C0040EC1A000800500040DB
:101360002DE9F84304000D00002600275FF0000877
:101370005FF000096D48844210D06D4884420DD062
:101380006C4884420AD06C48844207D06C4884423E
:1013900004D040F2BE316948FEF7A8FEADB2282D58
:1013A00031D040F22770ADB285422CD040F2266099
:1013B000ADB2854227D040F22550ADB2854222D051
:1013C00040F22440ADB285421DD040F64600ADB299
:1013D000854218D040F66A10ADB2854213D04FF462
:1013E0005870ADB285420ED04FF41870ADB2854240
:1013F00009D04FF4B070ADB2854204D040F2BF3195
:101400004E48FEF773FE40F66A10ADB285420DD12C
:10141000464884420AD04648844207D04548844220
:1014200004D040F2C3314548FEF760FE2800C0B248
:101430004009C0B28046ADB215F01F000700012080
:1014400010FA07F7B8F1010F02D1A089074007E0B1
:10145000B8F1020F02D1208A074001E0A08A0740BC
:10146000ADB2280A80B20600012010FA06F62088E4
:101470000640002F04D0002E02D00120814601E05A
:10148000002081464846C0B2BDE8F283F8B50400AA
:101490000D00002600272548844210D024488442AD
:1014A0000DD0244884420AD02348844207D02448DF
:1014B000844204D040F207412048FEF717FE40F274
:1014C0002660ADB2854213D040F22550ADB28542C0
:1014D0000ED040F64600ADB2854209D040F66A1003
:1014E000ADB2854204D04FF481611448FEF7FEFD91
:1014F00040F66A10ADB285420DD10C4884420AD044
:101500000B48844207D00B48844204D040F20C417F
:101510000A48FEF7EBFDADB2280A06000120B040F4
:101520000700BFB2F8432080F1BD00000038014041
:101530000044004000480040004C0040EC1A000805
:101540000050004030B40021002200230024DFF8C6
:1015500090512D6815F00C0529000D00002D04D0C8
:10156000042D06D0082D08D02EE0DFF87C51056050
:101570002DE0DFF87851056029E0DFF864512D682F
:1015800015F470152A00DFF858512D6815F48035D0
:101590002B00920C921C002B05D1DFF8545105FB57
:1015A00002F505600FE0DFF838512D68AD0305D571
:1015B000DFF8345105FB02F5056004E0DFF82C513B
:1015C00005FB02F5056002E0DFF81C510560DFF85D
:1015D00010512D6815F0F00529000909DFF81451A4
:1015E0004D5D2C000568E5404560DFF8F4502D683E
:1015F00015F4E0652900090ADFF8F8504D5D2C006C
:101600004568E5408560DFF8D8502D6815F46055D1
:101610002900C90ADFF8DC504D5D2C004568E54023
:10162000C560DFF8BC502D6815F440452900890BD2
:10163000DFF8C4504D5D2C00C568B5FBF4F50561BD
:1016400030BC704738B504000D002C48044201D16D
:10165000002C04D140F24E412248FEF747FDEDB286
:10166000002D07D0EDB2012D04D040F24F411D48AE
:10167000FEF73CFDEDB2002D05D021480068204367
:101680001F49086004E01E480068A0431C49086028
:1016900031BD38B504000D001A48044201D1002CB8
:1016A00004D140F26D410F48FEF720FDEDB2002D50
:1016B00007D0EDB2012D04D040F26E410948FEF78B
:1016C00015FDEDB2002D05D00F48006820430E49EE
:1016D000086004E00C480068A0430B49086031BD75
:1016E00004100240501B000800127A000024F4008D
:1016F00000093D0000000020100000200200C0FF93
:1017000018100240003601811C10024080B54C4880
:10171000006850F001004A4908604A4800684A4998
:10172000084048490860464800684849084044491C
:1017300008604348006830F480204149086041480F
:10174000006830F4FE003F49086041485FF41F0123
:10175000016000F001F801BD80B500F001F801BDA5
:1017600082B000200190002000903548006850F4BD
:101770008030334908603248006810F4003000902F
:101780000198401C01900098002803D10198B0F501
:10179000A06FF0D12A480068800302D50120009094
:1017A00001E0002000900098012847D129480068F6
:1017B00050F0100027490860264800688008800023
:1017C000244908602348006850F00200214908605D
:1017D0001C481C49096801601A481A4909680160D7
:1017E0001848006850F48060164908601548006881
:1017F00030F47C10134908601248006850F48810D7
:10180000104908600E48006850F080700C4908606C
:101810000B4800688001FBD50A48006880088000FA
:10182000084908600748006850F002000549086050
:101830000448006810F00C000828F9D102B0704785
:1018400000100240041002400000FFF8FFFFF6FE07
:10185000081002400020024080B500F00AF840481D
:10186000FFF770FE00F031F800F00FF800F057F8C5
:1018700001BD80B5FFF74AFF01213D20FFF7E2FEE1
:1018800001210420FFF705FF01BD80B53548062181
:101890000170344800214170324800218170314884
:1018A0000121C1702F4800F067F82E480721017010
:1018B0002C48002141702B480021817029480121CA
:1018C000C170284800F058F801BD80B526480121B4
:1018D000018025482821C1702348022181702249B6
:1018E0002248FFF73BFA2048022101801E482821A8
:1018F000C1701D48022181701B491C48FFF72EFA58
:1019000019484FF44871018017481021C1701648DA
:101910000221817014491648FFF720FA01BD80B5F5
:1019200014480121016013480021017111480C2164
:1019300041711048012181710E48FFF7E5FB0D4808
:10194000022101600B48002101710A480C214171FC
:101950000848012181710748FFF7D6FB01BD00004F
:10196000AC1A0020E41A0020E81A00200008014008
:10197000000C0140C81A0020F8B50400002500261C
:101980000F27E078002806D0E078012803D07421E2
:101990001F48FEF7ABFB6078102803D375211C4865
:1019A000FEF7A4FBA078102803D376211848FEF791
:1019B0009DFBE078002820D01648006810F4E06015
:1019C000D0F5E060000A0500D5F104000600EF4004
:1019D0006078B0400500A078384005432D0120789C
:1019E0000D494554207840110C490122237813F009
:1019F0001F039A4041F8202009E02078401108494F
:101A00000122237813F01F039A4041F82020F1BDF2
:101A1000101C00080CED00E000E400E000E100E034
:101A200080E100E0433A5C55736572735C54545432
:101A30005C4465736B746F705C7A7A2E53544446C1
:101A4000575C30302E53747564795C4C69627261F6
:101A5000726965735C53544D3332463130785F534D
:101A600074645065726970685F4472697665725C0F
:101A70007372635C73746D3332663130785F65788E
:101A800074692E6300000000433A5C5573657273FD
:101A90005C5454545C4465736B746F705C7A7A2E3A
:101AA00053544446575C30302E53747564795C4C03
:101AB00069627261726965735C53544D33324631A9
:101AC00030785F5374645065726970685F447269FE
:101AD0007665725C7372635C73746D333266313039
:101AE000785F6770696F2E6300000000433A5C55B1
:101AF000736572735C5454545C4465736B746F709B
:101B00005C7A7A2E53544446575C30302E537475A9
:101B100064795C4C69627261726965735C53544D9F
:101B20003332463130785F5374645065726970683F
:101B30005F4472697665725C7372635C73746D3353
:101B400032663130785F75736172742E6300000005
:101B5000433A5C55736572735C5454545C446573CA
:101B60006B746F705C7A7A2E53544446575C3030F5
:101B70002E53747564795C4C696272617269657325
:101B80005C53544D3332463130785F537464506542
:101B9000726970685F4472697665725C7372635CC7
:101BA00073746D3332663130785F7263632E630015
:101BB000433A5C55736572735C5454545C4465736A
:101BC0006B746F705C7A7A2E53544446575C303095
:101BD0002E53747564795C4C6962726172696573C5
:101BE0005C53544D3332463130785F5374645065E2
:101BF000726970685F4472697665725C7372635C67
:101C000073746D3332663130785F74696D2E6300A2
:101C1000433A5C55736572735C5454545C44657309
:101C20006B746F705C7A7A2E53544446575C303034
:101C30002E53747564795C4C696272617269657364
:101C40005C53544D3332463130785F537464506581
:101C5000726970685F4472697665725C7372635C06
:101C60006D6973632E63000010B450F8041B81B1DA
:101C700002681218001D50F8043BDC0744BFA9F1AC
:101C80000104E31852F8044B43F8044B091FF9D13F
:101C9000EBE710BC704750F8041B61B150F8042BFF
:101CA000D30744BFA9F101039A18002342F8043B6B
:101CB000091FFAD1EFE7704710B5084979441C3184
:101CC000074C7C441A34A14206D0081D0A685118FA
:101CD00088470146A142F8D110BD00BF08000000AE
:101CE00028000000B3FFFFFFD81A000014000020F6
:101CF0000000000075FFFFFF14000000400100001D
:101D0000000000200000000000F009F8002801D0C9
:101D1000FFF7D2FF002000F004F800F006F80120E1
:101D2000704780B5FFF798FDFEE700F001B80000AE
:101D30000746384600F002F8FBE7000080B5C046D1
:101D4000C046024A11001820ABBEFBE72600020085
:101D500001488047014800470D170008611D000831
:101D6000C046C046C046C046FFF7CEFFFEF7BFB92B
:101D7000FEF7BEB9FEF7BDB9FEF7BCB9FEF7BBB9B9
:101D8000FEF7BAB9FEF7B9B9FEF7B8B9FEF7B7B9B9
:101D9000FEF7BDB9FEF7BCB9FEF7BBB9FEF7BAB99D
:101DA000FEF7B9B9FEF7B8B9FEF7D0BBFEF7E5BB51
:101DB000FFF7FEBFFFF7FEBFFFF7FEBFFFF7FEBF57
:101DC000FEF7ABB9FEF7AAB9FEF7A9B9FEF7A8B9B5
:101DD000FEF7A7B9FEF7A6B9FEF7A5B9FEF7A4B9B5
:101DE000FFF7FEBFFEF7A1B9FEF7A0B9FFF7FEBFF0
:101DF000FEF79DB9FEF79CB9FEF79BB9FEF79AB9BD
:101E0000FEF799B9FEF77EBBFEF78EBBFEF7CCBBA3
:101E1000FEF7CBBBFEF7CABBFEF7C9BBFEF7C8BBDC
:101E2000FEF7C7BBFEF786BDFEF7C8BDFEF710BEC6
:101E3000FEF7C0BBFEF7BFBBFFF7FEBF0000000010
:101E4000010203040102030406070809020406084C
:0400000508001D6171
:00000001FF
