:020000040800F2
:10000000081F0020B9240008DF0B0008E10B0008DE
:10001000E30B0008E50B0008E70B000800000000F8
:10002000000000000000000000000000E90B0008D4
:10003000EB0B000800000000ED0B0008EF0B0008C0
:10004000FF0B0008010C0008030C0008050C000859
:10005000070C0008090C00081125000815250008E8
:10006000192500081D250008212500082525000860
:100070000B0C00080D0C00080F0C0008110C0008F8
:10008000130C0008150C0008170C0008190C0008C8
:10009000492500081B0C00081D0C00085525000808
:1000A0001F0C0008210C0008230C0008250C000878
:1000B000270C0008F50F0008191000083D10000873
:1000C0003F100008411000084310000845100008C8
:1000D00047100008C913000851140008DD14000877
:1000E000491000084B100008A125000870B5040055
:1000F0000D000026DFF8AC07844243D0B4F1804FF6
:1001000040D0DFF8A40784423CD0DFF8A007844247
:1001100038D0DFF89C07844234D0DFF89807844257
:1001200030D0DFF8940784422CD0DFF89007844267
:1001300028D0DFF88C07844224D0DFF88807844277
:1001400020D0DFF8840784421CD0DFF88007844287
:1001500018D0DFF87C07844214D0DFF87807844297
:1001600010D0DFF8740784420CD0DFF870078442A7
:1001700008D0DFF87407844204D0E521DFF8600777
:1001800000F02CFD6888002810D0688810280DD059
:10019000688820280AD06888402807D068886028A6
:1001A00004D0E621DFF8380700F018FDE8880028C1
:1001B0000ED0E8884FF48071884209D0E8884FF467
:1001C0000071884204D0E721DFF8140700F006FD33
:1001D00020880600DFF8CC06844212D0DFF8DC0667
:1001E00084420ED0B4F1804F0BD0DFF8BC068442BD
:1001F00007D0DFF8B806844203D0DFF8B4068442A3
:1002000004D14FF68F70064068880643DFF8A406D5
:10021000844208D0DFF8A006844204D04FF6FF40A5
:100220000640E88806432680A888A085288820857F
:10023000DFF8700684420FD0DFF8800684420BD0CE
:10024000DFF89406844207D0DFF89006844203D09A
:10025000DFF89406844201D1287A20860120A0820A
:1002600070BD2DE9F04104000D00002600275FF06D
:100270000008DFF8300684423CD0B4F1804F39D01A
:10028000DFF82406844235D0DFF82006844231D0DE
:10029000DFF81C0684422DD0DFF82006844229D0E6
:1002A000DFF81C06844225D0DFF81806844221D0EE
:1002B000DFF8140684421DD0DFF81006844219D0FE
:1002C000DFF80C06844215D0DFF80806844211D00E
:1002D000DFF8040684420DD0DFF80006844209D01E
:1002E000DFF80006844205D04FF48D71DFF8F00589
:1002F00000F074FC2888002814D02888102811D019
:10030000288820280ED0288830280BD028886028FC
:1003100008D02888702805D040F21B11DFF8C005EE
:1003200000F05CFC6888002808D06888012805D0A7
:100330004FF48E71DFF8A80500F050FC28890028E2
:1003400008D02889022805D040F21D11DFF8900559
:1003500000F044FC208C4FF6FE7108402084208C75
:100360000700A0888046208B06004FF68F7006405D
:100370004FF6FC700640288806434FF6FD70074094
:100380002889074368880743DFF8180584420FD09F
:10039000DFF8280584420BD0DFF83C05844207D003
:1003A000DFF83805844203D0DFF8380584424BD1AA
:1003B000A888002808D0A888042805D04FF49D718B
:1003C000DFF81C0500F00AFC6889002808D068895D
:1003D000082805D040F23B11DFF8040500F0FEFBD1
:1003E000E8894FF40071884208D0E889002805D0D8
:1003F0004FF49E71DFF8E80400F0F0FBA8894FF499
:100400008071884208D0A889002805D040F23D11AB
:10041000DFF8CC0400F0E2FB4FF6F7700740688984
:1004200007434FF6FB700740A88807434FF6FF606D
:1004300010EA08084FF6FF5010EA0808A88950EAA9
:100440000808E88950EA0808A4F804802683E888A8
:10045000A0862784BDE8F0812DE9F04104000D005D
:10046000002600275FF00008DFF83804844224D01B
:10047000B4F1804F21D0DFF8300484421DD0DFF882
:100480002C04844219D0DFF82804844215D0DFF808
:100490002C04844211D0DFF8280484420DD0DFF808
:1004A0002C04844209D0DFF83004844205D040F2A5
:1004B0006D11DFF82C0400F091FB2888002814D07F
:1004C0002888102811D0288820280ED02888302885
:1004D0000BD02888602808D02888702805D04FF4D1
:1004E000B771DFF8FC0300F079FB6888002808D0BA
:1004F0006888012805D040F26F11DFF8E40300F0AE
:100500006DFB2889002808D02889022805D04FF4DF
:10051000B871DFF8CC0300F061FB208C4FF6EF716F
:1005200008402084208C0700A0888046208B06008D
:1005300048F6FF7006404FF6FF400640288856EA0E
:1005400000264FF6DF700740288957EA00176888B1
:1005500057EA0017DFF84C03844203D0DFF85C034E
:1005600084424BD1A888002808D0A888042805D048
:1005700040F28D11DFF8680300F030FB6889002835
:1005800008D06889082805D04FF4C771DFF85003F8
:1005900000F024FBE8894FF40071884207D0E88915
:1005A000002804D040F28F11CD4800F017FBA88935
:1005B0004FF48071884207D0A889002804D04FF4F6
:1005C000C871C74800F00AFB4FF67F700740688982
:1005D00057EA00174FF6BF700740A88857EA001780
:1005E0004FF6FF3010EA08084FF2FF7010EA0808D3
:1005F000A88958EA8008E88958EA8008A4F80480A5
:100600002683E88820872784BDE8F0812DE9F04122
:1006100004000D00002600275FF00008A148844276
:1006200013D0B4F1804F10D09F4884420DD09F4822
:1006300084420AD09E48844207D0A048844204D015
:1006400040F2BF11A64800F0C9FA2888002813D04C
:100650002888102810D0288820280DD028883028F5
:100660000AD02888602807D02888702804D04FF442
:10067000E0719B4800F0B2FA6888002807D06888CB
:10068000012804D040F2C111954800F0A7FA28894A
:10069000002807D02889022804D04FF4E17190483F
:1006A00000F09CFA208C4FF6FF6108402084208CDB
:1006B0000700A0888046A08B06004FF68F7006408A
:1006C0004FF6FC700640288806434FF6FF5007405F
:1006D000288957EA0027688857EA0027714884422A
:1006E00002D07648844249D1A888002807D0A8883B
:1006F000042804D04FF4EF71794800F06FFA68894C
:10070000002807D06889082804D040F2DF11744817
:1007100000F064FAE8894FF40071884207D0E88954
:10072000002804D04FF4F0716D4800F057FAA88902
:100730004FF48071884207D0A889002804D040F285
:10074000E111674800F04AFA4FF2FF7007406889EC
:1007500057EA00274FF6FF300740A88857EA0027DE
:100760004EF6FF7010EA08084DF6FF7010EA080810
:10077000A88958EA0018E88958EA0018A4F8048003
:10078000A683E888A0872784BDE8F0812DE9F041A1
:1007900004000D00002600275FF000084148844255
:1007A00013D0B4F1804F10D03F4884420DD03F4861
:1007B00084420AD03E48844207D04048844204D054
:1007C00040F20E21464800F009FA2888002813D08C
:1007D0002888102810D0288820280DD02888302874
:1007E0000AD02888602807D02888702804D040F2D2
:1007F0000F213B4800F0F2F96888002807D068888C
:10080000012804D04FF40471354800F0E7F9288935
:10081000002807D02889022804D040F2112130484E
:1008200000F0DCF9208C4EF6FF7108402084208C0B
:100830000700A0888046A08B060048F6FF7006409F
:100840004FF6FF400640288856EA00264DF6FF7016
:100850000740288957EA0037688857EA0037114867
:10086000844202D01548844213D1A8894FF4807184
:10087000884207D0A889002804D040F22E211848C9
:1008800000F0ACF94BF6FF7010EA0808A88958EAA6
:100890008018A4F80480A683E888A4F84000278480
:1008A000BDE8F081002C0140000400400008004039
:1008B000000C0040001000400014004000340140D3
:1008C000004C01400050014000540140001800401D
:1008D000001C004000200040004001400044014056
:1008E00018230008004801400048014038B50400C2
:1008F0000D00DFF8C400844244D0B4F1804F41D0F1
:10090000DFF8BC0084423DD0DFF8B800844239D023
:10091000DFF8B400844235D0DFF8D400844231D00F
:10092000DFF8D00084422DD0DFF89000844229D037
:10093000DFF89800844225D0DFF89400844221D06B
:10094000DFF8900084421DD0DFF88C00844219D07B
:10095000DFF88800844215D0DFF88400844211D08B
:10096000DFF8800084420DD0DFF87C00844209D09B
:10097000DFF88400844205D040F22731DFF86C00B4
:1009800000F02CF9EDB2002D08D0EDB2012D05D00C
:100990004FF44A71DFF8540000F020F9EDB2002D59
:1009A00004D0208850F00100208004E020884FF619
:1009B000FE710840208031BD002C01400034014010
:1009C0000004004000080040000C0040004C0140C2
:1009D000005001400054014000180040001C00403D
:1009E000002000400040014000440140182300085E
:1009F0000010004000140040004801402DE9F04183
:100A000004000D00002600275FF00008DFF88C01CD
:100A1000844241D0B4F1804F3ED0DFF88801844257
:100A20003AD0DFF88401844236D0DFF88001844276
:100A300032D0DFF87C0184422ED0DFF87801844286
:100A40002AD0DFF85C01844226D0DFF870018442AE
:100A500022D0DFF86C0184421ED0DFF868018442A6
:100A60001AD0DFF86401844216D0DFF860018442B6
:100A700012D0DFF85C0184420ED0DFF858018442C6
:100A80000AD05548844207D04B48844204D040F6EF
:100A90004B21414800F0A2F8ADB2012D19D0ADB202
:100AA000022D16D0ADB2042D13D0ADB2082D10D04A
:100AB000ADB2102D0DD0ADB2202D0AD0ADB2402D6B
:100AC00007D0ADB2802D04D040F64C21324800F062
:100AD00085F8208A28400700A08928408046BFB2B8
:100AE000002F07D01FFA88F8B8F1000F02D00120BC
:100AF000060001E0002006003000C0B2BDE8F08131
:100B000038B504000D002548844234D0B4F1804F3C
:100B100031D0244884422ED0234884422BD023480D
:100B2000844228D02248844225D02248844222D0C0
:100B30001B4884421FD0214884421CD02048844254
:100B400019D02048844216D01F48844213D01F4831
:100B5000844210D01E4884420DD01E4884420AD0E0
:100B60001D48844207D01448844204D040F67521C1
:100B7000094800F033F84FF47F40054202D1ADB28E
:100B8000002D04D140F67621034800F027F8ADB2DD
:100B9000E843208231BD000018230008002C0140EA
:100BA000003401400004004000080040000C0040F8
:100BB000001000400014004000480140004C01407B
:100BC000005001400054014000180040001C00404B
:100BD000002000400040014000440140FEE7704713
:100BE000FEE7FEE7FEE7FEE770477047704780B517
:100BF00000F0E6FC00F0F8FC00F0ECFC01BD7047F2
:100C0000704770477047704770477047704770472C
:100C1000704770477047704770477047704770471C
:100C200070477047704780B501215FF08040FFF743
:100C3000E5FE002800F0DD8101215FF08040FFF734
:100C40005FFFDFF8F4070078401CDFF8EC1708704E
:100C5000DFF8E407007864280BD3DFF8DC07002115
:100C60000170DFF8D407407890F0FF00DFF8C81774
:100C70004870DFF8C8070078012815D1DFF8BC07F5
:100C80004068401CDFF8B4174860DFF8B0074068E0
:100C90004FF47A71884207D3DFF8A0070021416042
:100CA000DFF8980700210170DFF8940740780028EA
:100CB00002D0012811D05FE00121DFF8880700F0A1
:100CC0007EFDDFF8881708710221DFF8780700F051
:100CD00076FDDFF8781748714EE00121DFF86407F0
:100CE00000F06DFDDFF864170871DFF85C074078ED
:100CF000DFF858170979884235D0DFF850070079B6
:100D0000002828D1DFF840074078012823D1DFF8F8
:100D10003807C07801280BD3DFF82C07C0780F28DC
:100D200006D2DFF82407C078401EDFF81C17C87011
:100D3000DFF81407C07800280DD0DFF80C07007921
:100D4000002808D1DFF800074079002803D0DFF839
:100D5000F806012101710121DFF8E80600F02FFDFE
:100D6000DFF8E41648700221DFF8D80600F027FD0E
:100D7000DFF8D8164871FFE7DFF8CC0600790128C4
:100D800026D1DFF8C4068079401CDFF8BC168871D4
:100D9000DFF8B406807965281AD3DFF8AC060021A5
:100DA0008171DFF8A406C079401CDFF89C16C87179
:100DB000DFF89406C079DFF890164979884207D3A6
:100DC000DFF8840600210171DFF87C060021C17183
:100DD000DFF87806407B00282AD0DFF87006807B99
:100DE000401CDFF868168873DFF86006807B642893
:100DF0001ED3DFF85806C07B401CDFF85016C873BE
:100E0000DFF8480600218173DFF84006C07BDFF879
:100E10003C16097B88420BD3DFF8300601210174B0
:100E2000DFF828060021C173DFF820060021417396
:100E3000DFF81806807A002810D1DFF81006407B12
:100E400000280BD0DFF8040600214173DFF8FC0511
:100E500000218173DFF8F4050021C173DFF8C806B3
:100E60000078012817D1DFF8C0064068401CDFF881
:100E7000B8164860DFF8B0064068C8280BD3DFF822
:100E8000A80601210172DFF8A00600214160DFF809
:100E9000980600210170DFF89006407A012816D1EB
:100EA000DFF88406C068401CDFF87C16C860DFF8F5
:100EB00078060069DFF87016C968884207D2DFF843
:100EC000680601210175DFF860060021C160DFF8C6
:100ED0005C068078012813D1DFF85006C078401CEA
:100EE000DFF84816C870DFF84406C078322807D308
:100EF000DFF838060021C170DFF83006002181706C
:100F0000DFF84805807C002823D1DFF84005C07C4D
:100F100000280ED1DFF83405007D002809D1DFF864
:100F20002C05407D002804D1DFF82005807D0028B5
:100F30000FD0DFF818050021C174DFF8100500217B
:100F40000175DFF8080500214175DFF80005002173
:100F50008175DFF8F804807C01284AD1DFF8EC04C1
:100F6000C07C401CDFF8E414C874DFF8E004C07CE7
:100F700064283ED3DFF8D4040021C174DFF8CC0428
:100F8000007D401CDFF8C4140875DFF8C004007D44
:100F90003C282ED3DFF8B40400210175DFF8AC043F
:100FA000407D401CDFF8A4144875DFF8A004407DA4
:100FB0003C281ED3DFF8940400214175DFF88C042F
:100FC000807D401CDFF884148875DFF88004807D04
:100FD000DFF87814497C88420BD3DFF870040021D5
:100FE0008175DFF8680400218174DFF86004012155
:100FF000C17501BD80B50121DFF83405FFF7FEFCA6
:10100000002808D00121DFF82C05FFF779FD00F05A
:10101000C8FC00F0BFFC01BD80B50121DFF814055C
:10102000FFF7ECFC002808D00121DFF80805FFF7E6
:1010300067FD00F0A1FC00F0A6FC01BD7047704701
:10104000704770477047704770477047C0B2C9B269
:1010500088420FD1DFF8E42482F88400DFF8DC2432
:10106000127F521CDFF8D4341A77DFF8D024012322
:1010700053770CE0DFF8C42400231377DFF8BC2497
:10108000002382F88330DFF8B4240023D374704740
:10109000DFF8A80490F88300CA280ED1DFF89C047A
:1010A00090F88700D12808D1DFF88C044078002818
:1010B00003D1DFF8840402210170704738B50400C1
:1010C0000D00E4B2002C2BD1DFF870040021017771
:1010D000DFF86804007FDFF86414401880F883505C
:1010E000DFF85804007F401CDFF850140877DFF861
:1010F00054040068DFF84C1440180571DFF844040C
:101100000068401CDFF83C140860DFF83804006811
:101110004FF49671884203D3DFF828040021016060
:10112000E4B2012C38D1DFF81C040068DFF8141495
:1011300040180571DFF80C040068401CDFF8041447
:101140000860DFF8000400684FF49671884203D30A
:10115000DFF8F00300210160DFF8E003007F0128E1
:101160001AD1DFF8D803C07C0A2809D00B280DD08B
:10117000AC2811D1AC212800C0B2FFF767FF0BE00B
:101180000A212800C0B2FFF761FF05E00B2128000B
:10119000C0B2FFF75BFFFFE7E4B2022C53D1DFF8E8
:1011A000A4030068DFF89C1340180571DFF894036E
:1011B0000068401CDFF88C130860DFF888030068C3
:1011C0004FF49671884203D3DFF878030021016061
:1011D000DFF86803C07CFF281BD1DFF86003007FC5
:1011E000022830D1DFF8540302214177DFF84C03A5
:1011F000407F401DDFF844138877DFF8400380F814
:101200008550DFF83803007F401CDFF83013087783
:1012100019E0DFF82803007F022814D1DFF81C034F
:101220004577DFF81803407F401DDFF810138877FB
:10123000DFF8080380F88550DFF80003007F401CCA
:10124000DFF8F8120877E4B2032C72D1DFF8F40269
:101250000068DFF8F01240180571DFF8E802006856
:10126000401CDFF8E0120860DFF8D80200684FF495
:101270009671884203D3DFF8CC0200210160DFF8C9
:10128000BC02007FDFF8B412401880F88350DFF80A
:10129000AC02007F401CDFF8A4120877DFF89C0244
:1012A000007FDFF89812897F884242D1DFF88C02F4
:1012B000C07CFF2802D100F047F92EE0DFF87C0265
:1012C000007FDFF87812401890F8820010F00F00CD
:1012D0000F2817D1DFF86002407801280BD1DFF822
:1012E0005C020121C173DFF85402007C401CDFF86E
:1012F0004C12087401E0FFF7CBFEDFF8400200213A
:1013000001770AE0DFF83402FF21C173DFF82C0215
:10131000807E401CDFF824128876DFF8200200214E
:101320000177DFF8180200214177DFF81002002171
:10133000C17431BD38B504000025DFF80002C07C5F
:10134000002823D1E4B22000A0280CD0B02813D06C
:10135000CA281AD1CA210020FFF7B0FEDFF8DC014D
:10136000AC21C1742FE0A0210020FFF7A7FEDFF819
:10137000CC010A21C17426E0B0210020FFF79EFEB7
:10138000DFF8B8010B21C1741DE01CE0DFF8AC01EF
:10139000407F002802D1012005000EE0DFF89C010B
:1013A000007F032802D30320050006E0DFF88C014C
:1013B000007E002801D1022005002100C9B22800CA
:1013C000C0B2FFF77BFE31BD10B5002440F22661AC
:1013D0005B4800F03BFB00281ED058480078574976
:1013E000497888420DD255480078411C534A117003
:1013F000C0B252494018C17F89B2514800F0DAFAB0
:1014000005E04E48002141704C480021017040F237
:1014100026614B4800F0B0FB40F22551484800F0EF
:1014200015FB002807D0464800F0E9FA0400200028
:10143000C0B2FFF77FFF10BDE81A00206C1A002031
:10144000EC1A002000100140E01A0020941A00203D
:1014500038B50024002540F22661DFF8580100F07D
:10146000F5FA00282CD0DFF848014078DFF8401169
:101470008978884216D2DFF838014078DFF83011D9
:101480004018007D0500DFF828014078401CDFF897
:1014900020114870EDB2290089B2DFF8180100F080
:1014A00089FA07E0DFF8080100214170DFF8000148
:1014B0000021817040F22661DFF8F80000F05CFB4B
:1014C00040F22551DFF8EC0000F0C0FA002804D00B
:1014D000DFF8E00000F093FA040031BD38B50024D5
:1014E000002540F22661DFF8D00000F0AFFA0028B6
:1014F0000CD0EDB2290089B2DFF8BC0000F05AFA36
:1015000040F22661DFF8B00000F036FB40F22551D2
:10151000DFF8A40000F09AFA002804D0DFF8980061
:1015200000F06DFA040031BD3C1A00206C19002057
:10153000000400400008004018000020A817002008
:1015400000380140781600200021002001221100FF
:10155000C9B2062908D2C9B2DFF860208A1892F809
:1015600075201018491CF3E7DFF8502092F87B2013
:10157000C0B282420FD1DFF8442001231372DFF89A
:101580003C20527A521CDFF834305A72DFF82C209B
:10159000002353730AE0DFF82420FF231372DFF8DF
:1015A0001C20D27A521CDFF81430DA727047000027
:1015B000901800200044004000480040A81300207C
:1015C0000F480068002804D00D480068401E0C49F0
:1015D0000860704709480068002804D00748006880
:1015E000401E06490860704706480068002804D07D
:1015F00004480068401E034908607047F01A002044
:10160000F81A0020F41A00202DE9F84F04000D000C
:10161000002600275FF000085FF000095FF0000A75
:101620005FF0000BDFF8300384421CD0DFF82C039E
:10163000844218D0DFF82803844214D0DFF8240352
:10164000844210D0DFF8200384420CD0DFF81C0362
:10165000844208D0DFF81803844204D0B121DFF8B7
:101660001403FFF7BBFAE878002819D0E8780428BB
:1016700016D0E878282813D0E878482810D0E878E1
:1016800014280DD0E87810280AD0E8781C2807D054
:10169000E878182804D0B221DFF8D802FFF79EFAC4
:1016A0002888002804D1B321DFF8C802FFF796FA92
:1016B000E87810F00F000600E878C0060FD5A8788B
:1016C00001280AD0A878022807D0A878032804D0D7
:1016D000BA21DFF8A002FFF781FAA878064328783C
:1016E000000631D02068824600208046B8F1080FFD
:1016F00028D2012010FA08F08146288819EA000053
:1017000007004F451BD15FEA880081460F2010FA81
:1017100009F083463AEA0B0A16FA09F050EA0A0A77
:10172000E878282804D1012010FA08F0606106E06A
:10173000E878482803D1012010FA08F0206118F158
:101740000108D3E7C4F800A028884FF480718842CC
:1017500033D36068824600208046B8F1080F2AD251
:10176000012018F1080188408146288819EA000004
:1017700007004F451CD15FEA880081460F2010FA10
:1017800009F083463AEA0B0A16FA09F050EA0A0A07
:10179000E878282804D1012018F108018840606108
:1017A000E878482804D1012018F108018840206118
:1017B00018F10108D1E7C4F804A0BDE8F18F70B5B5
:1017C00004000D000026DFF8900184421DD0DFF8F0
:1017D0008C01844219D0DFF88801844215D0DFF8EB
:1017E0008401844211D0DFF8800184420DD0DFF8FB
:1017F0007C01844209D0DFF87801844205D040F2B0
:101800001D11DFF87001FFF7E9F9ADB2012D3CD0F1
:10181000ADB2022D39D0ADB2042D36D0ADB2082D07
:1018200033D0ADB2102D30D0ADB2202D2DD0ADB211
:10183000402D2AD0ADB2802D27D04FF48070ADB2AC
:10184000854222D04FF40070ADB285421DD0ADB2BA
:10185000B5F5806F19D0ADB2B5F5006F15D0ADB24A
:10186000B5F5805F11D0ADB2B5F5005F0DD0ADB26A
:10187000B5F5804F09D0ADB2B5F5004F05D04FF4A6
:101880008F71DFF8F000FFF7A9F9A06880B2284255
:1018900002D00120060001E0002006003000C0B2A6
:1018A00070BD38B504000D00DFF8AC0084421CD0D8
:1018B000DFF8A800844218D0DFF8A400844214D0D6
:1018C000DFF8A000844210D0DFF89C0084420CD0E6
:1018D0002648844209D0DFF89800844205D04FF4AE
:1018E000B471DFF89000FFF779F9ADB2002D05D1A2
:1018F00040F26911DFF87C00FFF770F9ADB22561A5
:1019000031BD38B504000D001348844218D0134887
:10191000844215D01248844212D0124884420FD01B
:10192000114884420CD01148844209D0DFF84000AD
:10193000844205D04FF4BC71DFF83800FFF74EF950
:10194000ADB2002D05D140F27911DFF82800FFF784
:1019500045F9ADB2656131BD00080140000C0140A0
:10196000001001400014014000180140001C01401B
:1019700000200140F021000880B54FF400710C48B0
:10198000FFF78FFF01BD80B54FF400710848FFF7E6
:10199000B8FF01BD80B54FF480710548FFF781FFA6
:1019A00001BD80B54FF480710148FFF7AAFF01BD6A
:1019B000000C014038B504000D001E48844210D0D0
:1019C0001D4884420DD01D4884420AD01C488442E0
:1019D00007D01D48844204D04FF414711948FFF712
:1019E000FDF84FF40070ADB2854204D340F25121AE
:1019F0001448FFF7F3F8E805C00DA08031BD10B51D
:101A000004000C48844210D00B4884420DD00B488F
:101A100084420AD00A48844207D00B48844204D04A
:101A200040F261210748FFF7D9F8A088C005C00D32
:101A300010BD000000380140004400400048004054
:101A4000004C004054220008005000402DE9F843AB
:101A500004000D00002600275FF000085FF0000979
:101A60006D48844210D06D4884420DD06C48844249
:101A70000AD06C48844207D06C48844204D040F2BB
:101A8000BE316948FFF7AAF8ADB2282D31D040F237
:101A90002770ADB285422CD040F22660ADB28542AF
:101AA00027D040F22550ADB2854222D040F22440EA
:101AB000ADB285421DD040F64600ADB2854218D089
:101AC00040F66A10ADB2854213D04FF45870ADB2F3
:101AD00085420ED04FF41870ADB2854209D04FF454
:101AE000B070ADB2854204D040F2BF314E48FFF72E
:101AF00075F840F66A10ADB285420DD14648844271
:101B00000AD04648844207D04548844204D040F277
:101B1000C3314548FFF762F82800C0B24009C0B29F
:101B20008046ADB215F01F000700012010FA07F73C
:101B3000B8F1010F02D1A089074007E0B8F1020F08
:101B400002D1208A074001E0A08A0740ADB2280AEE
:101B500080B20600012010FA06F620880640002F09
:101B600004D0002E02D00120814601E000208146F1
:101B70004846C0B2BDE8F283F8B504000D00002667
:101B800000272548844210D0244884420DD02448A0
:101B900084420AD02348844207D02448844204D097
:101BA00040F207412048FFF719F840F22660ADB235
:101BB000854213D040F22550ADB285420ED040F69A
:101BC0004600ADB2854209D040F66A10ADB28542FA
:101BD00004D04FF481611448FFF700F840F66A1012
:101BE000ADB285420DD10C4884420AD00B488442E4
:101BF00007D00B48844204D040F20C410A48FEF75B
:101C0000EDFFADB2280A06000120B0400700BFB2C8
:101C1000F8432080F1BD000000380140004400403E
:101C200000480040004C0040542200080050004092
:101C300040B2002808D540B210F00F026C4BD21809
:101C40000B0102F8043C03E040B26A4A0B018354E2
:101C5000704710B50400B4F1807F01D3012010E07B
:101C60002002000A401E644908600F215FF0FF3027
:101C7000FFF7DEFF61480021016061480721016034
:101C8000002010BD80B500F06BF85E4800F0D0F881
:101C900000F083F800F00EF85A4800684FF47A71AB
:101CA000B0FBF1F0FFF7D5FF002800D0FEE700F011
:101CB00063F801BD10B5544800684FF49661B0FB5D
:101CC000F1F0401E0400504800685049B0FBF1F0AC
:101CD0004F4908804F4840F60F6181804D484EF6CD
:101CE0005F2101804B480021C1804A48002141808A
:101CF00048494948FEF7FAF94848002141804749D8
:101D00004548FEF7AEFA45494348FEF7A5FB434870
:101D10000121418041480121C180404800210181C9
:101D20003E48302101803D493B48FEF76FFC0121D0
:101D30003948FEF7DBFD3948012141803748012150
:101D4000C180364802210181344830210180334965
:101D50003148FEF71BFD01212F48FEF7C7FD10BDDE
:101D600080B500F049F901213D2000F0E1F80121A2
:101D7000042000F004F901BD80B529481C21017040
:101D80002748002141702648002181702448012104
:101D9000C170234800F0D6F901BD80B5214801216A
:101DA000018020482821C1701E48022181701D49F0
:101DB0001D48FFF729FC1B480221018019482821F2
:101DC000C17018480221817016491748FFF71CFCA2
:101DD00014484FF44871018012481C21C170114809
:101DE000022181700F491148FFF70EFC01BD000070
:101DF00018ED00E000E400E014E000E018E000E08E
:101E000010E000E0B01A002014000020C0D401004F
:101E1000041B0020D41A002000080040C41A00202F
:101E2000FC1A0020001B002000080140000C0140AB
:101E300030B40021002200230024DFF890512D68E7
:101E400015F00C0529000D00002D04D0042D06D03E
:101E5000082D08D02EE0DFF87C5105602DE0DFF87A
:101E60007851056029E0DFF864512D6815F470158C
:101E70002A00DFF858512D6815F480352B00920C9C
:101E8000921C002B05D1DFF8545105FB02F50560CB
:101E90000FE0DFF838512D68AD0305D5DFF8345178
:101EA00005FB02F5056004E0DFF82C5105FB02F5A7
:101EB000056002E0DFF81C510560DFF810512D6865
:101EC00015F0F00529000909DFF814514D5D2C00CB
:101ED0000568E5404560DFF8F4502D6815F4E065CD
:101EE0002900090ADFF8F8504D5D2C004568E540EF
:101EF0008560DFF8D8502D6815F460552900C90AAF
:101F0000DFF8DC504D5D2C004568E540C560DFF82A
:101F1000BC502D6815F440452900890BDFF8C450EA
:101F20004D5D2C00C568B5FBF4F5056130BC70470C
:101F300038B504000D002C48044201D1002C04D116
:101F400040F24E412248FEF749FEEDB2002D07D087
:101F5000EDB2012D04D040F24F411D48FEF73EFE88
:101F6000EDB2002D05D02148006820431F490860CC
:101F700004E01E480068A0431C49086031BD38B524
:101F800004000D001A48044201D1002C04D140F293
:101F90006D410F48FEF722FEEDB2002D07D0EDB2E5
:101FA000012D04D040F26E410948FEF717FEEDB254
:101FB000002D05D00F48006820430E49086004E05A
:101FC0000C480068A0430B49086031BD0410024072
:101FD000B822000800127A000024F40000093D0035
:101FE00000000020100000200200C0FF1810024076
:101FF000003601811C10024080B54C48006850F04A
:1020000001004A4908604A4800684A49084048496E
:102010000860464800684849084044490860434809
:10202000006830F48020414908604148006830F47D
:10203000FE003F49086041485FF41F01016000F065
:1020400001F801BD80B500F001F801BD82B00020AB
:102050000190002000903548006850F480303349EA
:1020600008603248006810F4003000900198401C6D
:1020700001900098002803D10198B0F5A06FF0D12D
:102080002A480068800302D50120009001E000206A
:1020900000900098012847D12948006850F01000AE
:1020A00027490860264800688008800024490860A5
:1020B0002348006850F00200214908601C481C4970
:1020C000096801601A481A490968016018480068DF
:1020D00050F48060164908601548006830F47C10A0
:1020E000134908601248006850F4881010490860CD
:1020F0000E48006850F080700C4908600B4800687A
:102100008001FBD50A480068800880000849086003
:102110000748006850F0020005490860044800685C
:1021200010F00C000828F9D102B0704700100240EE
:10213000041002400000FFF8FFFFF6FE0810024006
:1021400000200240F8B50400002500260F27E078A3
:10215000002806D0E078012803D074211F48FEF73C
:102160003DFD6078102803D375211C48FEF736FD2D
:10217000A078102803D376211848FEF72FFDE078C9
:10218000002820D01648006810F4E060D0F5E06028
:10219000000A0500D5F104000600EF406078B04069
:1021A0000500A078384005432D0120780D4945549D
:1021B000207840110C490122237813F01F039A4024
:1021C00041F8202009E020784011084901222378B5
:1021D00013F01F039A4041F82020F1BD7823000836
:1021E0000CED00E000E400E000E100E080E100E050
:1021F000433A5C55736572735C5454545C44657324
:102200006B746F705C7A7A2E53544446575C30304E
:102210002E53747564795C4C69627261726965737E
:102220005C53544D3332463130785F53746450659B
:10223000726970685F4472697665725C7372635C20
:1022400073746D3332663130785F6770696F2E63F7
:1022500000000000433A5C55736572735C5454543B
:102260005C4465736B746F705C7A7A2E5354444689
:10227000575C30302E53747564795C4C69627261BE
:10228000726965735C53544D3332463130785F5315
:1022900074645065726970685F4472697665725CD7
:1022A0007372635C73746D3332663130785F75734B
:1022B0006172742E63000000433A5C55736572735B
:1022C0005C5454545C4465736B746F705C7A7A2E02
:1022D00053544446575C30302E53747564795C4CCB
:1022E00069627261726965735C53544D3332463171
:1022F00030785F5374645065726970685F447269C6
:102300007665725C7372635C73746D333266313000
:10231000785F7263632E6300433A5C557365727332
:102320005C5454545C4465736B746F705C7A7A2EA1
:1023300053544446575C30302E53747564795C4C6A
:1023400069627261726965735C53544D3332463110
:1023500030785F5374645065726970685F44726965
:102360007665725C7372635C73746D3332663130A0
:10237000785F74696D2E6300433A5C5573657273C0
:102380005C5454545C4465736B746F705C7A7A2E41
:1023900053544446575C30302E53747564795C4C0A
:1023A00069627261726965735C53544D33324631B0
:1023B00030785F5374645065726970685F44726905
:1023C0007665725C7372635C6D6973632E63000083
:1023D00010B450F8041B81B102681218001D50F8A7
:1023E000043BDC0744BFA9F10104E31852F8044B95
:1023F00043F8044B091FF9D1EBE710BC704750F8C4
:10240000041B61B150F8042BD30744BFA9F10103A9
:102410009A18002342F8043B091FFAD1EFE77047EE
:1024200010B5084979441C31074C7C441A34A14248
:1024300006D0081D0A68511888470146A142F8D104
:1024400010BD00BF0800000028000000B3FFFFFF20
:10245000F01A0000180000200000000075FFFFFFC8
:1024600018000000400100000000002000000000F3
:1024700000F009F8002801D0FFF7D2FF002000F09B
:1024800004F800F006F80120704780B5FFF7FAFB6A
:10249000FEE700F001B800000746384600F002F8F9
:1024A000FBE7000080B5C046C046024A1100182074
:1024B000ABBEFBE726000200014880470148004709
:1024C000F91F0008C9240008C046C046C046C046DF
:1024D000FFF7CEFFFEF783BBFEF782BBFEF781BBA3
:1024E000FEF780BBFEF77FBBFEF77EBBFEF77DBB32
:1024F000FEF77CBBFEF77BBBFEF781BBFEF780BB24
:10250000FEF77FBBFEF77EBBFEF77DBBFEF77CBB15
:10251000FFF7FEBFFFF7FEBFFFF7FEBFFFF7FEBFEF
:10252000FFF7FEBFFFF7FEBFFEF76FBBFEF76EBB08
:10253000FEF76DBBFEF76CBBFEF76BBBFEF76ABB2D
:10254000FEF769BBFEF768BBFFF7FEBFFEF765BB92
:10255000FEF764BBFFF7FEBFFEF761BBFEF760BB93
:10256000FEF75FBBFEF75EBBFEF75DBBFEF742BD4D
:10257000FEF752BDFEF762BDFEF761BDFEF760BD1E
:10258000FEF75FBDFEF75EBDFEF75DBDFEF71CBF4B
:10259000FEF75EBFFEF7A2BFFEF756BDFEF755BDC4
:1025A000FFF7FEBF00000000010203040102030464
:0C25B000060708090204060800A24A04FD
:04000005080024C902
:00000001FF
