:020000040800F2
:10000000781F0020C5370008EF000008F100000845
:10001000F3000008F5000008F700000800000000E9
:10002000000000000000000000000000F9000008CF
:10003000FB00000800000000FD000008FF000008B1
:100040000F01000811010008130100081501000844
:10005000170100081901000871050008213800087F
:1000600025380008293800082D38000831380008E4
:100070001B0100081D0100081F01000821010008E4
:1000800023010008250100082701000829010008B4
:10009000553800082B0100082D01000861380008C0
:1000A0002F01000831010008330100083501000864
:1000B00037010008290500084D050008A9050008BA
:1000C000AB050008AD050008AF050008B105000844
:1000D000B305000835090008BD090008490A0008F1
:1000E000B5050008B7050008AD380008FEE7704701
:1000F000FEE7FEE7FEE7FEE770477047704780B512
:1001000000F038FD00F04AFD00F03EFD01BD7047F3
:100110007047704770477047704770477047704727
:100120007047704770477047704770477047704717
:1001300070477047704780B501215FF0804000F044
:1001400097FE002800F0EF8101215FF0804000F071
:1001500011FFDFF850080078401CDFF848180870DD
:10016000DFF84008007864280BD3DFF83808002156
:100170000170DFF83008407890F0FF00DFF82418B5
:100180004870DFF824080078012815D1DFF8180836
:100190004068401CDFF810184860DFF80C08406821
:1001A0004FF47A71884207D3DFF8FC0700214160E1
:1001B000DFF8F40700210170DFF8F007407800282D
:1001C00002D0012811D068E00121DFF8E40701F036
:1001D0001AF8DFF8E01708710221DFF8D40701F000
:1001E00012F8DFF8D017487157E00121DFF8C00797
:1001F00001F009F8DFF8BC170871DFF8BC07407898
:10020000DFF8B017097988423ED0DFF8A8070079F7
:10021000002831D1DFF8A007407801282CD1DFF881
:100220009807C07801280BD3DFF88C07C0780F2817
:1002300006D2DFF88407C078401EDFF87C17C8704C
:10024000DFF87407C078002804D10121002001F0F4
:10025000D4FA11E0DFF86007007900280CD1DFF84C
:1002600058074079002807D00121002001F0C5FA85
:10027000DFF84407012101710121DFF8340700F0A4
:10028000C2FFDFF8341748700221DFF8240700F0BE
:10029000BAFFDFF820174871FFE7DFF81C07007985
:1002A00001282FD1DFF810078079401CDFF80817EC
:1002B0008871DFF804078079652823D3DFF8F80612
:1002C00000218171DFF8F006C079401CDFF8E816E4
:1002D000C871DFF8E406C079DFF8DC164979884296
:1002E00010D3DFF8D40600210171DFF8CC06C07806
:1002F000002803D00121012001F07FFADFF8B806C1
:100300000021C171DFF8AC06407B00282AD0DFF85D
:10031000A406807B401CDFF89C168873DFF89406E7
:10032000807B64281ED3DFF88C06C07B401CDFF87E
:100330008416C873DFF87C0600218173DFF8740629
:10034000C07BDFF87016097B88420BD3DFF86406A8
:1003500001210174DFF85C060021C173DFF8540647
:1003600000214173DFF84C06807A002810D1DFF8B5
:100370004406407B00280BD0DFF83806002141738B
:10038000DFF8300600218173DFF828060021C173F1
:10039000DFF804070078012817D1DFF8FC06406871
:1003A000401CDFF8F4164860DFF8EC064068C82807
:1003B0000BD3DFF8E40601210172DFF8DC0600212F
:1003C0004160DFF8D40600210170DFF8CC06407AE6
:1003D000012816D1DFF8C006C068401CDFF8B81647
:1003E000C860DFF8B4060069DFF8AC16C968884257
:1003F00007D2DFF8A40601210175DFF89C06002171
:10040000C160DFF898068078012813D1DFF88C06E8
:10041000C078401CDFF88416C870DFF88006C0780A
:10042000322807D3DFF874060021C170DFF86C06AC
:1004300000218170DFF87C05807C002823D1DFF863
:100440007405C07C00280ED1DFF86805007D002807
:1004500009D1DFF86005407D002804D1DFF854059C
:10046000807D00280FD0DFF84C050021C174DFF833
:10047000440500210175DFF83C0500214175DFF8D6
:10048000340500218175DFF82C05807C01284AD1D4
:10049000DFF82005C07C401CDFF81815C874DFF8B1
:1004A0001405C07C64283ED3DFF808050021C17420
:1004B000DFF80005007D401CDFF8F8140875DFF850
:1004C000F404007D3C282ED3DFF8E80400210175F8
:1004D000DFF8E004407D401CDFF8D8144875DFF8F1
:1004E000D404407D3C281ED3DFF8C80400214175A8
:1004F000DFF8C004807D401CDFF8B8148875DFF891
:10050000B404807DDFF8AC14497C88420BD3DFF85B
:10051000A40400218175DFF89C0400218174DFF8B8
:1005200094040121C17501BD80B50121DFF870057A
:1005300000F09EFC002808D00121DFF8680500F0DB
:1005400019FD01F025FB01F019FB01BD80B501216A
:10055000DFF8500500F08CFC002808D00121DFF8FE
:10056000440500F007FD01F0F5FA01F0FDFA01BDC8
:1005700080B5012001F08FFB002814D0012001F08C
:10058000DAFBDFF830050068002806D001F0ECFA4D
:100590004FF47A7000F0DFFA05E001F0DBFA4FF477
:1005A0007A7000F0D8FA01BD704770477047704705
:1005B0007047704770477047C0B2C9B288420FD1C8
:1005C000DFF8E82482F88400DFF8E024127F521C70
:1005D000DFF8D8341A77DFF8D424012353770CE0FE
:1005E000DFF8C82400231377DFF8C024002382F843
:1005F0008330DFF8B8240023D3747047DFF8AC04ED
:1006000090F88300CA280ED1DFF8A00490F8870084
:10061000D12808D1DFF890044078002803D1DFF812
:10062000880402210170704738B504000D00E4B25F
:10063000002C2BD1DFF8740400210177DFF86C0463
:10064000007FDFF86814401880F88350DFF85C04FE
:10065000007F401CDFF854140877DFF85C04006862
:10066000DFF8541440180571DFF84C040068401C92
:10067000DFF844140860DFF8400400684FF4967116
:10068000884203D3DFF8300400210160E4B2012C7A
:1006900038D1DFF824040068DFF81C144018057115
:1006A000DFF814040068401CDFF80C140860DFF861
:1006B000080400684FF49671884203D3DFF8F8030A
:1006C00000210160DFF8E403007F01281AD1DFF880
:1006D000DC03C07C0A2809D00B280DD0AC2811D12E
:1006E000AC212800C0B2FFF767FF0BE00A21280009
:1006F000C0B2FFF761FF05E00B212800C0B2FFF791
:100700005BFFFFE7E4B2022C53D1DFF8AC030068D3
:10071000DFF8A41340180571DFF89C030068401C43
:10072000DFF894130860DFF8900300684FF49671C7
:10073000884203D3DFF8800300210160DFF86C03F7
:10074000C07CFF281BD1DFF86403007F022830D172
:10075000DFF8580302214177DFF85003407F401D46
:10076000DFF848138877DFF8440380F88550DFF816
:100770003C03007F401CDFF83413087719E0DFF8F2
:100780002C03007F022814D1DFF820034577DFF81F
:100790001C03407F401DDFF814138877DFF80C033B
:1007A00080F88550DFF80403007F401CDFF8FC125E
:1007B0000877E4B2032C72D1DFF8FC020068DFF89E
:1007C000F81240180571DFF8F0020068401CDFF8ED
:1007D000E8120860DFF8E00200684FF49671884282
:1007E00003D3DFF8D40200210160DFF8C002007FEC
:1007F000DFF8B812401880F88350DFF8B002007FAD
:10080000401CDFF8A8120877DFF8A002007FDFF8AD
:100810009C12897F884242D1DFF89002C07CFF2879
:1008200002D100F04BF92EE0DFF88002007FDFF804
:100830007C12401890F8820010F00F000F2817D19A
:10084000DFF86402407801280BD1DFF86002012153
:10085000C173DFF85802007C401CDFF850120874A6
:1008600001E0FFF7CBFEDFF84402002101770AE048
:10087000DFF83802FF21C173DFF83002807E401CB0
:10088000DFF828128876DFF8240200210177DFF8EC
:100890001C0200214177DFF814020021C17431BD30
:1008A00038B504000025DFF80402C07C002823D1FD
:1008B000E4B22000A0280CD0B02813D0CA281AD146
:1008C000CA210020FFF7B0FEDFF8E001AC21C174BF
:1008D0002FE0A0210020FFF7A7FEDFF8D0010A21BA
:1008E000C17426E0B0210020FFF79EFEDFF8BC01B6
:1008F0000B21C1741DE01CE0DFF8B001407F00282F
:1009000002D1012005000EE0DFF8A001007F0328DE
:1009100002D30320050006E0DFF89001007E0028E6
:1009200001D1022005002100C9B22800C0B2FFF7A2
:100930007BFE31BD10B5002440F226615C4801F019
:1009400037FC00281ED05948007858494978884219
:100950000DD256480078411C544A1170C0B2534918
:100960004018C17F89B2524801F0D4FB05E04F48DE
:10097000002141704D480021017040F226614C4831
:1009800001F0ACFC40F22551494801F011FC00286F
:1009900007D0474801F0E3FB04002000C0B2FFF796
:1009A0007FFF10BD4C1B0020981A0020501B002018
:1009B00000100140C01A0020341B002038B500246C
:1009C000002540F22661DFF8600101F0F1FB00280C
:1009D0002CD0DFF850014078DFF848118978884240
:1009E00016D2DFF840014078DFF838114018007D5A
:1009F0000500DFF830014078401CDFF8281148700E
:100A0000EDB2290089B2DFF8200101F083FB07E095
:100A1000DFF8100100214170DFF80801002181702A
:100A200040F22661DFF8000101F058FC40F2255148
:100A3000DFF8F40001F0BCFB002804D0DFF8E80088
:100A400001F08DFB040031BD38B50024002540F2D3
:100A50002661DFF8D80001F0ABFB00280CD0EDB226
:100A6000290089B2DFF8C40001F054FB40F226618E
:100A7000DFF8B80001F032FC40F22551DFF8AC009D
:100A800001F096FB002804D0DFF8A00001F067FB1E
:100A9000040031BD000000003C1A00206C19002049
:100AA000000400400008004018000020A8170020A3
:100AB00000380140681B002078160020002100202B
:100AC00001221100C9B2062908D2C9B2DFF860209C
:100AD0008A1892F875201018491CF3E7DFF85020A7
:100AE00092F87B20C0B282420FD1DFF8442001236C
:100AF0001372DFF83C20527A521CDFF834305A72FD
:100B0000DFF82C20002353730AE0DFF82420FF23B2
:100B10001372DFF81C20D27A521CDFF81430DA721C
:100B2000704700009018002000440040004800403A
:100B3000A813002001B400221000BDF8002090424C
:100B400007D200221100082901D2491CFBE7401CF2
:100B5000F3E701B0704711B581B000200400BDF883
:100B60000400844205D24FF47A70FFF7E3FF641C5F
:100B7000F5E713BD0F480068002804D00D48006851
:100B8000401E0C490860704709480068002804D0DE
:100B900007480068401E064908607047064800681C
:100BA000002804D004480068401E034908607047CC
:100BB000541B00205C1B0020581B00202DE9F04135
:100BC00004000D00002600275FF000084148844221
:100BD00013D0B4F1804F10D03F4884420DD03F482D
:100BE00084420AD03E48844207D03E48844204D022
:100BF00040F20E213C48FFF779FA2888002813D0EC
:100C00002888102810D0288820280DD0288830283F
:100C10000AD02888602807D02888702804D040F29D
:100C20000F213148FFF762FA6888002807D06888EA
:100C3000012804D04FF404712B48FFF757FA288994
:100C4000002807D02889022804D040F21121264824
:100C5000FFF74CFA208C4EF6FF7108402084208C60
:100C60000700A0888046A08B060048F6FF7006406B
:100C70004FF6FF400640288856EA00264DF6FF70E2
:100C80000740288957EA0037688857EA0037114833
:100C9000844202D01348844213D1A8894FF4807152
:100CA000884207D0A889002804D040F22E210E489F
:100CB000FFF71CFA4BF6FF7010EA0808A88958EAFB
:100CC0008018A4F80480A683E888A4F8400027844C
:100CD000BDE8F081002C0140000400400008004005
:100CE000000C0040003401402436000838B50400F0
:100CF0000D00DFF83801844244D0B4F1804F41D078
:100D0000DFF8300184423DD0DFF82C01844239D035
:100D1000DFF82801844235D0DFF84801844231D021
:100D2000DFF8440184422DD0DFF80401844229D049
:100D3000DFF80C01844225D0DFF80801844221D07D
:100D4000DFF8040184421DD0DFF80001844219D08D
:100D5000DFF8FC00844215D0DFF8F800844211D09F
:100D6000DFF8F40084420DD0DFF8F000844209D0AF
:100D7000DFF8F800844205D040F22731DFF8E000C8
:100D8000FFF7B4F9EDB2002D08D0EDB2012D05D07A
:100D90004FF44A71DFF8C800FFF7A8F9EDB2002D53
:100DA00004D0208850F00100208004E020884FF615
:100DB000FE710840208031BD38B504000D00DFF819
:100DC0006C00844215D0DFF86800844211D0DFF84F
:100DD000880084420DD0DFF88400844209D0DFF817
:100DE0008C00844205D04FF45071DFF87400FFF797
:100DF0007DF9EDB2002D08D0EDB2012D05D040F205
:100E00004131DFF85C00FFF771F9EDB2002D06D03B
:100E1000B4F8440050F40040A4F8440005E0B4F8ED
:100E200044004004400CA4F8440031BD002C0140B3
:100E3000003401400004004000080040000C004065
:100E4000004C014000500140005401400018004097
:100E5000001C0040002000400040014000440140D0
:100E600024360008001000400014004000480140F3
:100E70002DE9F04104000D00002600275FF0000876
:100E8000DFF88C01844241D0B4F1804F3ED0DFF8CE
:100E9000880184423AD0DFF88401844236D0DFF8FA
:100EA0008001844232D0DFF87C0184422ED0DFF80A
:100EB000780184422AD0DFF85C01844226D0DFF832
:100EC0007001844222D0DFF86C0184421ED0DFF82A
:100ED000680184421AD0DFF86401844216D0DFF83A
:100EE0006001844212D0DFF85C0184420ED0DFF84A
:100EF000580184420AD05548844207D04B48844266
:100F000004D040F64B214148FFF7F0F8ADB2012D77
:100F100019D0ADB2022D16D0ADB2042D13D0ADB2A2
:100F2000082D10D0ADB2102D0DD0ADB2202D0AD0AD
:100F3000ADB2402D07D0ADB2802D04D040F64C218B
:100F40003248FFF7D3F8208A28400700A0892840BC
:100F50008046BFB2002F07D01FFA88F8B8F1000F03
:100F600002D00120060001E0002006003000C0B2DF
:100F7000BDE8F08138B504000D002548844234D026
:100F8000B4F1804F31D0244884422ED0234884428B
:100F90002BD02348844228D02248844225D022489E
:100FA000844222D01B4884421FD0214884421CD056
:100FB0002048844219D02048844216D01F488442D9
:100FC00013D01F48844210D01E4884420DD01E48C2
:100FD00084420AD01D48844207D01448844204D079
:100FE00040F675210948FFF781F84FF47F4005422C
:100FF00002D1ADB2002D04D140F676210348FFF7AF
:1010000075F8ADB2E843208231BD000024360008F7
:10101000002C014000340140000400400008004062
:10102000000C004000100040001400400048014047
:10103000004C0140005001400054014000180040A5
:10104000001C0040002000400040014000440140DE
:101050002DE9F84F04000D00002600275FF000087E
:101060005FF000095FF0000A5FF0000BDFF830036B
:1010700084421CD0DFF82C03844218D0DFF8280308
:10108000844214D0DFF82403844210D0DFF8200318
:1010900084420CD0DFF81C03844208D0DFF8180328
:1010A000844204D0B121DFF80404FFF71FF8E87888
:1010B000002819D0E878042816D0E878282813D01A
:1010C000E878482810D0E87814280DD0E87810285F
:1010D0000AD0E8781C2807D0E878182804D0B22174
:1010E000DFF8C803FFF702F82888002804D1B321ED
:1010F000DFF8B803FEF7FAFFE87810F00F000600FB
:10110000E878C0060FD5A87801280AD0A878022868
:1011100007D0A878032804D0BA21DFF89003FEF79F
:10112000E5FFA87806432878000631D0206882467B
:1011300000208046B8F1080F28D2012010FA08F0EC
:101140008146288819EA000007004F451BD15FEA55
:10115000880081460F2010FA09F083463AEA0B0A0C
:1011600016FA09F050EA0A0AE878282804D1012082
:1011700010FA08F0606106E0E878482803D1012001
:1011800010FA08F0206118F10108D3E7C4F800A0B4
:1011900028884FF48071884233D3606882460020EB
:1011A0008046B8F1080F2AD2012018F108018840C2
:1011B0008146288819EA000007004F451CD15FEAE4
:1011C000880081460F2010FA09F083463AEA0B0A9C
:1011D00016FA09F050EA0A0AE878282804D1012012
:1011E00018F1080188406061E878482804D101209E
:1011F00018F108018840206118F10108D1E7C4F80E
:1012000004A0BDE8F18F70B504000D000026DFF8E2
:10121000900184421DD0DFF88C01844219D0DFF8A0
:101220008801844215D0DFF88401844211D0DFF8B0
:10123000800184420DD0DFF87C01844209D0DFF8C0
:101240007801844205D040F21D11DFF86002FEF7FC
:101250004DFFADB2012D3CD0ADB2022D39D0ADB2B3
:10126000042D36D0ADB2082D33D0ADB2102D30D014
:10127000ADB2202D2DD0ADB2402D2AD0ADB2802DF3
:1012800027D04FF48070ADB2854222D04FF4007069
:10129000ADB285421DD0ADB2B5F5806F19D0ADB2FB
:1012A000B5F5006F15D0ADB2B5F5805F11D0ADB218
:1012B000B5F5005F0DD0ADB2B5F5804F09D0ADB238
:1012C000B5F5004F05D04FF48F71DFF8E001FEF760
:1012D0000DFFA06880B2284202D00120060001E084
:1012E000002006003000C0B270BD38B504000D000B
:1012F000DFF8AC0084421CD0DFF8A800844218D08C
:10130000DFF8A400844214D0DFF8A000844210D09B
:10131000DFF89C0084420CD02648844209D0DFF8D4
:101320009800844205D04FF4B471DFF88001FEF7D5
:10133000DDFEADB2002D05D140F26911DFF86C0180
:10134000FEF7D4FEADB2256131BD38B504000D0005
:101350001348844218D01348844215D0124884425E
:1013600012D0124884420FD0114884420CD0114848
:10137000844209D0DFF84000844205D04FF4BC71AC
:10138000DFF82801FEF7B2FEADB2002D05D140F224
:101390007911DFF81801FEF7A9FEADB2656131BD24
:1013A00000080140000C0140001001400014014001
:1013B00000180140001C01400020014070B50400ED
:1013C0000D000026E4B2002C16D0E4B2012C13D09C
:1013D000E4B2022C10D0E4B2032C0DD0E4B2042C01
:1013E0000AD0E4B2052C07D0E4B2062C04D040F2B7
:1013F00062212E48FEF77AFEEDB2002D31D0EDB21B
:10140000012D2ED0EDB2022D2BD0EDB2032D28D020
:10141000EDB2042D25D0EDB2052D22D0EDB2062D72
:101420001FD0EDB2072D1CD0EDB2082D19D0EDB2B2
:10143000092D16D0EDB20A2D13D0EDB20B2D10D020
:10144000EDB20C2D0DD0EDB20D2D0AD0EDB20E2D5A
:1014500007D0EDB20F2D04D040F263211348FEF700
:1014600045FE0F2015F00301C9B28900884006002F
:10147000EDB2A8100E4951F82000B043EDB2A9100A
:101480000B4A42F82100EDB2A810094951F820009A
:10149000E4B215F00301C9B2890014FA01F108435E
:1014A000EDB2A910024A42F8210070BDDC330008F9
:1014B0000800014010B440B24109DFF804260123BE
:1014C00010F01F04A34042F8213010BC704740B216
:1014D000002809D540B210F00F02DFF8E835D21825
:1014E0000B0102F8043C04E040B2DFF8DC250B01FC
:1014F0008354704710B50400B4F1807F01D30120FC
:1015000013E02002000A401EDFF8C01508600F211A
:101510005FF0FF30FFF7DBFFDFF8B405002101606B
:10152000DFF8B00507210160002010BD80B54FF441
:101530008051DFF8A405FFF766FEDFF8A0150870FC
:101540004FF40051DFF89005FFF75DFEDFF88C15D2
:10155000487001BD80B500F0A1F900F0A7F9DFF8EF
:10156000800500F017FF00F0BCF900F087F9FFF7E5
:10157000DDFF5FF4E13000F021F85FF4E13000F0CE
:1015800052F84FF4164000F081F85FF4E13000F0BB
:10159000B0F8DFF84C0500684FF47A71B0FBF1F059
:1015A000FFF7A8FF002800D0FEE700F07FF900F069
:1015B000D5F900F004FA00F046FA01BD10B50400B8
:1015C000DFF820055FF4E1310160DFF81805002144
:1015D0008180DFF810050021C180DFF808050021B7
:1015E0000181DFF8000500218181DFF8F8040C217A
:1015F0004181DFF8F014DFF8F00400F0B9FB0122BC
:1016000040F22551DFF8E00400F0E5FC012240F251
:101610002661DFF8D40400F0DEFC0121DFF8C80405
:1016200000F0A2FC10BD10B50400DFF8B80404609F
:10163000DFF8B00400218180DFF8A8040021C18018
:10164000DFF8A00400210181DFF8980400218181E6
:10165000DFF890040C214181DFF88814DFF88C0456
:1016600000F086FB012240F22551DFF8800400F0F3
:10167000B2FC012240F22661DFF8700400F0ABFCFE
:101680000121DFF8680400F06FFC10BD10B5040004
:10169000DFF850040460DFF84C0400218180DFF89B
:1016A00044040021C180DFF83C0400210181DFF8FF
:1016B000340400218181DFF82C040C214181DFF802
:1016C0002414DFF82C0400F053FB012240F22551D2
:1016D000DFF81C0400F07FFC012240F22661DFF8F5
:1016E000100400F078FC0121DFF8040400F03CFC59
:1016F00010BD10B50400DFF8EC030460DFF8E4036C
:1017000000218180DFF8DC030021C180DFF8D403F1
:1017100000210181DFF8CC0300218181DFF8C403BF
:101720000C214181DFF8BC13DFF8C80300F020FB77
:10173000012240F22551DFF8BC0300F04CFC0122ED
:1017400040F22661DFF8AC0300F045FC0121DFF830
:10175000A40300F009FC10BD70B50400A4B2002C75
:1017600025D1DFF8940300684FF49661B0FBF1F0E7
:10177000401E0500A4B2ADB2681E00FB04F0642157
:10178000B0FBF1F00600DFF87403C680DFF86C13DD
:10179000DFF86C03FFF712FA0021DFF86403FFF7AC
:1017A000A5FA0021DFF85803FFF706FB24E0DFF875
:1017B000480300684FF49661B0FBF1F0401E05004D
:1017C000A4B2ADB2681E00FB04F06421B0FBF1F0DE
:1017D0000600DFF82803C680DFF82013DFF82003B7
:1017E000FFF7ECF90121DFF81803FFF77FFA012179
:1017F000DFF80C03FFF7E0FA70BD38B504000D0008
:10180000E4B2002C02D0012C0ED036E04021BE48BC
:10181000FFF79BFD0120FFF79FFFBA4800214170B1
:10182000BA480021017028E0EDB2002D02D0012D50
:1018300009D011E04FF48071B348FFF786FDB1483D
:101840000121817008E04FF48071AF48FFF74DFD32
:10185000AC4800218170FFE74021AB48FFF745FD10
:101860006420FFF779FFA74801214170A84800785C
:10187000002802D1A5480121017031BD9E490968A7
:101880004FF49662B1FBF2F1491E08009A490968CB
:10189000A04AB1FBF2F1A04A1180704780B500F078
:1018A00033FE01213D2000F0F5FD01BD80B54FF470
:1018B000A06000F0CFFE99480621017097480121F1
:1018C000417096480121817094480121C17093486C
:1018D00000F0DBFE012000F02EFA0620FFF7EAFD03
:1018E00001BD80B58E48012101808D482821C1703D
:1018F0008B48022181708A498A48FFF7A9FB8848F2
:101900000221018086482821C1708548022181700A
:1019100083498448FFF79CFB00210020FFF74EFD20
:101920008148012101608048002101717E480C211D
:1019300041717D48012181717B4800F039F9784877
:101940004FF44871018076481021C170744802211B
:10195000817073496048FFF77BFB01BD80B5734818
:1019600000F0ECFE724873490160714872494160B1
:101970006F48002181606E480221C1606C480021DF
:1019800001616B488021416169484FF400718161B8
:1019900067484FF40061C1616548202101626448D5
:1019A0004FF40051416262480021816260495F4802
:1019B00000F0A4FF01215D4801F070F801BD80B581
:1019C0005E48002101605D48012101715B480121F1
:1019D00041715A485FF46021816058480021C1601C
:1019E0005648022101745549554801F0CBF80120B1
:1019F00001F098FB032301220021514801F089FAEC
:101A00000323022204214E4801F083FA01214C48AD
:101A100001F086F901214A4801F0B0F9484801F087
:101A2000D8F9474801F0EEF90028FAD1444801F00E
:101A300009FA434801F01FFA0028FAD10121404871
:101A400001F039FA01BD80B53E483F4901603D488B
:101A5000002181803B484BF6FF71C18039488821C5
:101A6000018138484FF48061418136484FF480410C
:101A700081810121354801F045FC3249334801F0AC
:101A800073FB3048304901602E48002181802D4889
:101A90004BF6FF71C1802B48A021018129484FF4EA
:101AA0008061418127484FF480418181012128488C
:101AB00001F028FC2349264801F056FB01BD000037
:101AC00080E200E018ED00E000E400E014E000E057
:101AD00018E000E010E000E0000C0140501B002086
:101AE000F01A0020041B0020003801400044004090
:101AF000004C00400050004014000020141B002047
:101B0000002C0140C01A002000100140721B002070
:101B1000731B0020C0D40100701B0020601B00203C
:101B2000641B002000080140441B00200800024004
:101B30006C1A00204C2401403C1B0020DC1A0020C1
:101B400000240140241B0020A08601000054004016
:101B50000058004080B54FF400711248FFF7C5FBF4
:101B600011480121016001BD80B54FF400710D489D
:101B7000FFF7EBFB0C480021016001BD80B54FF47D
:101B800080710848FFF7B1FB08480121016001BDE1
:101B900080B54FF480710348FFF7D7FB034800215D
:101BA000016001BD000C0140681B00206C1B00207F
:101BB00038B5040000252079002806D020790428B3
:101BC00003D069216948FEF791FA6079082809D0A5
:101BD00060790C2806D06079102803D06A21634808
:101BE000FEF784FA2068000D0005002802D1206865
:101BF000002803D16B215D48FEF778FAA079002810
:101C000006D0A079012803D06C215848FEF76EFA5F
:101C100051480500A079002836D04F480068216857
:101C200088434D4908604D480068216888434B4906
:101C300008602079451928682168084328604848C9
:101C40000068216888434649086046480068216862
:101C5000884344490860607910280CD140480068E6
:101C6000216808433E4908603E48006821680843EF
:101C70003C4908600EE0384805006079451928683D
:101C800021680843286005E0207945192868216803
:101C90008843286031BD70B5040000250026012C62
:101CA00037D0022C35D0042C33D0082C31D0102C56
:101CB0002FD0202C2DD0402C2BD0802C29D04FF48D
:101CC0008070844225D04FF40070844221D0B4F556
:101CD000806F1ED0B4F5006F1BD0B4F5805F18D0B4
:101CE000B4F5005F15D0B4F5804F12D0B4F5004FB5
:101CF0000FD0B4F5803F0CD0B4F5003F09D0B4F557
:101D0000802F06D0B4F5002F03D0E4211748FEF74A
:101D1000EDF9114800682040060013480068204291
:101D200004D0002E02D00120050001E000200500B3
:101D30002800C0B270BD10B50400200D00050028B9
:101D400001D1002C03D1FB210848FEF7CFF906484A
:101D5000046010BD000000000004014004040140C4
:101D6000080401400C0401401404014078330008C9
:101D70002DE9F04786B004000D00002600275FF033
:101D800000085FF000095FF0000ADFF808048442F1
:101D900014D0DFF80404844210D0DFF80004844239
:101DA0000CD0DFF8FC03844208D0DFF8FC03844247
:101DB00004D0B521DFF8EC03FEF798F92868002875
:101DC00004D02868DFF8E413884204D3B621DFF892
:101DD000D403FEF78BF9A888002808D0A888B0F5AE
:101DE000805F04D0B721DFF8BC03FEF77FF9E888F5
:101DF000002810D0E888B0F5805F0CD0E888B0F5F6
:101E0000005F08D0E888B0F5405F04D0B821DFF863
:101E10009403FEF76BF9288900280CD02889B0F5C7
:101E2000806F08D02889B0F5C06F04D0B921DFF8E1
:101E30007403FEF75BF968894FF6F371084202D12B
:101E40006889002804D1BA21DFF85803FEF74EF95B
:101E5000A889002813D0A8894FF4807188420ED039
:101E6000A8894FF40071884209D0A8894FF44071C5
:101E7000884204D0BB21DFF82C03FEF737F9A8898C
:101E8000002810D0DFF80C0384420CD0DFF80803E0
:101E9000844208D0DFF80403844204D0BF21DFF875
:101EA0000403FEF723F9A246208A06004CF6FF70D1
:101EB0000640E88806432682A08906004EF6F31005
:101EC0000640A88829890843698908430643A681F2
:101ED000A08A06004FF6FF400640A8890643A68266
:101EE00000A800F057FADFF8AC02824502D103984F
:101EF000070001E002980700A089000408D5192016
:101F000000FB07F029684900B0FBF1F0804607E0CC
:101F1000192000FB07F029688900B0FBF1F080462A
:101F20006420B8FBF0F0000106003009642101FBD9
:101F300010808146A089000409D55FEAC9003230CB
:101F40006421B0FBF1F010F00700064308E05FEAFF
:101F5000091032306421B0FBF1F010F00F0006439D
:101F6000268106B0BDE8F08738B504000D00DFF823
:101F70002402844215D0DFF82002844211D0DFF819
:101F80001C0284420DD0DFF81802844209D0DFF829
:101F90001802844205D040F25F11DFF80802FEF714
:101FA000A5F8EDB2002D08D0EDB2012D05D04FF40B
:101FB000B071DFF8F001FEF799F8EDB2002D04D012
:101FC000A08950F40050A08104E0A0894DF6FF7173
:101FD0000840A08131BD2DE9F04704000D00160036
:101FE00000275FF000085FF000095FF0000ADFF8EB
:101FF000A401844215D0DFF8A001844211D0DFF89B
:102000009C0184420DD0DFF89801844209D0DFF8AA
:102010009801844205D04FF4C371DFF88801FEF7C0
:1020200065F8ADB2282D26D040F22770ADB28542BA
:1020300021D040F22660ADB285421CD040F225503E
:10204000ADB2854217D040F22440ADB2854212D0E5
:1020500040F64600ADB285420DD040F66A10ADB2F2
:10206000854208D0ADB2602D05D040F28711DFF86F
:102070003401FEF73BF8F6B2002E08D0F6B2012E7E
:1020800005D04FF4C471DFF81C01FEF72FF840F6BD
:102090006A10ADB2854211D1DFF8F80084420DD04C
:1020A000DFF8F400844209D0DFF8F000844205D064
:1020B0004FF4C671DFF8EC00FEF718F8A2462800CE
:1020C000C0B24009C0B20700ADB215F01F00804693
:1020D000012010FA08F08146012F02D11AF10C0AF2
:1020E00006E0022F02D11AF1100A01E01AF1140AD7
:1020F000F6B2002E06D0DAF8000059EA0000CAF85D
:10210000000005E0DAF8000030EA0900CAF8000033
:10211000BDE8F08738B504000D001E48844210D099
:102120001D4884420DD01D4884420AD01C48844278
:1021300007D01D48844204D04FF414711948FDF7AC
:10214000D5FF4FF40070ADB2854204D340F2512167
:102150001448FDF7CBFFE805C00DA08031BD10B5D8
:1021600004000C48844210D00B4884420DD00B4828
:1021700084420AD00A48844207D00B48844204D0E3
:1021800040F261210748FDF7B1FFA088C005C00DEE
:1021900010BD0000003801400044004000480040ED
:1021A000004C0040403400080050004021AA440088
:1021B0002DE9F84304000D00002600275FF0000819
:1021C0005FF000096D48844210D06D4884420DD004
:1021D0006C4884420AD06C48844207D06C488442E0
:1021E00004D040F2BE316948FDF780FFADB2282D22
:1021F00031D040F22770ADB285422CD040F226603B
:10220000ADB2854227D040F22550ADB2854222D0F2
:1022100040F22440ADB285421DD040F64600ADB23A
:10222000854218D040F66A10ADB2854213D04FF403
:102230005870ADB285420ED04FF41870ADB28542E1
:1022400009D04FF4B070ADB2854204D040F2BF3136
:102250004E48FDF74BFF40F66A10ADB285420DD1F6
:10226000464884420AD04648844207D045488442C2
:1022700004D040F2C3314548FDF738FF2800C0B212
:102280004009C0B28046ADB215F01F000700012022
:1022900010FA07F7B8F1010F02D1A089074007E053
:1022A000B8F1020F02D1208A074001E0A08A07405E
:1022B000ADB2280A80B20600012010FA06F6208886
:1022C0000640002F04D0002E02D00120814601E0FC
:1022D000002081464846C0B2BDE8F283F8B504004C
:1022E0000D00002600272548844210D0244884424F
:1022F0000DD0244884420AD02348844207D0244881
:10230000844204D040F207412048FDF7EFFE40F23E
:102310002660ADB2854213D040F22550ADB2854261
:102320000ED040F64600ADB2854209D040F66A10A4
:10233000ADB2854204D04FF481611448FDF7D6FE5A
:1023400040F66A10ADB285420DD10C4884420AD0E5
:102350000B48844207D00B48844204D040F20C4121
:102360000A48FDF7C3FEADB2280A06000120B040BE
:102370000700BFB2F8432080F1BD000000380140E3
:102380000044004000480040004C00404034000839
:102390000050004030B40021002200230024DFF868
:1023A00044512D6815F00C0529000D00002D04D0B6
:1023B000042D06D0082D08D02EE0DFF8305105603E
:1023C0002DE0DFF82C51056029E0DFF818512D6869
:1023D00015F470152A00DFF80C512D6815F48035BE
:1023E0002B00920C921C002B05D1DFF8085105FB45
:1023F00002F505600FE0DFF8EC502D68AD0305D560
:10240000DFF8E85005FB02F5056004E0DFF8E05076
:1024100005FB02F5056002E0DFF8D0500560DFF84B
:10242000C4502D6815F0F00529000909DFF8C850DF
:102430004D5D2C000568E5404560DFF8A8502D682B
:1024400015F4E0652900090ADFF8AC504D5D2C0059
:102450004568E5408560DFF88C502D6815F46055BF
:102460002900C90ADFF890504D5D2C004568E54011
:10247000C560DFF870502D6815F440452900890BC0
:10248000DFF878504D5D2C00C568B5FBF4F50561AB
:1024900030BC704738B504000D001948044201D122
:1024A000002C04D140F24E410F48FDF71FFEEDB263
:1024B000002D07D0EDB2012D04D040F24F410A4863
:1024C000FDF714FEEDB2002D05D00E480068204344
:1024D0000C49086004E00B480068A0430949086003
:1024E00031BD000004100240C435000800127A001B
:1024F0000024F40000093D0000000020100000202E
:102500000200C0FF1810024080B54C48006850F02F
:1025100001004A4908604A4800684A490840484959
:1025200008604648006848490840444908604348F4
:10253000006830F48020414908604148006830F468
:10254000FE003F49086041485FF41F01016000F050
:1025500001F801BD80B500F001F801BD82B0002096
:102560000190002000903548006850F480303349D5
:1025700008603248006810F4003000900198401C58
:1025800001900098002803D10198B0F5A06FF0D118
:102590002A480068800302D50120009001E0002055
:1025A00000900098012847D12948006850F0100099
:1025B0002749086026480068800880002449086090
:1025C0002348006850F00200214908601C481C495B
:1025D000096801601A481A490968016018480068CA
:1025E00050F48060164908601548006830F47C108B
:1025F000134908601248006850F4881010490860B8
:102600000E48006850F080700C4908600B48006864
:102610008001FBD50A4800688008800008490860EE
:102620000748006850F00200054908600448006847
:1026300010F00C000828F9D102B0704700100240D9
:10264000041002400000FFF8FFFFF6FE08100240F1
:102650000020024010B50400B4F5E06F10D0B4F5CE
:10266000C06F0DD0B4F5A06F0AD0B4F5806F07D05D
:102670004FF44070844203D062212A48FDF736FDB2
:10268000294820432949086010BDF8B504000025F9
:1026900000260F27E078002806D0E078012803D034
:1026A00074212048FDF722FD6078102803D375219E
:1026B0001C48FDF71BFDA078102803D3762119488C
:1026C000FDF714FDE078002820D01848006810F4C9
:1026D000E060D0F5E060000A0500D5F104000600D6
:1026E000EF406078B0400500A078384005432D01E8
:1026F00020780F494554207840110E490122237853
:1027000013F01F039A4041F8202009E0207840117F
:1027100009490122237813F01F039A4041F8202031
:10272000F1BD0000843600080000FA050CED00E061
:1027300000E400E000E100E080E100E010B504000A
:10274000DFF80004844230D0DFF8FC0384422CD050
:10275000DFF8F803844228D0DFF8F403844224D061
:10276000DFF8F003844220D0DFF8EC0384421CD071
:10277000DFF8E803844218D0DFF8E403844214D081
:10278000DFF8E003844210D0DFF8DC0384420CD091
:10279000DFF8D803844208D0DFF8D403844204D0A1
:1027A0006E21DFF8D003FDF7A1FC20684FF6FE7123
:1027B0000840206000202060002060600020A060B1
:1027C0000020E060DFF87C03844208D1DFF8A80332
:1027D000006850F00F00DFF8A01308608DE0DFF80C
:1027E0006803844208D1DFF89003006850F0F000DD
:1027F000DFF88413086080E0DFF85003844208D1DA
:10280000DFF87403006850F47060DFF86C13086040
:1028100073E0DFF83C03844208D1DFF85C03006812
:1028200050F47040DFF85013086066E0DFF82403CE
:10283000844208D1DFF84003006850F47020DFF8CC
:102840003813086059E0DFF81003844208D1DFF83C
:102850002803006850F47000DFF81C1308604CE097
:10286000DFF8F802844208D1DFF80C03006850F06A
:102870007060DFF8041308603FE0DFF8E402844290
:1028800008D1DFF8F802006850F00F00DFF8EC1212
:10289000086032E0DFF8CC02844208D1DFF8DC02C5
:1028A000006850F0F000DFF8D412086025E0DFF88F
:1028B000B802844208D1DFF8C402006850F47060A6
:1028C000DFF8B812086018E0DFF8A002844208D1EF
:1028D000DFF8A802006850F47040DFF8A01208602A
:1028E0000BE0DFF88C02844207D1DFF89002006829
:1028F00050F47020DFF88412086010BD70B5040039
:102900000D000026DFF83C02844230D0DFF83802A8
:1029100084422CD0DFF83402844228D0DFF8300221
:10292000844224D0DFF82C02844220D0DFF8280231
:1029300084421CD0DFF82402844218D0DFF8200241
:10294000844214D0DFF81C02844210D0DFF8180251
:1029500084420CD0DFF81402844208D0DFF8100261
:10296000844204D0CE21DFF80C02FDF7BFFBA8683B
:10297000102807D0A868002804D0CF21DFF8F40180
:10298000FDF7B4FBE868002803D0E868B0F5803FA5
:1029900004D3D021DFF8DC01FDF7A8FB286940282B
:1029A00007D02869002804D0D121DFF8C801FDF73D
:1029B0009DFB6869802807D06869002804D0D2216F
:1029C000DFF8B001FDF792FBA86900280ED0A869D6
:1029D0004FF48071884209D0A8694FF40071884291
:1029E00004D0D321DFF88C01FDF780FBE8690028D3
:1029F0000CD0E869B0F5806F08D0E869B0F5006FD9
:102A000004D0D421DFF86C01FDF770FB286A202880
:102A100007D0286A002804D0D521DFF85801FDF737
:102A200065FB686AB0F5405F0FD0686AB0F5005F7B
:102A30000BD0686AB0F5805F07D0686A002804D0C0
:102A4000D621DFF83001FDF751FBA86AB0F5804FC1
:102A500007D0A86A002804D0D721DFF81801FDF7B5
:102A600045FB20680600DFF818010640A868296ABF
:102A700008432969084369690843A9690843E96962
:102A80000843696A0843A96A084306432660E86860
:102A900060602868A0606868E06070BD38B50400B8
:102AA0000D00DFF8A000844231D0DFF89C008442A2
:102AB0002DD0DFF89800844229D0DFF894008442BA
:102AC00025D0DFF89000844221D0DFF88C008442CA
:102AD0001DD0DFF88800844219D0DFF884008442DA
:102AE00015D0DFF88000844211D0DFF87C008442EA
:102AF0000DD0DFF87800844209D0DFF874008442FA
:102B000005D04FF49471DFF86C00FDF7EFFAEDB2E9
:102B1000002D08D0EDB2012D05D040F22911DFF8CB
:102B20005400FDF7E3FAEDB2002D04D0206850F018
:102B30000100206004E020684FF6FE71084020602C
:102B400031BD0000080002401C000240300002407D
:102B500044000240580002406C00024080000240E5
:102B6000080402401C0402403004024044040240B5
:102B700058040240043500080400024004040240E6
:102B80000F80FFFFF8B504000D0000260027DFF8D6
:102B90007C0584420CD0DFF87805844208D0DFF849
:102BA0007405844204D0DE21DFF86C05FDF79EFA3F
:102BB0002868002828D02868B0F5803F24D02868ED
:102BC000B0F5003F20D02868B0F5403F1CD0286801
:102BD000B0F5802F18D02868B0F5A02F14D0286841
:102BE000B0F5C02F10D02868B0F5E02F0CD02868C1
:102BF000B0F5002F08D02868B0F5102F04D0DF21E1
:102C0000DFF81405FDF772FA2879002807D0287933
:102C1000012804D0E021DFF80005FDF767FA6879A4
:102C2000002807D06879012804D0E121DFF8E80402
:102C3000FDF75CFAA868002837D0A868B0F5003F17
:102C400033D0A868B0F5802F2FD0A868B0F5C02F7A
:102C50002BD0A868B0F5002F27D0A868B0F5202F9A
:102C600023D0A868B0F5402F1FD0A868B0F5602F1A
:102C70001BD0A868002818D0A868B0F5003F14D071
:102C8000A868B0F5C02F10D0A868B0F5002F0CD000
:102C9000A868B0F5202F08D0A868B0F5402F04D060
:102CA000E221DFF87404FDF721FAE868002808D073
:102CB000E868B0F5006F04D0E321DFF85C04FDF7AD
:102CC00015FA287C012802D3287C112804D3E4219A
:102CD000DFF84404FDF70AFA60680600DFF83C04F8
:102CE00006402868297950EA012006436660A068FA
:102CF0000600DFF82C040640E868A96808436979F3
:102D000050EA41000643A660E06A060036F4700609
:102D1000287C401E0743FFB256EA0756E662F1BD23
:102D200038B504000D00DFF8E40384420DD0DFF86D
:102D3000E003844209D0DFF8DC03844205D040F28E
:102D40002D11DFF8D403FDF7D1F9EDB2002D08D035
:102D5000EDB2012D05D04FF49771DFF8BC03FDF7FC
:102D6000C5F9EDB2002D04D0A06850F00100A060BC
:102D700003E0A06840084000A06031BD38B5040001
:102D80000D00DFF88803844209D0DFF8880384420D
:102D900005D04FF4A371DFF88003FDF7A7F9EDB27A
:102DA000002D08D0EDB2012D05D040F24711DFF81B
:102DB0006803FDF79BF9EDB2002D05D0A0684FF434
:102DC00080710843A06003E0A06830F48070A060C8
:102DD00031BD10B50400DFF8340384420DD0DFF8B4
:102DE0003003844209D0DFF82C03844205D040F23E
:102DF0007D11DFF82403FDF779F9A06850F0080091
:102E0000A06010BD38B504000025DFF8000384423F
:102E10000DD0DFF8FC02844209D0DFF8F8028442CA
:102E200005D040F28B11DFF8F002FDF75FF9A068E2
:102E3000000702D50120050001E000200500280060
:102E4000C0B232BD10B50400DFF8C00284420DD01C
:102E5000DFF8BC02844209D0DFF8B802844205D012
:102E600040F2A311DFF8B002FDF740F9A06850F07E
:102E70000400A06010BD38B504000025DFF88C0206
:102E800084420DD0DFF88802844209D0DFF8840242
:102E9000844205D040F2B111DFF8C402FDF726F9F3
:102EA000A068400702D50120050001E000200500D0
:102EB0002800C0B232BD38B504000D00DFF84C0266
:102EC00084420DD0DFF84802844209D0DFF8440282
:102ED000844205D040F2CB11DFF88402FDF706F9F9
:102EE000EDB2002D08D0EDB2012D05D04FF4E67102
:102EF000DFF86C02FDF7FAF8EDB2002D04D0A068FF
:102F000050F4A000A06003E0A06830F4A000A0602E
:102F100031BD2DE9F84304000D0016001F005FF0DD
:102F200000085FF00009DFF8E40184420DD0DFF80B
:102F3000E001844209D0DFF8DC01844205D040F290
:102F40005121DFF81C02FDF7D1F8EDB2002D38D089
:102F5000EDB2012D35D0EDB2022D32D0EDB2032D00
:102F60002FD0EDB2042D2CD0EDB2052D29D0EDB22D
:102F7000062D26D0EDB2072D23D0EDB2082D20D09E
:102F8000EDB2092D1DD0EDB20A2D1AD0EDB20B2DE8
:102F900017D0EDB20C2D14D0EDB20D2D11D0EDB235
:102FA0000E2D0ED0EDB20F2D0BD0EDB2102D08D09E
:102FB000EDB2112D05D040F25221DFF8A401FDF74A
:102FC00095F8F6B2012E02D3F6B2112E05D340F2D7
:102FD0005321DFF88C01FDF789F8FFB2002F1AD0DA
:102FE000FFB2012F17D0FFB2022F14D0FFB2032F70
:102FF00011D0FFB2042F0ED0FFB2052F0BD0FFB2BD
:10300000062F08D0FFB2072F05D04FF41571DFF857
:103010005001FDF76BF8EDB20A2D17D3E06880463A
:103020000720B5F10A01032251438840814638EA5E
:103030000908FFB2B5F10A000321484317FA00F06E
:10304000814659EA0808C4F80C8014E020698046DB
:103050000720032101FB05F18840814638EA090871
:10306000FFB2032000FB05F017FA00F0814659EA91
:103070000808C4F81080F6B2072E15D2606B80469F
:103080001F20711E052251438840814638EA0908F5
:10309000EDB2701E0521484315FA00F0814659EA49
:1030A0000808C4F834802FE0F6B20D2E15D2206B3C
:1030B00080461F20F11F052251438840814638EA8F
:1030C0000908EDB2F01F0521484315FA00F08146CA
:1030D00059EA0808C4F8308016E0E06A80461F20EC
:1030E000B6F10D01052251438840814638EA0908AE
:1030F000EDB2B6F10D000521484315FA00F0814606
:1031000059EA0808C4F82C80BDE8F1830024014086
:1031100000280140003C0140A4340008FFFEF0FFFD
:10312000FDF7F1FF10B50400E4B2002C07D0E4B2C3
:10313000012C04D040F291410948FCF7D7FFE4B2DA
:10314000002C06D00748006850F4000005490860CC
:1031500005E00448006830F400000249086010BD32
:10316000A4340008082401402DE9F04385B0040090
:103170000D00002600275FF00408DFF8EC91DFF86F
:10318000DC01844208D0DFF8D801844204D0C52194
:10319000DFF8D001FCF7AAFF2868002804D02868CF
:1031A000DFF8C811884204D3C621DFF8B801FCF764
:1031B0009DFFA88800280AD0A888022807D0A888E0
:1031C0000A2804D0C721DFF89C01FCF78FFFE888AC
:1031D000B0F5804F09D0E8884BF6FF71884204D0E3
:1031E000C821DFF88001FCF781FF2889B0F5806FE6
:1031F00004D3C921DFF86C01FCF778FF6889B0F5CA
:10320000806F07D06889002804D0CA21DFF85401F4
:10321000FCF76CFFA889B0F5804F08D0A889B0F5FD
:10322000404F04D0CB21DFF83C01FCF75FFFA088C2
:1032300006004FF6C070064000A8FFF7ABF80298F2
:103240008146DFF82C01B9FBF0F007003E43A68071
:1032500020884FF6FE710840208000200600286874
:10326000DFF81011884210D228684000B9FBF0F056
:1032700080461FFA88F8B8F1040F01D20420804676
:1032800058EA0606781C208426E0E8884BF6FF7191
:10329000884206D1286803214843B9FBF0F08046F4
:1032A00007E0286819214843B9FBF0F0804658F43C
:1032B00080485FEA085001D158F0010858F40040F6
:1032C0000643BFB24FF4967000FB07F04FF47A71DB
:1032D00090FBF1F0401C2084A683208850F0010070
:1032E0002080208806004FF6F5300640A8886989BE
:1032F000084306432680A88929890843208105B010
:10330000BDE8F08338B504000D00DFF850008442BA
:1033100009D0DFF84C00844205D04FF4A271DFF8E9
:103320004400FCF7E3FEEDB2002D08D0EDB2012D14
:1033300005D040F24511DFF82C00FCF7D7FEEDB2C6
:10334000002D04D0208850F00100208004E0208867
:103350004FF6FE710840208031BD0000005400404F
:10336000005800406435000800127A00811A0600F7
:1033700040420F00A1860100433A5C5573657273A9
:103380005C5454545C4465736B746F705C7A7A2E31
:1033900053544446575C30302E53747564795C4CFA
:1033A00069627261726965735C53544D33324631A0
:1033B00030785F5374645065726970685F447269F5
:1033C0007665725C7372635C73746D333266313030
:1033D000785F657874692E6300000000433A5C559D
:1033E000736572735C5454545C4465736B746F7092
:1033F0005C7A7A2E53544446575C30302E537475A1
:1034000064795C4C69627261726965735C53544D96
:103410003332463130785F53746450657269706836
:103420005F4472697665725C7372635C73746D334A
:1034300032663130785F6770696F2E63000000007C
:10344000433A5C55736572735C5454545C446573C1
:103450006B746F705C7A7A2E53544446575C3030EC
:103460002E53747564795C4C69627261726965731C
:103470005C53544D3332463130785F537464506539
:10348000726970685F4472697665725C7372635CBE
:1034900073746D3332663130785F75736172742E78
:1034A00063000000433A5C55736572735C54545476
:1034B0005C4465736B746F705C7A7A2E5354444627
:1034C000575C30302E53747564795C4C696272615C
:1034D000726965735C53544D3332463130785F53B3
:1034E00074645065726970685F4472697665725C75
:1034F0007372635C73746D3332663130785F61640C
:10350000632E6300433A5C55736572735C54545484
:103510005C4465736B746F705C7A7A2E53544446C6
:10352000575C30302E53747564795C4C69627261FB
:10353000726965735C53544D3332463130785F5352
:1035400074645065726970685F4472697665725C14
:103550007372635C73746D3332663130785F646D9F
:10356000612E6300433A5C55736572735C54545426
:103570005C4465736B746F705C7A7A2E5354444666
:10358000575C30302E53747564795C4C696272619B
:10359000726965735C53544D3332463130785F53F2
:1035A00074645065726970685F4472697665725CB4
:1035B0007372635C73746D3332663130785F693275
:1035C000632E6300433A5C55736572735C545454C4
:1035D0005C4465736B746F705C7A7A2E5354444606
:1035E000575C30302E53747564795C4C696272613B
:1035F000726965735C53544D3332463130785F5392
:1036000074645065726970685F4472697665725C53
:103610007372635C73746D3332663130785F7263DA
:10362000632E6300433A5C55736572735C54545463
:103630005C4465736B746F705C7A7A2E53544446A5
:10364000575C30302E53747564795C4C69627261DA
:10365000726965735C53544D3332463130785F5331
:1036600074645065726970685F4472697665725CF3
:103670007372635C73746D3332663130785F746972
:103680006D2E6300433A5C55736572735C545454F9
:103690005C4465736B746F705C7A7A2E5354444645
:1036A000575C30302E53747564795C4C696272617A
:1036B000726965735C53544D3332463130785F53D1
:1036C00074645065726970685F4472697665725C93
:1036D0007372635C6D6973632E63000010B450F8FD
:1036E000041B81B102681218001D50F8043BDC076E
:1036F00044BFA9F10104E31852F8044B43F8044B0A
:10370000091FF9D1EBE710BC704750F8041B61B1F9
:1037100050F8042BD30744BFA9F101039A180023E2
:1037200042F8043B091FFAD1EFE7704710B508498A
:1037300079441C31074C7C441A34A14206D0081D40
:103740000A68511888470146A142F8D110BD00BF50
:103750000800000028000000B3FFFFFF5C1B000012
:10376000180000200000000075FFFFFF1800000097
:1037700040010000000000200000000000F009F8F7
:10378000002801D0FFF7D2FF002000F005F800F07C
:1037900007F801207047000080B5FDF7DBFEFEE76B
:1037A00000F000B80746384600F002F8FBE70000DA
:1037B00080B5C046C046024A11001820ABBEFBE7E8
:1037C00026000200014880470148004709250008FB
:1037D000D5370008C046C046C046C046FFF7CEFFFA
:1037E000FCF785BCFCF784BCFCF783BCFCF782BC0F
:1037F000FCF781BCFCF780BCFCF77FBCFCF77EBC0F
:10380000FCF77DBCFCF783BCFCF782BCFCF781BCF9
:10381000FCF780BCFCF77FBCFCF77EBCFCF7A8BEC5
:10382000FFF7FEBFFFF7FEBFFFF7FEBFFFF7FEBFCC
:10383000FFF7FEBFFCF771BCFCF770BCFCF76FBC78
:10384000FCF76EBCFCF76DBCFCF76CBCFCF76BBC0A
:10385000FCF76ABCFFF7FEBFFCF767BCFCF766BC71
:10386000FFF7FEBFFCF763BCFCF762BCFCF761BC72
:10387000FCF760BCFCF75FBCFCF756BEFCF766BE0D
:10388000FCF792BEFCF791BEFCF790BEFCF78FBE32
:10389000FCF78EBEFCF78DBEFDF74CB8FDF78EB879
:1038A000FDF7D2B8FCF786BEFCF785BEFFF7FEBF7A
:1038B00000000000010203040102030406070809D6
:0838C0000204060800A24A04FC
:04000005080037D5E3
:00000001FF
