:020000040800F2
:10000000E01E0020D5190008EF000008F1000008EC
:10001000F3000008F5000008F700000800000000E9
:10002000000000000000000000000000F9000008CF
:10003000FB00000800000000FD000008FF000008B1
:100040000F01000811010008130100081501000844
:1000500017010008190100082D1A0008311A0008BC
:10006000351A0008391A00083D1A0008411A00081C
:100070001B0100081D0100081F01000821010008E4
:1000800023010008250100082701000829010008B4
:10009000651A00082B0100082D010008711A0008DC
:1000A0002F01000831010008330100083501000864
:1000B0003701000805050008290500084D0500085E
:1000C0004F050008510500085305000855050008B4
:1000D00057050008D908000861090008ED09000863
:1000E000590500085B050008BD1A0008FEE77047C7
:1000F000FEE7FEE7FEE7FEE770477047704780B512
:1001000000F006FD00F018FD00F00CFD01BD704789
:100110007047704770477047704770477047704727
:100120007047704770477047704770477047704717
:1001300070477047704780B501215FF0804000F044
:100140000BFD002800F0DD8101215FF0804000F010
:1001500085FDDFF8F4070078401CDFF8EC17087025
:10016000DFF8E407007864280BD3DFF8DC07002110
:100170000170DFF8D407407890F0FF00DFF8C8176F
:100180004870DFF8C8070078012815D1DFF8BC07F0
:100190004068401CDFF8B4174860DFF8B0074068DB
:1001A0004FF47A71884207D3DFF8A007002141603D
:1001B000DFF8980700210170DFF8940740780028E5
:1001C00002D0012811D05FE00121DFF8880700F09C
:1001D0008EFEDFF8881708710221DFF8780700F03B
:1001E00086FEDFF8781748714EE00121DFF86407DA
:1001F00000F07DFEDFF864170871DFF85C074078D7
:10020000DFF858170979884235D0DFF850070079B0
:10021000002828D1DFF840074078012823D1DFF8F3
:100220003807C07801280BD3DFF82C07C0780F28D7
:1002300006D2DFF82407C078401EDFF81C17C8700C
:10024000DFF81407C07800280DD0DFF80C0700791C
:10025000002808D1DFF800074079002803D0DFF834
:10026000F806012101710121DFF8E80600F03FFEE8
:10027000DFF8E41648700221DFF8D80600F037FEF8
:10028000DFF8D8164871FFE7DFF8CC0600790128BF
:1002900026D1DFF8C4068079401CDFF8BC168871CF
:1002A000DFF8B406807965281AD3DFF8AC060021A0
:1002B0008171DFF8A406C079401CDFF89C16C87174
:1002C000DFF89406C079DFF890164979884207D3A1
:1002D000DFF8840600210171DFF87C060021C1717E
:1002E000DFF87806407B00282AD0DFF87006807B94
:1002F000401CDFF868168873DFF86006807B64288E
:100300001ED3DFF85806C07B401CDFF85016C873B8
:10031000DFF8480600218173DFF84006C07BDFF874
:100320003C16097B88420BD3DFF8300601210174AB
:10033000DFF828060021C173DFF820060021417391
:10034000DFF81806807A002810D1DFF81006407B0D
:1003500000280BD0DFF8040600214173DFF8FC050C
:1003600000218173DFF8F4050021C173DFF8C806AE
:100370000078012817D1DFF8C0064068401CDFF87C
:10038000B8164860DFF8B0064068C8280BD3DFF81D
:10039000A80601210172DFF8A00600214160DFF804
:1003A000980600210170DFF89006407A012816D1E6
:1003B000DFF88406C068401CDFF87C16C860DFF8F0
:1003C00078060069DFF87016C968884207D2DFF83E
:1003D000680601210175DFF860060021C160DFF8C1
:1003E0005C068078012813D1DFF85006C078401CE5
:1003F000DFF84816C870DFF84406C078322807D303
:10040000DFF838060021C170DFF830060021817066
:10041000DFF84805807C002823D1DFF84005C07C48
:1004200000280ED1DFF83405007D002809D1DFF85F
:100430002C05407D002804D1DFF82005807D0028B0
:100440000FD0DFF818050021C174DFF81005002176
:100450000175DFF8080500214175DFF8000500216E
:100460008175DFF8F804807C01284AD1DFF8EC04BC
:10047000C07C401CDFF8E414C874DFF8E004C07CE2
:1004800064283ED3DFF8D4040021C174DFF8CC0423
:10049000007D401CDFF8C4140875DFF8C004007D3F
:1004A0003C282ED3DFF8B40400210175DFF8AC043A
:1004B000407D401CDFF8A4144875DFF8A004407D9F
:1004C0003C281ED3DFF8940400214175DFF88C042A
:1004D000807D401CDFF884148875DFF88004807DFF
:1004E000DFF87814497C88420BD3DFF870040021D0
:1004F0008175DFF8680400218174DFF86004012150
:10050000C17501BD80B50121DFF8340500F024FB81
:10051000002808D00121DFF82C0500F09FFB00F037
:10052000D8FD00F0CFFD01BD80B50121DFF8140535
:1005300000F012FB002808D00121DFF8080500F0C8
:100540008DFB00F0B1FD00F0B6FD01BD70477047B6
:10055000704770477047704770477047C0B2C9B264
:1005600088420FD1DFF8E42482F88400DFF8DC242D
:10057000127F521CDFF8D4341A77DFF8D02401231D
:1005800053770CE0DFF8C42400231377DFF8BC2492
:10059000002382F88330DFF8B4240023D37470473B
:1005A000DFF8A80490F88300CA280ED1DFF89C0475
:1005B00090F88700D12808D1DFF88C044078002813
:1005C00003D1DFF8840402210170704738B50400BC
:1005D0000D00E4B2002C2BD1DFF87004002101776C
:1005E000DFF86804007FDFF86414401880F8835057
:1005F000DFF85804007F401CDFF850140877DFF85C
:1006000054040068DFF84C1440180571DFF8440406
:100610000068401CDFF83C140860DFF8380400680C
:100620004FF49671884203D3DFF82804002101605B
:10063000E4B2012C38D1DFF81C040068DFF8141490
:1006400040180571DFF80C040068401CDFF8041442
:100650000860DFF8000400684FF49671884203D305
:10066000DFF8F00300210160DFF8E003007F0128DC
:100670001AD1DFF8D803C07C0A2809D00B280DD086
:10068000AC2811D1AC212800C0B2FFF767FF0BE006
:100690000A212800C0B2FFF761FF05E00B21280006
:1006A000C0B2FFF75BFFFFE7E4B2022C53D1DFF8E3
:1006B000A4030068DFF89C1340180571DFF8940369
:1006C0000068401CDFF88C130860DFF888030068BE
:1006D0004FF49671884203D3DFF87803002101605C
:1006E000DFF86803C07CFF281BD1DFF86003007FC0
:1006F000022830D1DFF8540302214177DFF84C03A0
:10070000407F401DDFF844138877DFF8400380F80E
:100710008550DFF83803007F401CDFF8301308777E
:1007200019E0DFF82803007F022814D1DFF81C034A
:100730004577DFF81803407F401DDFF810138877F6
:10074000DFF8080380F88550DFF80003007F401CC5
:10075000DFF8F8120877E4B2032C72D1DFF8F40264
:100760000068DFF8F01240180571DFF8E802006851
:10077000401CDFF8E0120860DFF8D80200684FF490
:100780009671884203D3DFF8CC0200210160DFF8C4
:10079000BC02007FDFF8B412401880F88350DFF805
:1007A000AC02007F401CDFF8A4120877DFF89C023F
:1007B000007FDFF89812897F884242D1DFF88C02EF
:1007C000C07CFF2802D100F047F92EE0DFF87C0260
:1007D000007FDFF87812401890F8820010F00F00C8
:1007E0000F2817D1DFF86002407801280BD1DFF81D
:1007F0005C020121C173DFF85402007C401CDFF869
:100800004C12087401E0FFF7CBFEDFF84002002134
:1008100001770AE0DFF83402FF21C173DFF82C0210
:10082000807E401CDFF824128876DFF82002002149
:100830000177DFF8180200214177DFF8100200216C
:10084000C17431BD38B504000025DFF80002C07C5A
:10085000002823D1E4B22000A0280CD0B02813D067
:10086000CA281AD1CA210020FFF7B0FEDFF8DC0148
:10087000AC21C1742FE0A0210020FFF7A7FEDFF814
:10088000CC010A21C17426E0B0210020FFF79EFEB2
:10089000DFF8B8010B21C1741DE01CE0DFF8AC01EA
:1008A000407F002802D1012005000EE0DFF89C0106
:1008B000007F032802D30320050006E0DFF88C0147
:1008C000007E002801D1022005002100C9B22800C5
:1008D000C0B2FFF77BFE31BD10B5002440F22661A7
:1008E0005B4800F057FC00281ED058480078574954
:1008F000497888420DD255480078411C534A1170FE
:10090000C0B252494018C17F89B2514800F0F6FB8D
:1009100005E04E48002141704C480021017040F232
:1009200026614B4800F0CCFC40F22551484800F0CD
:1009300031FC002807D0464800F005FC04002000E8
:10094000C0B2FFF77FFF10BDC81A0020681A002050
:10095000CC1A002000100140C01A0020901A00207C
:1009600038B50024002540F22661DFF8580100F078
:1009700011FC00282CD0DFF848014078DFF8401146
:100980008978884216D2DFF838014078DFF83011D4
:100990004018007D0500DFF828014078401CDFF892
:1009A00020114870EDB2290089B2DFF8180100F07B
:1009B000A5FB07E0DFF8080100214170DFF8000126
:1009C0000021817040F22661DFF8F80000F078FC29
:1009D00040F22551DFF8EC0000F0DCFB002804D0E9
:1009E000DFF8E00000F0AFFB040031BD38B50024B3
:1009F000002540F22661DFF8D00000F0CBFB002894
:100A00000CD0EDB2290089B2DFF8BC0000F076FB13
:100A100040F22661DFF8B00000F052FC40F22551B0
:100A2000DFF8A40000F0B6FB002804D0DFF898003F
:100A300000F089FB040031BD381A0020681900203D
:100A4000000400400008004014000020A41700200B
:100A500000380140741600200021002001221100FE
:100A6000C9B2062908D2C9B2DFF860208A1892F804
:100A700075201018491CF3E7DFF8502092F87B200E
:100A8000C0B282420FD1DFF8442001231372DFF895
:100A90003C20527A521CDFF834305A72DFF82C2096
:100AA000002353730AE0DFF82420FF231372DFF8DA
:100AB0001C20D27A521CDFF81430DA727047000022
:100AC0008C1800200044004000480040A41300207F
:100AD00001B400221000BDF80020904207D200228D
:100AE0001100082901D2491CFBE7401CF3E701B0C3
:100AF000704711B581B000200400BDF804008442A5
:100B000005D24FF47A70FFF7E3FF641CF5E713BDDD
:100B10000F480068002804D00D480068401E0C49AA
:100B20000860704709480068002804D0074800683A
:100B3000401E06490860704706480068002804D037
:100B400004480068401E034908607047D01A00201E
:100B5000D81A0020D41A00202DE9F04104000D001D
:100B6000002600275FF00008DFF88C01844241D0A6
:100B7000B4F1804F3ED0DFF8880184423AD0DFF8EC
:100B80008401844236D0DFF88001844232D0DFF81D
:100B90007C0184422ED0DFF8780184422AD0DFF82D
:100BA0005C01844226D0DFF87001844222D0DFF855
:100BB0006C0184421ED0DFF8680184421AD0DFF84D
:100BC0006401844216D0DFF86001844212D0DFF85D
:100BD0005C0184420ED0DFF8580184420AD05548A7
:100BE000844207D04B48844204D040F64B21414810
:100BF000FFF77CFAADB2012D19D0ADB2022D16D09F
:100C0000ADB2042D13D0ADB2082D10D0ADB2102D61
:100C10000DD0ADB2202D0AD0ADB2402D07D0ADB26F
:100C2000802D04D040F64C213248FFF75FFA208A2D
:100C300028400700A08928408046BFB2002F07D077
:100C40001FFA88F8B8F1000F02D00120060001E079
:100C5000002006003000C0B2BDE8F08138B50400C5
:100C60000D002548844234D0B4F1804F31D024485F
:100C700084422ED0234884422BD02348844228D05B
:100C80002248844225D02248844222D01B488442F4
:100C90001FD0214884421CD02048844219D02048CB
:100CA000844216D01F48844213D01F48844210D07B
:100CB0001E4884420DD01E4884420AD01D488442FA
:100CC00007D01448844204D040F675210948FFF744
:100CD0000DFA4FF47F40054202D1ADB2002D04D190
:100CE00040F676210348FFF701FAADB2E8432082CF
:100CF00031BD000044180008002C014000340140C0
:100D00000004004000080040000C004000100040BB
:100D10000014004000480140004C014000500140D8
:100D20000054014000180040001C0040002000401A
:100D300000400140004401402DE9F84F04000D003F
:100D4000002600275FF000085FF000095FF0000A4E
:100D50005FF0000BDFF8300384421CD0DFF82C0377
:100D6000844218D0DFF82803844214D0DFF824032B
:100D7000844210D0DFF8200384420CD0DFF81C033B
:100D8000844208D0DFF81803844204D0B121DFF890
:100D90001403FFF7ABF9E878002819D0E8780428A5
:100DA00016D0E878282813D0E878482810D0E878BA
:100DB00014280DD0E87810280AD0E8781C2807D02D
:100DC000E878182804D0B221DFF8D802FFF78EF9AE
:100DD0002888002804D1B321DFF8C802FFF786F97C
:100DE000E87810F00F000600E878C0060FD5A87864
:100DF00001280AD0A878022807D0A878032804D0B0
:100E0000BA21DFF8A002FFF771F9A8780643287825
:100E1000000631D02068824600208046B8F1080FD5
:100E200028D2012010FA08F08146288819EA00002B
:100E300007004F451BD15FEA880081460F2010FA5A
:100E400009F083463AEA0B0A16FA09F050EA0A0A50
:100E5000E878282804D1012010FA08F0606106E043
:100E6000E878482803D1012010FA08F0206118F131
:100E70000108D3E7C4F800A028884FF480718842A5
:100E800033D36068824600208046B8F1080F2AD22A
:100E9000012018F1080188408146288819EA0000DD
:100EA00007004F451CD15FEA880081460F2010FAE9
:100EB00009F083463AEA0B0A16FA09F050EA0A0AE0
:100EC000E878282804D1012018F1080188406061E1
:100ED000E878482804D1012018F1080188402061F1
:100EE00018F10108D1E7C4F804A0BDE8F18F70B58E
:100EF00004000D000026DFF8900184421DD0DFF8C9
:100F00008C01844219D0DFF88801844215D0DFF8C3
:100F10008401844211D0DFF8800184420DD0DFF8D3
:100F20007C01844209D0DFF87801844205D040F288
:100F30001D11DFF87001FFF7D9F8ADB2012D3CD0DB
:100F4000ADB2022D39D0ADB2042D36D0ADB2082DE0
:100F500033D0ADB2102D30D0ADB2202D2DD0ADB2EA
:100F6000402D2AD0ADB2802D27D04FF48070ADB285
:100F7000854222D04FF40070ADB285421DD0ADB293
:100F8000B5F5806F19D0ADB2B5F5006F15D0ADB223
:100F9000B5F5805F11D0ADB2B5F5005F0DD0ADB243
:100FA000B5F5804F09D0ADB2B5F5004F05D04FF47F
:100FB0008F71DFF8F000FFF799F8A06880B228423F
:100FC00002D00120060001E0002006003000C0B27F
:100FD00070BD38B504000D00DFF8AC0084421CD0B1
:100FE000DFF8A800844218D0DFF8A400844214D0AF
:100FF000DFF8A000844210D0DFF89C0084420CD0BF
:101000002648844209D0DFF89800844205D04FF486
:10101000B471DFF89000FFF769F8ADB2002D05D18B
:1010200040F26911DFF87C00FFF760F8ADB225618E
:1010300031BD38B504000D001348844218D0134860
:10104000844215D01248844212D0124884420FD0F4
:10105000114884420CD01148844209D0DFF8400086
:10106000844205D04FF4BC71DFF83800FFF73EF83A
:10107000ADB2002D05D140F27911DFF82800FFF75D
:1010800035F8ADB2656131BD00080140000C01408A
:10109000001001400014014000180140001C0140F4
:1010A000002001401C17000880B54FF40071124861
:1010B000FFF78FFF01BD80B54FF400710E48FFF7B9
:1010C000B8FF01BD80B54FF480710B48FFF781FF79
:1010D00001BD80B54FF480710748FFF7AAFF01BD3D
:1010E00080B520210448FFF774FF01BD80B52021A1
:1010F0000148FFF79EFF01BD000C014038B5040018
:101100000D001E48844210D01D4884420DD01D4859
:1011100084420AD01C48844207D01D48844204D02F
:101120004FF414711948FEF7E1FF4FF40070ADB2AF
:10113000854204D340F251211448FEF7D7FFE80559
:10114000C00DA08031BD10B504000C48844210D001
:101150000B4884420DD00B4884420AD00A4884428E
:1011600007D00B48844204D040F261210748FEF7C3
:10117000BDFFA088C005C00D10BD000000380140B3
:101180000044004000480040004C00408017000828
:10119000005000402DE9F84304000D000026002710
:1011A0005FF000085FF000096D48844210D06D4880
:1011B00084420DD06C4884420AD06C48844207D0E7
:1011C0006C48844204D040F2BE316948FEF78EFF7D
:1011D000ADB2282D31D040F22770ADB285422CD06F
:1011E00040F22660ADB2854227D040F22550ADB224
:1011F000854222D040F22440ADB285421DD040F657
:101200004600ADB2854218D040F66A10ADB28542B4
:1012100013D04FF45870ADB285420ED04FF4187011
:10122000ADB2854209D04FF4B070ADB2854204D062
:1012300040F2BF314E48FEF759FF40F66A10ADB29A
:1012400085420DD1464884420AD04648844207D0A0
:101250004548844204D040F2C3314548FEF746FF7A
:101260002800C0B24009C0B28046ADB215F01F00E0
:101270000700012010FA07F7B8F1010F02D1A08989
:10128000074007E0B8F1020F02D1208A074001E0D1
:10129000A08A0740ADB2280A80B20600012010FAE9
:1012A00006F620880640002F04D0002E02D0012030
:1012B000814601E0002081464846C0B2BDE8F28385
:1012C000F8B504000D00002600272548844210D000
:1012D000244884420DD0244884420AD023488442C2
:1012E00007D02448844204D040F207412048FEF74A
:1012F000FDFE40F22660ADB2854213D040F225508B
:10130000ADB285420ED040F64600ADB2854209D05E
:1013100040F66A10ADB2854204D04FF481611448A2
:10132000FEF7E4FE40F66A10ADB285420DD10C48DE
:1013300084420AD00B48844207D00B48844204D030
:1013400040F20C410A48FEF7D1FEADB2280A060071
:101350000120B0400700BFB2F8432080F1BD00007B
:10136000003801400044004000480040004C00406C
:10137000801700080050004030B4002100220023F4
:101380000024DFF890512D6815F00C0529000D00A0
:10139000002D04D0042D06D0082D08D02EE0DFF853
:1013A0007C5105602DE0DFF87851056029E0DFF819
:1013B00064512D6815F470152A00DFF858512D6816
:1013C00015F480352B00920C921C002B05D1DFF810
:1013D000545105FB02F505600FE0DFF838512D6828
:1013E000AD0305D5DFF8345105FB02F5056004E0D7
:1013F000DFF82C5105FB02F5056002E0DFF81C5117
:101400000560DFF810512D6815F0F0052900090975
:10141000DFF814514D5D2C000568E5404560DFF8AC
:10142000F4502D6815F4E0652900090ADFF8F8503A
:101430004D5D2C004568E5408560DFF8D8502D688B
:1014400015F460552900C90ADFF8DC504D5D2C0009
:101450004568E540C560DFF8BC502D6815F440458F
:101460002900890BDFF8C4504D5D2C00C568B5FB21
:10147000F4F5056130BC704738B504000D002C4808
:10148000044201D1002C04D140F24E412248FEF723
:101490002DFEEDB2002D07D0EDB2012D04D040F2AB
:1014A0004F411D48FEF722FEEDB2002D05D0214828
:1014B000006820431F49086004E01E480068A043FC
:1014C0001C49086031BD38B504000D001A480442BB
:1014D00001D1002C04D140F26D410F48FEF706FE09
:1014E000EDB2002D07D0EDB2012D04D040F26E41D7
:1014F0000948FEF7FBFDEDB2002D05D00F4800684E
:1015000020430E49086004E00C480068A0430B49E2
:10151000086031BD04100240E417000800127A0090
:101520000024F40000093D0000000020100000200D
:101530000200C0FF18100240003601811C1002405A
:1015400080B54C48006850F001004A4908604A489C
:1015500000684A49084048490860464800684849C8
:101560000840444908604348006830F480204149FD
:1015700008604148006830F4FE003F490860414877
:101580005FF41F01016000F001F801BD80B500F0BB
:1015900001F801BD82B00020019000200090354884
:1015A000006850F48030334908603248006810F415
:1015B000003000900198401C01900098002803D151
:1015C0000198B0F5A06FF0D12A480068800302D5D9
:1015D0000120009001E0002000900098012847D1F0
:1015E0002948006850F01000274908602648006824
:1015F00080088000244908602348006850F00200F9
:10160000214908601C481C49096801601A481A49A8
:10161000096801601848006850F480601649086045
:101620001548006830F47C101349086012480068BF
:1016300050F48810104908600E48006850F080701F
:101640000C4908600B4800688001FBD50A48006817
:1016500080088000084908600748006850F00200D0
:10166000054908600448006810F00C000828F9D10A
:1016700002B0704700100240041002400000FFF862
:10168000FFFFF6FE081002400020024080B500F087
:1016900006F81E48FFF770FE00F00DF801BD80B59A
:1016A000FFF74EFF01213D20FFF7E6FE0121042058
:1016B000FFF709FF01BD80B51548012101801448DD
:1016C0002821C17012480221817011491148FFF789
:1016D00033FB0F48022101800D482821C1700C48BE
:1016E000022181700A490B48FFF726FB08484FF496
:1016F0004871018006481021C1700548022181709F
:1017000003490548FFF718FB01BD0000AC1A002093
:10171000DC1A002000080140000C0140433A5C55EF
:10172000736572735C5454545C4465736B746F706E
:101730005C7A7A2E53544446575C30302E5374757D
:1017400064795C4C69627261726965735C53544D73
:101750003332463130785F53746450657269706813
:101760005F4472697665725C7372635C73746D3327
:1017700032663130785F6770696F2E630000000059
:10178000433A5C55736572735C5454545C4465739E
:101790006B746F705C7A7A2E53544446575C3030C9
:1017A0002E53747564795C4C6962726172696573F9
:1017B0005C53544D3332463130785F537464506516
:1017C000726970685F4472697665725C7372635C9B
:1017D00073746D3332663130785F75736172742E55
:1017E00063000000433A5C55736572735C54545453
:1017F0005C4465736B746F705C7A7A2E5354444604
:10180000575C30302E53747564795C4C6962726138
:10181000726965735C53544D3332463130785F538F
:1018200074645065726970685F4472697665725C51
:101830007372635C73746D3332663130785F7263D8
:10184000632E6300433A5C55736572735C54545461
:101850005C4465736B746F705C7A7A2E53544446A3
:10186000575C30302E53747564795C4C69627261D8
:10187000726965735C53544D3332463130785F532F
:1018800074645065726970685F4472697665725CF1
:101890007372635C73746D3332663130785F746970
:1018A0006D2E630080B5FFF7F1FEFFF7FDFB4FF4EF
:1018B000FA70FFF71EF9FFF7FEFB4FF4FA70FFF71F
:1018C00018F9FFF7FFFB4FF4FA70FFF712F9FFF773
:1018D00000FC4FF4FA70FFF70CF9FFF701FC4FF42E
:1018E000FA70FFF706F9FFF701FC4FF4FA70FFF703
:1018F00000F9DAE710B450F8041B81B1026812183D
:10190000001D50F8043BDC0744BFA9F10104E318B3
:1019100052F8044B43F8044B091FF9D1EBE710BC14
:10192000704750F8041B61B150F8042BD30744BF33
:10193000A9F101039A18002342F8043B091FFAD1C8
:10194000EFE7704710B5084979441C31074C7C44D7
:101950001A34A14206D0081D0A685118884701466A
:10196000A142F8D110BD00BF08000000280000000F
:10197000B3FFFFFFCC1A000014000020000000009D
:1019800075FFFFFF14000000380100000000002078
:101990000000000000F009F8002801D0FFF7D2FF96
:1019A0000020FFF77FFF00F002F80120704700F0F1
:1019B00001B800000746384600F002F8FBE70000D7
:1019C00080B5C046C046024A11001820ABBEFBE7F6
:1019D00026000200014880470148004741150008E1
:1019E000E5190008C046C046C046C046FFF7D2FF12
:1019F000FEF77DBBFEF77CBBFEF77BBBFEF77ABB39
:101A0000FEF779BBFEF778BBFEF777BBFEF776BB38
:101A1000FEF775BBFEF77BBBFEF77ABBFEF779BB23
:101A2000FEF778BBFEF777BBFEF776BBFFF7FEBF8E
:101A3000FFF7FEBFFFF7FEBFFFF7FEBFFFF7FEBFDA
:101A4000FFF7FEBFFEF769BBFEF768BBFEF767BB9B
:101A5000FEF766BBFEF765BBFEF764BBFEF763BB34
:101A6000FEF762BBFFF7FEBFFEF75FBBFEF75EBB94
:101A7000FFF7FEBFFEF75BBBFEF75ABBFEF759BB95
:101A8000FEF758BBFEF757BBFEF73CBDFEF74CBD5B
:101A9000FEF75CBDFEF75BBDFEF75ABDFEF759BD14
:101AA000FEF758BDFEF757BDFEF716BFFEF758BF4D
:101AB000FEF79CBFFEF750BDFEF74FBDFFF7FEBF20
:101AC00000000000010203040102030406070809E4
:041AD00002040608FE
:04000005080019E5F1
:00000001FF
